:020000040800F2
:10000000D84D002031030008713B000895330008EB
:10001000013B0008E908000809460008000000004C
:100020000000000000000000000000007102000855
:10003000270E000800000000CD020008713F0008F4
:100040004B0300084B0300084B0300084B03000858
:100050004B0300084B0300084B0300084B03000848
:100060004B0300084B0300084B030008B90C0008C1
:10007000C90C0008D90C0008E90C0008F90C0008AC
:10008000090D00084B0300084B0300084B03000850
:10009000ED0800084B0300084B0300084B03000861
:1000A0004B0300084B0300084B0300084B030008F8
:1000B000754000084B0300084B0300084B03000881
:1000C0004B0300084B0300084B0300084B030008D8
:1000D0004B030008A1450008B1450008C1450008D0
:1000E0004B0300084B0300084B0300084B030008B8
:1000F0004B0300084B0300084B030008190D0008D0
:100100004B0300084B0300084B0300084B03000897
:100110005D4100086D4100084B0300084B030008D7
:100120004B0300084B030008290D00084B0300088F
:100130004B0300084B0300084B0300084B03000867
:100140004B0300084B0300084B0300084B03000857
:100150004B0300084B030008390D00084B0300084F
:100160004B0300084B0300084B0300084B03000837
:100170004B0300084B0300084B030008000000007D
:100180004B0300084B03000800F002F800F060F891
:100190000AA090E8000C82448344AAF10107DA45E2
:1001A00001D100F055F8AFF2090EBAE80F0013F0D4
:1001B000010F18BFFB1A43F00103184784CA00005F
:1001C000A4CA00000A444FF0000C10F8013B13F0E1
:1001D000070408BF10F8014B1D1108BF10F8015BA0
:1001E000641E05D010F8016B641E01F8016BF9D193
:1001F00013F0080F1EBF10F8014BAD1C0C1B09D1EA
:100200006D1E58BF01F801CBFAD505E014F8016B5B
:1002100001F8016B6D1EF9D59142D6D370470000ED
:100220000023002400250026103A28BF78C1FBD8FF
:10023000520728BF30C148BF0B6070471FB50AF096
:100240004DFC9DE8030000F0D9F91FBD10B510BDAD
:1002500000F030FA1146FFF7F1FF06F053FD00F011
:100260004EFA03B4FFF7F2FF03BC00F07FFA000080
:100270002C4B19680868B0E8F04F80F30988BFF389
:100280006F8F4FF0000080F311887047000000006E
:1002900008480068006880F308884FF0000080F389
:1002A000148862B661B6BFF34F8FBFF36F8F00DF64
:1002B00000BF00BF08ED00E0DFF80C00016841F46A
:1002C00070010160704700BF88ED00E0EFF3098026
:1002D000BFF36F8F134B1A681EF0100F08BF20ED8D
:1002E000108A20E9F04F106009B44FF0500080F3FD
:1002F0001188BFF34F8FBFF36F8F09F007FF4FF0E7
:10030000000080F3118809BC19680868B0E8F04F54
:100310001EF0100F08BFB0EC108A80F30988BFF3FD
:100320006F8F704738010020EFF3058070470000A1
:100330000948804709480047FEE7FEE7FEE7FEE779
:10034000FEE7FEE7FEE7FEE7FEE7FEE704480549B5
:10035000054A064B7047000061400008890100080B
:10036000D8470020D84D0020D8490020D849002087
:1003700070B5064600F026F9056806F10B0020F07E
:100380000704B4429CBF002070BD2B466A68BAB116
:100390001068A04210D304F1080188423CBF5068A5
:1003A000586007D35168101941601168091B01603A
:1003B00058601460101D70BD13465268002AE7D1C2
:1003C0002146284600F006F90028DED170BD70B540
:1003D0000446051F00F0F6F80068002C14BF4468BE
:1003E00070BD002C18BFAC423CBF20466468F8D3F7
:1003F00001680A18AA4218BF456003D12A68054659
:100400001144016028684119A1421CBF6C6070BD95
:100410006168696021680844286070BD53EA020C75
:1004200000F069802DE9F04B4FF00006002B1FBF54
:10043000B3FA83F503FA05F424FA05F65E4012BF19
:100440001643B2FA82F502FA05F4C5F120051EBF83
:1004500022FA05FC44EA0C04203556EA044C4FEA23
:10046000144418BF641C4FF000084FF0000990427C
:1004700071EB030C39D3002919BFB1FA81F701FAE6
:1004800007F6B0FA80F700FA07F6C7F120071EBF9B
:1004900020FA07FC46EA0C062037B6FBF4FCA7EB73
:1004A0000507103F07F01F0BCBF120060CFA0BFBE2
:1004B0002CFA06F644BFB3460026202FA4BF5E46A2
:1004C0004FF0000B5BEA060C08BF4FF0010B19EB75
:1004D0000B09ABFB027C48EB0608C01B06FB02CCF9
:1004E0000BFB03CC71EB0C01C1E70B460246414606
:1004F0004846BDE8F08B13B54FF000004FF0000107
:10050000AFF30080BDE81C40704710B5203AC0F042
:100510000B80B1E81850203AA0E81850B1E8185004
:10052000A0E81850BFF4F5AF5FEA027C24BFB1E841
:100530001850A0E8185044BF18C918C0BDE81040B2
:100540005FEA827C24BF51F8043B40F8043B08BFBB
:100550007047D20728BF31F8023B48BF11F8012B82
:1005600028BF20F8023B48BF00F8012B70474FF02E
:10057000000200B5134694469646203922BFA0E8F3
:100580000C50A0E80C50B1F12001BFF4F7AF0907FF
:1005900028BFA0E80C5048BF0CC05DF804EB8900F0
:1005A00028BF40F8042B08BF704748BF20F8022B33
:1005B00011F0804F18BF00F8012B7047704770474B
:1005C0007047000000487047804700207047704720
:1005D0007047704738B504460A4600206946AFF3B5
:1005E0000080002808BF38BD02460099204600F070
:1005F0003FF8012038BD012000F054B8F8B5AFF342
:100600000080054600200C46102000BF0646A819B1
:10061000A0420DD9324669460020AFF300800700A2
:1006200008BF00F03FF80098A04218BF0546C41963
:10063000FFF7C8FF05600746F01D20F007004619C8
:10064000284600F00AF8B44208BFF8BDA21B3146A4
:100650003868BDE8F84000F00BB800210160C0E93F
:1006600001107047102070470048704778470020FD
:10067000034640688C46002818BF88423CBF0346AA
:100680004068F8D318681844884207D00CF103007A
:1006900020F00700001D411A521A0146081D0A6089
:1006A000FFF795BE10B500F039F8BDE8104000F036
:1006B0002FB870477546FFF7D7FFAE46050069466D
:1006C000534620F00700854618B020B5FFF73EFEE0
:1006D000BDE820404FF000064FF000074FF0000843
:1006E0004FF0000B21F00701AC46ACE8C009ACE8C4
:1006F000C009ACE8C009ACE8C0098D46704710B528
:100700000446AFF300802046BDE81040FFF7A9BDC6
:10071000002801D000F02AB87047000010B5012869
:1007200005D0002103A000F027F8012010BD09A189
:10073000F8E7000053494752544D454D3A204F7554
:1007400074206F662068656170206D656D6F7279C9
:10075000000000003A2048656170206D656D6F7281
:100760007920636F72727570746564000149182096
:10077000ABBEFEE72600020070B505460C460A2017
:1007800000E06D1C00F011F835B128780028F8D190
:1007900002E0641C00F009F814B120780028F8D1B8
:1007A000BDE870400A20AFF3008008B569468DF8B7
:1007B00000000320ABBE08BD2DE9F04387B004461E
:1007C0000D4616461F46DDE90E890C2204A9104687
:1007D00002F042FF9DF810009DF8111040EA012040
:1007E00000B2ADF804009DF812009DF8131040EA25
:1007F000012000B2ADF806009DF814009DF8151018
:1008000040EA012000B2ADF808009DF816009DF8FE
:10081000171040EA012000B2ADF80A009DF8180058
:100820009DF8191040EA012000B2ADF80C009DF8C7
:100830001A009DF81B1040EA012000B2ADF80E002E
:10084000BDF804003880BDF80600A8F80000BDF827
:100850000800A9F80000BDF80A002080BDF80C00CF
:100860002880BDF80E00308007B0BDE8F08300009E
:1008700038B51C4804F0B0FA0446204603F018FFCF
:10088000184803F0DFFE0446204603F011FF34BB96
:1008900001200090134A0121684604F04FFB0446F2
:1008A000204603F005FF0F4803F057FA00200090A0
:1008B0000C4A0121684604F041FB0446204603F03F
:1008C000F7FE084803F01CFA02200090054A0121B7
:1008D000684604F033FB0446204603F0E9FE204658
:1008E00038BD00005009002000BFFEE710B50248E7
:1008F00000F0AEFC10BD0000F403002013B5044668
:10090000012201A9204600F01BF81CBD38B50546A0
:100910000C4620128DF80000E0B28DF80100022292
:100920006946284600F00CF838BD70B504460D46FF
:10093000164632462946204600F002F870BD0000F7
:100940002DE9F04104460E4617460025A84660787A
:1009500010B9DFF8448007E06078012802D1DFF8A1
:100960003C8001E0BDE8F0814046A16800F08DF8D0
:10097000054625B92146404600F03CF80546237B54
:100980003A463146284600F00BF8E189284600F047
:10099000EFF800BFE6E70000500A00206C0A0020D4
:1009A000F0B5044604B9F0BD002009E01D18082D7B
:1009B00000DB07E00E5C1F18251DEE55451CE8B254
:1009C0009042F3DB00BF00BFEDE738B505460C46AB
:1009D000200E8DF80000200C8DF80100200A8DF803
:1009E0000200E0B28DF80300042269462846FFF7B2
:1009F000A7FF38BD70B504460E4625681DB316B373
:100A000000E0AD69A8690028FBD11C2006F060FC5D
:100A1000A861B068A9690860F089A9698881002087
:100A2000A969086100BF05E00022A969091D0A54EF
:100A3000411CC8B20828F7DB0020A9698861A869B1
:100A40004461AD691CE01C2006F042FC2060B068E7
:100A500021680860F0892168888100202168086188
:100A600000BF05E000222168091D0A54411CC8B2DC
:100A70000828F7DB00202168886120684461256828
:100A80002079401C2071284670BD10B50246002315
:100A9000106805E004688C4201D1012302E08069FE
:100AA0000028F7D100BF03B9002010BD70B504467F
:100AB0000D462946204600F001F870BD70B588B09B
:100AC00004460D460126A068019000200390049082
:100AD00008200590607838B907AB2A4601A9094873
:100AE00000F0BAF9064609E06078012806D107ABA4
:100AF0002A4601A9044800F0AFF90646304608B07E
:100B000070BD0000F40300201C0400202DE9F04318
:100B100089B081460E4614461D46DDE910780396DD
:100B200000200590069008200790200A8DF8040008
:100B3000E0B28DF80500280A8DF80600E8B28DF8BD
:100B40000700380A8DF80800F8B28DF809004FEA5E
:100B500018208DF80A0008F0FF008DF80B006B4696
:100B600001AA03A9484600F077F909B0BDE8F0836F
:100B700082898A4200DD81817047000000B58BB018
:100B80000020059001200990002007900120089086
:100B90000020019002900390049006900E200A908D
:100BA00001A90C4800F004FA0A4800F0F4FD022103
:100BB000084800F03CF90E20069001A9064800F014
:100BC000F7F9054800F0E7FD0221034800F02FF98E
:100BD0000BB000BDF40300201C040020026802B129
:100BE00010B902224276704701680A7D521C0A75CC
:100BF0000A7D4B7D9A4204DD4A7D0A750122027608
:100C000004E0027E012A01D10022027600BFEAE759
:100C100070B52DED048B0446206800B124B9022084
:100C20006076BDEC048B70BD256828882989401A40
:100C300000B26881B5F90A00B0F5805F06DD688909
:100C4000A0F5F850FF3800B268810AE0B5F90A0053
:100C500010F5805F05DA688941F6FF71084400B23B
:100C600068812068008800B2216808812068C06817
:100C70002168B1F90A1008442168C8602168C86871
:100C800009F017FE41EC190B9FED090B53EC102BEB
:100C900009F026FE41EC180B09F0DAFD00EE100A0F
:100CA000206880ED040A00202168087500BFB8E7BD
:100CB000000000000000543F10B5024800F00CFE98
:100CC00010BD00006406002010B5024800F004FECC
:100CD00010BD00004408002010B5024800F0FCFDE3
:100CE00010BD0000A405002010B5024800F0F4FD7E
:100CF00010BD0000A408002010B5024800F0ECFD73
:100D000010BD00000406002010B5024800F0E4FD0C
:100D100010BD0000E407002010B5024800F0DCFD23
:100D200010BD0000C406002010B5024800F0D4FD3C
:100D300010BD00002407002010B5024800F0CCFDD3
:100D400010BD0000840700200146087810381823E1
:100D5000B0FBF3F20848805CC865032A05D908682F
:100D60006FF30900001D886503E008686FF3090050
:100D70008865886D70470000DFCB000801460020C1
:100D80008A6A8B69CBB932B1012A0DD0022A03D00D
:100D9000032A10D10EE000BFCB6A03F08073B3F1D9
:100DA000807F00D1012007E0CB6AB3F1C07F00D182
:100DB000012001E000E000BF34E08B69B3F5005F83
:100DC0001AD132B1012A07D0022A03D0032A11D145
:100DD0000AE000BF01200EE0CB6A03F08073B3F19C
:100DE000807F00D1012006E0CB6AB3F1C07F00D143
:100DF000012000E000BF15E032B1012A05D0022A2F
:100E000004D0032A0CD103E000BF00BF012008E09A
:100E1000CB6A03F08073B3F1807F00D1012000E042
:100E200000BF00BF7047704772B600BFFEE710B545
:100E3000024692F82030012B01D0022B06D1106817
:100E40004069084314686061002010BD506A40F496
:100E5000802050620120F8E7F0B504460D461E469A
:100E600094F8207020688368A86800B900E000BF8B
:100E7000012F01D0022F7CD103F0806030B903F044
:100E8000006018B903F08050002873D0C3F30161EB
:100E9000022905D9606A40F4000060620120F0BDBB
:100EA000012088403060A86860B9B5F800C0E868E3
:100EB00040EA4C5C206800F5C07000EB0110C0F8FF
:100EC00000C00FE0D5E901C040EACC00D5F80CC065
:100ED00040EA0C00D4F800C00CF5C07C0CEB011CFF
:100EE000CCF80000D5F810C0206800F5C07000EB09
:100EF0000110C0F804C0287D01280ED1206800F53B
:100F0000C07000EB0110406840F4807C206800F560
:100F1000C07000EB0110C0F804C0D079000692F850
:100F200006C040EA0C4092F805C040EA0C2C10794B
:100F30004CEA000C206800F5C07000EB0110C0F80E
:100F40000CC0D078000692F802C040EA0C4092F83B
:100F500001C040EA0C2092F800C040EA0C00D4F82E
:100F600000C00CF5C07C0CEB011CCCF8080020681C
:100F700001E016E00FE000F5C07000EB0110006822
:100F800040F0010C206800F5C07000EB0110C0F8C3
:100F900000C0002083E7606A40F400106062012016
:100FA0007DE7606A40F480206062012077E70000FE
:100FB000F0B504460A46216894F82050012D01D06E
:100FC000022D7ED1424901F50071086840F0010010
:100FD0000860086820F47C5008600868566A40EA97
:100FE00006200860107D00F01F06012000FA06F3BD
:100FF000C8699843C861A1F50071D069C8B9D1F832
:101000000C029843C1F80C02908880B2968940EA9D
:10101000064601F51070576940F83760108880B2B5
:10102000168940EA064601F51070576900EBC700C3
:101030004660D069012819D1D1F80C021843C1F8D3
:101040000C02908880B2168840EA064601F51070BE
:10105000576940F83760908980B2168940EA0646A1
:1010600001F51070576900EBC7004660906928B918
:10107000D1F804029843C1F8040204E0D1F8040254
:101080001843C1F80402106928B9D1F81402984332
:10109000C1F8140204E0D1F814021843C1F8140294
:1010A000106A012804D1D1F81C021843C1F81C02AF
:1010B000D1F8000220F00100C1F800020020F0BDCC
:1010C000FFE7606A40F4802060620120F7E70000DB
:1010D00000640040704770B5044694F82050012D1C
:1010E00001D0022D7DD151B92068C06800F0030005
:1010F00080B9606A40F400106062012070BD206811
:10110000006900F0030028B9606A40F400106062D2
:101110000120F3E7206800F5D87000EB01100068AB
:1011200000F004009060906840B9206800F5D87025
:1011300000EB01100068400D106007E0206800F52A
:10114000D87000EB01100068C0085060206800F5FE
:10115000D87000EB0110006800F00200D060206839
:1011600000F5D87000EB0110406800F00F0010612E
:10117000206800F5D87000EB0110406800F47F4053
:10118000000A9061206800F5D87000EB01104068FB
:10119000000C5061206800F5D87000EB01108068E9
:1011A0001870206800F5D87000EB0110806800F41A
:1011B0007F40000A5870206800F5D87000EB0110DD
:1011C000806800F47F00000C9870206800F5D870EB
:1011D00000EB01108068000ED870206800F5D87010
:1011E00000E02FE000EB0110C0681871206800F5E6
:1011F000D87000EB0110C06800F47F40000A5871FD
:10120000206800F5D87000EB0110C06800F47F0082
:10121000000C9871206800F5D87000EB0110C068D0
:10122000000ED87131B92068C06840F020002668EF
:10123000F06005E02068006940F020002668306119
:1012400000205BE7606A40F480206062012055E77F
:101250002DE9F05F04460025206846692068D0F833
:101260000490206887682068D0F80CA02068D0F827
:1012700010B02068D0F8188006F00100002855D082
:1012800007F00100C0B101202168886007F002006A
:1012900018B1204600F0AFFA0EE007F0040010B1DC
:1012A00045F4006508E007F0080010B145F48055EA
:1012B00002E0204600F09EFA07F48070C8B14FF4B7
:1012C00080702168886007F4007018B1204600F033
:1012D00094FA0EE007F4806010B145F4005508E080
:1012E00007F4006010B145F4804502E0204600F0AC
:1012F00083FA07F48030C8B14FF4803021688860E9
:1013000007F4003018B1204600F079FA0EE007F437
:10131000802010B145F4004508E007F4002010B12A
:1013200045F4803502E0204600F068FA06F0080037
:1013300038B10AF0100020B145F400751020216882
:10134000C86006F0040040B10AF0080028B1082087
:101350002168C860204600F005FA06F0020038B1A6
:101360002068C06800F0030010B1204600F0FCF9CE
:1013700006F0400038B10BF0100020B145F4806554
:1013800010202168086106F0200040B10BF0080031
:1013900028B1082021680861204600F0F9F906F01C
:1013A000100038B12068006900F0030010B1204639
:1013B00000F0EFF906F4003040B109F0100028B158
:1013C000102021684860204600F0E4F906F48030DF
:1013D00040B109F0080028B1082021684860204683
:1013E00000F00EFA06F4004088B309F0040078B368
:1013F00006F4807020B108F0010008B145F0010545
:1014000006F4007020B108F0020008B145F00205B2
:1014100006F4806020B108F0040008B145F004052E
:1014200006F40060A0B108F0700088B108F0700008
:10143000402817D006DC10280BD020280CD03028EC
:1014400019D10CE0502810D0602814D110E01DE014
:1014500019E045F008050FE045F010050CE045F0F7
:10146000200509E045F0400506E045F0800503E071
:1014700045F4807500E000BF00BF2068806920F05F
:101480007000216888610420216848602DB1606A7D
:10149000284360622046FFF71DFEBDE8F09F70B54F
:1014A00004460CB9012070BD94F8200010B9204604
:1014B00000F0B0F82068006840F001002168086082
:1014C00000F0A0FC05460DE000F09CFC401B0A2843
:1014D00008D9606A40F400306062052084F820007A
:1014E0000120E0E72068406800F001000028EBD010
:1014F0002068006820F002002168086000F082FC8B
:1015000005460DE000F07EFC401B0A2808D9606A01
:1015100040F400306062052084F820000120C2E71A
:101520002068406800F002000028EBD1207E0128EE
:1015300006D12068006840F080002168086005E05E
:101540002068006820F0800021680860607E012823
:1015500006D12068006840F040002168086005E07E
:101560002068006820F0400021680860A07E012803
:1015700006D12068006840F020002168086005E07E
:101580002068006820F0200021680860E07E0128C3
:1015900006D12068006820F010002168086005E08E
:1015A0002068006840F0100021680860207F012852
:1015B00006D12068006840F008002168086005E056
:1015C0002068006820F0080021680860607F01281A
:1015D00006D12068006840F004002168086005E03A
:1015E0002068006820F0040021680860D4E9020146
:1015F000084321690843616908436168491E08433B
:101600002168C86100206062012084F82000002069
:1016100049E7000010B586B00446142101A8FEF782
:10162000A6FF4A492068884241D149480068401CC9
:10163000474908600846006801280FD100BF002014
:1016400000904448006840F0007042490860084635
:10165000006800F00070009000BF00BF00BF0020D5
:1016600000903C481038006840F0080039491039B3
:1016700008600846006800F00800009000BF00BF46
:101680000320019002200290002003900320049088
:101690000920059001A9304800F0B4FA0022052184
:1016A000142000F0BBFC142000F0A4FC4CE02B49FB
:1016B0002068884248D100BF00200090254800687B
:1016C00040F08060234908600846006800F08060B0
:1016D000009000BF00BF1E480068401C1C49086005
:1016E0000846006801280FD100BF0020009019486B
:1016F000006840F00070174908600846006800F074
:101700000070009000BF00BF00BF00200090114893
:101710001038006840F002000E4910390860084691
:10172000006800F00200009000BF00BF6020019040
:1017300002200290002003900320049009200590CD
:1017400001A9074800F05EFA06B010BD0064004031
:101750001400002040380240000C024000680040A5
:10176000000402407047000010B58AB0044601AB87
:1017700003AA00212046FFF7AEFC044801A9C26875
:1017800090470248016988470AB010BD74000020E4
:1017900070477047704770B5044694F820000128E0
:1017A00022D1022084F820002068006820F0010087
:1017B0002168086000F026FB05460DE000F022FBE2
:1017C000401B0A2808D9606A40F400306062052096
:1017D00084F82000012070BD2068406800F00100FE
:1017E0000028EBD16062F6E7606A40F40020606296
:1017F0000120F0E7704770477047704770477047A7
:10180000704770B50446A56D00F0FCFA064694F8E2
:101810003500022808D08020606500BF002084F8D1
:10182000340000BF012070BD2068006820F0160061
:10183000216808602068406920F0800021684861C4
:10184000206C08B9A06C28B12068006820F008005E
:10185000216808602068006820F0010021680860A5
:1018600010E000F0CFFA801B05280BD9202060651E
:10187000032084F8350000BF002084F8340000BF46
:101880000320D0E72068006800F001000028E8D1BC
:1018900094F85C103F208840A860012084F835004F
:1018A00000BF002084F8340000BF00BFBBE7014642
:1018B00091F83500022803D0802048650120704748
:1018C000052081F835000868006820F001000A68EA
:1018D00010600020F3E70000F8B5044600200090F7
:1018E0008C4800684FF41651B0FBF1F7A56D2E68D7
:1018F00094F85C1008208840304098B12068006857
:1019000000F0040070B12068006820F00400216835
:10191000086094F85C1008208840A860606D40F072
:101920000100606594F85C1001208840304068B187
:101930002068406900F0800040B194F85C100120FC
:101940008840A860606D40F00200606594F85C100B
:1019500004208840304068B12068006800F0020030
:1019600040B194F85C1004208840A860606D40F09D
:101970000400606594F85C1010208840304078B313
:101980002068006800F0080050B394F85C10102044
:101990008840A8602068006800F4802080B120683A
:1019A000006800F4002028B9206CC8B12046216CE2
:1019B000884715E0A06C98B12046A16C88470FE0DD
:1019C0002068006800F4807028B92068006820F062
:1019D000080021680860206C10B12046216C8847FF
:1019E00094F85C10202088403040002865D02068A2
:1019F000006800F0100000285FD094F85C102020F0
:101A00008840A86094F83500052828D1206800682F
:101A100020F01600216808602068406920F08000EE
:101A200021684861206C08B9A06C28B12068006862
:101A300020F008002168086094F85C103F2088407E
:101A4000A860012084F8350000BF002084F834002D
:101A500000BF206D10B12046216D8847F8BD206879
:101A6000006800F4802080B12068006800F4002045
:101A700028B9606C10B12046616C88471DE0E06BAE
:101A8000D8B12046E16B884717E02068006800F471
:101A9000807068B92068006820F010002168086034
:101AA000012084F8350000BF002084F8340000BF16
:101AB000E06B10B12046E16B8847606D38B3606D14
:101AC00000F00100F0B1052084F8350020680068BE
:101AD00020F001002168086000BF0098401C0090C1
:101AE000B84200D905E02068006800F00100002835
:101AF000F3D100BF012084F8350000BF002084F836
:101B0000340000BFE06C10B12046E16C884700BF94
:101B1000A4E70000340100202DE9F041044600252F
:101B200000F070F9074614B90120BDE8F081606A41
:101B300000B100BF022084F8350000BF002084F807
:101B4000340000BF2068006820F0010021680860B0
:101B50000AE000F057F9C01B052805D92020606570
:101B6000032084F83500E0E72068006800F00100F9
:101B70000028EED12068056821480540D4E901011C
:101B80000843E16808432169084361690843A16982
:101B90000843E1690843216A08430543606A042851
:101BA00003D1D4E90B010843054320680560206890
:101BB000456925F00705606A0543606A04280DD170
:101BC000A06A0543E06A48B12046FFF7D7F828B17C
:101BD00040206065012084F83500A6E72068456153
:101BE0002046FFF7B1F8064694F85C103F20884085
:101BF000B06000206065012084F83500002094E783
:101C00003F8010F0F8B502460B4600250024002066
:101C10000021D6E0012606FA01F51E6806EA050451
:101C2000AC4274D11E7906F00306012E04D01E7951
:101C300006F00306022E13D190684F000326BE4023
:101C4000B0434F00DE68BE403043906050680126CC
:101C50008E40B0431E79C6F300168E40304350606C
:101C60001E7906F00306032E09D0D0684F00032624
:101C7000BE40B0434F009E68BE403043D0601E79E6
:101C800006F00306022E13D1CF0802F1200656F803
:101C900027004E07F70E0F26BE40B0434F07FF0E3A
:101CA0001E69BE403043CF0802F1200646F82700E7
:101CB00010684F000326BE40B0431E7906F00306AD
:101CC0004F00BE40304310605E6806F44036002E80
:101CD00076D000BF002600963C4E366846F480461B
:101CE0003A4F3E603E46366806F48046009600BF96
:101CF00000BF374E8F0856F827008E07370F0F2684
:101D0000BE40B043334EB24202D1002624E057E039
:101D1000314EB24201D101261EE0304EB24201D115
:101D2000022619E02E4EB24201D1032614E02D4EB8
:101D3000B24201D104260FE02B4EB24201D105265A
:101D40000AE02A4EB24201D1062605E0284EB242F0
:101D500001D1072600E008268F073F0FBE40304321
:101D60001B4E8F0846F82700224E3068A0435E685D
:101D700006F4801606B120431E4E3060361D3068D2
:101D8000A0435E6806F4001606B12043194E361DC6
:101D90003060184E361F3068A0435E6806F4003687
:101DA00006B12043134E361F3060361F3068A04303
:101DB0005E6806F4803606B120430E4E083E306061
:101DC000491C1029FFF426AFF8BD0000443802403A
:101DD00008380140000002400004024000080240B0
:101DE000000C0240001002400014024000180240A3
:101DF000001C0240083C01400AB1816101E00B0473
:101E00008361704701480068704700002801002086
:101E100070B504460CB9012070BD4CF6CC40216869
:101E2000086045F2555021680860D4E90010486008
:101E30002168A0688860FFF7E5FF05460BE0FFF723
:101E4000E1FF401B312806D92068C06800F003007C
:101E500008B10320E0E72068C06800F00300002814
:101E6000EDD14AF6AA20216808600020D4E7014697
:101E70004AF6AA200A6810600020704709480068E6
:101E8000094909780844074908604FF08040406AD2
:101E9000096801EB4102C2EBC11100EBC10003492B
:101EA0000860704728010020300100202401002034
:101EB00010B50D48006840F400700B4908600846F2
:101EC000006840F4806008600846006840F4807054
:101ED0000860032000F0E0F80F2000F007F800F0A1
:101EE0005FF8002010BD0000003C02402DE9F041E9
:101EF00088B004460027B84600BF0020019024485F
:101F0000006840F00100224908600846006800F0BF
:101F10000100019000BF00BF02A903A800F092F9E0
:101F2000069F1FB900F0B6F9054602E000F0B2F9CD
:101F300045001848B5FBF0F0A0F101084FF08040D3
:101F40001549086040F2E7311348C160C0F80480C9
:101F5000002101618160816100F064FC064696B950
:101F60000D4800F093FC06466EB91C2000F042F8C4
:101F7000102C07D2002221461C2000F04FF8074801
:101F8000046000E00126304608B0BDE8F0810000A2
:101F90004038024040420F00040900202C0100207C
:101FA00008B500BF002000901148006840F4804050
:101FB0000F4908600846006800F48040009000BFA8
:101FC00000BF00BF00200090081F006840F0805054
:101FD000091F08600846006800F08050009000BFAC
:101FE00000BF00220F21901E00F018F808BD00006D
:101FF000443802400146084600280DDB00BF00BF00
:1020000000F01F0301229A4043099B0003F1E023E3
:10201000C3F8002100BF00BF00BF70472DE9F05F8B
:1020200080460D461646002702F0F0FA074639466C
:102030002A46334601F00700C0F1070ABAF1040F3F
:1020400002D94FF0040A01E0C0F1070AD14600F1BD
:10205000040ABAF1070F02D24FF0000A01E0A0F122
:10206000030AD4464FF0010A0AFA09FAAAF1010A52
:102070000AEA020A0AFA0CFA4FF0010B0BFA0CFBFF
:10208000ABF1010B0BEA030B4AEA0B042146404675
:1020900002F0C4FABDE8F09F00BF00F00702064B53
:1020A00019684FF6FF031940044B0B4343EA022122
:1020B000014B196000BF70470CED00E00000FA050D
:1020C00070B504460D460CB9012070BD5848006833
:1020D00000F00700A84209D255490D700846006873
:1020E00000F00700A84201D00120EEE7207800F0C0
:1020F000020002281DD1207800F00400042805D138
:102100004C48006840F4E0504A490860207800F0EC
:102110000800082805D14748006840F46040454958
:1021200008604448006820F0F000A1680843414975
:102130000860207800F00100A8B36068012807D18A
:102140003C4808380068C0F34040B8B90120BCE7FB
:102150006068022802D06068032807D13548083833
:102160000068C0F3406048B90120AEE73148083844
:102170000068C0F3400008B90120A6E72D480068B8
:1021800020F00300616808432A490860FFF73AFE1F
:10219000064609E0FFF736FE801B41F2883188428F
:1021A00002D9032091E707E02248006800F00C0004
:1021B0006168B0EB810FEDD11D48006800F00700A9
:1021C000A84209D91A490D700846006800F00700B6
:1021D000A84201D0012078E7207800F0040004280C
:1021E00007D11448006820F4E050E1680843114921
:1021F0000860207800F00800082808D10D48006821
:1022000020F46040216940EAC1000A49086000F0FA
:1022100061F808490968C1F30311074A515CC840D5
:102220000649086006480068FFF760FE00204CE79A
:10223000003C024008380240E7CB0008340100208F
:102240002C0100200F2202600D4A126802F00302E6
:1022500042600B4A126802F0F0028260084A12687B
:1022600002F4E052C260064A126802F46042D208E8
:102270000261044A126802F007020A607047000017
:1022800008380240003C02400148006870470000E6
:102290003401002000B5FFF7F7FF04490968C1F3D6
:1022A0008221034A515CC84000BD0000083802404A
:1022B000F7CB000800B5FFF7E7FF04490968C1F351
:1022C0004231034A515CC84000BD0000083802405A
:1022D000F7CB00082DE9F047002400250026A14691
:1022E0002548006800F00C0020B1042805D008281B
:1022F0003AD105E0DFF8849039E0DFF8849036E0E9
:102300001D48001F006800F03F041B48001F0068C4
:1023100000F4800078B11A481749091F0968C1F311
:102320008811A0FB01700146224600233846FEF7C3
:1023300075F805460EE011480F49091F0968C1F3F9
:102340008811A0FB01700146224600233846FEF7A3
:1023500065F805460848001F0068C0F30140401CAE
:102360004600B5FBF6F902E0DFF8109000BF00BFB1
:102370004846BDE8F0870000083802400024F40019
:1023800040787D01F8B504460CB90120F8BD2078ED
:1023900000F00100002874D0F948006800F00C003B
:1023A00004280DD0F648006800F00C00082813D16E
:1023B000F348001F006800F48000B0F5800F0BD1D7
:1023C000EF4808380068C0F34040002859D06068E2
:1023D000002856D10120D9E700BF6068B0F5803FE2
:1023E00008D1E7480838006840F48030E4490839EB
:1023F00008601EE06068B0F5A02F0DD1E0480838F5
:10240000006840F48020DE4908390860084600680A
:1024100040F4803008600CE0D9480838006820F4A7
:102420008030D749083908600846006820F48020C9
:10243000086000BF606890B1FFF7E4FC054606E065
:10244000FFF7E0FC401B642801D903209EE7CC483D
:1024500008380068C0F340400028F1D011E0FFF7D1
:10246000D1FC054606E0FFF7CDFC401B642801D9EE
:1024700003208BE7C24808380068C0F340400028BA
:10248000F1D1207800F0020002285FD1BC4800683A
:1024900000F00C0058B1BA48006800F00C000828A1
:1024A0001CD1B748001F006800F48000B0B9B448E0
:1024B00008380068C0F3400020B1E068012801D06E
:1024C000012063E7AE480838006820F0F800216971
:1024D00040EAC100AA490839086037E0E06800B363
:1024E0000120A8490860FFF78DFC054606E0FFF7CC
:1024F00089FC401B022801D9032047E7A04808387F
:102500000068C0F340000028F1D09D4808380068FA
:1025100020F0F800216940EAC100994908390860B3
:1025200014E0002097490860FFF76CFC054606E0C0
:10253000FFF768FC401B022801D9032026E79048DA
:1025400008380068C0F340000028F1D1207800F07E
:10255000080008282CD16069A8B101208A490860C8
:10256000FFF750FC054606E0FFF74CFC401B022835
:1025700001D903200AE782486C300068C0F34000AC
:102580000028F1D014E000207F490860FFF73AFCF2
:10259000054606E0FFF736FC401B022801D9032060
:1025A000F4E677486C300068C0F340000028F1D1B1
:1025B000207800F00400042870D1002770483830DB
:1025C000006800F0805090B900BF002000906C4877
:1025D0003830006840F0805069493831086008465A
:1025E000006800F08050009000BF00BF01276748DE
:1025F000006800F48070B0B96448006840F48070EE
:1026000062490860FFF7FEFB054606E0FFF7FAFBAC
:10261000401B022801D90320B8E65C48006800F49A
:1026200080700028F2D000BFA068012808D154486B
:102630006830006840F001005149683108601DE0D1
:10264000A06805280DD14E486830006840F00400AD
:102650004B49683108600846006840F00100086096
:102660000CE047486830006820F0010044496831B8
:1026700008600846006820F00400086000BFA068F9
:10268000A8B1FFF7BFFB054609E0FFF7BBFB401B06
:1026900041F28831884202D9032077E626E03848A3
:1026A00068300068C0F340000028EED013E0FFF768
:1026B000A9FB054608E0FFF7A5FB401B41F2883166
:1026C000884201D9032061E62D4868300068C0F3D4
:1026D00040000028EFD1012F07D129483830006889
:1026E00020F0805026493831086000BFA0690028DA
:1026F00045D02348006800F00C0008285DD0A06990
:10270000022845D100201F490866FFF77BFB0546DC
:1027100006E0FFF777FB401B022801D9032035E6CE
:10272000174808380068C0F340600028F1D1D4E9A8
:1027300007010843616A40EA81110122A06AC2EBE5
:10274000500041EA00412C20005D41EA00600C4944
:10275000091F086001200B490866FFF753FB054677
:1027600006E0FFF74FFB401B022801D903200DE6CE
:10277000034808380068C0F340600028F1D049E001
:102780000838024000004742800E47420070004077
:10279000002021490866FFF735FB054606E0FFF7F4
:1027A00031FB401B022801D90320EFE51B480068DC
:1027B000C0F340600028F2D12CE0A069012800D1CC
:1027C000E4E51648001D0668A069012820D006F43B
:1027D0008001E06981421BD106F03F01206A8142FD
:1027E00016D147F6C0703040616AB0EB811F0FD13F
:1027F00006F440310122A06AC2EB5000B1EB004F59
:1028000006D106F070612C20005DB1EB006F01D0A5
:102810000120BBE50020B9E5000047420038024036
:102820007047704710B504460CB9012010BD94F8EC
:102830003D0028B9002084F83C00204600F025F82F
:10284000022084F83D00211D206801F01BFC0120BE
:1028500084F8460000BF84F83E0001213F20015566
:10286000402001554120015500BF00BF012084F8E0
:10287000420043200155442001554520015500BF29
:10288000012084F83D000020D0E77047014691F810
:102890003D00012801D001207047022081F83D0051
:1028A0000868C06840F001000B68D8601A4B0868DF
:1028B00098421BD00868B0F1804F17D0174B0868BA
:1028C000984213D0164B086898420FD0154B0868F1
:1028D00098420BD0144B0868984207D0134B0868F5
:1028E000984203D0124B086898420CD1086880685F
:1028F00000F00702062A0CD00868006840F00100CA
:102900000B68186005E00868006840F001000B687B
:1029100018600020C0E700000000014000040040F3
:1029200000080040000C004000040140004001404D
:1029300000180040704710B5044620680069C0F3D5
:102940004000D8B12068C068C0F34000B0B16FF05B
:10295000020021680861012020772068806900F06A
:10296000030018B12046FFF7E5FF05E0204600F020
:10297000ADF8204600F0ABF8002020772068006911
:10298000C0F38000D8B12068C068C0F38000B0B147
:102990006FF00400216808610220207720688069B8
:1029A00000F4407018B12046FFF7C4FF05E0204650
:1029B00000F08CF8204600F08AF80020207720688C
:1029C0000069C0F3C000D8B12068C068C0F3C0007F
:1029D000B0B16FF0080021680861042020772068FA
:1029E000C06900F0030018B12046FFF7A3FF05E01F
:1029F000204600F06BF8204600F069F800202077B0
:102A000020680069C0F30010D8B12068C068C0F326
:102A10000010B0B16FF01000216808610820207725
:102A20002068C06900F4407018B12046FFF782FFAB
:102A300005E0204600F04AF8204600F048F8002063
:102A400020772068006900F0010058B12068C06854
:102A500000F0010030B16FF00100216808612046EC
:102A600000F036F820680069C0F3C01058B1206843
:102A7000C068C0F3C01030B16FF0800021680861F9
:102A80002046FFF7CDFE20680069C0F3801058B1E2
:102A90002068C068C0F3801030B16FF0400021683A
:102AA0000861204600F01DF820680069C0F340105E
:102AB00058B12068C068C0F3401030B16FF02000FA
:102AC000216808612046FFF7ACFE10BD70477047D3
:102AD00010B504462068B0F1804F01D1FFF7CEF960
:102AE00010BD7047704770472DE9F84F04462068C5
:102AF00005682068C668206847694FF00009CA4623
:102B000005F00F09B9F1000F0AD105F0200038B126
:102B100006F0200020B1204601F080FBBDE8F88FD0
:102B2000B9F1000F7CD007F0010018B906F49070DD
:102B3000002875D005F0010030B106F4807018B19E
:102B4000206C40F00100206405F0040030B107F073
:102B5000010018B1206C40F00200206405F0020072
:102B600030B107F0010018B1206C40F0040020647F
:102B700005F0080048B106F0200010B907F0010088
:102B800018B1206C40F008002064206C002846D06A
:102B900005F0200028B106F0200010B1204601F019
:102BA0003DFB20684069C0F3801A206C00F00800EB
:102BB00010B9BAF1000F2DD0204601F0E9FA2068D3
:102BC000406900F04000402820D100BF00BF2168CC
:102BD000143151E8001F21F040002168143141E810
:102BE0000002002AF3D100BFA06B50B17548A16B61
:102BF0000865A06BFEF75BFE88B1A06B016D88478E
:102C00000DE02046FFF76FFF09E009E02046FFF7DF
:102C10006AFF04E02046FFF766FF002020647DE79E
:102C2000206B012876D105F01000002872D006F044
:102C300010000028FAD000BF002000902068006833
:102C4000009020684068009000BF00BF2068406985
:102C500000F0400040285ED1A06B006840681FFA79
:102C600080F8B8F1000F54D0A08D404551DDA4F894
:102C70002E80A06BC069B0F5807F43D000BF00BF3D
:102C800021680C3151E8001F21F4807021680C315B
:102C900041E80002002AF3D100BF00BF00BF216855
:102CA000143151E8001F21F001002168143141E87E
:102CB0000002002AF3D100BF00BF00BF2168143119
:102CC00051E8001F21F040002168143141E8000262
:102CD000002AF3D100BF202084F83E0000202063AA
:102CE00000BF00BF21680C3151E8001F21F0100027
:102CF00021680C3141E80002002AF3D100BFA06B2B
:102D0000FEF77FFDA08DE28D801A81B22046FFF78D
:102D1000E9FE03E740E0A08DE18D401A1FFA80F83C
:102D2000E08DC0B3B8F1000F35D000BF00BF2168FF
:102D30000C3151E8001F21F4907021680C3141E8FA
:102D40000002002AF3D100BF00BF00BF2168143188
:102D500051E8001F21F001002168143141E8000210
:102D6000002AF3D100BF202084F83E000020206319
:102D700000BF00BF21680C3151E8001F21F0100096
:102D800021680C3141E80002002AF3D100BF41461E
:102D90002046FFF7A7FEC1E605F0800030B106F03F
:102DA000800018B1204601F0CBFBB7E605F04000EB
:102DB00030B106F0400018B1204601F01FFAADE630
:102DC00000BFABE67D41000810B504460CB90120F8
:102DD00010BDA06900B100E000BF94F83D0028B923
:102DE000002084F83C00204600F028F8242084F8D5
:102DF0003D002068C06820F400502168C86020466B
:102E000001F088FA2068006920F490402168086188
:102E10002068406920F02A00216848612068C06865
:102E200040F400502168C86000202064202084F80D
:102E30003D0084F83E000020CAE7000010B586B0CF
:102E40000446142101A8FDF792FBFA492068884244
:102E500077D100BF00200090F748006840F40020C0
:102E6000F54908600846006800F40020009000BFA3
:102E700000BF00BF00200090EF481038006840F00D
:102E80000100ED49103908600846006800F00100B3
:102E9000009000BF00BF032001900220029000209C
:102EA0000390032004900820059001A9E348FEF751
:102EB000A9FEE348E3490860400548600021E14875
:102EC0008160C1604FF480610161002141618161D5
:102ED0004FF48071C161002101624162FEF71CFE66
:102EE00008B1FDF7A1FF00BFD648A063846300BF0F
:102EF000D3483030D44908604FF00060486040212A
:102F0000D14881600021C1604FF4806101610021DE
:102F100041618161C16101624162FEF7FDFD08B15D
:102F2000FDF782FF00BFC8486063846300BF0022D2
:102F300005213420FFF772F83420FFF75BF818E220
:102F4000FFE7C249206888427ED100BF0020009080
:102F5000B948006840F48010B74908600846006826
:102F600000F48010009000BF00BF00BF0020009060
:102F7000B1481038006840F00400AF4910390860CB
:102F80000846006800F00400009000BF00BF00BFCA
:102F9000002000900846006840F0080008600846DD
:102FA000006800F00800009000BF00BF8814019086
:102FB0000220029000200390032004900820059036
:102FC00001A9A348FEF71EFE0420019002200290F2
:102FD00000200390032004900820059001A99D483B
:102FE000FEF710FE964830389B490860C0054860DF
:102FF000002199488160C1604FF480610161002126
:10300000416181614FF48071C161002101624162BF
:10301000FEF782FD08B1FDF707FF00BF8E48A063F1
:10302000846300BF864878308C4908604FF00060A8
:1030300048604021894881600021C1604FF480616F
:1030400001610021416100E016E08161C16101621E
:103050004162FEF761FD08B1FDF7E6FE00BF7F4863
:103060006063846300BF002205213520FEF7D6FF90
:103070003520FEF7BFFF7CE17949206888427BD18B
:1030800000BF002000906C48001D006840F0100058
:103090006949091D08600846006800F010000090AA
:1030A00000BF00BF00BF00200090634810380068D8
:1030B00040F001006049103908600846006800F0DF
:1030C0000100009000BF00BF4FF4C06001900220DB
:1030D000029000200390032004900720059001A98E
:1030E0005648FEF78FFD5F485F4908604FF000606B
:1030F000486000215C488160C1604FF480610161DB
:103100000021416181614FF48071C1610021016240
:103110004162FEF701FD08B1FDF786FE00BF52488F
:10312000A063846300BF4F487830504908604FF077
:103130000060486040214D4881600021C1604FF42B
:1031400080610161002141618161C161016241626F
:10315000FEF7E2FC08B1FDF767FE00BF434860637D
:10316000846300BF002205212520FEF757FF25209C
:10317000FEF740FFFDE0FFE73D49206888427CD133
:1031800000BF002000902C48006840F400302A491D
:1031900008600846006800F40030009000BF00BFDF
:1031A00000BF0020009024481038006840F0010063
:1031B0002149103908600846006800F001000090BD
:1031C00000BF00BF0C20019002200290002003905D
:1031D000032004900720059001A91848FEF712FD6E
:1031E00017484830234908604FF0006048600021CC
:1031F00020488160C1604FF480610161002141611C
:1032000081614FF48071C161002101624162FEF76A
:1032100083FC08B1FDF708FE00BF1648A063846375
:1032200000BF002205212620FEF7F8FE2620FEF72B
:10323000E1FE9EE0004C00404038024000000240A9
:1032400040600240A4050020040600200050004019
:1032500000080240000C024064060020C406002062
:103260000010014040640240240700208407002031
:1032700000440040E4070020FFE73F4920688842FF
:1032800077D100BF002000903C48006840F48020C7
:103290003A4908600846006800F48020009000BFAA
:1032A00000BF00BF0020009034481038006840F094
:1032B00002003249103908600846006800F0020038
:1032C000009000BF00BF4FF44060019002200290C8
:1032D00000200390032004900720059001A92848AE
:1032E000FEF790FC2748284908604FF000604860CE
:1032F000002125488160C1604FF480610161002197
:10330000416181614FF48071C161002101624162BC
:10331000FEF702FC08B1FDF787FD00BF1A48A06365
:10332000846300BF17483030184908604FF00060D0
:1033300048604021154881600021C1604FF48061E0
:103340000161002141618161C16101624162FEF759
:10335000E3FB08B1FDF768FD00BF0C4860638463C0
:1033600000BF002205212720FEF758FE2720FEF788
:1033700041FE06B010BD0000004800404038024049
:10338000000402402860024044080020A4080020F5
:103390007047704700BFFEE710B500200F49086076
:1033A0000F48006820F040400D490860084600685A
:1033B00040F08040086000200A49C1F8BC020220A9
:1033C00002F02BF9012005490860022002F025F9DE
:1033D00000200449C1F8B40210BD0000B48240428C
:1033E000000402400080404210B500200F490860F0
:1033F0000F48006820F040400D490860084600680A
:1034000040F08040086001200A49C1F8BC02022057
:1034100002F003F9012005490860022002F0FDF8DE
:1034200000200449C1F8B40210BD0000B48240423B
:10343000000402400080404270B505460024164852
:10344000006820F0404014490860084600680860A1
:10345000002616E0002011490860022002F0DDF885
:1034600001200F49C1F8B4026006040E0B487838F9
:10347000006808B1601CC4B2012002F0CEF8701CD4
:10348000C6B2082EE6DB15B9FFF7AEFF01E0FFF785
:1034900083FF204670BD000000040240B482404219
:1034A0000080404270B504461548006820F0404056
:1034B000134908600846006840F08040086000201A
:1034C00010490860002517E0E0090E49083108603E
:1034D0006006040E022002F0A0F801200A49C1F89B
:1034E000B402022002F099F8002006490860022088
:1034F00002F093F8681CC5B2082DE5DB70BD000032
:1035000000040240B48240420080404210B50F489F
:10351000006820F040400D4908600846006840F00F
:103520008040086001200A4908600A49C1F8B402D5
:10353000042002F072F8002005490860042002F01F
:103540006CF800200349C1F8B40210BD0004024029
:10355000BC8240420080404210B50F48006820F015
:1035600040400D4908600846006840F0804008600F
:1035700000200A4908600A49C1F8BC02042002F090
:103580004CF80120054908600549C1F8BC02042037
:1035900002F043F810BD000000040240B482404233
:1035A0000080404210B500241348006820F04040DD
:1035B0001149086008460068086001200F4908604A
:1035C00002F02BF801200E49C1F8B40202F025F8F0
:1035D00007E0601CC4B2FA2C03DDFFF7BDFF012039
:1035E00010BD0648803800680028F2D10349083928
:1035F000086000BFF4E7000000040240BC824042C3
:103600000080404270B50446FFF780FF11490978F9
:10361000002242EA4101C8B2FFF744FFFFF7C2FFB0
:103620002046FFF73FFFFFF7BDFFFFF76FFF094998
:103630000978012202EB4101C8B2FFF733FFFFF71F
:10364000B1FF0020FFF7F8FE0546FFF785FF28468B
:1036500070BD0000210100202DE9F04107460C4615
:103660001546FFF753FF15490978002242EA410148
:10367000C8B2FFF717FFFFF795FF3846FFF712FFB5
:10368000FFF790FFFFF742FF0C490978012202EB98
:103690004101C8B2FFF706FFFFF784FF002606E0EE
:1036A0000120FFF7C9FE2070641C701CC6B2AE4238
:1036B000F6DBFFF751FFBDE8F0810000210100209B
:1036C00010B50F480F4908600320486000210D48DD
:1036D0008160C1604FF4002101614FF440114161EC
:1036E000002101760121417681760021C1760177A2
:1036F00001214177FDF7D3FE08B1FDF795FB10BD21
:1037000000640040F403002010B50B480B4908602A
:1037100010204860002109488160C1600161416159
:10372000017641768176C17601774177FDF7B7FE64
:1037300008B1FDF779FB10BD006800401C040020B3
:1037400008B500BF002000903248006840F4001027
:10375000304908600846006800F40010009000BF7F
:1037600000BF00BF002000900846006840F48000C1
:1037700008600846006800F48000009000BF00BFA9
:10378000002205210B20FEF749FC0B20FEF732FC3E
:10379000002205210C20FEF741FC0C20FEF72AFC3C
:1037A000002205210D20FEF739FC0D20FEF722FC3A
:1037B000002205210E20FEF731FC0E20FEF71AFC38
:1037C000002205210F20FEF729FC0F20FEF712FC36
:1037D000002205211020FEF721FC1020FEF70AFC34
:1037E000002205212F20FEF719FC2F20FEF702FCF6
:1037F000002205213A20FEF711FC3A20FEF7FAFBE1
:10380000002205214620FEF709FC4620FEF7F2FBC8
:1038100008BD00003038024000B5A3B01C221E498C
:103820001CA8FCF772FE00211CA803F0E2FA1B4959
:1038300008601C2218491C3115A8FCF766FE0021FF
:1038400015A803F0D6FA164908601C22124938312F
:103850000EA8FCF75AFE00210EA803F0CAFA11497F
:1038600008601C220C49543107A8FCF74EFE0021C9
:1038700007A803F0BEFA0C4908601C220649703103
:103880006846FCF742FE0021684603F0B2FA074999
:10389000086023B000BD0000F0AA0008000000206E
:1038A00004000020080000200C0000201000002070
:1038B00000B587B0142102A8FCF759FE00BF002014
:1038C00001903B48006840F0040039490860084610
:1038D000006800F00400019000BF00BF00BF00209E
:1038E00001900846006840F08000086008460068C3
:1038F00000F08000019000BF00BF00BF00200190D9
:103900000846006840F0010008600846006800F0C2
:103910000100019000BF00BF00BF002001900846D9
:10392000006840F0020008600846006800F00200ED
:10393000019000BF00BF00BF002001900846006852
:1039400040F0080008600846006800F00800019098
:1039500000BF00BF01224FF4D0411648FEF74CFAD9
:1039600001224FF420411448FEF746FA00224FF49A
:1039700080611048FEF740FA4FF4D84002900120D1
:10398000039000200490059002A90A48FEF73AF936
:103990004FF4204002900120039000200490032067
:1039A000059002A90448FEF72DF907B000BD0000FC
:1039B00030380240000802400004024010B50748B9
:1039C000074908600020486040F6FF7104488160A4
:1039D000FEF71EFA08B1FDF727FA10BD00300040CF
:1039E0004404002010B50B480B4908604FF4E13047
:1039F0004860002108488160C16001610C2141617B
:103A000000218161C161FFF7DFF908B1FDF70CFA10
:103A100010BD0000004C00405004002010B50B48C1
:103A20000B4908604FF4E13048600021084881608C
:103A3000C16001610C21416100218161C161FFF719
:103A4000C3F908B1FDF7F0F910BD000000500040C7
:103A50009404002010B50B480B4908604FF4E13086
:103A60004860002108488160C16001610C2141610A
:103A700000218161C161FFF7A7F908B1FDF7D4F911
:103A800010BD000000100140D804002010B50B4804
:103A90000B4908600B484860002109488160C160FB
:103AA0004FF4806101610C21416100218161C1619C
:103AB000FFF78AF908B1FDF7B7F910BD00440040DF
:103AC0001C050020A086010010B50B480B490860BA
:103AD0004FF4E1304860002108488160C160016115
:103AE0000C21416100218161C161FFF76DF908B1CD
:103AF000FDF79AF910BD0000004800406005002065
:103B000000BFFEE710B50446206810B10CB1606834
:103B100010B90220607610BD9FED0F0A206880ED7D
:103B2000040A00202168C8602168087560760120B9
:103B30002076DFED0A0A9FED0A0A0A490A4800F0DA
:103B400019F8DFED060A9FED060A084906484438D1
:103B500000F010F800BFDEE70000000000007A442B
:103B60000000FA447CAB0008D400002088AB0008B9
:103B700000BFFEE700B101B9704791ED001A80ED7A
:103B8000001A91ED011A80ED011A91ED021A80EDF3
:103B9000021A80ED030AC0ED040A9FED0D1A80EDB4
:103BA0000D1A80ED0C1A80ED0B1A9FED091A80EDAD
:103BB000071A80ED0A1A80ED091A80ED081A80EDC7
:103BC000101A80ED0F1A80ED0E1A00BFD4E7000026
:103BD00000000000B0EE401A10B99FED480A70478F
:103BE00090ED0F0A80ED100A90ED0E0A80ED0F0A9D
:103BF000C0ED050A80ED061A30EEC10A80ED0E0A0E
:103C000090ED000AD0ED0E1A20EE210A80ED080A90
:103C100090ED090AD0ED011A90ED0E2A01EE820A0C
:103C200080ED090A90ED0C0A80ED0D0A90ED0B0A6B
:103C300080ED0C0A90ED0E0AD0ED0F1AB0EE002ABE
:103C400002EE610AD0ED101A30EE210A80ED0B0A67
:103C500090ED020AD0ED0B1A20EE210A80ED0A0A3F
:103C600090ED090AD0ED041AB4EEE10AF1EE10FA73
:103C700004DD90ED040A80ED090A10E090ED090AD8
:103C8000D0ED041AF1EE611AB4EEE10AF1EE10FA89
:103C900005D290ED040AB1EE400A80ED090A90EDDC
:103CA000080AD0ED091A30EE210AD0ED0A1A30EEDA
:103CB000210A80ED070A90ED070AD0ED031AB4EE51
:103CC000E10AF1EE10FA04DD90ED030A80ED070A37
:103CD00010E090ED070AD0ED031AF1EE611AB4EE90
:103CE000E10AF1EE10FA05D290ED030AB1EE400AB6
:103CF00080ED070A90ED070A71E700000000000060
:103D000030B58DB0044600208DF800002246012118
:103D1000684600F0E3FD0546284600F0C9FC22464F
:103D20000121042001F090F80546284600F0C0FC6F
:103D300085B90C208DF8020000218DF805100221B4
:103D40008DF8031001218DF804102246684601F019
:103D500098F9054628460DB030BD30B58DB0044603
:103D600001208DF8000022460121684600F0B6FDD2
:103D70000546284600F09CFC22460221042001F062
:103D800063F80546284600F093FC95B90C208DF8A1
:103D9000020000218DF8061002218DF80310012188
:103DA0008DF807108DF804102246684601F069F975
:103DB000054628460DB030BD00BF012003F008F8CD
:103DC000FBE700001CB5FCF7D9FE33488168884743
:103DD00000BF3148407E18B92F48007E012812D11B
:103DE0000020009001902C48406800231A464FF4B0
:103DF0000071446A2948A04700224FF40061284816
:103E0000FDF7FAFF44E00122D1022548FDF7F4FF57
:103E100021480068B0F9020000EE900AF8EEE00ACE
:103E2000B0EE600ADFED1F0A1B481C30FFF7D2FE20
:103E3000194880ED2A0A90ED2A0A1B4880ED000AF5
:103E4000154890ED2A1AF0EE410A0068B0F9040016
:103E500001EE100AB8EEC11AB0EE410A0E48603009
:103E6000FFF7B8FE0C4880ED290A90ED290A0F48AB
:103E700080ED000A00200090019007484068002370
:103E8000446A0B48B0F900204FF400710348A04782
:103E9000012002F09DFF9CE774000020F403002045
:103EA000000802400000FA43200000201C0000200F
:103EB0001800002000BF0A2002F08AFFFBE7000084
:103EC00000BF0548FDF7D3FF04484169884701203A
:103ED00002F07EFFF5E7000044040020740000209B
:103EE0001CB500BF00224FF480611748FDF784FF26
:103EF00016481749174B184ACDE9001017491848BA
:103F0000FCF75AFC1348B0F9000000EE100AB8EEB6
:103F1000C00ADFED140A20EE200A1348B0F90000B1
:103F200000EE900AF8EEE00A9FED101A01EE200A6A
:103F3000BDEEC00A10EE100A00B20B490880012045
:103F400002F046FFCEE700000008024028000020F3
:103F500026000020240000202E0000202C0000203D
:103F60002A000020CDCCCC3D300000206666663FA4
:103F700010B500BF502080F31188BFF34F8FBFF3FF
:103F80006F8F00BF06F03EFB18B14FF08050044920
:103F9000086000BF002080F3118800BF10BD000042
:103FA00004ED00E000B593B0302107A8FCF7DFFA7C
:103FB000142102A8FCF7DBFA00BF0020019026487C
:103FC000006840F08050244908600846006800F00E
:103FD0008050019000BF00BF00BF002001901F482B
:103FE000006840F480401D4908600846006800F4FD
:103FF0008040019000BF00BF092007904FF480303F
:10400000089001200C9002200D9041050E9119217D
:104010000F914FF4A8711091022111910421129176
:1040200007A8FEF7AFF908B1FCF7FEFE0F200290DB
:1040300002200390002004904FF4A05005904FF40C
:1040400080500690052102A8FEF73AF808B1FCF767
:10405000EBFE13B000BD000040380240007000408D
:104060000348006840F47000014908607047000090
:1040700088ED00E010B50248FEF75DFC10BD0000C1
:104080000409002010B50268294B98420ED0B0F107
:10409000804F0BD0274B984208D0274B984205D031
:1040A000264B984202D0264B984203D122F0700250
:1040B0004B681A431E4B984220D0B0F1804F1DD060
:1040C0001C4B98421AD01C4B984217D01B4B98425D
:1040D00014D01B4B984211D01A4B98420ED01A4B59
:1040E00098420BD0194B984208D0194B984205D0F2
:1040F000184B984202D0184B984203D122F44072D8
:10410000CB681A4322F080034C6943EA0402026040
:104110008B68C3620B688362054B984202D0084BE0
:10412000984201D10B6903630123436110BD000074
:10413000000001400004004000080040000C004066
:10414000000401400040014000440140004801409B
:1041500000180040001C00400020004010B502483C
:10416000FEF7C2FC10BD00005004002010B502484C
:10417000FEF7BAFC10BD00009404002070B505469F
:10418000AC6B0020E085E0842046FEF7ACFC70BDFF
:1041900000BF00BF02680C3252E8002F22F4907179
:1041A00002680C3242E80013002BF3D100BF00BFBD
:1041B00000BF0268143252E8002F22F001010268A9
:1041C000143242E80013002BF3D100BF016B012928
:1041D0000ED100BF00BF02680C3252E8002F22F05F
:1041E000100102680C3242E80013002BF3D100BF2B
:1041F000202180F83E1000210163704710B504466D
:104200002068C06820F040002168C860202084F841
:104210003D002046FFF7BDF8002010BDF8B504466C
:1042200094F83E00222873D1A068B0F5805F0CD1CD
:10423000206950B90025A66A20684068C0F30800CC
:104240003080A06A801CA06215E0A56A0026A068E4
:10425000B0F5805F03D0A06828B9206918B920683C
:104260004068287004E02068406800F07F002870F3
:10427000A06A401CA062E08D401E80B2E08500284C
:1042800044D12068C06820F020002168C860206800
:10429000C06820F480702168C8602068406920F000
:1042A000010021684861202084F83E00206B01282D
:1042B00026D10020206300BF00BF21680C3151E8E7
:1042C000001F21F0100021680C3141E80002002A93
:1042D000F3D100BF2068006800F0100010280AD158
:1042E00000BF0020009020680068009020684068AF
:1042F000009000BF00BFA18D2046FEF7F3FB02E057
:104300002046FFF745F80020F8BD01E00020FBE75C
:104310000220F9E72DE9F84F04462068006920F4EF
:104320004050E1680843216808612169A06808439A
:1043300061690843E169084300902068C06849F258
:104340000C618843009908432168C860206840696F
:1043500020F44070A16908432168486176492068CB
:10436000884203D075492068884203D1FDF7A2FF37
:10437000814602E0FDF78EFF8146E069B0F5004F0F
:104380006CD102206168A0FB015003461920A9FBF3
:10439000007001462A463846FCF740F86421B0FB1D
:1043A000F1F04FEA001A02206168A0FB01510B46B0
:1043B0001920A9FB00712A463846FCF72FF88346DE
:1043C00002206168A0FB015003461920A9FB00717F
:1043D0002A463846FCF722F86421B0FBF1F000EBE6
:1043E000C00101EB0010ABEB8000322101EBC000FB
:1043F0006421B0FBF1F000F0F8000AEB400A022063
:104400006168A0FB015003461920A9FB007001461A
:104410002A463846FCF702F8834602206168A0FB72
:10442000015003461920A9FB00712A463846FBF7C4
:10443000F5FF6421B0FBF1F000EBC00101EB0010CF
:10444000ABEB8000322101EBC0006421B0FBF1F046
:1044500000F007005044216888606AE00420616829
:10446000A0FB015003461920A9FB007001462A4613
:104470003846FBF7D3FF824604206168A0FB015059
:1044800003461920A9FB007001462A463846FBF76F
:10449000C5FF6421B0FBF1F000EBC00101EB00109F
:1044A000AAEB8000322101EB00106421B0FBF1F097
:1044B00000F0F00A04206168A0FB01700346192097
:1044C000A9FB00513A462846FBF7A8FF6421B0FB40
:1044D000F1F00AEB001A04206168A0FB01510B46C1
:1044E0001920A9FB00712A463846FBF797FF83463F
:1044F00004206168A0FB015003461920A9FB00704D
:1045000001462A463846FBF789FF6421B0FBF1F0EB
:1045100000EBC00101EB0010ABEB8000322101EB9E
:1045200000106421B0FBF1F000F00F00504421684E
:104530008860BDE8F88F00000010014000140140C1
:10454000014691F83D00212828D18868B0F5805FA8
:104550000BD1086948B90A6A1088C0F308000B68D3
:104560005860086A801C086205E00B6A581C0862E3
:1045700018780B685860C88C401E80B2C88458B93F
:104580000868C06820F080000B68D8600868C068C0
:1045900040F040000B68D860002070470220FCE724
:1045A00010B50248FEF7A0FA10BD0000D8040020A4
:1045B00010B50248FEF798FA10BD00001C05002057
:1045C00010B50248FEF790FA10BD0000600500200B
:1045D000026802B110B90222427670474A780B781D
:1045E00042EA032203681A80CA788B7842EA0322DF
:1045F00012B203685A804A790B7942EA032212B256
:1046000003689A8000BFE8E700BFFEE70248006841
:10461000C0F30220704700000CED00E010B5002848
:1046200004DB0A07130E054A135406E00A07140EAA
:10463000034A00F00F031B1FD45410BD00E400E038
:1046400018ED00E070B50446204602F0B5FB0546C3
:1046500035BB242020704FF40050A4F85A000320EA
:10466000A4F85800607A10B90120E07201E000203F
:10467000E072206908B90B482061204600F02AFC4E
:1046800005466DB90848E061084820620820207599
:10469000102060750720A075204600F090F80546B0
:1046A000284670BD9AAB00089ACB0008CACB000818
:1046B00000B900BF00BF704770B503460C4600212B
:1046C000002011E001EB4106D569AD5DA54209D19D
:1046D00001EB4106D56935442E881E80AD789D706A
:1046E000012004E04D1CE9B2557D8D42EADC00BF9B
:1046F00070BD2DE9F74F0E46144610274FF0000805
:104700004FF0300A4FF0000906B114B94FF0FF35F1
:1047100052E0207D9DF8001088424BDD23460122A7
:1047200069462F2000F05AFC0546002D39D1E0895A
:10473000102836D2E08900EBD0714910A0EB41017E
:1047400011B1E089401EE08128E0E089B84214DC24
:10475000E28906EB09012346504600F06BF8054656
:10476000A07B484400F0FF09A07B504400F0FF0A02
:10477000A07B404400F0FF080BE006EB0901234654
:104780003A46504600F056F8054608EB070000F0A0
:10479000FF08C8F11000C7B205B101E0002FD4DC5A
:1047A0000AE04DB9234610223146302000F042F88D
:1047B000054601E06FF009052846BDE8FE8F7FB58C
:1047C0000446002594F8580000F00200A8B12046E5
:1047D00002F0E6FA054675B928208DF80000224659
:1047E0000121684600F009FA054635B9BDF8040014
:1047F000A4F8540001E04FF0FF35284604B070BD26
:1048000070B505460C46204602F0CAFA06466EB957
:1048100065B144F62060226D61689047234601220D
:104820002946212000F006F8064601E04FF0FF3649
:10483000304670BD2DE9F84F81460E4617461C469E
:104840000025204602F0ACFA8246BAF1000F40D1B2
:10485000002E3ED0E07A38441FFA80FBCDF800B03D
:104860000098FBF785FD8046607A08B949F0800919
:1048700094F8570001280DD15A4641464846D4F8CD
:1048800048C06368E047A0724FF4E170226D616830
:1048900090470BE05A4641464846D4F848C0636802
:1048A000E047A0721420226D61689047A07A50B949
:1048B00006E0E07A284418F800007055681C85B2BC
:1048C000BD42F6DB01E06FF0010A4046FBF77FFDD9
:1048D00001E04FF0FF3A5046BDE8F88F2DE9F04770
:1048E0000546884617464FF00009384602F058FA48
:1048F0000646002E74D1002D72D097F857900024F0
:1049000068E104EB840000EBC40015F820000428E3
:1049100007D204EB840000EBC40015F82000022845
:1049200007D1B9F1010F04D13946002000F027FB6F
:104930000646002E7BD104EB840000EBC40015F882
:1049400020001D2874D2DFE800F00F1B27333F4CF6
:1049500064656674808C98A4B3BFCBD7E3F5F3F29B
:10496000F1F0EFA5A6A7580004EB840101EBC40108
:1049700005EB8101881C394600F09AFE064624E1C9
:1049800004EB840101EBC40105EB8101881C39466D
:1049900001F00FF9064618E104EB840101EBC401B4
:1049A00005EB8101881C394600F073FF06460CE1D7
:1049B00004EB840101EBC40105EB8101881C39463D
:1049C00001F062FD064600E104EB840101EBC40145
:1049D00005EB8101881C394600F0EBFE0646F4E049
:1049E00006E104EB840101EBC40105EB8101881CA5
:1049F000394601F01BFB0646E7E004EB840101EBBE
:104A0000C40105EB8101881C394601F050FE0646C1
:104A1000DBE000BF00BF04EB840101EBC40105EB48
:104A20008101881C394601F0E2FD0646CDE0CDE06B
:104A3000C8E004EB840101EBC40105EB8101881C93
:104A4000394601F03FF90646BFE004EB840101EB73
:104A5000C40105EB8101881C394601F0DDFE0646E4
:104A6000B3E004EB840101EBC40105EB8101881C78
:104A7000394601F00FFF0646A7E004EB840101EB85
:104A8000C40105EB8101881C394601F054F8064643
:104A90009BE000BF00BF00BF04EB840101EBC40139
:104AA00005EB8101881C394601F068FF06468CE061
:104AB00004EB840101EBC40105EB8101881C39463C
:104AC00001F0D7FB064680E004EB840101EBC40152
:104AD00005EB8101881C394601F0AAF9064674E00D
:104AE00004EB840101EBC40105EB8101881C39460C
:104AF00001F036FA064668E004EB840101EBC401DC
:104B000005EB8101881C394600F062FF06465CE037
:104B100004EB840101EBC40105EB8101881C3946DB
:104B200000F018FF064650E040E033E01AE025E0D0
:104B30000CE0FFE704EB840101EBC40105EB81010C
:104B4000881C394601F06EFF06463EE004EB840106
:104B500001EBC40105EB8101881C394602F025F800
:104B6000064632E004EB840101EBC40105EB810150
:104B7000881C394601F0C7FF064626E004EB840195
:104B800001EBC40105EB8101881C394602F05FF896
:104B900006461AE004EB840101EBC40105EB810138
:104BA000881C394601F0F3FB06460EE004EB840155
:104BB00001EBC40105EB8101881C394600F063FF5D
:104BC000064602E06FF0070600BF00BF06B104E032
:104BD000601CC4B24445FFF694AE00BFB9F1010FAA
:104BE00008D13EB93946012000F0C9F9064601E076
:104BF0004FF0FF363046BDE8F0872DE9F047054617
:104C0000884617464FF00009384602F0C9F80646B4
:104C1000002E75D1002D73D097F857900024BCE07A
:104C200005EB04100078042807D3B9F1010F04D173
:104C30003946002000F0A3F90646002E71D105EB9D
:104C4000041000780F2853D00FDC072838D005DC7B
:104C5000E0B1012823D0022875D129E0082837D0F7
:104C600009284ED00E28F7D13AE0262851D006DC8C
:104C700013285FD016285ED020287DD16CE027282D
:104C800050D0282860D02D2876D16DE005EB041196
:104C9000081D3A460C2100F071FD06466FE005EB59
:104CA0000411081D3A46122101F0A3F8064666E0F9
:104CB00005EB0411081D394602F0C6FB06465EE00E
:104CC00005EB0411081D394601F05FFD064656E06C
:104CD00005EB0411081D394601F060FC06464EE064
:104CE00005EB0411081D394601F021FB064646E09C
:104CF00005EB0411081D394601F009F906463EE0AE
:104D00004FE005EB0411081D394601F038F806465E
:104D100035E005EB0411081D394601F0E4F90646BB
:104D20002DE02FE005EB0411081D394601F0F0FDE0
:104D3000064624E000BF05EB0411081D394601F0CA
:104D4000B9FE06461BE017E005EB0411081D3946C5
:104D500000F064FF064612E005EB0411081D394619
:104D600000F0D1FC06460AE005EB0411081D3946A7
:104D700001F0FAF9064602E06FF0070600BF00BF37
:104D800006B10DE0B9F1010F05D126B93946012070
:104D900000F0F5F80646601CC4B24445FFF640AF8B
:104DA00001E04FF0FF363046BDE8F08770B50446AD
:104DB0000D46284601F0F4FF064646B93CB12B46A5
:104DC000012221460320FFF735FD064601E04FF0A2
:104DD000FF36304670BD000000B50146002211B319
:104DE00001204872487A012809D100F0F8FA6920B8
:104DF0000F4B18700F4888640F48C8640AE0487A5F
:104E000040B900F0EEFA0020094B18700B48886496
:104E10000B48C864064848600A4808650820C881ED
:104E20000020086101E04FF0FF32104600BD000095
:104E300020010020519D0008799D0008D99D00089F
:104E4000E19D0008439D00082DE9F84305460E4604
:104E500090462C462807070E00200090434601226A
:104E600069465820FFF7E6FC8146B9F1000F2DD1C5
:104E7000042E29DA36B1012E0BD0022E0ED0032ECD
:104E800018D110E044EA07009DF80010814300911A
:104E900011E09DF80000204300900CE09DF8000018
:104EA0003843009007E044EA07009DF800100843EB
:104EB000009000E000BF00BF434601226946582031
:104EC00000F08CF8814601E06FF00B094846BDE820
:104ED000F88300003EB5044600200290164903C93D
:104EE000CDE90001204601F05BFF054615BB2046D9
:104EF00000F046FA0546EDB92346012202A900203A
:104F0000FFF798FC0546ADB920789DF80810884257
:104F10000BD1102020730120E0750098C4F83500F3
:104F2000BDF80400A4F8390004E09DF808002070E2
:104F30006FF0020528463EBD94AB00082DE9FC4108
:104F400005460F461646002100910191304601F0BA
:104F500027FF044674B96DB16A463946284602F007
:104F600099FA044644B93246DDE9000102F0C8FB73
:104F7000044601E04FF0FF342046BDE8FC81F8B55F
:104F800006460C4600200090204601F009FF054629
:104F900015BB2346012269467C20FFF74BFC0546E2
:104FA000D5B99DF8000066F3000000902346012269
:104FB00069467C2000F012F805464FF4FA70226D25
:104FC000616890470DB16FF00C052DB99DF8000098
:104FD00000F0010084F857002846F8BD2DE9F0479D
:104FE00005460E4690461C460027204601F0D8FE96
:104FF0008146B9F1000F3FD1002E3DD0607A08B94B
:1050000005F07F0594F85700012817D1002712E01A
:10501000F119EA19D0B20122D4F84CC06368E04714
:10502000A0724FF4E170226D61689047A07A00B1E0
:1050300003E0781C87B24745EADB0BE04246314685
:105040002846D4F84CC06368E047A0721420226D53
:10505000616890477C2D0AD1307800F0010018B1CA
:10506000012084F8570002E0002084F85700A07A5D
:1050700020B16FF0010901E04FF0FF394846BDE86B
:10508000F0872DE9F0470646884617464FF000099D
:10509000384601F085FE0446002C70D1002E6ED0FB
:1050A00097F85790002558E1B9F1010F04D139461E
:1050B0000020FFF764FF0446002C7BD105EB850040
:1050C00000EBC50016F820001D2874D2DFE800F0C0
:1050D0000F1B274B333F64656674808C98A4B3BF65
:1050E000CBD7E3F5F3F2F1F0EFA5A6A7580005EB57
:1050F000850101EBC50106EB8101881C394602F0F0
:1051000022FE044624E105EB850101EBC50106EB17
:105110008101881C394603F04DFA044618E105EB7D
:10512000850101EBC50106EB8101881C394602F0BF
:1051300029FF04460CE105EB850101EBC50106EBF7
:105140008101881C394602F09FFE044600E105EB10
:10515000850101EBC50106EB8101881C394603F08E
:10516000C7FC0446F4E005EB850101EBC50106EB45
:105170008101881C394603F0B9FE0446E8E0FAE0F4
:1051800005EB850101EBC50106EB8101881C394661
:1051900004F013F80446DBE000BF00BF05EB850117
:1051A00001EBC50106EB8101881C394603F089FF3C
:1051B0000446CDE0CDE0C8E005EB850101EBC5017B
:1051C00006EB8101881C394603F097FA0446BFE0DC
:1051D00005EB850101EBC50106EB8101881C394611
:1051E00004F00DF90446B3E005EB850101EBC501C0
:1051F00006EB8101881C394604F0BCF90446A7E09F
:1052000005EB850101EBC50106EB8101881C3946E0
:1052100003F047F904469BE000BF00BF00BF05EB69
:10522000850101EBC50106EB8101881C394604F0BC
:105230002AFA04468CE005EB850101EBC50106EB7B
:105240008101881C394603F0D1FC044680E005EB5F
:10525000850101EBC50106EB8101881C394603F08D
:10526000E6FA044674E005EB850101EBC50106EBA7
:105270008101881C394603F095FB044668E005EB84
:10528000850101EBC50106EB8101881C394602F05E
:10529000F1FF04465CE005EB850101EBC50106EB7F
:1052A0008101881C394602F022FF044650E040E0AC
:1052B00033E01AE025E00CE0FFE705EB850101EBA8
:1052C000C50106EB8101881C394604F054FA0446F6
:1052D0003EE005EB850101EBC50106EB8101881C71
:1052E000394604F0C4FB044632E005EB850101EBCE
:1052F000C50106EB8101881C394604F0ABFA04466F
:1053000026E005EB850101EBC50106EB8101881C58
:10531000394604F055FC04461AE005EB850101EB23
:10532000C50106EB8101881C394603F00FFD0446D8
:105330000EE005EB850101EBC50106EB8101881C40
:10534000394603F040F8044602E06FF0070400BF5E
:1053500000BF04B104E0681CC5B24545FFF6A4AE29
:1053600000BFB9F1010F08D13CB939460120FFF760
:1053700006FE044601E04FF0FF342046BDE8F0870A
:105380007CB50446B620019000200090204601F034
:1053900007FD05460DBB2346012201A97E20FFF72C
:1053A0001DFE05464FF4FA60226D616890470120AA
:1053B00084F8570045B9607A30B92346012269461E
:1053C0000020FFF737FA05461DB9204600F00BF81C
:1053D000054615B900212164616428467CBD002082
:1053E00070470020704738B50446002000902046E2
:1053F00001F0D6FC054625BBB4F85A0008B3E08995
:1054000000EBD0714910A0EB410111B1E089401EC1
:10541000E081E089022801DA0220E081204604F0E0
:1054200035FF05467DB921466846FFF7E9F905468F
:105430004DB99DF8000000F0010020B96FF008059B
:1054400001E04FF0FF35284638BD38B50446234605
:10545000012269461B20FFF7EDF90546DDB99DF8ED
:105460000000C0F3820000909DF8000030B10128D8
:1054700006D0022807D003280BD107E0002509E059
:105480006FF0040506E06FF0050503E06FF0060518
:1054900000E000BF00BF284638BD30B504460020FC
:1054A00084B125788D4204DA21701D7A45F001051A
:1054B0001D722578954207DD22701D7A45F00205A0
:1054C0001D7201E04FF0FF3030BD10B5B1F854301F
:1054D000848813FB04F2D31702EBD3530488A4EBA4
:1054E00063231BB2038010BDF8B505460C46234666
:1054F000012269464420FFF79DF90646BEB9A97905
:105500009DF8000061F30710009069799DF8000094
:1055100061F3030000902346012269464420FFF70F
:105520005DFD06464FF47A70226D61689047304603
:10553000F8BD2DE9FC4105460C4600200190009085
:1055400000272346022201A94B20FFF773F90646E4
:10555000002E5FD1E9799DF8040061F347008DF8D2
:10556000040069789DF8050061F3C7108DF8050007
:10557000A9789DF8050061F386108DF80500E9789B
:105580009DF8050061F383008DF8050029799DF8E9
:10559000050061F301008DF8050000BF2146684653
:1055A000FFF704FC064646BB9DF8000000F004002F
:1055B00018BB2346022201A94B20FFF70FFD064628
:1055C0004FF47A70226D61689047AEB9687878B907
:1055D0000020E0752346012205F108014D20FFF768
:1055E000FDFC06464FF47A70226D6168904703E037
:1055F0000120E075E87820760BE042F21070226D11
:1056000061689047781CC7B2142FC7DD6FF00E0693
:1056100000BF00BF3046BDE8FC8110B5034601F075
:10562000ABFB044600BF01F0A7FB001B9842FAD376
:1056300010BD70B503460C460021002011E001EBBF
:105640004106156AAD5DA54209D101EB4106156A17
:1056500035442E881E80AD789D70012004E04D1CDD
:10566000E9B2957D8D42EADC00BF70BDF0B502461F
:1056700000200746401CCC5D0746401CCB5D44EA39
:1056800003252EB216800746401CCC5D0746401C01
:10569000CB5D44EA03252EB256800746401CCC5D04
:1056A0000746401CCB5D44EA03252EB29680F0BD30
:1056B000F8B504460D4600200090284601F070FB26
:1056C0000646E6B9DCB12B46022269464020FFF7C8
:1056D000B1F80646AEB99DF80000C009A0709DF86B
:1056E0000000C0F3021060709DF8000000F00F0091
:1056F00020709DF8010000F00300E07001E04FF021
:10570000FF363046F8BD2DE9F04186B004460E461E
:10571000002700200290039004900590002501903E
:105720003246202101A8FFF784FF8046B8F1000F20
:105730001ED09DF80500324602A9FEF7DAFF0746A3
:10574000C7B99DF8065002A8405D00F00100207026
:1057500002A8405DC0F34000607002A8405DC0F345
:105760008000A07002A8405DC0F3C000E07001E0BE
:105770006FF00707384606B0BDE8F0812DE9FC411F
:1057800007460D461446002000900190234606224D
:1057900069462846FFF74EF806463EB96946384640
:1057A000FFF764FF2146384600F028FE3046BDE88A
:1057B000FC812DE9F04F85B0044688460020019019
:1057C000029003900490002700904246042168460E
:1057D000FEF772FF8346BBF1000F3ED09DF801003B
:1057E000424601A9FEF785FF0646002E37D19DF8F7
:1057F00002703846791CCFB201A911F800903846E2
:10580000791CCFB201A9085C4FEA002A49EA0A05CF
:10581000C5F30C002080C5F34030A080C5F3803074
:10582000E080E80B20813846791CCFB201A911F83D
:1058300000903846791CCFB201A9085C4FEA002AD3
:1058400049EA0A05C5F30A006080C5F3C3206081F8
:10585000A17A252000F8081001E06FF00706304615
:1058600005B0BDE8F08FF8B504460D462B46012281
:1058700069464420FEF7DEFF064646B99DF8000063
:105880000009A0719DF8000000F00F006071304623
:10589000F8BD70B505460E46304601F081FA044663
:1058A00094B98DB13146284600F012F804466CB91F
:1058B0003146284600F01EF804463CB931462846D9
:1058C000FFF7D1FF044601E04FF0FF34204670BDE2
:1058D000F8B504460D462B46012269466B20FEF7BB
:1058E000A9FF064626B99DF80000C0F340102070BD
:1058F0003046F8BDF8B504460D46002000902B4612
:10590000022269464B20FEF795FF064606BB9DF82E
:1059100000004008E0719DF80100C00960709DF82A
:105920000100C0F38010A0709DF80100C0F3810059
:10593000E0709DF8010000F003002071607838B934
:105940002B46012204F108014D20FEF773FF0646A5
:105950003046F8BD2DE9F04F85B005460E460020D3
:105960000190029003900490002780468146824671
:105970000090324612216846FEF79EFE8346BBF138
:10598000000F1FD09DF80100324601A9FEF7B1FEBD
:105990000446CCB99DF802703846791CCFB201A9F3
:1059A00011F800803846791CCFB201A9085C4FEA93
:1059B000002948EA090ACAF34300288029783120DF
:1059C000815501E06FF00704204605B0BDE8F08F77
:1059D0002DE9F04F85B004468846002001900290E2
:1059E000039004900027814682460025009042469D
:1059F00011216846FEF760FE8346BBF1000F3CD0E4
:105A00009DF80100424601A9FEF773FE0646002EEE
:105A100035D19DF802703846791CCFB201A911F832
:105A200000903846791CCFB201A9085C4FEA002AE1
:105A300049EA0A05C5F345002080C5F3C11060801E
:105A4000C5F3432020813846791CCFB201A911F853
:105A500000903846791CCFB201A9085C4FEA002AB1
:105A600049EA0A0505F03F00A080C5F38710E080F1
:105A7000217A302000F8081001E06FF00706304668
:105A800005B0BDE8F08F2DE9F04F87B00446884699
:105A900000200390049005900690002682468346DD
:105AA000814601904246182101A8FEF705FE0290AA
:105AB0000298002839D09DF80500424603A9FEF758
:105AC00018FE0546002D32D19DF806603046711C47
:105AD000CEB203A911F800A03046711CCEB203A9C2
