:020000040800F2
:1000000018560020310300089548000841410008B7
:100010001D480008090E0008BD530008000000003C
:100020000000000000000000000000007102000855
:100030008B1C000800000000CD020008014E0008E3
:100040004B0300084B0300084B0300084B03000858
:100050004B0300084B0300084B0300084B03000848
:100060004B0300084B0300084B030008AD180008C1
:10007000B9180008C5180008D1180008DD180008D4
:10008000E91800084B0300084B0300084B03000865
:10009000890E00084B0300084B0300084B030008BF
:1000A0004B0300084B0300084B0300084B030008F8
:1000B000D94E00084B0300084B0300084B0300080F
:1000C0004B0300084B0300084B0300084B030008D8
:1000D0004B0300080952000859520008C952000891
:1000E0004B0300084B0300084B0300084B030008B8
:1000F0004B0300084B0300084B030008F5180008E9
:100100004B0300084B0300084B0300084B03000897
:10011000AD4F0008C54F00084B0300084B03000813
:100120004B0300084B030008011900084B030008AB
:100130004B0300084B0300084B0300084B03000867
:10014000990E00084B0300084B0300084B030008FE
:100150004B0300084B0300080D1900084B0300086F
:100160004B0300084B0300084B0300084B03000837
:100170004B0300084B0300084B030008000000007D
:100180004B0300084B03000800F002F800F060F891
:100190000AA090E8000C82448344AAF10107DA45E2
:1001A00001D100F055F8AFF2090EBAE80F0013F0D4
:1001B000010F18BFFB1A43F00103184764E1000068
:1001C00084E100000A444FF0000C10F8013B13F0EA
:1001D000070408BF10F8014B1D1108BF10F8015BA0
:1001E000641E05D010F8016B641E01F8016BF9D193
:1001F00013F0080F1EBF10F8014BAD1C0C1B09D1EA
:100200006D1E58BF01F801CBFAD505E014F8016B5B
:1002100001F8016B6D1EF9D59142D6D370470000ED
:100220000023002400250026103A28BF78C1FBD8FF
:10023000520728BF30C148BF0B6070471FB50BF095
:100240004EFB9DE8030000F03FFA1FBD10B510BD46
:1002500000F0A6FA1146FFF7F1FF07F0F9FD00F0F4
:10026000C4FA03B4FFF7F2FF03BC00F0F5FA000094
:100270002C4B19680868B0E8F04F80F30988BFF389
:100280006F8F4FF0000080F311887047000000006E
:1002900008480068006880F308884FF0000080F389
:1002A000148862B661B6BFF34F8FBFF36F8F00DF64
:1002B00000BF00BF08ED00E0DFF80C00016841F46A
:1002C00070010160704700BF88ED00E0EFF3098026
:1002D000BFF36F8F134B1A681EF0100F08BF20ED8D
:1002E000108A20E9F04F106009B44FF0500080F3FD
:1002F0001188BFF34F8FBFF36F8F0AF0FDFA4FF0F5
:10030000000080F3118809BC19680868B0E8F04F54
:100310001EF0100F08BFB0EC108A80F30988BFF3FD
:100320006F8F704704080020EFF3058070470000CE
:100330000948804709480047FEE7FEE7FEE7FEE779
:10034000FEE7FEE7FEE7FEE7FEE7FEE704480549B5
:10035000054A064B70470000C94E00088901000895
:100360001850002018560020185200201852002063
:1003700070B5064600F08CF9056806F10B0020F018
:100380000704B4429CBF002070BD2B466A68BAB116
:100390001068A04210D304F1080188423CBF5068A5
:1003A000586007D35168101941601168091B01603A
:1003B00058601460101D70BD13465268002AE7D1C2
:1003C0002146284600F06CF90028DED170BD70B5DA
:1003D0000446051F00F05CF90068002C14BF446857
:1003E00070BD002C18BFAC423CBF20466468F8D3F7
:1003F00001680A18AA4218BF456003D12A68054659
:100400001144016028684119A1421CBF6C6070BD95
:100410006168696021680844286070BD53EA020C75
:1004200000F069802DE9F04B4FF00006002B1FBF54
:10043000B3FA83F503FA05F424FA05F65E4012BF19
:100440001643B2FA82F502FA05F4C5F120051EBF83
:1004500022FA05FC44EA0C04203556EA044C4FEA23
:10046000144418BF641C4FF000084FF0000990427C
:1004700071EB030C39D3002919BFB1FA81F701FAE6
:1004800007F6B0FA80F700FA07F6C7F120071EBF9B
:1004900020FA07FC46EA0C062037B6FBF4FCA7EB73
:1004A0000507103F07F01F0BCBF120060CFA0BFBE2
:1004B0002CFA06F644BFB3460026202FA4BF5E46A2
:1004C0004FF0000B5BEA060C08BF4FF0010B19EB75
:1004D0000B09ABFB027C48EB0608C01B06FB02CCF9
:1004E0000BFB03CC71EB0C01C1E70B460246414606
:1004F0004846BDE8F08B13B54FF000004FF0000107
:10050000AFF30080BDE81C407047032A40F2308002
:1005100010F0030C00F0158011F8013BBCF1020F44
:10052000624498BF11F801CB00F8013B38BF11F8C5
:10053000013BA2F1040298BF00F801CB38BF00F8DC
:10054000013B11F0030300F02580083AC0F0088059
:1005500051F8043B083A51F804CBA0E80810F5E73D
:10056000121D5CBF51F8043B40F8043BAFF3008020
:10057000D20724BF11F8013B11F801CB48BF11F895
:10058000012B24BF00F8013B00F801CB48BF00F865
:10059000012B704710B5203AC0F00B80B1E818501D
:1005A000203AA0E81850B1E81850A0E81850BFF45D
:1005B000F5AF5FEA027C24BFB1E81850A0E81850FC
:1005C00044BF18C918C0BDE810405FEA827C24BF50
:1005D00051F8043B40F8043B08BF7047D20728BFDE
:1005E00031F8023B48BF11F8012B28BF20F8023B2D
:1005F00048BF00F8012B70474FF000020429C0F0FB
:10060000128010F0030C00F01B80CCF1040CBCF144
:10061000020F18BF00F8012BA8BF20F8022BA1EB96
:100620000C0100F00DB85FEAC17C24BF00F8012B7B
:1006300000F8012B48BF00F8012B70474FF0000273
:1006400000B5134694469646203922BFA0E80C50C8
:10065000A0E80C50B1F12001BFF4F7AF090728BFA3
:10066000A0E80C5048BF0CC05DF804EB890028BF1F
:1006700040F8042B08BF704748BF20F8022B11F048
:10068000804F18BF00F8012B7047704770477047C4
:1006900000487047C04F0020704770477047704750
:1006A00038B504460A4600206946AFF300800028AA
:1006B00008BF38BD02460099204600F04FF80120DF
:1006C00038BD012000F064B8F8B5AFF300800546EE
:1006D00000200C46102000BF0646A819A0420DD9E4
:1006E000324669460020AFF30080070008BF00F0E3
:1006F0004FF80098A04218BF0546C419FFF7C8FF7D
:1007000005600746F01D20F007004619284600F056
:100710000AF8B44208BFF8BDA21B31463868BDE8EC
:10072000F84000F01BB800210160C0E901107047DB
:100730001020704710B500F00DF8006810BD10B51E
:10074000044600F007F8046010BD00000048704740
:10075000B84F002000487047B84F0020034640685B
:100760008C46002818BF88423CBF03464068F8D337
:1007700018681844884207D00CF1030020F00700E5
:10078000001D411A521A0146081D0A60FFF71FBEDC
:1007900010B500F039F8BDE8104000F02FB87047F0
:1007A0007546FFF7D3FFAE4605006946534620F075
:1007B0000700854618B020B5FFF7C8FDBDE820400A
:1007C0004FF000064FF000074FF000084FF0000B0D
:1007D00021F00701AC46ACE8C009ACE8C009ACE8C0
:1007E000C009ACE8C0098D46704710B50446AFF3A8
:1007F00000802046BDE81040FFF733BD002801D03F
:1008000000F02AB87047000010B5012805D000217B
:1008100003A000F027F8012010BD09A1F8E70000AF
:1008200053494752544D454D3A204F7574206F66D9
:100830002068656170206D656D6F72790000000041
:100840003A2048656170206D656D6F727920636F25
:10085000727275707465640001491820ABBEFEE7C2
:100860002600020070B505460C460A2000E06D1C0B
:1008700000F011F835B128780028F8D102E0641CA6
:1008800000F009F814B120780028F8D1BDE87040D4
:100890000A20AFF3008008B569468DF800000320F8
:1008A000ABBE08BD2DE9F04115462DED0A8B0E4675
:1008B0008046B3F90030DDE9110700EE103ADDE9BA
:1008C0001321F8EEC00AFE4CDDF840C0C4ED0E0A5C
:1008D000BCF9003000EE103A0323B8EEC00A84EDF4
:1008E0000F0AB0F9000090FBF3F000B200EB4000FB
:1008F00000EE100AB8EEC00A84ED100AB7F9000045
:1009000000EE100AB8EEC00A84ED110AB2F9000038
:1009100001EE100AB8EEC11A84ED121AB1F9000006
:1009200020EE010A01EE900AF8EEE11AC4ED131A66
:1009300020EE210AB5EEC00AF1EE10FA7DD0E14FAB
:10094000397B9FEDE18AFDEEE00AB0EE480A10EE39
:10095000900A00B207F04EFA84ED0E0AD4ED0F0AA9
:10096000397BB0EE480AFDEEE00A10EE900A00B2C4
:1009700007F040FA84ED0F0AD4ED100A397BB0EE8F
:10098000480AFDEEE00A10EE900A00B207F032FAD3
:1009900094ED0E1ADFEDCD0A21EE201A20EE200A8A
:1009A00084ED0E1A94ED0F1A21EE201A84ED0F1A21
:1009B00084ED100AD4ED110A397BB0EE000AFDEE89
:1009C000E00A10EE900A00B207F028FA84ED110A4E
:1009D000D4ED120A397BB0EE000AFDEEE00A10EE0B
:1009E000900A00B207F01AFA84ED120AD4ED130A45
:1009F000397BB0EE000AFDEEE00A10EE900A00B27C
:100A000007F00CFA84ED130AD4ED110A20EEA01AB7
:100A1000D4ED120A00EEA01A00EE001AB0EE410A60
:100A200007F0D2F984ED070AD4ED110A60EE803A9E
:100A3000C4ED113AD4ED120A00E05EE120EE805AD6
:100A4000B0EE008A84ED125AD4ED130A20EE802A0B
:100A500084ED132A94ED041AD4ED061A94ED030ADA
:100A6000D4ED050A61EE212A40EE602A62EE885A32
:100A700060EE012AC4ED085A40EEA12A22EE886AEF
:100A800060EE002A84ED096A41EE412A40EEE02A38
:100A900041EEA12AC4ED0A2A25EE223A02EE463A98
:100AA00022EE252A03EEE22A63EE863A84ED0B3A23
:100AB00045EE653A84ED0C2AC4ED0D3AD4ED145A96
:100AC000D4ED012A43EE225AC4ED145A94ED155A7E
:100AD00002EE225A84ED155AD4ED164A43EEA24A8C
:100AE000C4ED164AD4ED0E2A94ED004A44EE032AD2
:100AF00032EEA53A84ED0E3AD4ED0F2A44EE022AE6
:100B000072EE852AC4ED0F2A94ED102A60EE225A67
:100B100004EE232AB0EE404A32EE242A61EE434A24
:100B200084ED102A84ED170A40EEE24A84ED181A8B
:100B3000C4ED190AC4ED1A1AD4ED023A41EE425A34
:100B400041EEC24A04EEA34AF0EE414A84ED034A64
:100B5000B0EE445A20EE034A00EE824A01EEE24A29
:100B600044EE234AC4ED044A20EE020A41EE835AC1
:100B7000B0EE604A01EE220A05EEA34A00EEC30A77
:100B800084ED054A40EE231A25EE050A04EEA40A78
:100B9000C4ED061A04EE040A01EEA10A07F014F9E6
:100BA00084ED070AD4ED030A20EE80BA84ED03BA7F
:100BB000D4ED040A20EE809A84ED049AD4ED050A5F
:100BC00060EE808AC4ED058AD4ED060A60EE809A54
:100BD0002BEE0B0AC4ED069A09EE490A08EEE80A64
:100BE00009EEA90A10EE100A0AF008FE28EE880A9B
:100BF0006BEE080A41EC1A0B20EE290A00EE890A76
:100C000010EE100A0AF0FAFD41EC100BB0EE4A1A91
:100C1000F0EE6A1A04F018FF9FED2DAB51EC100BAB
:100C200053EC1A2B0AF02AFB0AF0AEF8306094ED70
:100C3000040AD4ED060A94ED051A20EE080A20EE07
:100C4000200AD4ED030A60EE880A00EEC10A10EE15
:100C5000100A0AF0D3FD41EC100B04F0D9FB9FED14
:100C60001E1B51EC100B53EC112B0AF007FB0AF082
:100C70008BF8C8F80000D4ED038A94ED04CA94ED13
:100C800005BA28EEA80AD4ED06BA0CEE0C0A0BEE53
:100C90004B0A0BEEEB0A10EE100A0AF0AFFD2CEE39
:100CA0000B0A41EC190B08EEAB0A20EE080A10EE15
:100CB000100A0AF0A3FD41EC100BB0EE491A0FE048
:100CC00064010020C00800200000FA44728A8E3CB3
:100CD0000000006066A64C400000006066A64CC0A4
:100CE000F0EE691A04F0B0FE53EC1A2B51EC100B25
:100CF0000AF0C4FA0AF048F828600020BDEC0A8B1C
:100D0000BDE8F0812DE9F047804691460F4612205C
:100D100003F03EFB0446132003F03AFB44EA0026AE
:100D2000142003F035FB0446152003F031FB44EAA0
:100D30000025162003F02CFB0446172003F028FBA7
:100D4000A8F8006044EA00203D80A9F80000BDE852
:100D5000F0872DE9FE4F1546DDE90C9A0E46074651
:100D60000C221C466946104603F038FBBDF8008093
:100D7000BDF802C0BDF80430BDF80620BDF808106B
:100D8000BDF80A00A4F80080A9F800C0AAF8003055
:100D90003A8031802880BDE8FE8F000038B51948C0
:100DA00005F07AFC05F0FAF8164805F0BBF80446A1
:100DB00005F0F4F824BB01208DF800000146114A2B
:100DC000684605F0F7FC05F0E9F80E4803F05FFF10
:100DD00000208DF800000B4A0121684605F0EAFC6E
:100DE00005F0DCF8074803F028FF02208DF800002A
:100DF000044A0121684605F0DDFC044605F0CEF802
:100E0000204638BDC0080020FEE7000070B51B4C2E
:100E1000A0F20120062830D2DFE800F00309101804
:100E20001F262269154890471448616922E013483B
:100E3000226B203005469047616B05E00F48226D1C
:100E4000403005469047616D284613E00B48226FFD
:100E5000603005469047616FF6E7094C20462269ED
:100E600090472046616905E0064C2046226990477C
:100E700061692046BDE87040084770BD78050020D4
:100E800090070020B0070020014801F000BC0000DE
:100E9000700D002070470000014801F0F8BB000011
:100EA000980D0020008840BA7047408840BA00B2D0
:100EB0007047808840BA00B2704780797047000060
:100EC00010B58AB000200121CDE9060108910490F7
:100ED00000900190029003900E24059069460994B9
:100EE0000B4801F0D9FA0A4801F001FE0221084836
:100EF00001F052FA69460748059401F0CDFA054819
:100F000001F0F5FD0221034801F046FA0AB010BDD8
:100F1000700D0020980D002010B50B4C036888B0B0
:100F2000A34202D0094CA3420BD1009100210291AF
:100F300003910821049106AB694601F03FFA0028AD
:100F400000D0012008B010BD0064004000680040DF
:100F500010B5102211491248FFF7D7FA1148007E48
:100F6000012807D11048C078012803D110210C486E
:100F7000FFF742FB0A4A4FF400710C48FFF7CCFF21
:100F8000074A40F2FF1108320848FFF7C5FFBDE8E5
:100F9000104010210248FFF72FBB00002809002055
:100FA000AC0800202C02002005000020700D00205D
:100FB00010B500F00BF80448007808B900F046FAC4
:100FC000BDE8104000F02ABA6C08002070B50E4C45
:100FD0000025607801280FD00C48406845700C4807
:100FE0008068B0F90200A0F59051A93901D02571AF
:100FF00070BD0120207170BD064800780028EED138
:1010000000F00AF8EBE70000050000204400002093
:101010002C0100206C0800202DE9F05FA74CA84EA1
:101020002DED048B60684378DFEDA60AA74ADFF850
:1010300098A2A74DDFF89C82A4F10C07D10C4FF4C5
:10104000805B13B1042B79D029E1D8F80430C14674
:10105000DFF868C293F80180994BACF10C0CB8F141
:10106000000F1B689CED000A04D0CC46B8F1010FBC
:1010700030D014E1B3F9061001EE101AB8EEC11A1F
:1010800021EE000A80EE201ABDEEC10A10EE101A01
:101090004180306897ED001A6168B0F9040000EEF5
:1010A000100AB8EEC00A20EE010A80EE201ABDEE4A
:1010B000C10A10EE100A8880306897ED001AB0F966
:1010C000000000EE100AB8EEC00A20EE011A81EE10
:1010D000200A6EE0B3F9063001EE103AB8EEC11AFC
:1010E00021EE000A80EE201ABDEEC10A10EE103A81
:1010F0004380306897ED001A6368B0F9040000EE91
:10110000100AB8EEC00A20EE010A80EE201ABDEEE9
:10111000C10A10EE100A9880DCF80800DAF80060C6
:10112000438836889B1BDCF804601BB25B45A6F83D
:10113000443004DDA3F5F853FF3B03E040E0934265
:1011400002DA0B44A6F84430B6F944605B4606F573
:1011500000669E420CD9B0F902609E42068804DD0A
:10116000A6F580564680002001E0468001202871C7
:10117000DCF80800DAF8006040883688801BDCF86C
:10118000046000B25845A6F8440003DDA0F5F8500D
:10119000FF3802E0904202DA0844A6F84400B6F9AB
:1011A0004400D7ED010A00EE100AB8EEC00A20EEA6
:1011B000200A6168BDEEC00A10EE100AC8806EE019
:1011C00097ED020ABDEEC00A10EE103AC3803068F7
:1011D000B0F90630B0F9040000EE103AB8EEC01ACB
:1011E00097ED000A21EE001AC1EE208A01EE100AE6
:1011F000D8F80800B8EEC11A4388DAF8000021EEEA
:10120000000A008880EE208A181A03B2D8F8040079
:101210005B45A0F8443005DDA3F5F853FF3BA0F88B
:10122000443004E0934202DA1944A0F84410B0F9C3
:101230004410DFED290A00EE101AB8EEC00A20EEC5
:10124000200ADFED260A20EE200A80ED120A04F0C3
:10125000C3FDD8F8040020EE289A90ED120A04F09D
:101260000BFE08EE409A6168BDEEC90A10EE100A46
:101270004880D8F8040090ED120A04F0FDFDD8F87B
:10128000040060EE288A90ED120A04F0A5FD48EEF5
:10129000008A6168BDEEE80A10EE100A888028799D
:1012A000002807D160684188494241806068818890
:1012B00049428180BDEC048BBDE8F09F44000020D2
:1012C0002C020020000025449007002000F0FFFFC2
:1012D000050000202C0100200000343D4DF38E3C21
:1012E00030B4104B104C1A682260596861609868DD
:1012F000A060DB68E3601034156825600D686560E8
:101300000568A5601D68E5605468074A103A1460D6
:1013100049685160406890605868D06030BC00F007
:1013200067B80000200000208C0800202DE9F0475D
:101330000024214F7D25DFF88480DFF884A02E0172
:101340004FF4006907EB4410417F11B9007F012879
:1013500027D1B8F80010B1FBF6F006FB101204EB31
:101360004400C0EBC410B2EB400F09DDB1FBF6F254
:1013700006FB121205EB40039A4201DC002211E049
:10138000B1FBF6F206FB121205EB40039A420DDDAB
:10139000B1FBF6F206FB1211FA2202EB4000814289
:1013A00004DC01224946504601F050FE641C24B280
:1013B000042CC7DBBDE8F087780500200000002082
:1013C00000080240016851B148B10A7E521C0A76F9
:1013D0000B7E4A7E934205D90A76012106E002215E
:1013E00041777047017F0129FBD1002101777047C8
:1013F00010B5094C2046E1688847E16A04F12000F5
:101400008847E16C04F14000884704F16000E16E18
:10141000BDE81040084700007805002010B5002105
:10142000094800F0D3F80121074800F0CFF8022165
:10143000054800F0CBF80321034800F0C7F8BDE8E9
:101440001040014800F090B8200000207FB53E48D1
:101450003E4D01224168B1F9021000EE101AB8EEBB
:10146000C00A8DED000A4168B1F9041000EE101AAF
:101470006946B8EEC00A8DED010A4068B0F9060071
:1014800000EE100AB8EEC00A8DED030A9DED001AB9
:10149000DDED010A286871EE201A806871EE801A6D
:1014A000C0ED071A70EEC11A686871EE801A806884
:1014B000C0ED071A71EE601AA868B1EE411A71EE1C
:1014C000801A806871EE600AC0ED071AE86830EE95
:1014D000800A806880ED070A084604F065FC01A9CF
:1014E0000122084604F060FC03A90122084604F02A
:1014F0005BFC012302AA01A9684604F060FC02AA71
:10150000012303A9104604F05AFC114902988842AD
:1015100019DD0024DDED020A55F824000A490123F3
:1015200080680C3990ED070A80EE201A80ED071ACA
:1015300055F8240080681C30024604F08FFC641CBF
:10154000E4B2042CE6D37FBD440000208C080020C8
:101550000000FA4510B5034800F05AF8BDE8104005
:10156000FFF734BD2000002070B5154C154B00204E
:1015700054F820100A7FAAB14D6800226D6803EB71
:101580004505A5F5805585F8FE2B4968401CC0B27D
:101590004968042803EB4101A1F5805181F8FF2B34
:1015A000E6D370BD4D68084A6D6832F8102003EB31
:1015B0004505A5F58055160A85F8FE6BE5E70000A0
:1015C0008C080020280900201800002070B50E4D5E
:1015D0000C4655F8241088680968D0ED070AB1F95F
:1015E000021000EE101AB8EEC00A03F0D3F955F855
:1015F00024000649806880ED280ABDEEC00A10EE7E
:10160000100A21F8140070BD8C080020180000207A
:101610002DE9F05F5448554EDFF854B14FF0000803
:101620002DED028B81789FED538A534D06F1100703
:10163000012902D18146C07868B10020414657F89F
:101640002020926882ED288A25F81010401CC0B234
:101650000428F4D33FE0484C4FF0010A0C3CA0684A
:1016600020B906F027FCC4F808A0206006F022FC90
:1016700060602168411A4148814209D989F8028095
:1016800089F803A0C4F80880C4F80480C4F8008076
:101690000024F0EE480A57F82400806880ED078A9D
:1016A00057F8241088680968B1F9021000EE101A82
:1016B000B8EEC00A03F06EF957F82400806880ED98
:1016C000280ABDEEC00A10EE100A25F81400641CAA
:1016D000E4B2042CDDD332682988584653680C0ADA
:1016E0000BEB4303A3F5805383F8FE4B52680BEBDF
:1016F0004202A2F5805282F8FF1B72686988536823
:101700000C0A0BEB4303A3F5805383F8FE4B52689E
:101710000BEB4202A2F5805282F8FF1BB268A98847
:1017200053680C0A00EB4303A3F5805383F8FE4B88
:10173000526800EB4202A2F5805282F8FF1BF26869
:10174000E98853680C0A00EB4303A3F5805383F840
:10175000FE4B52680BEB4200A0F5805080F8FF1B57
:10176000BDEC028BBDE8F09F050000207C08002046
:1017700028090020000000001800002080841E00BE
:1017800070470000016871B168B10A880B89D21AEC
:101790004A81B1F90A20B2F5805F07DD4A89A2F5D6
:1017A000F852FF3A0BE0022141777047B1F90A2065
:1017B00012F5805F04DA4A8941F6FF731A444A81C0
:1017C00001680A880A810168CA68B1F90A301A44B6
:1017D000CA6001680A8800EE102AF8EE400A9FED00
:1017E0000A0A60EE800AC1ED040A0168CA6800EEC8
:1017F000902AF8EEE00A20EE800A81ED050A0068E2
:101800000021017670470000F398173B016871B121
:1018100068B10A880B89D21A4A81B1F90A20B2F557
:10182000805F07DD4A89A2F5F852FF3A0BE00221FA
:1018300041777047B1F90A2012F5805F04DA4A89CE
:1018400041F6FF731A444A8101680A880A810168D7
:10185000CA68B1F90A301A44CA6001680A8800EE01
:10186000102AF8EE400A9FED0A0A60EE800AC1EDE8
:10187000040A0168CA6800EE902AF8EEE00A20EE39
:10188000800A81ED050A006800210176704700009A
:101890000000343D10B5044C2068816888476068BA
:1018A0008168BDE810400847D0070020014801F0DA
:1018B000ABB90000E00F0020014801F0A5B900001D
:1018C000C0110020014801F09FB90000200F002046
:1018D000014801F099B9000020120020014801F0F0
:1018E00093B90000800F0020014801F08DB900007D
:1018F00060110020014801F087B90000401000206D
:10190000014801F081B90000A0100020014801F059
:101910007BB90000001100202DE9F04F85680024FC
:10192000099E802D18D0894DC563894D456490F876
:101930003450012D15D0012580F8345090F83550E1
:10194000012D10D0002180F834100224002180F8ED
:1019500034102046BDE8F08F4FF4807141650120BE
:10196000F8E70220F6E7022580F8355000254565A6
:1019700005682F6847F480272F6005682B6103688E
:101980005E608368402B03682AD099600168CA6052
:10199000714D704E704FDFF8BC81DFF8B891DFF801
:1019A000B8A1DFF8B4B1EA14DFF8A8E1016818368D
:1019B00030379302A9F148090AF1600A0BF1180BBC
:1019C000AEF1300E4FF0006C41452DD9A94205D043
:1019D000494503D0514501D0B14205D1202220E034
:1019E0009A600268D160D3E759451AD0714518D082
:1019F000594D7835A94214D0564D3035A94210D0F2
:101A0000B9420BD0534A183A914207D0524A903209
:101A1000914203D04F4A4832914201D11A4600E028
:101A200062464C494C392EE0DFF82C8108F1A808B9
:101A300041452AD9A94205D0494503D0514501D095
:101A4000B14201D120221CE059451AD0714518D06D
:101A5000414D7835A94214D03E4D3035A94210D0C1
:101A6000B9420BD03B4A183A914207D03A4A9032D9
:101A7000914203D0374A4832914201D11A4600E0E0
:101A80006246344950390A605AE0DFF8CC8008F1E8
:101A9000480841452AD9A94205D0494503D05145B6
:101AA00001D0B14201D120221CE059451AD0714524
:101AB00018D0294D7835A94214D0264D3035A94289
:101AC00010D0B9420BD0234A183A914207D0224A8B
:101AD0009032914203D01F4A4832914201D11A46B6
:101AE00000E062461C491039CA6029E0A94205D0CD
:101AF000494503D0514501D0B14201D120221CE01B
:101B000059451AD0714518D0134D7835A94214D0D3
:101B1000104D3035A94210D0B9420BD00D4A183AB9
:101B2000914207D00C4A9032914203D0094A483280
:101B3000914201D11A4600E06246074910398A6095
:101B400001680A6842F001020A60FFE6016D0008C0
:101B5000196D0008586402401060024001681823A3
:101B6000CAB2103AB2FBF3F2054B6FF30901032A34
:101B70009B5CC36500D9091D81650846704700005C
:101B8000CCD9000810B5014600208B698A6A4FF055
:101B9000C07453B1B3F5005F15D072B1012A0CD0F7
:101BA000022A0AD0032A09D104E01AB1012A06D078
:101BB000022A03D1C96AC90100D5012010BDC96A32
:101BC000A142FAD010BD002AF7D0012AF2D0022A91
:101BD000F3D0032AF3D010BD70B590F83450002430
:101BE000012D0CD0012580F8345090F83560002587
:101BF000012E06D080F834500224204670BD022009
:101C000070BD022680F83560456505682E6826F4AB
:101C100080262E6005686B608368402B036808D0BF
:101C200099600168CA600068016841F001010160C3
:101C3000E3E79A600268D160F5E710B503F0F0FAC7
:101C400003F016FB03F04CFB03F068FBBDE810400B
:101C5000FFF736B901680A68D20604D5C968C90613
:101C600001D508F05FBC704770EE601AF5EEC01A3F
:101C7000F1EE10FA01DC70EEC01AF4EEC11AF1EECA
:101C800010FA01D2B0EE600A7047704772B6FEE7F4
:101C900010B500F08FF800F083FA0448007808B916
:101CA00000F0F0F9BDE8104000F098B9B80000204D
:101CB00010B53B482DED028B01680988394C6268EC
:101CC000D181006840886168888137480168098847
:101CD000626851830068408861689FED358A088397
:101CE00032480168B1F90C1000EE101A6168B8EEC4
:101CF000C00A81ED010A016891ED000A616881ED79
:101D0000020A0168B1F90E1000EE101A6168B8EE0F
:101D1000C00A81ED040A016891ED010A616881ED54
:101D2000050A006820EE080AB0F9101000EE901ABB
:101D30006168F8EEE00AC1ED070AD0ED020AC1EDD4
:101D4000080A04F049F86068D0ED010A60EE208AC4
:101D500090ED050A20EE080A04F08EF86068D0EDD8
:101D6000070A40EE808AC0ED098A90ED080A20EE4D
:101D7000080A04F031F86068D0ED040A60EE208AA9
:101D800090ED080A20EE080A04F076F86068D0EDBD
:101D9000070A40EE808AC0ED0A8ABDEC028B10BDB6
:101DA000900700202C010020B0070020F401002043
:101DB0004DF38E3C10B5FFF77BFF0D4802F08AFD16
:101DC0000C4802F087FD0C4C607838B10B48007865
:101DD00000280CD1BDE8104000F012B802F0B8FEA7
:101DE000002804D02078002801D10120607010BDA7
:101DF00090070020B007002005000020B800002058
:101E00001D481E491C4B4068283B09688278012AFE
:101E10000CD0A2B1418BA0F8401090ED050A80EDE6
:101E20000E0A90ED020A80ED0B0A7047B1F902101C
:101E3000B3F9102091FBF2F1A0F84210EDE7428BCC
:101E4000A0F84020B1F9022000EE102AF8EEC00AF6
:101E500093ED060A80EE801A80ED0F1AB1F900109A
:101E600000EE901AF8EEE00AF1EE600A80EE801AB9
:101E700080ED0C1A704700002C0100202C0200207D
:101E80000748084990ED030A2830406880ED0E0AA3
:101E900090ED020A80ED0B0A0020087070470000E8
:101EA00004010020050000200C480C490068B439EA
:101EB00002680A6042684A6001680A680749AC39EA
:101EC0000A60426812684A6001684A680349BC397E
:101ED0000A6040684068486000F072B82C01002039
:101EE000064901F128000A894068A0F84020498885
:101EF000818603490020087070470000040100201B
:101F0000050000202DE9F0411E48007F1E4F1F4DA7
:101F10004FF480664FF47A74012816D12888B0FBFC
:101F2000F4F104FB110131B1B0FBF4F104FB110039
:101F30007D280AD004E000223146384601F086F8B8
:101F40001348007F012802D010E00122F4E728881E
:101F5000B0FBF4F104FB1101FA2909D0B0FBF4F154
:101F600004FB1100A0F58071773908D1012200E04F
:101F7000002231463846BDE8F04101F067B8BDE8BF
:101F8000F0810000900700200008024000000020BF
:101F9000B0070020016851B148B10A7E521C0A7690
:101FA0000B7E4A7E934205D90A76012106E0022182
:101FB00041777047017F0129FBD1002101777047EC
:101FC000044810B5C16888470348C168BDE810409F
:101FD0000847000090070020B007002010B5054812
:101FE00000F064F9044800F009F8BDE8104000F082
:101FF000FBB8000090070020B007002070B5204D0E
:1020000004466868A1688278012A01D06AB124E098
:10201000B0F94020B0F91A0000EE102AF8EEC00A1C
:1020200000EE100AB8EEC00A03E0D0ED0E0A90ED03
:10203000050A01F1500002F0ADFCA068F0EE400A84
:1020400080ED290A6968A06891ED041AB0EE410A92
:1020500002F0A0FCA06880ED280AA0686168084A28
:1020600090ED280A4968C03ABDEEC00A02EB410172
:10207000A1F5805110EE100AA1F8F60B70BD00001A
:102080002C01002030B4414CA4F128036068417851
:1020900021B1012945D030BC00F0E4B8B0F84010BF
:1020A000B0F84220114409B2A0F84010B3F924203E
:1020B000914203DCB3F92620914201DAA0F84020D6
:1020C0005988C289891A09B24FF48052A0F8441085
:1020D000914203DDA1F5F851FF3905E011F5805F6C
:1020E00004DA41F6FF752944A0F84410B0F9440021
:1020F00000F5006090420ED9A068254CB0F902109E
:102100009142018804DDA1F580514180002001E069
:102110004180012020711D4958887439888630BC5F
:10212000704790ED0E0AD0ED0F0A70EE200AC0ED58
:102130000E0A90ED0B0A90ED0C1A30EE010A80EDBC
:102140000B0A93ED071AF4EEC10AF1EE10FA06DC61
:1021500093ED081AF4EEC10AF1EE10FA01D280ED07
:102160000E1A10EE101A0B4ADFED0B0A914202DD37
:1021700030EE600A06E010EE101A084A9142CED9FD
:1021800030EE200A80ED0B0AC9E700002C01002088
:1021900005000020000034430000B443000034C3B5
:1021A0000848017801290CD14078002809D1064857
:1021B0004068407818B1012803D1FFF761BEFFF7EE
:1021C0008FBE7047050000202C01002010B500F0E4
:1021D00049F8FFF7EFFD034801210170002141702C
:1021E00010BD0000050000201A4810B5047F1A4AEF
:1021F0001A4900233CB10B724B721948047FACB1F1
:102200008B72CB7210BD4068446802EB4404A4F5A5
:102210008054B4F8F64B240A0C72406802EB40007C
:10222000A0F5805090F8F60B4872E6E740684368E6
:1022300002EB4303A3F58053B3F8F63B1B0A8B7202
:10224000406802EB4000A0F5805090F8F60BC87291
:1022500010BD0000900700206C000020280900201D
:10226000B00700200F499FED0E0A0868826882EDD2
:10227000280A49680022896881ED280A806809498E
:1022800090ED280A0C39BDEEC00A10EE100A088045
:102290004A800549030A0B7248728A72CA727047F3
:1022A00000000000780000202809002070B5364D9D
:1022B00004466868417811B1012921D052E0B0F993
:1022C0003420B0F90E10521AB2F5805F03DD41F6EA
:1022D000FF72114405E012F5805F03DAA1F5F851B1
:1022E000FF39C1816868B0F93410B0F90E0000EE12
:1022F000101AF8EEC00A00EE100AB8EEC00A1DE08F
:10230000D0ED0B0A90ED020A204A9FED211A70EEE3
:10231000C00A10EE901A914202DD30EE010A06E08A
:1023200010EE901A1B4A914203D930EE410A80ED1B
:10233000020A6868D0ED0B0A90ED020AA0685030DE
:1023400002F028FBA068F0EE400A80ED290A6968D7
:10235000A06891ED011AB0EE410A02F01BFBA068E3
:1023600080ED280AA0686168074A90ED280A49684C
:10237000C03ABDEEC00A02EB4101A1F5805110EE5A
:10238000100AA1F8F60B70BD2C01002000003443A8
:102390000000B443000034C390F82020012A07D085
:1023A000022A05D0416A41F4802141620120704730
:1023B000006842690A43426100207047F0B590F816
:1023C00020500468A468012D05D0022D03D0416A75
:1023D00041F480215DE014F0406F01D1E50055D556
:1023E000C4F30164022C03D9416A41F4000150E0B6
:1023F0000125A5401D608B684FF4C0759BB1CE6868
:1024000033434E6843EAC603066805EB0417F351ED
:102410004FF4C273076803EB04130E69FE50097D85
:10242000012905D009E00E88CB6843EA4653EBE763
:102430000168CE5846F48076CE501179D37956791A
:1024400041EA036193791B0443EA062319434FF4DD
:10245000C676036806EB041699511178D37841EAE1
:102460000361937852781B0443EA022211434FF42C
:10247000C473026803EB0413D150006805EB041128
:10248000425842F0010242500020F0BD416A41F43E
:10249000001141620120F0BD10B590F82020012A02
:1024A00007D0022A05D0416A41F48021416201200F
:1024B00010BD3B48D0F8002242F00102C0F80022D3
:1024C000D0F8002222F47C52C0F80022D0F800227A
:1024D0004B6A42EA0322C0F800220A7D02F01F0381
:1024E00001229A40D0F81C329343C0F81C32CB69C9
:1024F000B3B9D0F80C329343C0F80C328C894B68D6
:1025000064F31F434C6900EBC404C4F840320C89E7
:102510000B6864F31F434C6900EBC404C4F84432F5
:10252000CB69012B16D1D0F80C321343C0F80C3212
:102530000C884B6864F31F434C6900EBC404C4F877
:1025400040320C89CB6864F31F434C6900EBC40430
:10255000C4F844328B69002BD0F804320ED01343F8
:10256000C0F804320B69002BD0F8143208D01343A2
:10257000C0F81432096A012904D008E09343EFE758
:102580009343F5E7D0F81C121143C0F81C12D0F8A1
:10259000001221F00101C0F80012002010BD00005F
:1025A00000640040704730B590F82040012C05D001
:1025B000022C03D0416A41F480215DE004680029C7
:1025C00055D02469A40754D04FF4D874056804EB9F
:1025D00001142D5915F00405956005682D594ED04C
:1025E000ED08556005682C5904F00204D4604FF4DE
:1025F000DA74056804EB01142D5905F00F05156117
:1026000005682D59C5F30725956105682C59240CDB
:1026100054614FF4DC72046802EB0112A4581C7080
:102620000468A458240A5C700468A458240C9C70A4
:102630000468A258120EDA704FF4DE72046802EBDE
:102640000112A4581C710468A458240A5C7104681F
:10265000A458240C9C710468A258120EDA71006808
:1026600081B1016941F020010161002030BDE468C1
:10267000A8E7416A41F400114162012030BD6D0DAF
:102680001560AFE7C16841F02001C160EDE72DE9B9
:10269000F05F0546006800244669D0F8049087681A
:1026A000D0F80CB0D0F810A0D0F81880F10748D0BE
:1026B000F90714D001218160B80703D5284600F03E
:1026C00042FA0CE0780702D54FF4006407E03807BF
:1026D00002D54FF4805402E0284600F033FAF805A2
:1026E00016D529684FF480708860B80503D5284650
:1026F00000F02BFA0CE0780502D544F4005407E012
:10270000380502D544F4804402E0284600F01CFA63
:10271000F80316D529684FF480308860B80303D5D4
:10272000284600F014FA0CE0780302D544F4004483
:1027300007E0380302D544F4803402E0284600F074
:1027400005FA300707D55FEACB6004D52968102069
:1027500044F40074C86070074FF0080707D55FEABB
:102760000B7004D52868C760284600F097F9B007B9
:1027700006D52868C068800702D0284600F090F986
:10278000700607D55FEACA6004D52968102044F4B2
:1027900080640861B00607D55FEA0A7004D528682E
:1027A0000761284600F0A0F9F00606D52868006900
:1027B000800702D0284600F098F9B00308D55FEAF8
:1027C000C96005D5296810204860284600F08EF9B8
:1027D000F00307D55FEA097004D5286847602846EA
:1027E00000F0B6F9300446D55FEA497040D5F005EF
:1027F00004D55FEAC87001D044F00104B00504D5E7
:102800005FEA887001D544F00204700504D55FEAE0
:10281000487001D544F00404300529D518F0700F34
:1028200026D008F07000402815D006DC102809D00A
:1028300020280AD0302816D10AE050280ED060286F
:1028400011D10EE044F008040DE044F010040AE059
:1028500044F0200407E044F0400404E044F0800425
:1028600001E044F480742868816921F0700181617D
:10287000296804204860002C05D0686A20436862FB
:102880002846FFF78FFEBDE8F09F70B5040003D027
:1028900094F8200010B104E0012070BD204600F043
:1028A00081F82068016841F00101016000F0D4FB6B
:1028B0000546052604E000F0CFFB401B0A2811D88E
:1028C00020684068C007F6D02068016821F0020146
:1028D000016000F0C1FB05460BE000F0BDFB401BB2
:1028E0000A2806D9606A40F40030606284F82060EB
:1028F000D2E7206840688007EFD4207E0128206856
:1029000001683DD021F080010160607E01282068CF
:10291000016838D021F040010160A07E01282068C4
:10292000016833D021F020010160E07E0128206899
:1029300001682ED041F010010160207F012820683D
:10294000016829D021F008010160607F012820681A
:10295000016824D021F004010160D4E90201084398
:10296000D4E90412114308436168491E08432168F1
:10297000C86100206062012084F82000002070BD42
:1029800041F08001C0E741F04001C5E741F020017E
:10299000CAE721F01001CFE741F00801D4E741F088
:1029A0000401D9E7F0B587B0044614216846FDF765
:1029B00045FE3549354ADFF8CCE00868D4F800C058
:1029C000324B03240225092610320027401CF4450F
:1029D00021D10860012807D1106840F00070106014
:1029E000106800F000700590186840F0080018604A
:1029F00018688DE8B00000F00800CDE90460694671
:102A00000394234800F03AFA00220521142000F034
:102A100005FC142031E0DFF87CE0F4452FD1D2F83A
:102A200000C04CF0806CC2F800C0D2F800C0012891
:102A30000CF0806CCDF814C0086007D1106840F02D
:102A400000701060106800F000700590186840F089
:102A5000020018601868694600F0020005906020C6
:102A60008DE8A100CDE903460B4800F007FA0022EB
:102A70000521402000F0D2FB402000F0C1FB07B050
:102A8000F0BD000000640040F00700203038024034
:102A9000000C024000680040000402407047000043
:102AA00070B50E4B04461D46A3F11C020021FFF732
:102AB0007AFD0A480A491C388C4205D1006829462B
:102AC000BDE87040FEF7A2B906498C4205D1006806
:102AD0002946BDE87040FEF7DDB970BD54090020FD
:102AE000700D0020980D002070477047704770B53A
:102AF000044690F82000012804D0606A40F40020C9
:102B0000606217E0022084F820002068016821F04C
:102B10000101016000F0A0FA05460DE000F09CFA0A
:102B2000401B0A2808D9606A40F400306062052022
:102B300084F82000012070BD20684068C007EDD1F6
:102B4000606270BD7047704770477047704770474C
:102B500070472DE9F0410446876D00F07DFA054687
:102B600094F835000026022806D08020606584F89D
:102B700034600120BDE8F0812068016821F0160171
:102B800001602068416921F080014161206C08B931
:102B9000A06C20B12068016821F008010160206864
:102BA000016821F0010101600CE000F055FA401BC2
:102BB000052807D920206065032084F8350084F8B3
:102BC0003460D7E720680068C007EED194F85C1045
:102BD0003F208840B860012084F8350084F83460D4
:102BE0000020C7E790F83510022903D08021416505
:102BF00001207047052180F835100068016821F038
:102C000001010160002070472DE9F84304464FF0B0
:102C10000009CDF8009063484FF41651A56D006887
:102C2000B0FBF1F72E6894F85C20082101FA02F05D
:102C300030420FD02068026852070BD5026822F09C
:102C40000402026094F85C008140A960606D40F06D
:102C50000100606594F85C104FF0010808FA01F07B
:102C6000304208D021684969090604D5A860606D22
:102C700040F00200606594F85C1004208840304207
:102C800008D021680968890704D5A860606D40F004
:102C90000400606594F85C1010208840304218D021
:102CA00021680968090714D5A860206801684903EC
:102CB00004D50068000308D5A16C07E00168C905C8
:102CC00003D4016821F008010160216C09B120469C
:102CD000884794F85C1020208840304231D0216829
:102CE0000968C9062DD5A86094F835000528206824
:102CF000016806D0490347D5006800031DD4616C04
:102D00001CE021F0160101602068416921F080017A
:102D10004161206C08B9A06C20B12068016821F0E5
:102D20000801016094F85C103F208840A86084F896
:102D3000358084F83490216D1FE0E16B09B12046A5
:102D40008847606D00282BD0606DC00714D0052027
:102D500084F835002068016821F0010101600098C5
:102D6000401C0090B84203D820680068C007F6D124
:102D700084F8358084F83490E16C002910D001B0DB
:102D80002046BDE8F04308470168C905D5D401686D
:102D900021F01001016084F8358084F83490CCE78C
:102DA000BDE8F883000800202DE9F041044600F05A
:102DB00053F905465CB1022084F83500002684F8FA
:102DC00034602068016821F0010101600DE00120FC
:102DD000BDE8F08100F040F9401B052805D920200E
:102DE0006065032084F83500F2E720680068C007BA
:102DF000F0D121680A6820480240D4E90103184351
:102E0000D4E903352B43184363691843A369184376
:102E1000E3691843236A18431043626A042A03D102
:102E2000D4E90B231A431043086020684069656A9F
:102E300020F0070128460D43012704280CD1A06A81
:102E40000543E06A40B12046FEF79CFE20B14020D9
:102E5000606584F83570BAE7206845612046FEF762
:102E60007DFE94F85C203F2191408160666584F886
:102E700035700020ACE700003F8010F02DE9F84FDE
:102E8000DFF89C910022A9F1040B03274FF00F0CEF
:102E900009F1040AABF1040E01250B6895402B40A3
:102EA000AB426ED10C7904F00304012C01D0022C4A
:102EB00015D18668540007FA04F826EA0806D1F806
:102EC0000C8008FA04F848EA0608C0F8088044684C
:102ED000AC430D79C5F300159540254345600C7949
:102EE000E443A40708D0C568540007FA04F6B543C4
:102EF0008E68A6402E43C6600C7904F00304022CB1
:102F000011D1D40800EB8406356A5407E40E0CFA9C
:102F100004F825EA0805D1F8108008FA04F848EA10
:102F20000508C6F820800568540007FA04F6B54382
:102F30000E7906F00306A6402E4306604C6814F492
:102F4000403F66D0374C256845F4804525602468AD
:102F500022F0030504F480440094334C05EB04088C
:102F6000D8F808589407260F0CFA06F4A5432F4CFE
:102F7000A04201D1002424E02D4CA04202D1012422
:102F80001FE046E02B4CA04201D1022419E02A4C5C
:102F9000A04201D1032414E0284CA04201D1042412
:102FA0000FE0274CA04201D105240AE0254CA042A5
:102FB00001D1062405E0244CA04201D1072400E001
:102FC0000824B4402C43C8F80848D9F800404D46BE
:102FD0004E689C43F60200D51C432C60DAF8004092
:102FE00055464E689C43B60200D51C432C60DBF866
:102FF00000405D464E689C43B60300D51C432C60E0
:10300000DEF8004075464E689C43F60300D51C432D
:103010002C60521C102AFFF43FAFBDE8F88F00006F
:10302000083C0140443802400030014000000240AA
:103030000004024000080240000C02400010024060
:103040000014024000180240001C02400AB18161D5
:1030500070470904FBE700000148806870470000E2
:10306000F407002070B5040011D021684CF6CC4064
:103070000860216845F255500860D4E900014160BC
:103080002168A0688860FFF7E7FF05460CE0012093
:1030900070BDFFF7E1FF401B312805D92068C068EB
:1030A000800701D0032070BD2068C0688007F0D180
:1030B00021684AF6AA200860002070BD00684AF620
:1030C000AA2101600020704709480168094A127866
:1030D000114401604FF08041496A006800EB4002F2
:1030E000C2EBC01001EBC00003490860704700004C
:1030F000FC070020F4070020D80700200B4810B57B
:10310000016841F400710160016841F4806101606F
:10311000016841F480710160032000F09FF80F20E6
:1031200000F006F800F050F8002010BD003C02400E
:1031300030B50546204887B00024016841F0010100
:103140000160006806A900F001000590684600F0E3
:1031500031F90398B0B100F04DF9400017494FF034
:103160008042B0FBF1F11648491E026040F2E7329E
:10317000C0E90324C0E90114846100F03BFB0400B2
:1031800003D015E000F036F9E8E70D4800F060FBE9
:1031900004000DD11C2000F033F8102D07D20022BE
:1031A00029461C2000F03AF80648056000E001249A
:1031B00007B0204630BD00004038024040420F00BA
:1031C00080120020F80700200C4882B0016841F40A
:1031D00080410160006800F4804000900748001FB3
:1031E000016841F0805101600068002200F08050C9
:1031F00000900F21901E02B000F010B84438024039
:10320000002809DB00F01F020121914040098000E5
:1032100000F1E020C0F8001170470000F0B40E4B40
:103220001B68C3F30223C3F10704042C00D9042450
:103230001D1D072D01D2002300E0DB1E012606FA2A
:1032400004F56D1E0D409D409E40761E164045EAD9
:103250000601F0BC02F0CBB80CED00E0064A00F02D
:10326000070110684FF6FF03184040EA01200349A8
:1032700008431060704700000CED00E00000FA0504
:103280002DE9F0470D46040065D0DFF81491D9F818
:103290000000EFB200F00700A84207D289F80070E2
:1032A000D9F8000000F00700A84254D120683D4E34
:1032B000810712D5400703D5306840F4E0503060F4
:1032C0002078000703D5306840F4604030603068F3
:1032D000A16820F0F000084330602078C0072DD0AE
:1032E000304960680839012812D0022813D0032819
:1032F00011D00968890700292DDA316821F003010E
:1033000001433160FFF7A8FE804641F2883A0EE0A3
:1033100009688903EFE709688901ECE7FFF79CFE7C
:10332000A0EB0801514502D90320BDE8F0873068C1
:10333000616800F00C00B0EB810FEFD1D9F80010FC
:10334000484601F00701A94207D90770006800F05C
:103350000700A84201D00120E7E72078400705D503
:103360003068E16820F4E0500843306020780007BE
:1033700006D53068216920F4604040EAC100306021
:1033800000F058F83168084AC1F30311515CC84095
:103390000649086006480068FFF7CAFE0020C4E737
:1033A000003C024008380240D4D900080008002040
:1033B000F80700200F2202600C4A136803F0030391
:1033C0004360136803F0F0038360136803F4E05371
:1033D000C36012684FF4E05303EAD202026104486A
:1033E000006800F0070008607047000008380240DD
:1033F000003C02400448054900680968044AC1F3DA
:103400008221515CC8407047000800200838024003
:10341000E4D900080448054900680968044AC1F372
:103420004231515CC8407047000800200838024013
:10343000E4D90008154810B5006810F00C011448D4
:1034400013D0144B04290FD008290ED10F4C241F80
:10345000216801F03F022168490207D52068C0F3C6
:103460008810A0FB030106E0184610BD2168C1F3D7
:103470008811A1FB00010023FCF7D0FF2168C1F3F4
:103480000141491C4900B0FBF1F010BD0838024071
:103490000024F40040787D012DE9F84F040075D038
:1034A0002078DFF838A3C007AAF1040548D00AF154
:1034B00004000168C1F38101012908D00068C0F34C
:1034C000810002280AD1DAF80000400206D52868F7
:1034D000800335D560680028E1D031E06068B0F540
:1034E000803F10D0B0F5A02F286810D020F4803095
:1034F0002860286820F4802028606068A0B1FFF769
:10350000ABFD06460CE0286840F48030F4E740F458
:1035100080202860F7E7FFF79FFD801B642871D8A3
:1035200028688003F7D50BE0FFF796FD064604E018
:10353000FFF792FD801B6428F1D828688003F7D438
:103540002078DFF89C9280074FF0000B3DD5A34810
:10355000001D016811F00C0F08D00068C0F3810055
:1035600002280AD1DAF80000400206D42868800751
:1035700015D5E068012809D111E0E068B8B1012053
:10358000C9F80000FFF768FD064605E022E1FFF7F5
:1035900063FD801B0228C2D828688007F7D52868F9
:1035A000216920F0F80040EAC10028600DE0C9F868
:1035B00000B0FFF751FD064604E0FFF74DFD801B0C
:1035C00002281FD828688007F7D42078000722D562
:1035D000824F84486169703771B101210160FFF742
:1035E0003BFD064604E0FFF737FD801B022809D8A3
:1035F00038688007F7D50EE0C0F800B0FFF72CFD63
:10360000064605E082E0FFF727FD801B02287DD8F3
:1036100038688007F7D42078400765D56F484FF0A9
:1036200000083C300068C0000BD46C483C30016896
:1036300041F08051016000684FF0010800F08050B7
:103640000090694F3868C0050FD4386840F4807026
:103650003860FFF701FD064604E0FFF7FDFC801B24
:10366000022853D83868C005F7D55C4FA0686C377E
:1036700001280FD00528386810D020F001003860EC
:10368000386820F004003860A068B0B1FFF7E4FCAF
:1036900006460EE0386840F00100F4E740F0040010
:1036A0003860F7E7FFF7D8FC811B41F28830814290
:1036B00063D838688007F5D50DE0FFF7CDFC0646E6
:1036C00006E0FFF7C9FC811B41F28830814254D8E3
:1036D00038688007F5D4B8F1000F05D03F483C307A
:1036E000016821F080510160A069B8B33B49091D10
:1036F0000968C1F38101022946D00228584606D044
:10370000C9F86000FFF7A8FC044639E035E04F46F1
:10371000C9F86000FFF7A0FC064604E0FFF79CFC38
:10372000801B022829D828688001F7D4D4E9070132
:103730000843A16A2D4A490802EB0141626A41EA45
:103740008211084394F82C1040EA0161CAF8001075
:1037500001203866FFF780FC044605E03CE0FFF7F7
:103760007BFC001B022808D828688001F7D533E0CD
:10377000FFF772FC001B022802D90320BDE8F88F76
:1037800028688001F4D427E00128F7D0DAF8000097
:10379000E26900F4800191421CD1226A00F03F01ED
:1037A000914217D147F6C071626A0140B1EB821FA6
:1037B00010D1A26A4FF0FF3300F4403103EB520204
:1037C000B1EB024F06D194F82C1000F07060B0EB12
:1037D000016F01D00120D1E70020CFE7043802407B
:1037E00000004742800E4742007000400000FFFF8B
:1037F0007047704710B5040003D094F83D0010B135
:1038000007E0012010BD002084F83C00204600F0B5
:103810001EF8022084F83D00211D206801F062FBA3
:10382000012084F8460084F83E0084F83F0084F8C4
:10383000400084F8410084F8420084F8430084F892
:10384000440084F8450084F83D00002010BD704716
:1038500090F83D10012901D001207047022180F825
:103860003D100168CA6842F00102CA60006811494F
:10387000884214D0B0F1804F11D00F4988420ED049
:103880000E4988420BD00E49884208D00D49884223
:1038900005D00D49884202D00C49884204D1816884
:1038A00001F00701062903D0016841F00101016020
:1038B0000020704700000140000400400008004064
:1038C000000C00400004014000400140001800408E
:1038D000704770B50446006801694FF00005C943A0
:1038E000890715D4C168C943890711D4E91E01614C
:1038F00001202077206880698007204602D0FFF7EA
:10390000E7FF04E000F098F8204600F096F82577ED
:1039100020680169C943490717D4C168C9434907E9
:1039200013D46FF0040101610220207720688069C0
:1039300010F4407F204602D0FFF7CAFF04E000F0F9
:103940007BF8204600F079F8257720680169C943A3
:10395000090716D4C168C943090712D46FF00801DA
:103960000161042020772068C0698007204602D0CA
:10397000FFF7AEFF04E000F05FF8204600F05DF8CE
:10398000257720680169C943C90617D4C168C943AE
:10399000C90613D46FF01001016108202077206858
:1039A000C06910F4407F204602D0FFF791FF04E089
:1039B00000F042F8204600F040F8257720680169C1
:1039C000C943C90708D1C168C943C90704D1891EC1
:1039D0000161204600F032F820680169C9430906F8
:1039E00009D4C168C943090605D46FF0800101619B
:1039F0002046FFF7FDFE20680169C943490609D446
:103A0000C168C943490605D46FF0400101612046F1
:103A100000F01BF820680169C94389060BD4C1680E
:103A2000C943890607D46FF0200101612046BDE833
:103A30007040FFF7DEBE70BD704770470068B0F1A0
:103A4000804F01D1FFF740BB704770477047704708
:103A5000F8B5016804460868CA684B6910F00F0F92
:103A60004FF0000559D003F0010602F49077374378
:103A700065D0C10705D0D10503D5216C41F0010106
:103A80002164410705D5D90703D0216C41F002011B
:103A90002164810705D5D90703D0216C41F00401C9
:103AA0002164010707D502F02001314303D0216CC6
:103AB00041F008012164216C00293AD0800604D528
:103AC000900602D5204601F0B8FA20684069216CC2
:103AD000C0F38010090700D460B3204601F086FAD5
:103AE00020684069400621D52068143050E8001F46
:103AF00021F0400140E80012002AF5D1A06BA8B1E6
:103B00006C490165A06BFFF76DF8002811D0A06B20
:103B1000016D01B0BDE8F040084783060FD593065C
:103B20000DD52046BDE8F84001F087BA2046FFF7E2
:103B30008EFFF8BD2046FFF78AFF2564F8BD266B8F
:103B40002023012E79D1C60677D5D60675D508680B
:103B5000486800904869400640D5A16B08684068F5
:103B60000004000CEAD0A28D8242E7D9E085C86942
:103B7000B0F5807F2DD020680C3050E8001F21F474
:103B8000807140E80012002AF5D12068143050E816
:103B9000001F21F0010140E80012002AF5D1206841
:103BA000143050E8001F21F0400140E80012002AC4
:103BB000F5D184F83E30256320680C3050E8001FB2
:103BC00021F0100140E80012002AF5D1A06BFEF7A9
:103BD000C0FFA08DE18D401A81B229E0A08DE18D5A
:103BE000401A81B2E08D0028A8D00029A6D0206814
:103BF0000C3050E8002F22F4907240E80026002E8E
:103C0000F5D12068143050E8002F22F0010240E87E
:103C10000026002EF5D184F83E30256320680C3054
:103C200050E8002F22F0100240E80023002BF5D1CD
:103C30002046FFF70BFFF8BDFFE705062BD515065D
:103C400029D594F83D002128F5D1A068B0F5805F12
:103C500001D12069B0B1206A411C2162216800783D
:103C60004860E08C401E0004000CE084E3D1206832
:103C7000C16821F08001C1602068C16841F0400145
:103C8000C160D8E7206A0088C0F308004860206A55
:103C9000801C2062E5E74006CDD55006CBD5CA682A
:103CA000204622F04002CA6084F83D3000F047FA16
:103CB000C1E70000DD4F000870B5040004D094F89F
:103CC0003D00002510B106E0012070BD84F83C5095
:103CD000204600F023F8242084F83D002068C168C5
:103CE00021F40051C160204601F008FA2068016902
:103CF00021F4904101612068416921F02A0141616C
:103D00002068C16841F40051C1602564202084F816
:103D10003D0084F83E00002070BD00002DE9F04F0A
:103D200087B0044614216846FCF788FCF548DFF8A4
:103D3000D08310380222D4F800C0F24B0321DFF800
:103D4000C8E30025970606154FF480794FF0400A26
:103D5000C44557D1D3F800C0A8464CF4002CC3F892
:103D600000C01B6803F400230593036843F00103BC
:103D70000360006800F0010005908DE8260008202F
:103D8000CDE9031069467046FFF778F8DFF880B395
:103D9000DE495846CBF80010C0E90175C0E903566A
:103DA000CBF81450C0E90659CBF82050CBF824507A
:103DB000FEF7FAFF08B1FDF769FFD54DD348C4F807
:103DC00038B060353030CBF8384085E88104C5E93B
:103DD0000386C5F81480C5F81880C5F81C80C5F89E
:103DE00020802846C5F82480FEF7DEFF08B1FDF7E5
:103DF0004DFF6563002205213420AC63FFF70EFA06
:103E0000342070E0DFF80C83C44572D1D3F800C0D1
:103E100000254CF4801CC3F800C01B6803F4801319
:103E20000593036843F004030360036803F004038D
:103E30000593036843F00803036000688B4600F0B5
:103E4000080005904FF48050CDE90002029508204B
:103E5000CDE903B090466946AF48FFF70FF804205C
:103E6000CDE9000802950820CDE903B06946AB48CA
:103E7000FFF704F8DFF89882A44908F1C008303948
:103E80004046C8F80010C0E90175C0E90356C8F8FB
:103E90001450C0E90659C8F82050C8F82450FEF75D
:103EA00083FF08B1FDF7F2FE98489D4DC4F83880B5
:103EB0007830C8F8384085E881040020C5E9030659
:103EC0006861A861E861286268622846FEF76CFFB5
:103ED00008B1FDF7DBFE6563002205213520AC63E8
:103EE000FFF79CF93520FFF78BF907B0BDE8F08F9D
:103EF000FFE7DFF830824FF0070BC44559D1814B03
:103F00001B1DD3F800C04CF0100CC3F800C01B6898
:103F100003F010030593036843F001030360006896
:103F2000CDE9025100F0010005904FF4C060CDE9E9
:103F30000002CDF810B069467046FEF79FFFDFF82B
:103F4000E0B179490BF1600B5846CBF80010C0E99D
:103F50000175C0E90356CBF81450C0E90659CBF8F7
:103F60002050B846CBF82450FEF71EFF08B1FDF7ED
:103F70008DFE6B4FC4F838B0C037CBF83840C7E976
:103F800003567D61BD616848FD613D6278307D62A8
:103F900087E801053846FEF707FF08B1FDF776FE12
:103FA0006763002205212520BC63FFF737F9252030
:103FB00099E7DFF87881C4453FD1D3F800C04CF4CD
:103FC000003CC3F800C01B6803F40033059303688A
:103FD00043F0010303600068CDE9025100F00100E5
:103FE00005900C20CDE90002CDF810B0694670466E
:103FF000FEF744FF4549DFF8388148314046C8F8AC
:104000000010C0E90175C0E90356C8F81450C0E9B2
:104010000659C8F82050C8F82450FEF7C5FE08B16C
:10402000FDF734FEC4F83880002205212620C8F8A8
:104030003840FFF7F3F8262055E7DFF8F880C4454D
:104040007FF453AFD3F800C0A8464CF4802CC3F8DB
:1040500000C01B6803F480230593036843F0020348
:1040600003600068CDE9025100F0020005904FF4B2
:104070004060CDE90002CDF810B069462E48FEF749
:10408000FDFEDFF8ACB021490BF1600B1839584642
:10409000CBF80010C0E90175C0E90356CBF8145005
:1040A000C0E90659CBF82050CBF82450FEF77CFE2F
:1040B00008B1FDF7EBFD1E4D1448C4F838B0C0350B
:1040C0001830CBF8384085E88104C5E90386C5F887
:1040D0001480C5F81880C5F81C80C5F820802846D3
:1040E000C5F82480FEF760FE08B1FDF7CFFD6563DB
:1040F000002205212720AC63FFF790F82720F2E685
:10410000004C004040380240000002404060024045
:10411000200F00200050004000080240000C024028
:104120004010002000100140406402400044004064
:1041300060110020004800400004024070477047B2
:10414000FEE7000070B50D4C0025C4F8B4520C48D1
:10415000016821F040410160016841F08041016047
:10416000C4F8BC52022004F52D7402F0BDFD0120FC
:104170002060022002F0B8FD256070BD0080404242
:104180000004024070B50D4C0026C4F8B4620C481F
:10419000016821F040410160016841F08041016007
:1041A0000125C4F8BC52022004F52D7402F09CFDD8
:1041B0002560022002F098FD266070BD008040421C
:1041C000000402402DE9F0478146164800240168AA
:1041D00021F04041016001680160134E25462746E9
:1041E0004FF00108C6F8B472022002F07DFDC6F857
:1041F000B4826006040ED6F83C0208B1641CE4B236
:10420000012002F071FD6D1CEDB2082DEAD3B9F169
:10421000000F04D0FFF796FF2046BDE8F087FFF7B8
:10422000B1FFF9E700040240008040422DE9F0416F
:1042300005461448016821F040410160016841F0E1
:1042400080410160104E0027C6F8B4723C464FF022
:104250000108E809C6F8BC026806050E022002F053
:1042600043FDC6F8B482022002F03EFDC6F8B472E7
:10427000022002F039FD641CE4B2082CE9D3BDE849
:10428000F0810000000402400080404270B50D48FB
:10429000016821F040410160016841F08041016006
:1042A000094C0120C4F8BC02C4F8B402042004F58F
:1042B0002D7402F019FD0025A560042002F014FD04
:1042C000256070BD00040240008040420E4810B5D9
:1042D000016821F040410160016841F080410160C6
:1042E0000A4C0020C4F8B402C4F8BC02042004F54F
:1042F0002D7402F0F9FC01202060A060BDE81040A0
:10430000042002F0F1BC00000004024000804042A2
:1043100070B512480024016821F040410160016835
:1043200001600F4D0126C5F8BC62304602F0DCFC8E
:10433000C5F8B462012002F0D7FC07E0641CE4B2C7
:10434000FA2C03D9FFF7C2FF012070BDD5F83C025B
:104350000028F3D1C5F8B40270BD0000000402408B
:1043600000804042094910B50888401C80B2A0F581
:104370006A420880603A01D100200880FCF7D6FF2D
:10438000FDF7C0FDBDE8104000F0B2BB000000200A
:1043900070B50546FFF77AFF0F4C20784006000EF7
:1043A000FFF744FFFFF7B4FF2846FFF73FFFFFF793
:1043B000AFFFFFF76BFF2078012101EB4000C0B297
:1043C000FFF734FFFFF7A4FF0020FFF7FBFE0446D2
:1043D000FFF77CFF204670BDD00100202DE9F041A1
:1043E00016460D460746FFF751FF134C207840064E
:1043F000000EFFF71BFFFFF78BFF3846FFF716FF96
:10440000FFF786FFFFF742FF2078012101EB400014
:10441000C0B2FFF70BFFFFF77BFF002406E001208F
:10442000FFF7D0FE641C05F8010BE4B2B442F6D3EA
:10443000BDE8F041FFF74ABFD0010020104810B599
:104440000E4901600321416000214FF40022816088
:10445000C0E903124FF44012426101760122427614
:104460008276C17601774277FEF70FFA002803D0F3
:10447000BDE81040FDF70ABC10BD0000006400401C
:10448000700D0020104810B50E49016003214160F5
:1044900000214FF400228160C0E903124FF4401262
:1044A00042610176012242768276C17601774277B7
:1044B000FEF7EBF9002803D0BDE81040FDF7E6BB9E
:1044C00010BD000000680040980D00202D4808B580
:1044D000016841F400110160016801F400110091CC
:1044E000016841F4800101600068002200F480004E
:1044F000009005210B20FEF791FE0B20FEF780FEB9
:10450000002205210C20FEF789FE0C20FEF778FE24
:10451000002205210D20FEF781FE0D20FEF770FE22
:10452000002205210E20FEF779FE0E20FEF768FE20
:10453000002205210F20FEF771FE0F20FEF760FE1E
:10454000002205211020FEF769FE1020FEF758FE1C
:10455000002205212F20FEF761FE2F20FEF750FEDE
:10456000002205213A20FEF759FE3A20FEF748FEC8
:10457000002205214620FEF751FEBDE808404620F6
:10458000FEF73EBE3038024010B5A4B01C221C49D4
:104590006846FBF7FFFF0021684603F0B7FC194CA3
:1045A00017491C2220601C3107A8FBF7F3FF0021EC
:1045B00007A803F0ABFC124960601C2238310EA83A
:1045C000FBF7E8FF00210EA803F0A0FC0C49A06057
:1045D0001C22543115A8FBF7DDFF002115A803F0BC
:1045E00095FC0749E0601C2270311CA8FBF7D2FF44
:1045F00000211CA803F08AFC206124B010BD00003B
:1046000040D90008DC0700202DE9F04186B01421D4
:104610006846FCF713F82B480024016841F00401B8
:104620000160016801F004010591016841F0800119
:104630000160016801F080010591016841F001010C
:104640000160016801F001010591016841F002017A
:104650000160016801F002010591016841F0080163
:1046600001600068184F00F00800059001224FF427
:10467000D0413846FEF7EAFCDFF850804FF4204680
:10468000012231464046FEF7E1FC0022391538464A
:10469000FEF7DCFC4FF4D84000900125CDE9015431
:1046A000694638460394FEF7E9FB0320CDE9024052
:1046B000CDE9006569464046FEF7E0FB06B0BDE87F
:1046C000F08100003038024000080240000402403F
:1046D000094810B5074901600121416040F6FF71AA
:1046E0008160FEF7BFFC002803D0BDE81040FDF755
:1046F000CDBA10BD00300040C00D00200C4810B5F0
:104700000A4901604FF4E1314160002181600C22CF
:10471000C160C0E904128161C161FFF7CDFA0028D0
:1047200003D0BDE81040FDF7B1BA10BD004C004009
:10473000CC0D00200C4810B50A4901604FF4E1315E
:104740004160002181600C22C160C0E904128161D6
:10475000C161FFF7B1FA002803D0BDE81040FDF7B2
:1047600095BA10BD00500040100E00200C4810B546
:104770000A4901604FF4E1314160002181600C225F
:10478000C160C0E904128161C161FFF795FA002898
:1047900003D0BDE81040FDF779BA10BD001001400C
:1047A000540E00200D4810B50B4901600C494160C2
:1047B00000214FF480628160C0E903120422C0E945
:1047C0000521C161FFF778FA002803D0BDE8104049
:1047D000FDF75CBA10BD000000440040980E0020B8
:1047E000A08601000C4810B50A4901604FF4E13180
:1047F0004160002181600C22C160C0E90412816126
:10480000C161FFF759FA002803D0BDE81040FDF759
:104810003DBA10BD00480040DC0E0020FEE700005D
:1048200010B504460068C0B1BCB16168A9B19FED84
:104830000C0A80ED040A21680020C8602268332138
:104840001176607701202077A06800F025F8A06835
:10485000BDE81040503000F01FB80220607710BD56
:1048600000000000016881B178B142686AB19FED33
:10487000080A81ED040A02680021D160036833222E
:104880001A764177012101777047022141777047FD
:1048900000000000FEE70000002817D09FED0C0A82
:1048A00080ED100A80ED0F0A80ED0E0A80ED090AF6
:1048B00080ED0D0A80ED0C0A80ED0B0A80ED130AE5
:1048C00080ED120A80ED110A80ED030A70470000A6
:1048D000000000002C49827F9FED290ADFED290AA4
:1048E0004968062A1AD0072A2AD18978012928D0AE
:1048F000002925D18168B3EE091A81ED001A9FEDD8
:10490000231A816881ED011A816881ED020A8168AC
:10491000C1ED140A816881ED150A0EE0497849B1AC
:1049200001290DD181689FED1A1A81ED001AB7EEA9
:10493000001AE6E71449A43905E0806880ED160AFC
:10494000704711498C39826891ED000A82ED000AA6
:10495000826891ED010A82ED010A826891ED020AF6
:1049600082ED020A826891ED030A82ED140A8268E0
:1049700091ED040A82ED150A91ED050ADDE70000CC
:1049800000000000000048432C0100209A99993F44
:104990000000A0422DE9F14304002DED020B82B08E
:1049A0009FED520A7DD08DED000A94ED120A04F1BC
:1049B000440284ED130A94ED110A012384ED120AD6
:1049C0009DED030A154684ED070A9DED020A02A932
:1049D00084ED080A03A801F08FFA04F10C02012308
:1049E00016461146284601F0EAF9D4ED030A94ED83
:1049F000040AF4EEC00AF1EE10FA06DCB1EE400A49
:104A0000F4EEC00AF1EE10FA01D284ED030A04F1CB
:104A10002C02012391462946204601F01FFA04F199
:104A20003002012390463146201D01F017FAD4EDE3
:104A30000C0A94ED060AF4EEC00AF1EE10FA06DC58
:104A4000B1EE400AF4EEC00AF1EE10FA01D284EDA4
:104A50000C0A04F13C0204F14801012317460E46FA
:104A6000284601F049FA04F140020123154604F1F9
:104A70004C01304601F040FA012304F13802394676
:104A8000284601F039FA04F134020123154639466B
:104A900004F1080001F030FA01236A464146484615
:104AA00000E01FE001F08BF9012304F12402294604
:104AB000684601F084F9D4ED090A94ED050AF4EE94
:104AC000C00AF1EE10FA09DCB1EE400AF4EEC00AB9
:104AD000F1EE10FA02D394ED090A01E084ED090A1F
:104AE00084ED0A0A05B0BDE8F08300000000000074
:104AF0002DE9F0411348144E4FF40055027E012A6F
:104B000008D0002A1CD129463046BDE8F0410122D8
:104B1000FEF79CBA0D4F4FF47A743888B0FBF4F16D
:104B200004FB110020B9002229463046FEF78EFA18
:104B30003888B0FBF4F104FB1100B0F5FA7FE2D045
:104B4000BDE8F0812C020020000802400000002097
:104B500010B5284C2DED028BB4F900009FED268A8C
:104B600000EE100ADFED258AB0EE481AB8EEC00A52
:104B7000F0EE680AFDF778F8B5EEC00AF1EE10FA2B
:104B800036D1B4F90200B0EE481A00EE100AF0EE89
:104B9000680AB8EEC00AFDF767F8B5EEC00AF1EE94
:104BA00010FA25D1B4F90400B0EE481A00EE100A4C
:104BB000F0EE680AB8EEC00AFDF756F8B5EEC00A86
:104BC000F1EE10FA14D1B4F90600B0EE481A00EE76
:104BD000100AF0EE680AB8EEC00AFDF745F8B5EE27
:104BE000C00AF1EE10FA03D10120BDEC028B10BD1A
:104BF0000020FAE7100200200000484200000000F8
:104C00000268002111800268518002689180026868
:104C1000D180036803221A7203685A7202685181B4
:104C2000026891810268D18102681174026851742E
:104C30000268518200688182704770B58EB0064666
:104C4000002502468DF800500121684601F091FAD6
:104C500001F0A4F932460121042001F03DFD044693
:104C600001F09CF984B90C208DF8020002208DF827
:104C7000030001208DF805508DF8040001463246EE
:104C8000684601F031FE04460EB0204670BD70B596
:104C90008EB00125064602468DF80050294668462A
:104CA00001F067FA01F07AF932460221042001F09E
:104CB00013FD044601F072F994B90C208DF802003E
:104CC00000208DF8060002208DF803008DF80750B3
:104CD0008DF8045032460121684601F005FE044675
:104CE0000EB0204670BD012003F004F9FBE7000080
:104CF0000B4C206980470B4DE86880470A4E70785E
:104D000048B1606A8047A8698047FCF721F9012013
:104D100003F0F0F8F3E7E06980476869F4E7000022
:104D2000440000202C01002002000020084C012239
:104D300091022046FEF78AF90122D1022046FEF7B1
:104D400085F9FFF70FFB012003F0D4F8F9E7000025
:104D500000080240124E134F134D1448FEF7AEF9EF
:104D600071690F48884705F0EBFCF1680C488847EB
:104D700005F006FD79690B488847002405EB4410CF
:104D800081698847641CE4B2042CF7D30848816920
:104D90008847084881698847012003F0ABF8DCE7C1
:104DA000F40100202C02002078050020C00D002016
:104DB00090070020B007002001270F4D00260F4C60
:104DC00005F0BEFC03F088FB287E012801D028B145
:104DD0000CE067700848FFF713FF07E0687E28B90A
:104DE0006078012802D126706670A67005F0C8FCB4
:104DF000022003F07FF8E3E72C02002002000020ED
:104E000010B5502080F31188BFF34F8FBFF36F8F21
:104E100005F0E6FE18B104494FF08050086000200C
:104E200080F3118810BD000004ED00E030B593B0B0
:104E300030216846FBF702FC14210CA8FBF7FEFBAF
:104E40001F480025016841F080510160006800F0B2
:104E5000805011901B48016841F480410160006856
:104E6000022400F480401190092000904FF480301B
:104E700001900120CDE905048005079019200890D4
:104E80004FF4A870CDE9090404200B906846FEF7A2
:104E900003FB08B172B6FEE70CA90F2081E83100D0
:104EA0004FF4A0500F904FF48050109005210CA8A3
:104EB000FEF7E6F9002801D072B6FEE713B030BD68
:104EC00040380240007000400248016841F470011F
:104ED0000160704788ED00E00148FEF7FABC000071
:104EE00080120020F0B50268254D264E264FDFF8CF
:104EF0009CC0274B4FF0804EA84209D0704507D088
:104F0000B04205D0B84203D0604501D0984203D1E9
:104F100022F070044A682243A8421BD0704519D081
:104F2000B04217D0B84215D0604513D0984211D086
:104F3000184CA0420ED0184CA0420BD0174CA042E7
:104F400008D0174CA04205D0164CA04202D0164CF7
:104F5000A04203D122F44074CA6822434C6922F073
:104F60008002224302608A68C2620A688262A842A2
:104F700001D0984201D10969016301214161F0BD6D
:104F8000000001400004004000080040000C004008
:104F9000000401400040014000440140004801403D
:104FA00000180040001C00400020004010B50448DC
:104FB000FCF750FEBDE810400148FEF749BD000077
:104FC000CC0D002010B50448FCF744FEBDE81040AD
:104FD0000148FEF73DBD0000100E002010B5806BAB
:104FE0000021C185C184FEF732FD10BD01680C317E
:104FF00051E8002F22F4907241E80023002BF5D1F4
:105000000168143151E8002F22F0010241E8002329
:10501000002BF5D1016B012909D101680C3151E850
:10502000002F22F0100241E80023002BF5D12021AF
:1050300080F83E1000210163704708B590F83E10DB
:10504000222901D0022008BD81684FF48053994283
:1050500001D1026922B1826A99421BD049B10AE0AA
:105060000268816A5268C2F308020A80816A891C58
:1050700008E0016971B10168496801F07F011170B0
:10508000816A491C8162C18D491E0904090CC185D0
:1050900003D019E001684968F1E70168CA6822F0A5
:1050A0002002CA600168CA6822F48072CA6001687E
:1050B0004A6922F001024A61202180F83E10016B0A
:1050C000012903D0FFF73AF8002008BD0021016351
:1050D00001680C3151E8002F22F0100241E8002352
:1050E000002BF5D101680A68D20602D50A68496822
:1050F0000091818DFEF7AAFCE6E7000070B504463A
:1051000000680169E26821F4405111430161A1681E
:105110002069E26901436069104301432068C26865
:1051200049F20C639A430A43C26020684169A2694C
:1051300021F440711143416131492068884202D015
:105140003049884202D1FEF765F901E0FEF752F9D5
:10515000E2690023192164253226B2F5004F626806
:1051600028D0A0FB0101930F9200FBF757F90146ED
:10517000B0FBF5F06FF01802504301EB800006EB36
:105180000010B0FBF5F000F0F002B1FBF5F002EB1F
:105190000012B1FBF5F06FF01803584301EB8000EB
:1051A00006EB0010B0FBF5F000F00F002168104492
:1051B000886070BDA0FB010192185B41FBF72EF9DE
:1051C0000146B0FBF5F00201B1FBF5F06FF01803FA
:1051D000584301EB800006EBC000B0FBF5F000F097
:1051E000F80002EB4002B1FBF5F0584301EB800000
:1051F00006EBC000B0FBF5F000F00700D6E70000BA
:10520000001001400014014010B50448FCF722FDD5
:10521000BDE810400148FEF71BBC0000540E002002
:105220000B4A82B01068016841680091C16841F082
:105230001001C1601068416941F04001416111688D
:10524000906B6423034A091D02B0FCF7C5BC000043
:10525000540E00205C09002010B50448FCF7FAFC4D
:10526000BDE810400148FEF7F3BB0000980E002097
:105270000C4A08B51068016841680091C16841F0A6
:105280001001C1601068416941F040014161122084
:105290000090054B1168906BA3F11802091DFCF7F3
:1052A0003BFB08BD980E0020D809002010B5054C26
:1052B00001462046E268904720462169BDE810403B
:1052C000084700002C02002010B50448FCF7C2FC7F
:1052D000BDE810400148FEF7BBBB0000DC0E00201B
:1052E0000B4A82B01068016841680091C16841F0C2
:1052F0001001C1601068416941F0400141611168CD
:10530000906B6423034A091D02B0FCF765BC0000E2
:10531000CC0D0020F0090020704700000B4A82B03D
:105320001068016841680091C16841F01001C160D6
:105330001068416941F0400141611168906BC823D8
:10534000034A091D02B0FCF747BC0000100E002004
:10535000540A0020704702687AB170B10B885BBABA
:1053600013804A88036852BA5A808A88036852BAFE
:105370009A8000688979817170470221417770476E
:1053800070B5044600680D46A8B1A4B10846FBF705
:1053900089FD216808802846FBF787FD2168488041
:1053A0002846FBF786FD216888802846FBF785FDA7
:1053B0002168887170BD0220607770BDFEE703B47C
:1053C00001984100009850EAC12018BF04204A0DFE
:1053D00018BF40F0010040F2FF72B2EB515F08BF0E
:1053E00040F00200012808BF052002B070470907FD
:1053F000090E002804DB00F1E02080F8001470475B
:1054000000F00F0000F1E02080F8141D704700004C
:1054100070B5C1482DED020B2DED0E8B82B0119DA4
:1054200025F000449FEDBEDB9FEDBFEB84423EDBE9
:10543000A4F140511098A1F17F6108430FD0BC48FE
:10544000844202DC28D1109830B39DED100B02B0DD
:10545000BDEC0E8B02B0BDE8704000F071BC9DED5C
:10546000100B53EC1D2B51EC100B05F007FF9DEDBD
:10547000100B41EC180B53EC1E2B51EC100B05F0EC
:10548000FDFE53EC182B05F0B1FC41EC100B02B003
:10549000BDEC0E8B02B070BD0120FBF750F902B0DD
:1054A000BDEC0E8B02B0BDE8704000F05DBCA148C1
:1054B0009FEDA18B844256DA9DED100BB4F1795F1C
:1054C0000ADA51EC100BFFF77AFF042808BF00F04E
:1054D0005BFC9DED100BDAE753EC102B51EC100B3D
:1054E00005F0CCFE41EC190B95480621B0EE490AB7
:1054F000F0EE690A784400F0A7FB53EC192B51EC4D
:10550000100B05F0BBFE41EC1A0B8E48B0EE490AB9
:10551000F0EE690A0421784400F096FB53EC192B55
:1055200051EC100B05F0AAFE53EC182B05F05EFCB5
:1055300041EC100B51EC1A0B53EC102B05F00AFD4B
:10554000CDE900019DED000B53EC102B9DED100BF0
:1055500051EC100B05F092FE9DED101B53EC112B3E
:1055600005F044FCD2E09DED100B51EC100B01F066
:10557000FAFB53EC182B05F07FFF9FED730BCDE981
:10558000000153EC102B9DED000B51EC100B05F0BE
:1055900075FE41EC190B6E480621B0EE490AF0EE9B
:1055A000690A784400F050FB53EC192B51EC100BB6
:1055B00005F064FE41EC1B0B6648B0EE490AF0EEC4
:1055C000690A0421784400F03FFB53EC192B51EC9D
:1055D000100B05F053FE53EC182B05F007FC41ECC3
:1055E0001C0B51EC190B04F065FF41EC180B5A48E9
:1055F0009FED5BABA04222DC53EC1C2B51EC1B0B50
:1056000005F0A8FCCDE900019DED000B51EC180B55
:1056100053EC102B05F032FE53EC182B05F0E6FB93
:1056200053EC1A2B05F02AFE53EC1D2B05F0FCFF62
:1056300053EC1E2B05F020FF41EC100B5FE08DEDCD
:10564000008B002000909DED000B51EC180B53ECEB
:10565000102B05F0CBFB9DED000B41EC1E0B53EC2A
:10566000102B51EC100B05F009FE53EC192B05F033
:1056700003FF53EC1E2B05F06DFC41EC190B53ECB2
:105680001C2B51EC1B0B05F065FC41EC1B0B53EC88
:105690001A2B51EC190B05F0F1FD53EC1D2B05F005
:1056A000EBFE41EC190B53EC1A2B51EC180B05F0E7
:1056B000E5FD53EC1B2B05F0E1FD53EC192B05F038
:1056C000B3FF9DED000B41EC180B53EC1A2B51EC82
:1056D000100B05F0D3FD9FED249B53EC192B05F027
:1056E000CBFE41EC100B51EC180B53EC102B05F0DA
:1056F0009BFF53EC192B05F0BFFE41EC100B002D66
:105700003FF7C5AE51EC100B05F032FB41EC100B2E
:10571000BDE60000000000000000F03F00000000B7
:10572000075C143326A6913C182D4454FB21F93F05
:105730000000F07F0000E03F000000000000F03FAC
:10574000F88C0000068D0000000000000000E03F23
:105750004A8C0000588C00003333EF3F00000000FB
:105760000000000000000040182D4454FB21E93FD8
:1057700070B59B482DED020B2DED068B079D25F096
:105780000044A04218DC9748844202DC0AD1069803
:1057900040B19DED060BBDEC068B02B0BDE870403C
:1057A00000F0CEBA002DCCBF9FED8F0B9FED900B7C
:1057B000BDEC068B02B070BD8F48A04215DD8F484E
:1057C000A042D8BF4FF0FF3458DD9DED060B51ECE1
:1057D000100BFFF7F4FD042808BF00F0D5FA9DED8B
:1057E000060BBDEC068B02B070BD9DED060B51ECB7
:1057F000100B01F0B8FACDE9060181489FED828BCC
:10580000A0423CDD8248A0421FDD00249FED82AB18
:105810009DED060B53EC1A2B51EC100B05F0E6FA3C
:105820009DED060B41EC190B53EC1A2B51EC100BB0
:1058300005F024FD53EC182B05F0F6FE53EC192B64
:1058400005F088FBCDE9060149E09DED060B01243A
:1058500053EC182B51EC100B05F0C8FA9DED060B1C
:1058600041EC190B53EC182B51EC100B05F0DCFE3E
:1058700053EC192B05F06EFBCDE906012FE06848CB
:10588000A0421FDD02249FED689B9DED060B53ECAB
:10589000192B51EC100B05F0F1FC53EC182B05F013
:1058A000A5FA9DED060B41EC180B53EC192B51ECAE
:1058B000100B05F0B9FE53EC182B05F04BFBCDE9AE
:1058C00006010CE09DED060B032453EC102B9FED1D
:1058D000580B51EC100B05F03DFBCDE906019DED99
:1058E000060B53EC102B51EC100B05F0C7FC41ECF0
:1058F000180B53EC182B05F0C1FC41EC190B4E486A
:105900000621B0EE490AF0EE690A784400F09CF9ED
:1059100053EC182B51EC100B05F0B0FC41EC180BBC
:105920004648B0EE490AF0EE690A0521784400F0D5
:105930008BF953EC192B51EC100B05F09FFC41EC4B
:10594000100B51EC180B53EC102B002C0EDA05F059
:105950004DFA9DED061B53EC112B05F08FFC9DEDD0
:10596000061B53EC112B05F087FD35E005F03EFAE0
:105970009DED061B53EC112B05F080FC41EC100B48
:105980002F48784400EBC40090ED001B51EC100B45
:1059900053EC112B05F048FE9DED061B53EC112B2B
:1059A00005F042FE41EC100B2648784400EBC400A1
:1059B00090ED001B51EC100B53EC112B05F05CFD2E
:1059C00041EC100B002DA2BFBDEC068B02B070BDE8
:1059D00051EC100B05F0CCF941EC100B01E7000085
:1059E000000010440000F07F182D4454FB21F93FC3
:1059F000182D4454FB21F9BF0000DC3F0000203E7D
:105A00000000F33F00000000000000000000F03F35
:105A10000000E63F00000000000000000000004021
:105A20000080034000000000000000000000F83F7C
:105A3000000000000000F0BF9A89000050890000BB
:105A4000DA8800009288000070B56F4E2DED040BCF
:105A50002DED048B82B0DDF824C0DDE907235C4224
:105A60002CF000411C4341EAD474069D22F0004012
:105A7000B44205D86C422C4340EAD474B4420BD9EA
:105A80009DED081B9DED060B02B0BDEC048B04B030
:105A9000BDE8704000F05EB9ACF14054A4F17F6401
:105AA0001C430BD0022404EAAC7444EAD2740543CC
:105AB0009FED578B9FED582B07D015E09DED060B02
:105AC00051EC100B00F025FA42E0002C11BF012C24
:105AD0009DED060B02B0BDEC048B04BF04B070BD9D
