:020000040800F2
:10000000604D00202903000865380008DD30000835
:10001000F53700083B0600083942000800000000E0
:10002000000000000000000000000000690200085D
:100030007B0B000800000000C5020008A13B00087F
:100040004303000843030008430300084303000878
:100050004303000843030008430300084303000868
:100060004303000843030008430300080D0A000887
:100070001D0A00082D0A00083D0A00084D0A000864
:100080005D0A000843030008430300084303000817
:100090004106000843030008430300084303000827
:1000A0004303000843030008430300084303000818
:1000B000A53C00084303000843030008430300086D
:1000C00043030008430300084303000843030008F8
:1000D00043030008D1410008E1410008F141000854
:1000E00043030008430300084303000843030008D8
:1000F0004303000843030008430300086D0A000897
:1001000043030008430300084303000843030008B7
:100110008D3D00089D3D000843030008430300088F
:1001200043030008430300087D0A00084303000856
:100130004303000843030008430300084303000887
:100140004303000843030008430300084303000877
:1001500043030008430300088D0A00084303000816
:100160004303000843030008430300084303000857
:100170004303000843030008430300080000000095
:10018000430300084303000800F002F800F05CF8A5
:100190000AA090E8000C82448344AAF10107DA45E2
:1001A00001D100F051F8AFF2090EBAE80F0013F0D8
:1001B000010F18BFFB1A43F001031847F853000062
:1001C000185400000A444FF0000C10F8013B13F0E3
:1001D000070408BF10F8014B1D1108BF10F8015BA0
:1001E000641E05D010F8016B641E01F8016BF9D193
:1001F00013F0080F1EBF10F8014BAD1C0C1B09D1EA
:100200006D1E58BF01F801CBFAD505E014F8016B5B
:1002100001F8016B6D1EF9D59142D6D370470000ED
:100220000023002400250026103A28BF78C1FBD8FF
:10023000520728BF30C148BF0B6070471FB505F09B
:100240002DF91FBD10B510BD00F067F91146FFF77D
:10025000F5FF04F01BF800F085F903B4FFF7F2FF97
:1002600003BC00F089F900002C4B19680868B0E85D
:10027000F04F80F30988BFF36F8F4FF0000080F3D9
:10028000118870470000000008480068006880F38B
:1002900008884FF0000080F3148862B661B6BFF39F
:1002A0004F8FBFF36F8F00DF00BF00BF08ED00E08E
:1002B000DFF80C00016841F470010160704700BF75
:1002C00088ED00E0EFF30980BFF36F8F134B1A68DE
:1002D0001EF0100F08BF20ED108A20E9F04F1060CB
:1002E00009B44FF0500080F31188BFF34F8FBFF374
:1002F0006F8F04F0DDFC4FF0000080F3118809BC23
:1003000019680868B0E8F04F1EF0100F08BFB0EC95
:10031000108A80F30988BFF36F8F7047380100207F
:10032000EFF30580704700000948804709480047FF
:10033000FEE7FEE7FEE7FEE7FEE7FEE7FEE7FEE795
:10034000FEE7FEE704480549054A064B70470000F2
:10035000913C00088901000860470020604D0020A2
:10036000604900206049002053EA020C00F06980D7
:100370002DE9F04B4FF00006002B1FBFB3FA83F5B9
:1003800003FA05F424FA05F65E4012BF1643B2FAEA
:1003900082F502FA05F4C5F120051EBF22FA05FC1C
:1003A00044EA0C04203556EA044C4FEA144418BFC2
:1003B000641C4FF000084FF00009904271EB030CF1
:1003C00039D3002919BFB1FA81F701FA07F6B0FA5B
:1003D00080F700FA07F6C7F120071EBF20FA07FCD6
:1003E00046EA0C062037B6FBF4FCA7EB0507103FE6
:1003F00007F01F0BCBF120060CFA0BFB2CFA06F6CC
:1004000044BFB3460026202FA4BF5E464FF0000B2A
:100410005BEA060C08BF4FF0010B19EB0B09ABFBB5
:10042000027C48EB0608C01B06FB02CC0BFB03CC8E
:1004300071EB0C01C1E70B46024641464846BDE858
:10044000F08B13B54FF000004FF00001AFF30080C8
:10045000BDE81C40704710B5203AC0F00B80B1E8F1
:100460001850203AA0E81850B1E81850A0E81850E9
:10047000BFF4F5AF5FEA027C24BFB1E81850A0E8F2
:10048000185044BF18C918C0BDE810405FEA827C0C
:1004900024BF51F8043B40F8043B08BF7047D20723
:1004A00028BF31F8023B48BF11F8012B28BF20F8C4
:1004B000023B48BF00F8012B70474FF0000200B527
:1004C000134694469646203922BFA0E80C50A0E877
:1004D0000C50B1F12001BFF4F7AF090728BFA0E825
:1004E0000C5048BF0CC05DF804EB890028BF40F8F1
:1004F000042B08BF704748BF20F8022B11F0804F33
:1005000018BF00F8012B7047704770477047000014
:1005100000487047FC46002070477546FFF7F8FF1B
:10052000AE4605006946534620F00700854618B0E0
:1005300020B5FFF707FFBDE820404FF000064FF061
:1005400000074FF000084FF0000B21F00701AC4608
:10055000ACE8C009ACE8C009ACE8C009ACE8C00927
:100560008D46704710B50446AFF300802046BDE8C5
:100570001040FFF772BE000001491820ABBEFEE735
:10058000260002002DE9F04387B004460D461646CA
:100590001F46DDE90E890C2204A9104602F0D6FEA2
:1005A0009DF810009DF8111040EA012000B2ADF84E
:1005B00004009DF812009DF8131040EA012000B2DB
:1005C000ADF806009DF814009DF8151040EA0120D2
:1005D00000B2ADF808009DF816009DF8171040EA2B
:1005E000012000B2ADF80A009DF818009DF819101E
:1005F00040EA012000B2ADF80C009DF81A009DF809
:100600001B1040EA012000B2ADF80E00BDF8040056
:100610003880BDF80600A8F80000BDF80800A9F869
:100620000000BDF80A002080BDF80C002880BDF84D
:100630000E00308007B0BDE8F08300BFFEE7000089
:1006400010B5024800F0AEFC10BD0000F40300201D
:1006500013B50446012201A9204600F01BF81CBD79
:1006600038B505460C4620128DF80000E0B28DF832
:10067000010002226946284600F00CF838BD70B52A
:1006800004460D46164632462946204600F002F83A
:1006900070BD00002DE9F04104460E4617460025C6
:1006A000A846607810B9DFF8448007E06078012838
:1006B00002D1DFF83C8001E0BDE8F0814046A1684E
:1006C00000F08DF8054625B92146404600F03CF87B
:1006D0000546237B3A463146284600F00BF8E1896F
:1006E000284600F0EFF800BFE6E70000D40900203C
:1006F000F0090020F0B5044604B9F0BD002009E07F
:100700001D18082D00DB07E00E5C1F18251DEE5597
:10071000451CE8B29042F3DB00BF00BFEDE738B5FF
:1007200005460C46200E8DF80000200C8DF80100C7
:10073000200A8DF80200E0B28DF803000422694619
:100740002846FFF7A7FF38BD70B504460E4625685A
:100750001DB316B300E0AD69A8690028FBD11C20C9
:1007600004F058F8A861B068A9690860F089A9691F
:1007700088810020A969086100BF05E00022A969FD
:10078000091D0A54411CC8B20828F7DB0020A969DA
:100790008861A8694461AD691CE01C2004F03AF846
:1007A0002060B06821680860F08921688881002095
:1007B0002168086100BF05E000222168091D0A5474
:1007C000411CC8B20828F7DB002021688861206836
:1007D000446125682079401C2071284670BD10B501
:1007E00002460023106805E004688C4201D1012311
:1007F00002E080690028F7D100BF03B9002010BDD6
:1008000070B504460D462946204600F001F870BD3B
:1008100070B588B004460D460126A06801900020FE
:100820000390049008200590607838B907AB2A46F9
:1008300001A9094800F0BAF9064609E060780128E4
:1008400006D107AB2A4601A9044800F0AFF90646D5
:10085000304608B070BD0000F40300201C040020E6
:100860002DE9F04389B081460E4614461D46DDE968
:100870001078039600200590069008200790200A23
:100880008DF80400E0B28DF80500280A8DF8060006
:10089000E8B28DF80700380A8DF80800F8B28DF834
:1008A00009004FEA18208DF80A0008F0FF008DF8C3
:1008B0000B006B4601AA03A9484600F077F909B07E
:1008C000BDE8F08382898A4200DD818170470000A3
:1008D00000B58BB000200590012009900020079002
:1008E000012008900020019002900390049006904F
:1008F0000E200A9001A90C4800F004FA0A4800F002
:10090000F4FD0221084800F03CF90E20069001A9F0
:10091000064800F0F7F9054800F0E7FD022103481A
:1009200000F02FF90BB000BDF40300201C040020E0
:10093000026802B110B902224276704701680A7D4E
:10094000521C0A750A7D4B7D9A4204DD4A7D0A7568
:100950000122027604E0027E012A01D10022027601
:1009600000BFEAE770B52DED048B0446206800B1A6
:1009700024B902206076BDEC048B70BD2568288800
:100980002989401A00B26881B5F90A00B0F5805F84
:1009900006DD6889A0F5F850FF3800B268810AE0EA
:1009A000B5F90A0010F5805F05DA688941F6FF7134
:1009B000084400B268812068008800B2216808817C
:1009C0002068C0682168B1F90A1008442168C8602D
:1009D0002168C86804F04DFC41EC190B9FED090B30
:1009E00053EC102B04F05CFC41EC180B04F010FCF1
:1009F00000EE100A206880ED040A002021680875C6
:100A000000BFB8E7000000000000543F10B50248E6
:100A100000F00CFE10BD00006406002010B5024876
:100A200000F004FE10BD00004408002010B502488C
:100A300000F0FCFD10BD0000A405002010B5024828
:100A400000F0F4FD10BD0000A408002010B502481D
:100A500000F0ECFD10BD00000406002010B50248B7
:100A600000F0E4FD10BD0000E407002010B50248CE
:100A700000F0DCFD10BD0000C406002010B50248E7
:100A800000F0D4FD10BD00002407002010B502487E
:100A900000F0CCFD10BD000084070020014608785E
:100AA00010381823B0FBF3F20848805CC865032AAD
:100AB00005D908686FF30900001D886503E0086820
:100AC0006FF309008865886D704700005455000871
:100AD000014600208A6A8B69CBB932B1012A0DD058
:100AE000022A03D0032A10D10EE000BFCB6A03F024
:100AF0008073B3F1807F00D1012007E0CB6AB3F1AE
:100B0000C07F00D1012001E000E000BF34E08B692C
:100B1000B3F5005F1AD132B1012A07D0022A03D0FF
:100B2000032A11D10AE000BF01200EE0CB6A03F0D6
:100B30008073B3F1807F00D1012006E0CB6AB3F16E
:100B4000C07F00D1012000E000BF15E032B1012AD2
:100B500005D0022A04D0032A0CD103E000BF00BF55
:100B6000012008E0CB6A03F08073B3F1807F00D1ED
:100B7000012000E000BF00BF7047704772B600BFA1
:100B8000FEE710B5024692F82030012B01D0022B6F
:100B900006D110684069084314686061002010BDE8
:100BA000506A40F4802050620120F8E7F0B5044616
:100BB0000D461E4694F8207020688368A86800B926
:100BC00000E000BF012F01D0022F7CD103F0806034
:100BD00030B903F0006018B903F08050002873D0DA
:100BE000C3F30161022905D9606A40F40000606224
:100BF0000120F0BD012088403060A86860B9B5F8D8
:100C000000C0E86840EA4C5C206800F5C07000EB6A
:100C10000110C0F800C00FE0D5E901C040EACC00E7
:100C2000D5F80CC040EA0C00D4F800C00CF5C07C2C
:100C30000CEB011CCCF80000D5F810C0206800F5C2
:100C4000C07000EB0110C0F804C0287D01280ED14F
:100C5000206800F5C07000EB0110406840F4807C13
:100C6000206800F5C07000EB0110C0F804C0D07916
:100C7000000692F806C040EA0C4092F805C040EA2F
:100C80000C2C10794CEA000C206800F5C07000EBC9
:100C90000110C0F80CC0D078000692F802C040EAFB
:100CA0000C4092F801C040EA0C2092F800C040EAE3
:100CB0000C00D4F800C00CF5C07C0CEB011CCCF887
:100CC0000800206801E016E00FE000F5C07000EBBE
:100CD0000110006840F0010C206800F5C07000EBC6
:100CE0000110C0F800C0002083E7606A40F40010E3
:100CF000606201207DE7606A40F48020606201202C
:100D000077E70000F0B504460A46216894F82050C1
:100D1000012D01D0022D7ED1424901F500710868F4
:100D200040F001000860086820F47C500860086802
:100D3000566A40EA06200860107D00F01F06012078
:100D400000FA06F3C8699843C861A1F50071D0693B
:100D5000C8B9D1F80C029843C1F80C02908880B24F
:100D6000968940EA064601F51070576940F83760E9
:100D7000108880B2168940EA064601F5107057695E
:100D800000EBC7004660D069012819D1D1F80C02E8
:100D90001843C1F80C02908880B2168840EA0646D3
:100DA00001F51070576940F83760908980B2168954
:100DB00040EA064601F51070576900EBC70046602F
:100DC000906928B9D1F804029843C1F8040204E0FC
:100DD000D1F804021843C1F80402106928B9D1F807
:100DE00014029843C1F8140204E0D1F81402184325
:100DF000C1F81402106A012804D1D1F81C0218436A
:100E0000C1F81C02D1F8000220F00100C1F8000274
:100E10000020F0BDFFE7606A40F48020606201209E
:100E2000F7E7000000640040704770B5044694F88E
:100E30002050012D01D0022D7DD151B92068C0680C
:100E400000F0030080B9606A40F400106062012085
:100E500070BD2068006900F0030028B9606A40F4A2
:100E6000001060620120F3E7206800F5D87000EB05
:100E70000110006800F004009060906840B920689C
:100E800000F5D87000EB01100068400D106007E01D
:100E9000206800F5D87000EB01100068C0085060B1
:100EA000206800F5D87000EB0110006800F0020027
:100EB000D060206800F5D87000EB0110406800F0A9
:100EC0000F001061206800F5D87000EB0110406839
:100ED00000F47F40000A9061206800F5D87000EBB4
:100EE00001104068000C5061206800F5D87000EBDC
:100EF000011080681870206800F5D87000EB0110B0
:100F0000806800F47F40000A5870206800F5D870AF
:100F100000EB0110806800F47F00000C98702068DE
:100F200000F5D87000EB01108068000ED8702068C2
:100F300000F5D87000E02FE000EB0110C0681871D8
:100F4000206800F5D87000EB0110C06800F47F4005
:100F5000000A5871206800F5D87000EB0110C068D5
:100F600000F47F00000C9871206800F5D87000EB49
:100F70000110C068000ED87131B92068C06840F017
:100F800020002668F06005E02068006940F020003D
:100F90002668306100205BE7606A40F48020606270
:100FA000012055E72DE9F05F0446002520684669D9
:100FB0002068D0F80490206887682068D0F80CA0DA
:100FC0002068D0F810B02068D0F8188006F0010032
:100FD000002855D007F00100C0B1012021688860C9
:100FE00007F0020018B1204600F0AFFA0EE007F05B
:100FF000040010B145F4006508E007F0080010B1E6
:1010000045F4805502E0204600F09EFA07F4807017
:10101000C8B14FF480702168886007F4007018B17F
:10102000204600F094FA0EE007F4806010B145F419
:10103000005508E007F4006010B145F4804502E077
:10104000204600F083FA07F48030C8B14FF48030B6
:101050002168886007F4003018B1204600F079FA62
:101060000EE007F4802010B145F4004508E007F4D5
:10107000002010B145F4803502E0204600F068FA07
:1010800006F0080038B10AF0100020B145F40075F0
:1010900010202168C86006F0040040B10AF0080082
:1010A00028B108202168C860204600F005FA06F043
:1010B000020038B12068C06800F0030010B120467B
:1010C00000F0FCF906F0400038B10BF0100020B140
:1010D00045F4806510202168086106F0200040B1C9
:1010E0000BF0080028B1082021680861204600F0B4
:1010F000F9F906F0100038B12068006900F003002B
:1011000010B1204600F0EFF906F4003040B109F0CC
:10111000100028B1102021684860204600F0E4F952
:1011200006F4803040B109F0080028B10820216899
:101130004860204600F00EFA06F4004088B309F03B
:10114000040078B306F4807020B108F0010008B103
:1011500045F0010506F4007020B108F0020008B166
:1011600045F0020506F4806020B108F0040008B1E3
:1011700045F0040506F40060A0B108F0700088B1E5
:1011800008F07000402817D006DC10280BD020286B
:101190000CD0302819D10CE0502810D0602814D180
:1011A00010E01DE019E045F008050FE045F01005DE
:1011B0000CE045F0200509E045F0400506E045F06B
:1011C000800503E045F4807500E000BF00BF2068A3
:1011D000806920F0700021688861042021684860DF
:1011E0002DB1606A284360622046FFF71DFEBDE80E
:1011F000F09F70B504460CB9012070BD94F8200032
:1012000010B9204600F0B0F82068006840F00100F6
:101210002168086000F0A0FC05460DE000F09CFC91
:10122000401B0A2808D9606A40F40030606205203B
:1012300084F820000120E0E72068406800F0010009
:101240000028EBD02068006820F0020021680860C8
:1012500000F082FC05460DE000F07EFC401B0A28F1
:1012600008D9606A40F400306062052084F82000EC
:101270000120C2E72068406800F002000028EBD19E
:10128000207E012806D12068006840F08000216897
:10129000086005E02068006820F080002168086090
:1012A000607E012806D12068006840F04000216877
:1012B000086005E02068006820F0400021680860B0
:1012C000A07E012806D12068006840F02000216837
:1012D000086005E02068006820F0200021680860B0
:1012E000E07E012806D12068006820F01000216807
:1012F000086005E02068006840F010002168086080
:10130000207F012806D12068006840F0080021688D
:10131000086005E02068006820F008002168086087
:10132000607F012806D12068006840F00400216831
:10133000086005E02068006820F00400216808606B
:10134000D4E90201084321690843616908436168DF
:10135000491E08432168C86100206062012084F8AA
:101360002000002049E7000010B586B00446142193
:1013700001A8FFF7A2F84A492068884241D14948AC
:101380000068401C474908600846006801280FD1E2
:1013900000BF002000904448006840F000704249BF
:1013A00008600846006800F00070009000BF00BFB1
:1013B00000BF002000903C481038006840F0080052
:1013C0003949103908600846006800F008000090AC
:1013D00000BF00BF03200190022002900020039074
:1013E000032004900920059001A9304800F0B4FAC8
:1013F00000220521142000F0B5FC142000F09EFC12
:101400004CE02B492068884248D100BF0020009062
:101410002548006840F0806023490860084600685D
:1014200000F08060009000BF00BF1E480068401CB4
:101430001C4908600846006801280FD100BF002041
:1014400000901948006840F000701749086008468D
:10145000006800F00070009000BF00BF00BF0020D7
:10146000009011481038006840F002000E49103911
:1014700008600846006800F00200009000BF00BF4E
:10148000602001900220029000200390032004902D
:101490000920059001A9074800F05EFA06B010BDCA
:1014A000006400401400002040380240000C02405C
:1014B00000680040000402407047000010B58AB088
:1014C000044601AB03AA00212046FFF7AEFC044806
:1014D00001A9C26890470248016988470AB010BD57
:1014E0007400002070477047704770B5044694F848
:1014F0002000012822D1022084F820002068006802
:1015000020F001002168086000F026FB05460DE090
:1015100000F022FB401B0A2808D9606A40F4003022
:101520006062052084F82000012070BD20684068BA
:1015300000F001000028EBD16062F6E7606A40F439
:10154000002060620120F0E77047704770477047E5
:1015500070477047704770B50446A56D00F0FCFAFF
:10156000064694F83500022808D08020606500BF48
:10157000002084F8340000BF012070BD206800689E
:1015800020F01600216808602068406920F0800083
:1015900021684861206C08B9A06C28B120680068F7
:1015A00020F00800216808602068006820F0010031
:1015B0002168086010E000F0CFFA801B05280BD9E5
:1015C00020206065032084F8350000BF002084F8E7
:1015D000340000BF0320D0E72068006800F001005D
:1015E0000028E8D194F85C103F208840A8600120D2
:1015F00084F8350000BF002084F8340000BF00BF2D
:10160000BBE7014691F83500022803D080204865E9
:1016100001207047052081F835000868006820F037
:1016200001000A6810600020F3E70000F8B50446E6
:10163000002000908C4800684FF41651B0FBF1F781
:10164000A56D2E6894F85C1008208840304098B151
:101650002068006800F0040070B12068006820F085
:1016600004002168086094F85C1008208840A86095
:10167000606D40F00100606594F85C1001208840C6
:10168000304068B12068406900F0800040B194F8B3
:101690005C1001208840A860606D40F00200606529
:1016A00094F85C1004208840304068B120680068DD
:1016B00000F0020040B194F85C1004208840A8605B
:1016C000606D40F00400606594F85C101020884064
:1016D000304078B32068006800F0080050B394F8F8
:1016E0005C1010208840A8602068006800F480200A
:1016F00080B12068006800F4002028B9206CC8B1CF
:101700002046216C884715E0A06C98B12046A16C5A
:1017100088470FE02068006800F4807028B92068CE
:10172000006820F0080021680860206C10B1204695
:10173000216C884794F85C102020884030400028B5
:1017400065D02068006800F0100000285FD094F891
:101750005C1020208840A86094F83500052828D126
:101760002068006820F01600216808602068406941
:1017700020F0800021684861206C08B9A06C28B175
:101780002068006820F008002168086094F85C1068
:101790003F208840A860012084F8350000BF002069
:1017A00084F8340000BF206D10B12046216D8847B9
:1017B000F8BD2068006800F4802080B120680068CF
:1017C00000F4002028B9606C10B12046616C884795
:1017D0001DE0E06BD8B12046E16B884717E0206838
:1017E000006800F4807068B92068006820F010007C
:1017F00021680860012084F8350000BF002084F8CB
:10180000340000BFE06B10B12046E16B8847606D8B
:1018100038B3606D00F00100F0B1052084F83500A8
:101820002068006820F001002168086000BF00986F
:10183000401C0090B84200D905E02068006800F024
:1018400001000028F3D100BF012084F8350000BF5B
:10185000002084F8340000BFE06C10B12046E16C39
:10186000884700BFA4E70000340100202DE9F041C3
:101870000446002500F070F9074614B90120BDE8C0
:10188000F081606A00B100BF022084F8350000BF1B
:10189000002084F8340000BF2068006820F00100B8
:1018A000216808600AE000F057F9C01B052805D937
:1018B00020206065032084F83500E0E72068006898
:1018C00000F001000028EED120680568214805409D
:1018D000D4E901010843E1680843216908436169CB
:1018E0000843A1690843E1690843216A08430543A5
:1018F000606A042803D1D4E90B010843054320683A
:1019000005602068456925F00705606A0543606A3F
:1019100004280DD1A06A0543E06A48B12046FFF7CC
:10192000D7F828B140206065012084F83500A6E78B
:10193000206845612046FFF7B1F8064694F85C1030
:101940003F208840B06000206065012084F83500A9
:10195000002094E73F8010F0F8B502460B460025C2
:10196000002400200021D6E0012606FA01F51E68B9
:1019700006EA0504AC4274D11E7906F00306012E76
:1019800004D01E7906F00306022E13D190684F0092
:101990000326BE40B0434F00DE68BE403043906037
:1019A000506801268E40B0431E79C6F300168E4063
:1019B000304350601E7906F00306032E09D0D0682C
:1019C0004F000326BE40B0434F009E68BE403043E8
:1019D000D0601E7906F00306022E13D1CF0802F163
:1019E000200656F827004E07F70E0F26BE40B043DC
:1019F0004F07FF0E1E69BE403043CF0802F120069C
:101A000046F8270010684F000326BE40B0431E79F9
:101A100006F003064F00BE40304310605E6806F4D7
:101A20004036002E76D000BF002600963C4E366829
:101A300046F480463A4F3E603E46366806F480469D
:101A4000009600BF00BF374E8F0856F827008E075C
:101A5000370F0F26BE40B043334EB24202D10026AC
:101A600024E057E0314EB24201D101261EE0304E53
:101A7000B24201D1022619E02E4EB24201D1032614
:101A800014E02D4EB24201D104260FE02B4EB2429B
:101A900001D105260AE02A4EB24201D1062605E010
:101AA000284EB24201D1072600E008268F073F0FDB
:101AB000BE4030431B4E8F0846F82700224E306848
:101AC000A0435E6806F4801606B120431E4E3060C7
:101AD000361D3068A0435E6806F4001606B1204348
:101AE000194E361D3060184E361F3068A0435E68B0
:101AF00006F4003606B12043134E361F3060361F01
:101B00003068A0435E6806F4803606B120430E4E6E
:101B1000083E3060491C1029FFF426AFF8BD0000D4
:101B200044380240083801400000024000040240EE
:101B300000080240000C0240001002400014024065
:101B400000180240001C0240083C01400AB18161BB
:101B500001E00B0483617047014800687047000092
:101B60002801002070B504460CB9012070BD4CF668
:101B7000CC402168086045F2555021680860D4E9DE
:101B8000001048602168A0688860FFF7E5FF0546FF
:101B90000BE0FFF7E1FF401B312806D92068C06841
:101BA00000F0030008B10320E0E72068C06800F0FF
:101BB00003000028EDD14AF6AA2021680860002021
:101BC000D4E7000009480068094909780844074932
:101BD00008604FF08040406A096801EB4102C2EBA7
:101BE000C11100EBC10003490860704728010020C3
:101BF000300100202401002010B50D48006840F499
:101C000000700B4908600846006840F48060086076
:101C10000846006840F480700860032000F0E0F897
:101C20000F2000F007F800F05FF8002010BD000062
:101C3000003C02402DE9F04188B004460027B84638
:101C400000BF002001902448006840F001002249B4
:101C500008600846006800F00100019000BF00BF66
:101C600002A903A800F092F9069F1FB900F0B6F987
:101C7000054602E000F0B2F945001848B5FBF0F067
:101C8000A0F101084FF080401549086040F2E731AB
:101C90001348C160C0F80480002101618160816146
:101CA00000F064FC064696B90D4800F093FC064629
:101CB0006EB91C2000F042F8102C07D200222146F9
:101CC0001C2000F04FF80748046000E00126304671
:101CD00008B0BDE8F08100004038024040420F00EB
:101CE000040900202C01002008B500BF002000904E
:101CF0001148006840F480400F49086008460068B9
:101D000000F48040009000BF00BF00BF00200090A2
:101D1000081F006840F08050091F086008460068EE
:101D200000F08050009000BF00BF00220F21901EE5
:101D300000F018F808BD000044380240014608468B
:101D400000280DDB00BF00BF00F01F0301229A40F6
:101D500043099B0003F1E023C3F8002100BF00BF4B
:101D600000BF70472DE9F05F80460D4616460027FC
:101D700002F064FA074639462A46334601F0070066
:101D8000C0F1070ABAF1040F02D94FF0040A01E0CA
:101D9000C0F1070AD14600F1040ABAF1070F02D2D6
:101DA0004FF0000A01E0A0F1030AD4464FF0010A07
:101DB0000AFA09FAAAF1010A0AEA020A0AFA0CFA6C
:101DC0004FF0010B0BFA0CFBABF1010B0BEA030B11
:101DD0004AEA0B042146404602F038FABDE8F09F7B
:101DE00000BF00F00702064B19684FF6FF031940C9
:101DF000044B0B4343EA0221014B196000BF7047BB
:101E00000CED00E00000FA0570B504460D460CB973
:101E1000012070BD5848006800F00700A84209D2B0
:101E200055490D700846006800F00700A84201D02F
:101E30000120EEE7207800F0020002281DD1207872
:101E400000F00400042805D14C48006840F4E0503C
:101E50004A490860207800F00800082805D1474862
:101E6000006840F46040454908604448006820F03C
:101E7000F000A168084341490860207800F00100A3
:101E8000A8B36068012807D13C4808380068C0F34F
:101E90004040B8B90120BCE76068022802D0606801
:101EA000032807D1354808380068C0F3406048B9B6
:101EB0000120AEE7314808380068C0F3400008B997
:101EC0000120A6E72D48006820F003006168084360
:101ED0002A490860FFF740FE064609E0FFF73CFE8E
:101EE000801B41F28831884202D9032091E707E044
:101EF0002248006800F00C006168B0EB810FEDD162
:101F00001D48006800F00700A84209D91A490D7061
:101F10000846006800F00700A84201D0012078E7D9
:101F2000207800F00400042807D11448006820F449
:101F3000E050E168084311490860207800F008008B
:101F4000082808D10D48006820F46040216940EA63
:101F5000C1000A49086000F061F808490968C1F346
:101F60000311074A515CC8400649086006480068EA
:101F7000FFF760FE00204CE7003C024008380240BA
:101F80005C550008340100202C0100200F22026063
:101F90000D4A126802F0030242600B4A126802F016
:101FA000F0028260084A126802F4E052C260064AF7
:101FB000126802F46042D2080261044A126802F018
:101FC00007020A607047000008380240003C0240E7
:101FD00001480068704700003401002000B5FFF799
:101FE000F7FF04490968C1F38221034A515CC840E4
:101FF00000BD0000083802406C55000800B5FFF72E
:10200000E7FF04490968C1F34231034A515CC84003
:1020100000BD0000083802406C5500082DE9F0476B
:10202000002400250026A1462548006800F00C0089
:1020300020B1042805D008283AD105E0DFF88490C3
:1020400039E0DFF8849036E01D48001F006800F09A
:102050003F041B48001F006800F4800078B11A4854
:102060001749091F0968C1F38811A0FB01700146D7
:10207000224600233846FEF777F905460EE0114860
:102080000F49091F0968C1F38811A0FB01700146BF
:10209000224600233846FEF767F905460848001F28
:1020A0000068C0F30140401C4600B5FBF6F902E0B1
:1020B000DFF8109000BF00BF4846BDE8F087000081
:1020C000083802400024F40040787D01F8B5044649
:1020D0000CB90120F8BD207800F00100002874D070
:1020E000F948006800F00C0004280DD0F64800689C
:1020F00000F00C00082813D1F348001F006800F41A
:102100008000B0F5800F0BD1EF4808380068C0F3AD
:102110004040002859D06068002856D10120D9E7F6
:1021200000BF6068B0F5803F08D1E7480838006814
:1021300040F48030E449083908601EE06068B0F57A
:10214000A02F0DD1E0480838006840F48020DE4917
:10215000083908600846006840F4803008600CE0E8
:10216000D9480838006820F48030D7490839086019
:102170000846006820F48020086000BF606890B1C5
:10218000FFF7EAFC054606E0FFF7E6FC401B642883
:1021900001D903209EE7CC4808380068C0F34040CE
:1021A0000028F1D011E0FFF7D7FC054606E0FFF765
:1021B000D3FC401B642801D903208BE7C2480838B0
:1021C0000068C0F340400028F1D1207800F0020000
:1021D00002285FD1BC48006800F00C0058B1BA4832
:1021E000006800F00C0008281CD1B748001F0068E8
:1021F00000F48000B0B9B44808380068C0F340006B
:1022000020B1E068012801D0012063E7AE4808381A
:10221000006820F0F800216940EAC100AA490839A5
:10222000086037E0E06800B30120A8490860FFF7C4
:1022300093FC054606E0FFF78FFC401B022801D9FE
:10224000032047E7A04808380068C0F34000002892
:10225000F1D09D480838006820F0F800216940EA74
:10226000C10099490839086014E0002097490860C6
:10227000FFF772FC054606E0FFF76EFC401B0228E4
:1022800001D9032026E7904808380068C0F34000D1
:102290000028F1D1207800F0080008282CD16069CE
:1022A000A8B101208A490860FFF756FC054606E000
:1022B000FFF752FC401B022801D903200AE782489D
:1022C0006C300068C0F340000028F1D014E000201A
:1022D0007F490860FFF740FC054606E0FFF73CFC3D
:1022E000401B022801D90320F4E677486C300068CF
:1022F000C0F340000028F1D1207800F00400042849
:1023000070D1002770483830006800F0805090B9D4
:1023100000BF002000906C483830006840F08050CA
:102320006949383108600846006800F08050009024
:1023300000BF00BF01276748006800F48070B0B993
:102340006448006840F4807062490860FFF704FC4C
:10235000054606E0FFF700FC401B022801D90320D8
:10236000B8E65C48006800F480700028F2D000BF36
:10237000A068012808D154486830006840F0010086
:102380005149683108601DE0A06805280DD14E480C
:102390006830006840F004004B4968310860084626
:1023A000006840F0010008600CE0474868300068B1
:1023B00020F001004449683108600846006820F0B8
:1023C0000400086000BFA068A8B1FFF7C5FB054680
:1023D00009E0FFF7C1FB401B41F28831884202D976
:1023E000032077E626E0384868300068C0F34000F4
:1023F0000028EED013E0FFF7AFFB054608E0FFF73B
:10240000ABFB401B41F28831884201D9032061E6D1
:102410002D4868300068C0F340000028EFD1012F3C
:1024200007D129483830006820F0805026493831DB
:10243000086000BFA069002845D02348006800F06C
:102440000C0008285DD0A069022845D100201F4952
:102450000866FFF781FB054606E0FFF77DFB401BA2
:10246000022801D9032035E6174808380068C0F370
:1024700040600028F1D1D4E907010843616A40EACD
:1024800081110122A06AC2EB500041EA00412C20D8
:10249000005D41EA00600C49091F086001200B49FA
:1024A0000866FFF759FB054606E0FFF755FB401BA2
:1024B000022801D903200DE6034808380068C0F35C
:1024C00040600028F1D049E008380240000047424F
:1024D000800E474200700040002021490866FFF747
:1024E0003BFB054606E0FFF737FB401B022801D9FE
:1024F0000320EFE51B480068C0F340600028F2D1DC
:102500002CE0A069012800D1E4E51648001D06680A
:10251000A069012820D006F48001E06981421BD126
:1025200006F03F01206A814216D147F6C070304064
:10253000616AB0EB811F0FD106F440310122A06A1D
:10254000C2EB5000B1EB004F06D106F070612C20B9
:10255000005DB1EB006F01D00120BBE50020B9E5C3
:1025600000004742003802407047704710B50446EB
:102570000CB9012010BD94F83D0028B9002084F862
:102580003C00204600F025F8022084F83D00211D83
:10259000206801F08FFB012084F8460000BF84F81A
:1025A0003E0001213F2001554020015541200155A9
:1025B00000BF00BF012084F84200432001554420A1
:1025C00001554520015500BF012084F83D00002041
:1025D000D0E77047014691F83D00012801D0012065
:1025E0007047022081F83D000868C06840F0010093
:1025F0000B68D8601A4B086898421BD00868B0F185
:10260000804F17D0174B0868984213D0164B0868B4
:1026100098420FD0154B086898420BD0144B0868AD
:10262000984207D0134B0868984203D0124B0868B1
:1026300098420CD10868806800F00702062A0CD086
:102640000868006840F001000B68186005E0086841
:10265000006840F001000B6818600020C0E700002F
:10266000000001400004004000080040000C004051
:10267000000401400040014000180040704710B5C0
:10268000044620680069C0F34000D8B12068C068E3
:10269000C0F34000B0B16FF0020021680861012072
:1026A00020772068806900F0030018B12046FFF70A
:1026B000E5FF05E0204600F0ADF8204600F0ABF85D
:1026C0000020207720680069C0F38000D8B120681E
:1026D000C068C0F38000B0B16FF0040021680861E9
:1026E000022020772068806900F4407018B12046ED
:1026F000FFF7C4FF05E0204600F08CF8204600F00C
:102700008AF80020207720680069C0F3C000D8B1A3
:102710002068C068C0F3C000B0B16FF00800216845
:102720000861042020772068C06900F0030018B118
:102730002046FFF7A3FF05E0204600F06BF8204697
:1027400000F069F80020207720680069C0F30010CD
:10275000D8B12068C068C0F30010B0B16FF01000AD
:1027600021680861082020772068C06900F4407063
:1027700018B12046FFF782FF05E0204600F04AF836
:10278000204600F048F8002020772068006900F01B
:10279000010058B12068C06800F0010030B16FF04E
:1027A000010021680861204600F036F820680069C1
:1027B000C0F3C01058B12068C068C0F3C01030B179
:1027C0006FF08000216808612046FFF7CDFE206889
:1027D0000069C0F3801058B12068C068C0F3801051
:1027E00030B16FF0400021680861204600F01DF80C
:1027F00020680069C0F3401058B12068C068C0F379
:10280000401030B16FF02000216808612046FFF7CA
:10281000ACFE10BD7047704710B504462068B0F19B
:10282000804F01D1FFF7CEF910BD70477047704758
:102830002DE9F84F0446206805682068C6682068BE
:1028400047694FF00009CA4605F00F09B9F1000FBA
:102850000AD105F0200038B106F0200020B1204652
:1028600001F0F4FABDE8F88FB9F1000F7CD007F061
:10287000010018B906F49070002875D005F0010029
:1028800030B106F4807018B1206C40F00100206473
:1028900005F0040030B107F0010018B1206C40F0E1
:1028A0000200206405F0020030B107F0010018B109
:1028B000206C40F00400206405F0080048B106F0E8
:1028C000200010B907F0010018B1206C40F008009A
:1028D0002064206C002846D005F0200028B106F0C6
:1028E000200010B1204601F0B1FA20684069C0F321
:1028F000801A206C00F0080010B9BAF1000F2DD03A
:10290000204601F05DFA2068406900F04000402850
:1029100020D100BF00BF2168143151E8001F21F011
:1029200040002168143141E80002002AF3D100BFC1
:10293000A06B50B17548A16B0865A06BFEF761FEF6
:1029400088B1A06B016D88470DE02046FFF76FFF4F
:1029500009E009E02046FFF76AFF04E02046FFF7A0
:1029600066FF002020647DE7206B012876D105F00A
:102970001000002872D006F010000028FAD000BF26
:102980000020009020680068009020684068009057
:1029900000BF00BF2068406900F0400040285ED1C1
:1029A000A06B006840681FFA80F8B8F1000F54D09F
:1029B000A08D404551DDA4F82E80A06BC069B0F514
:1029C000807F43D000BF00BF21680C3151E8001F59
:1029D00021F4807021680C3141E80002002AF3D113
:1029E00000BF00BF00BF2168143151E8001F21F073
:1029F00001002168143141E80002002AF3D100BF30
:102A000000BF00BF2168143151E8001F21F04000D1
:102A10002168143141E80002002AF3D100BF2020D0
:102A200084F83E000020206300BF00BF21680C3105
:102A300051E8001F21F0100021680C3141E800022C
:102A4000002AF3D100BFA06BFEF785FDA08DE28DBB
:102A5000801A81B22046FFF7E9FE03E740E0A08D2F
:102A6000E18D401A1FFA80F8E08DC0B3B8F1000F75
:102A700035D000BF00BF21680C3151E8001F21F4A0
:102A8000907021680C3141E80002002AF3D100BFA8
:102A900000BF00BF2168143151E8001F21F0010080
:102AA0002168143141E80002002AF3D100BF202040
:102AB00084F83E000020206300BF00BF21680C3175
:102AC00051E8001F21F0100021680C3141E800029C
:102AD000002AF3D100BF41462046FFF7A7FEC1E61A
:102AE00005F0800030B106F0800018B1204601F0FA
:102AF0003FFBB7E605F0400030B106F0400018B1EA
:102B0000204601F093F9ADE600BFABE6AD3D00080D
:102B100010B504460CB9012010BDA06900B100E059
:102B200000BF94F83D0028B9002084F83C002046FE
:102B300000F028F8242084F83D002068C06820F4C4
:102B400000502168C860204601F0FCF92068006947
:102B500020F49040216808612068406920F02A0034
:102B6000216848612068C06840F400502168C8604E
:102B700000202064202084F83D0084F83E000020DE
:102B8000CAE7000010B586B00446142101A8FDF77D
:102B900094FCFA492068884277D100BF0020009059
:102BA000F748006840F40020F549086008460068CE
:102BB00000F40020009000BF00BF00BF0020009084
:102BC000EF481038006840F00100ED491039086006
:102BD0000846006800F00100009000BF00BF03201D
:102BE000019002200290002003900320049008200E
:102BF000059001A9E348FEF7AFFEE348E34908600A
:102C0000400548600021E1488160C1604FF4806167
:102C100001610021416181614FF48071C161002136
:102C200001624162FEF722FE08B1FDF7A7FF00BF77
:102C3000D648A063846300BFD3483030D4490860CD
:102C40004FF0006048604021D14881600021C160A0
:102C50004FF480610161002141618161C1610162C4
:102C60004162FEF703FE08B1FDF788FF00BFC848C8
:102C70006063846300BF002205213420FFF772F8EF
:102C80003420FFF75BF818E2FFE7C249206888426A
:102C90007ED100BF00200090B948006840F4801049
:102CA000B74908600846006800F48010009000BF33
:102CB00000BF00BF00200090B1481038006840F00D
:102CC0000400AF49103908600846006800F00400AD
:102CD000009000BF00BF00BF0020009008460068C1
:102CE00040F0080008600846006800F00800009006
:102CF00000BF00BF881401900220029000200390C2
:102D0000032004900820059001A9A348FEF724FEA3
:102D100004200190022002900020039003200490E0
:102D20000820059001A99D48FEF716FE9648303808
:102D30009B490860C0054860002199488160C160D6
:102D40004FF4806101610021416181614FF4807124
:102D5000C161002101624162FEF788FD08B1FDF703
:102D60000DFF00BF8E48A063846300BF86487830A3
:102D70008C4908604FF000604860402189488160BC
:102D80000021C1604FF4806101610021416100E0D8
:102D900016E08161C16101624162FEF767FD08B121
:102DA000FDF7ECFE00BF7F486063846300BF002234
:102DB00005213520FEF7D6FF3520FEF7BFFF7CE169
:102DC0007949206888427BD100BF002000906C4880
:102DD000001D006840F010006949091D08600846A0
:102DE000006800F01000009000BF00BF00BF00208E
:102DF000009063481038006840F0010060491039C5
:102E000008600846006800F00100009000BF00BFA5
:102E10004FF4C06001900220029000200390032034
:102E200004900720059001A95648FEF795FD5F48DC
:102E30005F4908604FF00060486000215C48816095
:102E4000C1604FF4806101610021416181614FF4F3
:102E50008071C161002101624162FEF707FD08B186
:102E6000FDF78CFE00BF5248A063846300BF4F484B
:102E70007830504908604FF00060486040214D486C
:102E800081600021C1604FF48061016100214161D6
:102E90008161C16101624162FEF7E8FC08B1FDF7A2
:102EA0006DFE00BF43486063846300BF00220521BC
:102EB0002520FEF757FF2520FEF740FFFDE0FFE746
:102EC0003D49206888427CD100BF002000902C48FA
:102ED000006840F400302A4908600846006800F4A1
:102EE0000030009000BF00BF00BF002000902448C9
:102EF0001038006840F00100214910390860084688
:102F0000006800F00100009000BF00BF0C2001909D
:102F100002200290002003900320049007200590D7
:102F200001A91848FEF718FD1748483023490860E2
:102F30004FF000604860002120488160C1604FF47C
:102F4000806101610021416181614FF48071C16143
:102F5000002101624162FEF789FC08B1FDF70EFE17
:102F600000BF1648A063846300BF0022052126200D
:102F7000FEF7F8FE2620FEF7E1FE9EE0004C004042
:102F8000403802400000024040600240A40500209A
:102F9000040600200050004000080240000C0240DF
:102FA00064060020C4060020001001404064024076
:102FB000240700208407002000440040E40700208C
:102FC000FFE73F492068884277D100BF002000908A
:102FD0003C48006840F480203A4908600846006890
:102FE00000F48020009000BF00BF00BF00200090D0
:102FF00034481038006840F0020032491039086047
:103000000846006800F00200009000BF00BF4FF4C7
:103010004060019002200290002003900320049061
:103020000720059001A92848FEF796FC2748284963
:1030300008604FF000604860002125488160C16051
:103040004FF4806101610021416181614FF4807121
:10305000C161002101624162FEF708FC08B1FDF781
:103060008DFD00BF1A48A063846300BF174830304D
:10307000184908604FF000604860402115488160A1
:103080000021C1604FF480610161002141618161D3
:10309000C16101624162FEF7E9FB08B1FDF76EFD17
:1030A00000BF0C486063846300BF00220521272015
:1030B000FEF758FE2720FEF741FE06B010BD0000C7
:1030C00000480040403802400004024028600240AE
:1030D00044080020A40800207047704700BFFEE7A6
:1030E00010B500200F4908600F48006820F04040EC
:1030F0000D4908600846006840F0804008600020E4
:103100000A49C1F8BC02022001F0B4F801200549C7
:103110000860022001F0AEF800200449C1F8B402B2
:1031200010BD0000B48240420004024000804042D2
:1031300010B500200F4908600F48006820F040409B
:103140000D4908600846006840F080400860012092
:103150000A49C1F8BC02022001F08CF8012005499F
:103160000860022001F086F800200449C1F8B4028A
:1031700010BD0000B4824042000402400080404282
:1031800070B5054600241648006820F040401449F8
:103190000860084600680860002616E00020114913
:1031A0000860022001F066F801200F49C1F8B4025E
:1031B0006006040E0B487838006808B1601CC4B281
:1031C000012001F057F8701CC6B2082EE6DB15B9D5
:1031D000FFF7AEFF01E0FFF783FF204670BD000060
:1031E00000040240B48240420080404270B5044670
:1031F0001548006820F04040134908600846006800
:1032000040F080400860002010490860002517E069
:10321000E0090E49083108606006040E022001F042
:1032200029F801200A49C1F8B402022001F022F86D
:10323000002006490860022001F01CF8681CC5B295
:10324000082DE5DB70BD000000040240B48240425E
:103250000080404210B50F48006820F040400D4902
:1032600008600846006840F08040086001200A4974
:1032700008600A49C1F8B402042000F0FBFF0020F6
:1032800005490860042000F0F5FF00200349C1F85B
:10329000B40210BD00040240BC82404200804042A3
:1032A00010B50F48006820F040400D4908600846FE
:1032B000006840F08040086000200A4908600A4920
:1032C000C1F8BC02042000F0D5FF012005490860C8
:1032D0000549C1F8BC02042000F0CCFF10BD00007D
:1032E00000040240B48240420080404210B50024F5
:1032F0001348006820F04040114908600846006803
:10330000086001200F49086000F0B4FF01200E4959
:10331000C1F8B40200F0AEFF07E0601CC4B2FA2CA2
:1033200003DDFFF7BDFF012010BD064880380068AF
:103330000028F2D103490839086000BFF4E7000013
:1033400000040240BC824042008040422DE9F0412E
:1033500007460C461546FFF77DFF15490978002200
:1033600042EA4101C8B2FFF741FFFFF7BFFF38460D
:10337000FFF73CFFFFF7BAFFFFF76CFF0C49097836
:10338000012202EB4101C8B2FFF730FFFFF7AEFFA9
:10339000002606E00120FFF7F3FE2070641C701C7D
:1033A000C6B2AE42F6DBFFF77BFFBDE8F08100005E
:1033B0002101002010B50F480F4908600320486024
:1033C00000210D488160C1604FF4002101614FF47C
:1033D0004011416100210176012141768176002171
:1033E000C176017701214177FDF703FF08B1FDF7B1
:1033F000C5FB10BD00640040F403002010B50B486D
:103400000B49086010204860002109488160C160B4
:1034100001614161017641768176C176017741771C
:10342000FDF7E7FE08B1FDF7A9FB10BD00680040FD
:103430001C04002008B500BF00200090324800683E
:1034400040F40010304908600846006800F400109D
:10345000009000BF00BF00BF002000900846006839
:1034600040F4800008600846006800F48000009086
:1034700000BF00BF002205210B20FEF773FC0B20CC
:10348000FEF75CFC002205210C20FEF76BFC0C20F3
:10349000FEF754FC002205210D20FEF763FC0D20F1
:1034A000FEF74CFC002205210E20FEF75BFC0E20EF
:1034B000FEF744FC002205210F20FEF753FC0F20ED
:1034C000FEF73CFC002205211020FEF74BFC1020EB
:1034D000FEF734FC002205212F20FEF743FC2F20AD
:1034E000FEF72CFC002205213A20FEF73BFC3A2097
:1034F000FEF724FC002205214620FEF733FC46207F
:10350000FEF71CFC08BD00003038024000B5A3B037
:103510001C221E491CA8FCF79EFF00211CA800F0DD
:103520000AFF1B4908601C2218491C3115A8FCF72A
:1035300092FF002115A800F0FEFE164908601C222B
:10354000124938310EA8FCF786FF00210EA800F0C2
:10355000F2FE114908601C220C49543107A8FCF7FF
:103560007AFF002107A800F0E6FE0C4908601C2243
:10357000064970316846FCF76EFF0021684600F08E
:10358000DAFE0749086023B000BD0000B05400080F
:103590000000002004000020080000200C00002093
:1035A0001000002000B587B0142102A8FCF785FFA9
:1035B00000BF002001903B48006840F004003949FA
:1035C00008600846006800F00400019000BF00BFDA
:1035D00000BF002001900846006840F080000860AD
:1035E0000846006800F08000019000BF00BF00BFE7
:1035F000002001900846006840F00100086008467D
:10360000006800F00100019000BF00BF00BF002073
:1036100001900846006840F0020008600846006813
:1036200000F00200019000BF00BF00BF0020019029
:103630000846006840F0080008600846006800F08E
:103640000800019000BF00BF01224FF4D04116488E
:10365000FEF77CFA01224FF420411448FEF776FA77
:1036600000224FF480611048FEF770FA4FF4D84002
:1036700002900120039000200490059002A90A48BE
:10368000FEF76AF94FF420400290012003900020D9
:1036900004900320059002A90448FEF75DF907B0E5
:1036A00000BD000030380240000802400004024023
:1036B00010B50748074908600020486040F6FF71D0
:1036C00004488160FEF74EFA08B1FDF757FA10BDC5
:1036D000003000404404002010B50B480B4908603E
:1036E0004FF4E1304860002108488160C160016109
:1036F0000C21416100218161C161FFF709FA08B124
:10370000FDF73CFA10BD0000004C004050040020C2
:1037100010B50B480B4908604FF4E13048600021B8
:1037200008488160C16001610C2141610021816113
:10373000C161FFF7EDF908B1FDF720FA10BD0000F7
:10374000005000409404002010B50B480B4908605D
:103750004FF4E1304860002108488160C160016198
:103760000C21416100218161C161FFF7D1F908B1EC
:10377000FDF704FA10BD000000100140D80400203D
:1037800010B50B480B4908600B48486000210948F8
:103790008160C1604FF4806101610C2141610021B1
:1037A0008161C161FFF7B4F908B1FDF7E7F910BD18
:1037B000004400401C050020A086010010B50B4805
:1037C0000B4908604FF4E1304860002108488160EF
:1037D000C16001610C21416100218161C161FFF77C
:1037E00097F908B1FDF7CAF910BD00000048004084
:1037F0006005002000BFFEE710B50446206810B148
:103800000CB1606810B90220607610BD9FED0F0A00
:10381000206880ED040A00202168C86021680875CE
:10382000607601202076DFED0A0A9FED0A0A0A4938
:103830000A4800F019F8DFED060A9FED060A08496C
:103840000648443800F010F800BFDEE70000000032
:1038500000007A440000FA443C550008D4000020DF
:103860004855000800BFFEE700B101B9704791ED6F
:10387000001A80ED001A91ED011A80ED011A91ED08
:10388000021A80ED021A80ED030AC0ED040A9FEDD2
:103890000D1A80ED0D1A80ED0C1A80ED0B1A9FEDBC
:1038A000091A80ED071A80ED0A1A80ED091A80EDD9
:1038B000081A80ED101A80ED0F1A80ED0E1A00BF65
:1038C000D4E7000000000000B0EE401A10B99FEDF0
:1038D000480A704790ED0F0A80ED100A90ED0E0A2D
:1038E00080ED0F0AC0ED050A80ED061A30EEC10A20
:1038F00080ED0E0A90ED000AD0ED0E1A20EE210A9E
:1039000080ED080A90ED090AD0ED011A90ED0E2A1B
:1039100001EE820A80ED090A90ED0C0A80ED0D0A95
:1039200090ED0B0A80ED0C0A90ED0E0AD0ED0F1A07
:10393000B0EE002A02EE610AD0ED101A30EE210A34
:1039400080ED0B0A90ED020AD0ED0B1A20EE210A51
:1039500080ED0A0A90ED090AD0ED041AB4EEE10AEE
:10396000F1EE10FA04DD90ED040A80ED090A10E092
:1039700090ED090AD0ED041AF1EE611AB4EEE10AF5
:10398000F1EE10FA05D290ED040AB1EE400A80ED96
:10399000090A90ED080AD0ED091A30EE210AD0ED9F
:1039A0000A1A30EE210A80ED070A90ED070AD0EDE1
:1039B000031AB4EEE10AF1EE10FA04DD90ED030A09
:1039C00080ED070A10E090ED070AD0ED031AF1EE42
:1039D000611AB4EEE10AF1EE10FA05D290ED030A95
:1039E000B1EE400A80ED070A90ED070A71E700008A
:1039F0000000000000BF012000F08CFCFBE700008D
:103A00001CB5FCF765FF33488168884700BF314823
:103A1000407E18B92F48007E012812D10020009066
:103A200001902C48406800231A464FF40071446A04
:103A30002948A04700224FF400612848FEF786F885
:103A400044E00122D1022548FEF780F821480068B1
:103A5000B0F9020000EE900AF8EEE00AB0EE600A5B
:103A6000DFED1F0A1B481C30FFF72EFF194880EDC1
:103A70002A0A90ED2A0A1B4880ED000A154890EDAD
:103A80002A1AF0EE410A0068B0F9040001EE100AAB
:103A9000B8EEC11AB0EE410A0E486030FFF714FFCD
:103AA0000C4880ED290A90ED290A0F4880ED000AA4
:103AB000002000900190074840680023446A0B48AA
:103AC000B0F900204FF400710348A047012000F036
:103AD00021FC9CE774000020F40300200008024051
:103AE0000000FA43200000201C00002018000020E5
:103AF00000BF0A2000F00EFCFBE7000000BF0348F7
:103B000041698847012000F005FCF8E774000020B7
:103B10001CB500BF00224FF480611748FEF716F86D
:103B200016481749174B184ACDE90010174918488D
:103B3000FCF728FD1348B0F9000000EE100AB8EEBB
:103B4000C00ADFED140A20EE200A1348B0F9000085
:103B500000EE900AF8EEE00A9FED101A01EE200A3E
:103B6000BDEEC00A10EE100A00B20B490880012019
:103B700000F0D0FBCEE70000000802402800002043
:103B800026000020240000202E0000202C00002011
:103B90002A000020CDCCCC3D300000206666663F78
:103BA00010B500BF502080F31188BFF34F8FBFF3D3
:103BB0006F8F00BF01F006FA18B14FF08050044932
:103BC000086000BF002080F3118800BF10BD000016
:103BD00004ED00E000B593B0302107A8FCF76DFCC0
:103BE000142102A8FCF769FC00BF002001902648C0
:103BF000006840F08050244908600846006800F0E2
:103C00008050019000BF00BF00BF002001901F48FE
:103C1000006840F480401D4908600846006800F4D0
:103C20008040019000BF00BF092007904FF4803012
:103C3000089001200C9002200D9041050E91192151
:103C40000F914FF4A871109102211191042112914A
:103C500007A8FEF73BFA08B1FCF790FF0F2002908F
:103C600002200390002004904FF4A05005904FF4E0
:103C700080500690052102A8FEF7C6F808B1FCF7AF
:103C80007DFF13B000BD00004038024000700040CE
:103C90000348006840F47000014908607047000064
:103CA00088ED00E010B50248FEF7E9FC10BD000009
:103CB0000409002010B50268294B98420ED0B0F1DB
:103CC000804F0BD0274B984208D0274B984205D005
:103CD000264B984202D0264B984203D122F0700224
:103CE0004B681A431E4B984220D0B0F1804F1DD034
:103CF0001C4B98421AD01C4B984217D01B4B984231
:103D000014D01B4B984211D01A4B98420ED01A4B2C
:103D100098420BD0194B984208D0194B984205D0C5
:103D2000184B984202D0184B984203D122F44072AB
:103D3000CB681A4322F080034C6943EA0402026014
:103D40008B68C3620B688362054B984202D0084BB4
:103D5000984201D10B6903630123436110BD000048
:103D6000000001400004004000080040000C00403A
:103D7000000401400040014000440140004801406F
:103D800000180040001C00400020004010B5024810
:103D9000FEF74EFD10BD00005004002010B5024893
:103DA000FEF746FD10BD00009404002070B50546E6
:103DB000AC6B0020E085E0842046FEF738FD70BD46
:103DC00000BF00BF02680C3252E8002F22F490714D
:103DD00002680C3242E80013002BF3D100BF00BF91
:103DE00000BF0268143252E8002F22F0010102687D
:103DF000143242E80013002BF3D100BF016B0129FC
:103E00000ED100BF00BF02680C3252E8002F22F032
:103E1000100102680C3242E80013002BF3D100BFFE
:103E2000202180F83E1000210163704710B5044640
:103E30002068C06820F040002168C860202084F815
:103E40003D002046FFF749F9002010BDF8B50446B3
:103E500094F83E00222873D1A068B0F5805F0CD1A1
:103E6000206950B90025A66A20684068C0F30800A0
:103E70003080A06A801CA06215E0A56A0026A068B8
:103E8000B0F5805F03D0A06828B9206918B9206810
:103E90004068287004E02068406800F07F002870C7
:103EA000A06A401CA062E08D401E80B2E085002820
:103EB00044D12068C06820F020002168C8602068D4
:103EC000C06820F480702168C8602068406920F0D4
:103ED000010021684861202084F83E00206B012801
:103EE00026D10020206300BF00BF21680C3151E8BB
:103EF000001F21F0100021680C3141E80002002A67
:103F0000F3D100BF2068006800F0100010280AD12B
:103F100000BF002000902068006800902068406882
:103F2000009000BF00BFA18D2046FEF77FFC02E09D
:103F30002046FFF7D1F80020F8BD01E00020FBE7A4
:103F40000220F9E72DE9F84F04462068006920F4C3
:103F50004050E1680843216808612169A06808436E
:103F600061690843E169084300902068C06849F22C
:103F70000C618843009908432168C8602068406943
:103F800020F44070A169084321684861764920689F
:103F9000884203D075492068884203D1FEF72EF885
:103FA000814602E0FEF71AF88146E069B0F5004F5D
:103FB0006CD102206168A0FB015003461920A9FBC7
:103FC000007001462A463846FCF7CEF96421B0FB62
:103FD000F1F04FEA001A02206168A0FB01510B4684
:103FE0001920A9FB00712A463846FCF7BDF9834623
:103FF00002206168A0FB015003461920A9FB007153
:104000002A463846FCF7B0F96421B0FBF1F000EB2A
:10401000C00101EB0010ABEB8000322101EBC000CE
:104020006421B0FBF1F000F0F8000AEB400A022036
:104030006168A0FB015003461920A9FB00700146EE
:104040002A463846FCF790F9834602206168A0FBB7
:10405000015003461920A9FB00712A463846FCF797
:1040600083F96421B0FBF1F000EBC00101EB00101B
:10407000ABEB8000322101EBC0006421B0FBF1F01A
:1040800000F007005044216888606AE004206168FD
:10409000A0FB015003461920A9FB007001462A46E7
:1040A0003846FCF761F9824604206168A0FB0150A4
:1040B00003461920A9FB007001462A463846FCF742
:1040C00053F96421B0FBF1F000EBC00101EB0010EB
:1040D000AAEB8000322101EB00106421B0FBF1F06B
:1040E00000F0F00A04206168A0FB0170034619206B
:1040F000A9FB00513A462846FCF736F96421B0FB8B
:10410000F1F00AEB001A04206168A0FB01510B4694
:104110001920A9FB00712A463846FCF725F9834689
:1041200004206168A0FB015003461920A9FB007020
:1041300001462A463846FCF717F96421B0FBF1F036
:1041400000EBC00101EB0010ABEB8000322101EB72
:1041500000106421B0FBF1F000F00F005044216822
:104160008860BDE8F88F0000001001400014014095
:10417000014691F83D00212828D18868B0F5805F7C
:104180000BD1086948B90A6A1088C0F308000B68A7
:104190005860086A801C086205E00B6A581C0862B7
:1041A00018780B685860C88C401E80B2C88458B913
:1041B0000868C06820F080000B68D8600868C06894
:1041C00040F040000B68D860002070470220FCE7F8
:1041D00010B50248FEF72CFB10BD0000D8040020EB
:1041E00010B50248FEF724FB10BD00001C0500209E
:1041F00010B50248FEF71CFB10BD00006005002052
:10420000026802B110B90222427670474A780B78F0
:1042100042EA032203681A80CA788B7842EA0322B2
:1042200012B203685A804A790B7942EA032212B229
:1042300003689A8000BFE8E700BFFEE70248006815
:10424000C0F30220704700000CED00E010B500281C
:1042500004DB0A07130E054A135406E00A07140E7E
:10426000034A00F00F031B1FD45410BD00E400E00C
:1042700018ED00E010B5034600F038F8044600BF22
:1042800000F034F8001B9842FAD310BDFDF7B4FCDF
:10429000FFF7A0FCFFF786F9FFF7CCF8FFF78AF8E5
:1042A000FFF7ACF8FFF704FAFFF716FAFFF730FA5A
:1042B000FFF74AFAFFF764FAFFF780FA0548FDF7BF
:1042C00053F80548FDF750F8FFF720F900F02EF8F5
:1042D00000BFFEE7F40300201C040020014600207C
:1042E000842901D0CA1C1044704700004FF0804060
:1042F000406A0649096801EB4102C2EBC11100EBBB
:10430000C100034908600846006870472801002082
:104310002401002070B5044625460DB1294600E071
:104320000121084600F036FC002070BD10B500F0F9
:104330005FFC002010BD7FB504460D46606998B152
:10434000A06988B1B4F90800FFF7C8FF0646D4E9B0
:104350000510CDE9006102902B462269D4E90010D6
:1043600000F0D2FD039013E0B4F90800FFF7B6FFA8
:10437000064603A8CDE90060238A9AB22B46D4E909
:10438000001000F08FFD012802D0002004B070BDA5
:104390000398FBE72DE9F04105460E461C480768E7
:1043A0001C480068001D00F0F1FA50B91948006877
:1043B00090F82C100120884017490968814316485D
:1043C0000160681C38B936B112480168091D1348EC
:1043D00000F026FB1AE07C190E4800684460BC42DD
:1043E00007D20C480168091D0D48006800F0FEFA6C
:1043F0000CE008480168091D0A48006800F0F6FA58
:1044000009480068844201D207480460BDE8F08191
:104410004C0100203801002050010020E80A002053
:10442000400100203C0100206801002010B5044636
:1044300000F002FB23480068401C22490860224823
:10444000006840B9204804600846006801280DD182
:1044500000F03EF90AE01D48006838B91A480068C3
:10446000C06AE16A884201D81748046018480068A9
:10447000401C1749086094F82C1001208840154909
:104480000968084313490860E16A01EB8101124A97
:1044900002EB8100211D00F0C3FA00F0F7FA0B488F
:1044A000006868B108480068C06AE16A884207D2BB
:1044B0004FF0805009490860BFF34F8FBFF36F8FF3
:1044C00010BD0000480100203801002054010020E8
:1044D00064010020500100200C0A002004ED00E0DF
:1044E00010B516E000F0A8FA0C48C068C468201D9A
:1044F00000F04CFA0A480068401E09490860094863
:104500000068401E0749086000F0C0FA204600F02D
:104510000BF8044800680028E4D110BDD40A00203C
:10452000480100204401002010B5044694F85100D1
:1045300030B9206B00F0C8FA204600F0C5FA1AE046
:1045400094F85100012803D1204600F0BDFA12E092
:1045500094F85100022801D1012000E0002050B958
:1045600000BF502080F31188BFF34F8FBFF36F8FD0
:1045700000BF00BFFEE710BD30B54FF470531748C1
:1045800000F007042CB1C01D20F00700134C041BE1
:104590001B1B0246124C22600024114D6C60D01887
:1045A000083820F007000F4C206000240D4D2D68C6
:1045B0006C600C4D2D682C601146441A4C60094CFF
:1045C00024680C60084D4C682C60084D4C682C60C9
:1045D0004FF00044064D2C6030BD0000FC0A002066
:1045E000740100207C010020840100208001002053
:1045F0009001002000BFFFF773FF06480068012804
:10460000F9D94FF0805004490860BFF34F8FBFF3D2
:104610006F8FF0E70C0A002004ED00E02DE9FF5F4A
:1046200081460E469246DDE90E7B109CAAF1010000
:10463000216B01EB800828F0070808F0070008B993
:10464000012000E0002050B900BF502080F3118805
:10465000BFF34F8FBFF36F8F00BF00BFFEE786B180
:10466000002507E0715D04F134004155705D00B92B
:1046700002E06D1C102DF5D300BF00214320015531
:1046800002E0002084F83400072F00D30627E762F9
:1046900067640020A064201D00F0A5F904F1180053
:1046A00000F0A1F92461C7F10700A0616462002055
:1046B000E06484F8500049464046039A00F050F9FF
:1046C0002060BBF1000F01D0CBF80040BDE8FF9F98
:1046D00010B5002407E004EB84010F4A02EB8100CF
:1046E00000F074F9641C072CF5D30C4800F06EF947
:1046F0000B4800F06BF90B4800F068F90A4800F02D
:1047000065F90A4800F062F904480949086004485C
:104710000849086010BD00000C0A0020980A00201B
:10472000AC0A0020C00A0020D40A0020E80A0020B9
:104730003C0100204001002010B50146164800E071
:10474000006803688B42FBD30246436813448B42E4
:1047500004D143684C682344436001460A464B68D1
:1047600013440468A34211D10C4C03682468A3428B
:1047700008D04B680468646823444B6003681B6876
:104780000B6005E0054B1B680B6001E003680B60E4
:10479000884200D0016010BD740100207C0100201F
:1047A0000A490968096809B9012100E0002121B11D
:1047B0004FF0FF31064A116006E004490968C968F4
:1047C000C868034A41681160704700003C0100203E
:1047D000680100200E480068401C08B9012000E074
:1047E000002050B900BF502080F31188BFF34F8FD5
:1047F000BFF36F8F00BF00BFFEE700BF502080F304
:104800001188BFF34F8FBFF36F8F00BF00BFFEE76C
:10481000940100202DE9F04104464FF0000800F01B
:104820003FFA4948006808B9FFF7A6FE4748006804
:104830002040002870D1D4B1083404F00700B0B192
:1048400004F00700C0F10800044404F0070008B9B0
:10485000012000E0002050B900BF502080F31188F3
:10486000BFF34F8FBFF36F8F00BF00BFFEE7002C79
:1048700052D03748006884424ED8364E30460568DC
:1048800001E02E462D686868A04202D22868002800
:10489000F7D12D48006885423ED0306800F1080805
:1048A000286830606868001B102819D92F1907F094
:1048B000070008B9012000E0002050B900BF5020D7
:1048C00080F31188BFF34F8FBFF36F8F00BF00BF1E
:1048D000FEE76868001B78606C603846FFF72CFFC5
:1048E0001B4968680968081A194908600846006881
:1048F00019490968884203D21548006816490860BA
:1049000012496868096808436860002028601348F5
:104910000068401C1149086000F0F8FB08F007002F
:1049200008B9012000E0002050B900BF502080F3FA
:104930001188BFF34F8FBFF36F8F00BF00BFFEE73B
:104940004046BDE8F08100007C010020900100207D
:1049500080010020740100208401002088010020D3
:10496000001F4FF080730360001F21F001030360FC
:10497000001F054B036014380260001F6FF0020334
:104980000360203870470000D547000801460A69D7
:10499000D1E901309860D1E901035860506888423C
:1049A00001D188685060002008611068401E1060C6
:1049B00010687047034B0360034B0B608023136048
:1049C00070470000A0010020F401002000F1080160
:1049D00041604FF0FF31816000F10801C160016169
:1049E00000210160704700210161704710B5024647
:1049F0000B685C1C0CB9106907E002F1080000E0CC
:104A00004068446824689C42FAD944684C604C6809
:104A1000A160886041600A611468641C146010BD64
:104A200042684A6093688B6093685960916008613E
:104A300003685B1C0360704700BF502080F311883F
:104A4000BFF34F8FBFF36F8F00BF0E480068401C4D
:104A50000C49086008460068012812D10A4800681D
:104A6000C0B208B9012000E0002050B900BF5020BA
:104A700080F31188BFF34F8FBFF36F8F00BF00BF6C
:104A8000FEE770479401002004ED00E00D48006847
:104A900050B900BF502080F31188BFF34F8FBFF390
:104AA0006F8F00BF00BFFEE706480068401E054943
:104AB00008600846006820B9002080F3118800BF14
:104AC00000BF70479401002070B506463546002EA1
:104AD00044D0083D2C46224960680968084008B166
:104AE000012000E0002050B900BF502080F3118861
:104AF000BFF34F8FBFF36F8F00BF00BFFEE720688B
:104B000008B9012000E0002050B900BF502080F318
:104B10001188BFF34F8FBFF36F8F00BF00BFFEE759
:104B20000F49606809680840C0B12068B0B90C49F5
:104B3000606809688843606000F0B2F809496068FD
:104B400009680844074908602046FFF7F5FD064854
:104B50000068401C0449086000F0D8FA70BD0000ED
:104B600090010020800100208C01002000204FF0E7
:104B7000E02108618861064800684FF47A71B0FB53
:104B8000F1F0401E4FF0E0214861072008617047B6
:104B90003401002070B504460025D4B112480068E5
:104BA00008B9012000E0002050B900BF502080F378
:104BB0001188BFF34F8FBFF36F8F00BF00BFFEE7B9
:104BC00000F06EF800212046FFF7E4FB00F09EFAAB
:104BD00005463DB94FF0805004490860BFF34F8F40
:104BE000BFF36F8F70BD00007001002004ED00E086
:104BF00010B586B000200590049003AA04A905A86A
:104C0000FFF7D8FE0022DDE904101346CDE90021AC
:104C100002901CA11D48039A00F076F91C49086017
:104C20000846006808B1012400E00024012C15D1D9
:104C300000BF502080F31188BFF34F8FBFF36F8FF9
:104C400000BF4FF0FF30134908600120124908608F
:104C500000201249086000F071F810E0601C08B1F3
:104C6000012000E0002050B900BF502080F31188DF
:104C7000BFF34F8FBFF36F8F00BF00BFFEE706B0DB
:104C800010BD000049444C4500000000F5450008F7
:104C90006C01002068010020540100204C0100201C
:104CA00002480068401C01490860704770010020FC
:104CB0001D48006818B101201C49086032E000203E
:104CC0001A4908601A480068B0FA80F0C0F11F0164
:104CD00001EB8100174A52F8200008B1012000E0E2
:104CE000002050B900BF502080F31188BFF34F8FD0
:104CF000BFF36F8F00BF00BFFEE701EB81020D4BDA
:104D000003EB820042685268426000F10802436887
:104D1000934202D14268526842604268D268064BB0
:104D20001A6000BF70470000700100205C01002085
:104D3000500100200C0A0020380100201CB5524808
:104D400000685249884201D0012000E0002050B99B
:104D500000BF502080F31188BFF34F8FBFF36F8FD8
:104D600000BF00BFFEE7484800684849491E884226
:104D700001D0012000E0002050B900BF502080F396
:104D80001188BFF34F8FBFF36F8F00BF00BFFEE7E7
:104D90003F49084600780190FF200A4610700846F7
:104DA000007800909DF8000000F0F0009DF80020D1
:104DB000904201D1012000E0002050B900BF5020F6
:104DC00080F31188BFF34F8FBFF36F8F00BF00BF19
:104DD000FEE79DF8000000F050002E4A10700720FA
:104DE0002D4A106009E02C480068401E2A4A1060D5
:104DF0009DF800004006000E00909DF8000000F0B5
:104E000080008028EFD024480068C0F10700042803
:104E100001D1012000E0002050B900BF502080F3F4
:104E20001188BFF34F8FBFF36F8F00BF00BFFEE746
:104E3000194800680002184A10601046008800F403
:104E4000E0601060124A019810700F48203000682E
:104E500040F470000C49203108600846006840F0BA
:104E600070400860FFF782FE00200C490860FBF7E5
:104E70001FFA0B48006840F0404009490860FBF702
:104E800003FA00201CBD000000ED00E071C20F41DC
:104E900000E400E0980100209C0100209401002023
:104EA00034EF00E02DE9FF4F85B080468946174674
:104EB000DDE912ABB800FFF7ADFC064656B1542051
:104EC000FFF7A8FC04460CB1266304E03046FFF768
:104ED000FBFD00E000248CB1002084F85100CDE9F6
:104EE00000ABCDE902403A4649464046089BFFF7F1
:104EF00095FB2046FFF79AFA012501E04FF0FF35B8
:104F0000284609B0BDE8F08F2DE9F04F85B007467F
:104F1000884691469A46DDE90EB6109C0EB10120F6
:104F200000E0002050B900BF502080F31188BFF38B
:104F30004F8FBFF36F8F00BF00BFFEE70CB10120A2
:104F400000E0002050B900BF502080F31188BFF36B
:104F50004F8FBFF36F8F00BF00BFFEE75420039059
:104F60000398542801D1012000E0002050B900BF6F
:104F7000502080F31188BFF34F8FBFF36F8F00BFB6
:104F800000BFFEE700BFB4B1AEB125462C462E638C
:104F9000022085F85100002004A953464A46CDE975
:104FA00000B1CDE9025041463846FFF737FB2846AD
:104FB000FFF73CFA01E000200490049805B0BDE83A
:104FC000F08F00002DE9F0414FF0000844480068E0
:104FD00000287CD143480068451C4248056015BB49
:104FE00041480068006808B9012000E0002050B97D
:104FF00000BF502080F31188BFF34F8FBFF36F8F36
:1050000000BF00BFFEE738480768384800683649E7
:1050100008603648076036480068401C344908601C
:10502000FFF7BEFB00BF3348006885423CD300BF9A
:105030002D480068006808B9012000E0002020B178
:105040004FF0FF302B4908602DE027480068C0680A
:10505000C4686668B54202D22648066023E0201D77
:10506000FFF794FCA06A18B104F11800FFF78EFC5A
:1050700094F82C10012088401F49096808431E49F4
:105080000860E16A01EB81011C4A02EB8100211DED
:10509000FFF7C6FC1A49E06A0968C96A8842C7D3A3
:1050A0004FF00108C4E700BF15480068C06A00EB74
:1050B0008000124951F82000012801D94FF0010861
:1050C0001048006808B14FF0010805E0FFE70E48FE
:1050D0000068401C0C4908604046BDE8F0810000B3
:1050E000700100204C0100203C0100204001002004
:1050F0006001002068010020500100200C0A0020FF
:10510000380100205C0100205801002070B5002407
:1051100000263648006850B900BF502080F311883F
:10512000BFF34F8FBFF36F8F00BF00BFFEE7FFF7E6
:1051300083FC2E480068401E2C4908600846006821
:1051400000284FD12A48006800284BD024E0294885
:10515000C068C46804F11800FFF718FC201DFFF7B1
:1051600015FC94F82C100120884023490968084355
:1051700021490860E16A01EB8101204A02EB8100CC
:10518000211DFFF74DFC1E49E06A0968C96A884283
:1051900002D301201B4908601648006808B90120A5
:1051A00000E000200028D2D00CB1FFF7F9FA164831
:1051B000056865B100BFFFF705FF10B10120114977
:1051C00008606D1E002DF6D100200F4908600D48C3
:1051D000006838B1012630070C490860BFF34F8FD3
:1051E000BFF36F8FFFF752FC304670BD7001002097
:1051F00048010020C00A0020500100200C0A0020B5
:10520000380100205C0100205801002004ED00E07E
:1052100021F00042A2F16052B2F5801F01F000437C
:1052200028BFD2F17F6C0BD95FEA001C43EAC202AF
:1052300042EB507018BF704728BF20F00100704744
:10524000B2F5801FBCBF184670474FEA410C1CF5F1
:10525000001F02D2084600F026B970B500F0CAF867
:1052600000000089FFF7F6BF4FF00040A0F5800076
:10527000704710F0004248BF4042B0FA80F310FA85
:1052800003F10AD0C3F11D0303F580634FEA4150D7
:1052900002EB035202EBD12170474FF00000704740
:1052A000DFF848C170B51CEA111E1EBF1CEA1315B9
:1052B0009EEA0C0F95EA0C0F00F06F8081EA030460
:1052C00023EA4C134EEAD47E21EA4C1141F48011BA
:1052D00043F48013AE44A1FB024CA0FB0365AEF186
:1052E0007F7E361955EB0C05A1FB034C4CF10003F6
:1052F000A0FB021C16EB0C06654153F100030942AA
:1053000018BF46F0010613F4007F0BD14FEA0331BA
:105310004FEA0530340341EA155140EA16506FF068
:1053200003020AE04FEAC3214FEAC520F40241EA32
:10533000555140EA56506FF0020202EB2E4201EB4B
:10534000025585EACE710AD05FEA440C18BF24F0FA
:10535000004450F1000041F1000120EAD47040F215
:10536000FE7C624500D270BDA84214BF4FF080445D
:105370004FF04044002E08BF0024BEF1806FA8BF4C
:10538000A1F1C041BDE8704080F282804FF0000082
:1053900001F1C04101F0004170479EEA0C0F0CEA98
:1053A000131518BF95EA0C0F06D04FF0000081EAE4
:1053B000030E0EF0004170BD00F01CF88900013EA4
:1053C00000F007B800F009B84FEA430C5FEA5C5CF4
:1053D00008D081EA030100F05BB84FEA410C5FEAB4
:1053E0005C5CF6D14FF00000014970470000FF07F8
:1053F0000000F87F0EF1020E2EF0030E5EF8046B33
:10540000364205D4012A43EB030515F5001F12D8D7
:10541000012841EB010C1CF5001F0CD80ED14FEAFE
:10542000D17C15F5001F0CEB4C0C0CF1020C08BFE5
:105430004CEBD37C04E04FF0080C01E04FEAD37C46
:105440000CEB4C0526FA05F606F00706B6F1040C3F
:1054500006D20EEB860CBDE870404CF0010C6047A4
:10546000DFE80CF0090B02024FF000414FF00000A2
:10547000A1F5002170BD19461046012851EB010429
:1054800018BFD4F5001484BF002001F0004170BDA6
:105490000808A0F500114FEA310170474FF0407045
:1054A000E1EE100A7047FF2141EAD050C005704775
:1054B00074550008F53900080000000000000000E5
:1054C000800000000000000000000000A855000857
:1054D000113B0008030000000000000080000000F5
:1054E000000000000000000080550008F13A0008AC
:1054F000020000000000000080000000000000002A
:10550000000000008C550008013A0008020000006D
:10551000000000008000000000000000000000000B
:1055200098550008FD3A0008FFFF00000000000049
:105530008000000000000000000000000000803F2C
:105540000AD7233C9A99193E6666A63F17B7513889
:1055500000000041000610160006101600000000B2
:105560000000000001020304060708090000000013
:105570000102030464656661756C745461736B00A9
:105580004C45445F7461736B0000000043414E5F03
:105590007461736B000000004D6F6E69746F725F11
:1055A0007461736B00000000496D755F7461736B0B
:1055B00000000000D455000800000020A0010000F9
:1055C000C401000820560008A0010020C04B0000C4
:1055D000200200080118031EF401A30102137F0634
:1055E0001B0851041A6104131F071C0801080C1939
:1055F0000401152232225C1B2034041BF9372C12C3
:1056000042140865091B083104120199550188A24A
:10561000692A10F841035D24F41AAA0181000000F0
:040000050800018965
:00000001FF
