:020000040800F2
:10000000205600203103000811470008BD3F0008BA
:1000100099460008090E00081D5200080000000063
:100020000000000000000000000000007102000855
:10003000FF1A000800000000CD020008614C000813
:100040004B0300084B0300084B0300084B03000858
:100050004B0300084B0300084B0300084B03000848
:100060004B0300084B0300084B030008211700084E
:100070002D17000839170008451700085117000808
:100080005D1700084B0300084B0300084B030008F2
:10009000890E00084B0300084B0300084B030008BF
:1000A0004B0300084B0300084B0300084B030008F8
:1000B000394D00084B0300084B0300084B030008B0
:1000C0004B0300084B0300084B0300084B030008D8
:1000D0004B03000869500008B95000082951000876
:1000E0004B0300084B0300084B0300084B030008B8
:1000F0004B0300084B0300084B0300086917000876
:100100004B0300084B0300084B0300084B03000897
:100110000D4E0008254E00084B0300084B03000855
:100120004B0300084B030008751700084B03000839
:100130004B0300084B0300084B0300084B03000867
:10014000990E00084B0300084B0300084B030008FE
:100150004B0300084B030008811700084B030008FD
:100160004B0300084B0300084B0300084B03000837
:100170004B0300084B0300084B030008000000007D
:100180004B0300084B03000800F002F800F060F891
:100190000AA090E8000C82448344AAF10107DA45E2
:1001A00001D100F055F8AFF2090EBAE80F0013F0D4
:1001B000010F18BFFB1A43F00103184704E00000C9
:1001C00024E000000A444FF0000C10F8013B13F04B
:1001D000070408BF10F8014B1D1108BF10F8015BA0
:1001E000641E05D010F8016B641E01F8016BF9D193
:1001F00013F0080F1EBF10F8014BAD1C0C1B09D1EA
:100200006D1E58BF01F801CBFAD505E014F8016B5B
:1002100001F8016B6D1EF9D59142D6D370470000ED
:100220000023002400250026103A28BF78C1FBD8FF
:10023000520728BF30C148BF0B6070471FB50BF095
:100240009EFA9DE8030000F03FFA1FBD10B510BDF7
:1002500000F0A6FA1146FFF7F1FF07F035FD00F0B8
:10026000C4FA03B4FFF7F2FF03BC00F0F5FA000094
:100270002C4B19680868B0E8F04F80F30988BFF389
:100280006F8F4FF0000080F311887047000000006E
:1002900008480068006880F308884FF0000080F389
:1002A000148862B661B6BFF34F8FBFF36F8F00DF64
:1002B00000BF00BF08ED00E0DFF80C00016841F46A
:1002C00070010160704700BF88ED00E0EFF3098026
:1002D000BFF36F8F134B1A681EF0100F08BF20ED8D
:1002E000108A20E9F04F106009B44FF0500080F3FD
:1002F0001188BFF34F8FBFF36F8F0AF023FA4FF0CF
:10030000000080F3118809BC19680868B0E8F04F54
:100310001EF0100F08BFB0EC108A80F30988BFF3FD
:100320006F8F70470C080020EFF3058070470000C6
:100330000948804709480047FEE7FEE7FEE7FEE779
:10034000FEE7FEE7FEE7FEE7FEE7FEE704480549B5
:10035000054A064B70470000294D00088901000836
:100360002050002020560020205200202052002043
:1003700070B5064600F08CF9056806F10B0020F018
:100380000704B4429CBF002070BD2B466A68BAB116
:100390001068A04210D304F1080188423CBF5068A5
:1003A000586007D35168101941601168091B01603A
:1003B00058601460101D70BD13465268002AE7D1C2
:1003C0002146284600F06CF90028DED170BD70B5DA
:1003D0000446051F00F05CF90068002C14BF446857
:1003E00070BD002C18BFAC423CBF20466468F8D3F7
:1003F00001680A18AA4218BF456003D12A68054659
:100400001144016028684119A1421CBF6C6070BD95
:100410006168696021680844286070BD53EA020C75
:1004200000F069802DE9F04B4FF00006002B1FBF54
:10043000B3FA83F503FA05F424FA05F65E4012BF19
:100440001643B2FA82F502FA05F4C5F120051EBF83
:1004500022FA05FC44EA0C04203556EA044C4FEA23
:10046000144418BF641C4FF000084FF0000990427C
:1004700071EB030C39D3002919BFB1FA81F701FAE6
:1004800007F6B0FA80F700FA07F6C7F120071EBF9B
:1004900020FA07FC46EA0C062037B6FBF4FCA7EB73
:1004A0000507103F07F01F0BCBF120060CFA0BFBE2
:1004B0002CFA06F644BFB3460026202FA4BF5E46A2
:1004C0004FF0000B5BEA060C08BF4FF0010B19EB75
:1004D0000B09ABFB027C48EB0608C01B06FB02CCF9
:1004E0000BFB03CC71EB0C01C1E70B460246414606
:1004F0004846BDE8F08B13B54FF000004FF0000107
:10050000AFF30080BDE81C407047032A40F2308002
:1005100010F0030C00F0158011F8013BBCF1020F44
:10052000624498BF11F801CB00F8013B38BF11F8C5
:10053000013BA2F1040298BF00F801CB38BF00F8DC
:10054000013B11F0030300F02580083AC0F0088059
:1005500051F8043B083A51F804CBA0E80810F5E73D
:10056000121D5CBF51F8043B40F8043BAFF3008020
:10057000D20724BF11F8013B11F801CB48BF11F895
:10058000012B24BF00F8013B00F801CB48BF00F865
:10059000012B704710B5203AC0F00B80B1E818501D
:1005A000203AA0E81850B1E81850A0E81850BFF45D
:1005B000F5AF5FEA027C24BFB1E81850A0E81850FC
:1005C00044BF18C918C0BDE810405FEA827C24BF50
:1005D00051F8043B40F8043B08BF7047D20728BFDE
:1005E00031F8023B48BF11F8012B28BF20F8023B2D
:1005F00048BF00F8012B70474FF000020429C0F0FB
:10060000128010F0030C00F01B80CCF1040CBCF144
:10061000020F18BF00F8012BA8BF20F8022BA1EB96
:100620000C0100F00DB85FEAC17C24BF00F8012B7B
:1006300000F8012B48BF00F8012B70474FF0000273
:1006400000B5134694469646203922BFA0E80C50C8
:10065000A0E80C50B1F12001BFF4F7AF090728BFA3
:10066000A0E80C5048BF0CC05DF804EB890028BF1F
:1006700040F8042B08BF704748BF20F8022B11F048
:10068000804F18BF00F8012B7047704770477047C4
:1006900000487047C84F0020704770477047704748
:1006A00038B504460A4600206946AFF300800028AA
:1006B00008BF38BD02460099204600F04FF80120DF
:1006C00038BD012000F064B8F8B5AFF300800546EE
:1006D00000200C46102000BF0646A819A0420DD9E4
:1006E000324669460020AFF30080070008BF00F0E3
:1006F0004FF80098A04218BF0546C419FFF7C8FF7D
:1007000005600746F01D20F007004619284600F056
:100710000AF8B44208BFF8BDA21B31463868BDE8EC
:10072000F84000F01BB800210160C0E901107047DB
:100730001020704710B500F00DF8006810BD10B51E
:10074000044600F007F8046010BD00000048704740
:10075000C04F002000487047C04F0020034640684B
:100760008C46002818BF88423CBF03464068F8D337
:1007700018681844884207D00CF1030020F00700E5
:10078000001D411A521A0146081D0A60FFF71FBEDC
:1007900010B500F039F8BDE8104000F02FB87047F0
:1007A0007546FFF7D3FFAE4605006946534620F075
:1007B0000700854618B020B5FFF7C8FDBDE820400A
:1007C0004FF000064FF000074FF000084FF0000B0D
:1007D00021F00701AC46ACE8C009ACE8C009ACE8C0
:1007E000C009ACE8C0098D46704710B50446AFF3A8
:1007F00000802046BDE81040FFF733BD002801D03F
:1008000000F02AB87047000010B5012805D000217B
:1008100003A000F027F8012010BD09A1F8E70000AF
:1008200053494752544D454D3A204F7574206F66D9
:100830002068656170206D656D6F72790000000041
:100840003A2048656170206D656D6F727920636F25
:10085000727275707465640001491820ABBEFEE7C2
:100860002600020070B505460C460A2000E06D1C0B
:1008700000F011F835B128780028F8D102E0641CA6
:1008800000F009F814B120780028F8D1BDE87040D4
:100890000A20AFF3008008B569468DF800000320F8
:1008A000ABBE08BD2DE9F04115462DED0A8B0E4675
:1008B0008046B3F90030DDE9110700EE103ADDE9BA
:1008C0001321F8EEC00AFE4CDDF840C0C4ED0E0A5C
:1008D000BCF9003000EE103A0323B8EEC00A84EDF4
:1008E0000F0AB0F9000090FBF3F000B200EB4000FB
:1008F00000EE100AB8EEC00A84ED100AB7F9000045
:1009000000EE100AB8EEC00A84ED110AB2F9000038
:1009100001EE100AB8EEC11A84ED121AB1F9000006
:1009200020EE010A01EE900AF8EEE11AC4ED131A66
:1009300020EE210AB5EEC00AF1EE10FA7DD0E14FAB
:10094000397B9FEDE18AFDEEE00AB0EE480A10EE39
:10095000900A00B207F08AF984ED0E0AD4ED0F0A6E
:10096000397BB0EE480AFDEEE00A10EE900A00B2C4
:1009700007F07CF984ED0F0AD4ED100A397BB0EE54
:10098000480AFDEEE00A10EE900A00B207F06EF998
:1009900094ED0E1ADFEDCD0A21EE201A20EE200A8A
:1009A00084ED0E1A94ED0F1A21EE201A84ED0F1A21
:1009B00084ED100AD4ED110A397BB0EE000AFDEE89
:1009C000E00A10EE900A00B207F064F984ED110A13
:1009D000D4ED120A397BB0EE000AFDEEE00A10EE0B
:1009E000900A00B207F056F984ED120AD4ED130A0A
:1009F000397BB0EE000AFDEEE00A10EE900A00B27C
:100A000007F048F984ED130AD4ED110A20EEA01A7C
:100A1000D4ED120A00EEA01A00EE001AB0EE410A60
:100A200007F00EF984ED070AD4ED110A60EE803A62
:100A3000C4ED113AD4ED120A00E05EE120EE805AD6
:100A4000B0EE008A84ED125AD4ED130A20EE802A0B
:100A500084ED132A94ED041AD4ED061A94ED030ADA
:100A6000D4ED050A61EE212A40EE602A62EE885A32
:100A700060EE012AC4ED085A40EEA12A22EE886AEF
:100A800060EE002A84ED096A41EE412A40EEE02A38
:100A900041EEA12AC4ED0A2A25EE223A02EE463A98
:100AA00022EE252A03EEE22A63EE863A84ED0B3A23
:100AB00045EE653A84ED0C2AC4ED0D3AD4ED145A96
:100AC000D4ED012A43EE225AC4ED145A94ED155A7E
:100AD00002EE225A84ED155AD4ED164A43EEA24A8C
:100AE000C4ED164AD4ED0E2A94ED004A44EE032AD2
:100AF00032EEA53A84ED0E3AD4ED0F2A44EE022AE6
:100B000072EE852AC4ED0F2A94ED102A60EE225A67
:100B100004EE232AB0EE404A32EE242A61EE434A24
:100B200084ED102A84ED170A40EEE24A84ED181A8B
:100B3000C4ED190AC4ED1A1AD4ED023A41EE425A34
:100B400041EEC24A04EEA34AF0EE414A84ED034A64
:100B5000B0EE445A20EE034A00EE824A01EEE24A29
:100B600044EE234AC4ED044A20EE020A41EE835AC1
:100B7000B0EE604A01EE220A05EEA34A00EEC30A77
:100B800084ED054A40EE231A25EE050A04EEA40A78
:100B9000C4ED061A04EE040A01EEA10A07F050F8AB
:100BA00084ED070AD4ED030A20EE80BA84ED03BA7F
:100BB000D4ED040A20EE809A84ED049AD4ED050A5F
:100BC00060EE808AC4ED058AD4ED060A60EE809A54
:100BD0002BEE0B0AC4ED069A09EE490A08EEE80A64
:100BE00009EEA90A10EE100A0AF058FD28EE880A4C
:100BF0006BEE080A41EC1A0B20EE290A00EE890A76
:100C000010EE100A0AF04AFD41EC100BB0EE4A1A41
:100C1000F0EE6A1A04F048FE9FED2DAB51EC100B7C
:100C200053EC1A2B0AF07AFA09F0D4FF306094EDF5
:100C3000040AD4ED060A94ED051A20EE080A20EE07
:100C4000200AD4ED030A60EE880A00EEC10A10EE15
:100C5000100A0AF023FD41EC100B04F009FB9FED94
:100C60001E1B51EC100B53EC112B0AF057FA09F034
:100C7000B1FFC8F80000D4ED038A94ED04CA94EDE6
:100C800005BA28EEA80AD4ED06BA0CEE0C0A0BEE53
:100C90004B0A0BEEEB0A10EE100A0AF0FFFC2CEEEA
:100CA0000B0A41EC190B08EEAB0A20EE080A10EE15
:100CB000100A0AF0F3FC41EC100BB0EE491A0FE0F9
:100CC00070070020C80800200000FA44728A8E3C99
:100CD0000000006066A64C400000006066A64CC0A4
:100CE000F0EE691A04F0E0FD53EC1A2B51EC100BF6
:100CF0000AF014FA09F06EFF28600020BDEC0A8BA0
:100D0000BDE8F0812DE9F047804691460F4612205C
:100D100003F07CFA0446132003F078FA44EA002634
:100D2000142003F073FA0446152003F06FFA44EA26
:100D30000025162003F06AFA0446172003F066FA2D
:100D4000A8F8006044EA00203D80A9F80000BDE852
:100D5000F0872DE9FE4F1546DDE90C9A0E46074651
:100D60000C221C466946104603F076FABDF8008056
:100D7000BDF802C0BDF80430BDF80620BDF808106B
:100D8000BDF80A00A4F80080A9F800C0AAF8003055
:100D90003A8031802880BDE8FE8F000038B51948C0
:100DA00005F0AAFB05F02AF8164804F0EBFF04460C
:100DB00005F024F824BB01208DF800000146114AFB
:100DC000684605F027FC05F019F80E4803F08DFE83
:100DD00000208DF800000B4A0121684605F01AFC3E
:100DE00005F00CF8074803F056FE02208DF80000CD
:100DF000044A0121684605F00DFC044604F0FEFF9C
:100E0000204638BDC8080020FEE7000070B51B4C26
:100E1000A0F20120062830D2DFE800F00309101804
:100E20001F262269154890471448616922E013483B
:100E3000226B203005469047616B05E00F48226D1C
:100E4000403005469047616D284613E00B48226FFD
:100E5000603005469047616FF6E7094C20462269ED
:100E600090472046616905E0064C2046226990477C
:100E700061692046BDE87040084770BD100500203C
:100E80002807002048070020014801F03EBB000071
:100E9000780D002070470000014801F036BB0000CB
:100EA000A00D0020008840BA7047408840BA00B2C8
:100EB0007047808840BA00B2704780797047000060
:100EC00010B58AB000200121CDE9060108910490F7
:100ED00000900190029003900E24059069460994B9
:100EE0000B4801F017FA0A4801F03FFD02210848BB
:100EF00001F090F969460748059401F00BFA05489E
:100F000001F033FD0221034801F084F90AB010BD5D
:100F1000780D0020A00D002010B50B4C036888B0A0
:100F2000A34202D0094CA3420BD1009100210291AF
:100F300003910821049106AB694601F07DF9002870
:100F400000D0012008B010BD0064004000680040DF
:100F500010B5102211491248FFF7D7FA1148007E48
:100F6000012807D11048C078012803D110210C486E
:100F7000FFF742FB0A4A4FF400710C48FFF7CCFF21
:100F8000074A40F2FF1108320848FFF7C5FFBDE8E5
:100F9000104010210248FFF72FBB0000300900204D
:100FA000B4080020C401002005000020780D0020B6
:100FB00010B500F00BF80448007808B900F060F9AB
:100FC000BDE8104000F044B974080020054840789E
:100FD000012805D104480078002801D100F006B8A6
:100FE00070470000050000207408002070B5444ED2
:100FF000444D70684278DFED440A444B296803F1A0
:10100000280493ED000A60688AB3012A77D1B1F908
:10101000061001EE101AB8EEC11A21EE000A80EE99
:10102000201ABDEEC10A10EE101A4180286893ED17
:10103000001A6168B0F9040000EE100AB8EEC00AA8
:1010400020EE010A80EE201ABDEEC10A10EE100A51
:1010500088802F49B068096800880988401A00B262
:10106000B0F5805F36DDA0F5F850FF3838E0FFE7D7
:10107000B1F9061001EE101AB8EEC11A21EE000AFD
:1010800080EE201ABDEEC10A10EE101A41802868C9
:101090006168B0F9040000EE100AB8EEC01A93EDD2
:1010A000000A21EE000A80EE201ABDEEC10A10EE01
:1010B000100A8880286893ED001AB0F9000000EE4D
:1010C000100AB8EEC00A20EE010A80EE201ABDEE2A
:1010D000C10A10E010F5805F03DA41F6FF710844A1
:1010E00000B200EE100AD3ED010AB8EEC00A20EEFD
:1010F000800ABDEEC00A616810EE100AC88070BD9B
:1011000024010020C4010020000025441800002014
:101110002807002030B4104B104C1A682260596820
:1011200061609868A060DB68E36010341568256032
:101130000D6865600568A5601D68E5605468074A2C
:10114000103A146049685160406890605868D060F7
:1011500030BC00F067B80000280000209408002090
:101160002DE9F0470024214F7D25DFF88480DFF84A
:1011700084A02E014FF4006907EB4410417F11B9A0
:10118000007F012827D1B8F80010B1FBF6F006FB6C
:10119000101204EB4400C0EBC410B2EB400F09DDA9
:1011A000B1FBF6F206FB121205EB40039A4201DC9A
:1011B000002211E0B1FBF6F206FB121205EB400330
:1011C0009A420DDDB1FBF6F206FB1211FA2202EB98
:1011D0004000814204DC01224946504601F074FE81
:1011E000641C24B2042CC7DBBDE8F0871005002086
:1011F0000000002000080240016851B148B10A7E99
:10120000521C0A760B7E4A7E934205D90A7601214A
:1012100006E0022141777047017F0129FBD10021BF
:101220000177704710B5094C2046E1688847E16AAC
:1012300004F120008847E16C04F14000884704F184
:101240006000E16EBDE81040084700001005002076
:1012500010B50021094800F0D3F80121074800F03B
:10126000CFF80221054800F0CBF80321034800F035
:10127000C7F8BDE81040014800F090B828000020F1
:101280007FB53E483E4D01224168B1F9021000EEA3
:10129000101AB8EEC00A8DED000A4168B1F90410C9
:1012A00000EE101A6946B8EEC00A8DED010A4068DA
:1012B000B0F9060000EE100AB8EEC00A8DED030A80
:1012C0009DED001ADDED010A286871EE201A806894
:1012D00071EE801AC0ED071A70EEC11A686871EEDF
:1012E000801A8068C0ED071A71EE601AA868B1EE26
:1012F000411A71EE801A806871EE600AC0ED071A1B
:10130000E86830EE800A806880ED070A084604F03D
:101310007BFC01A90122084604F076FC03A9012206
:10132000084604F071FC012302AA01A9684604F0F2
:1013300076FC02AA012303A9104604F070FC1149AF
:101340000298884219DD0024DDED020A55F82400D8
:101350000A4901238068283990ED070A80EE201A97
:1013600080ED071A55F8240080681C30024604F00E
:10137000A5FC641CE4B2042CE6D37FBD4000002031
:10138000940800200000FA4510B5034800F05AF810
:10139000BDE81040FFF71ABE2800002070B5154CBC
:1013A000154B002054F820100A7FAAB14D68002286
:1013B0006D6803EB4505A5F5805585F8FE2B49685A
:1013C000401CC0B24968042803EB4101A1F58051DB
:1013D00081F8FF2BE6D370BD4D68084A6D6832F87E
:1013E000102003EB4505A5F58055160A85F8FE6B20
:1013F000E5E70000940800203009002020000020CC
:1014000070B50E4D0C4655F8241088680968D0ED6B
:10141000070AB1F9021000EE101AB8EEC00A03F084
:1014200097F955F824000649806880ED280ABDEE3A
:10143000C00A10EE100A21F8140070BD94080020B4
:10144000200000202DE9F05F5448554EDFF854B1DC
:101450004FF000082DED028B81789FED538A534D9C
:1014600006F11007012902D18146C07868B1002039
:10147000414657F82020926882ED288A25F81010FE
:10148000401CC0B20428F4D33FE0484C4FF0010A9E
:10149000143CA06820B906F049FCC4F808A02060FC
:1014A00006F044FC60602168411A4148814209D934
:1014B00089F8028089F803A0C4F80880C4F8048081
:1014C000C4F800800024F0EE480A57F82400806831
:1014D00080ED078A57F8241088680968B1F902106E
:1014E00000EE101AB8EEC00A03F032F957F82400E3
:1014F000806880ED280ABDEEC00A10EE100A25F8BB
:101500001400641CE4B2042CDDD3326829885846E8
:1015100053680C0A0BEB4303A3F5805383F8FE4B8F
:1015200052680BEB4202A2F5805282F8FF1B7268F0
:10153000698853680C0A0BEB4303A3F5805383F8C7
:10154000FE4B52680BEB4202A2F5805282F8FF1B61
:10155000B268A98853680C0A00EB4303A3F58053D3
:1015600083F8FE4B526800EB4202A2F5805282F8EB
:10157000FF1BF268E98853680C0A00EB4303A3F5EC
:10158000805383F8FE4B52680BEB4200A0F580506D
:1015900080F8FF1BBDEC028BBDE8F09F050000202A
:1015A00084080020300900200000000020000020F6
:1015B00080841E007047000070B504462DED028B3C
:1015C000016871B16CB108880A89801A4881B1F943
:1015D0000A00B0F5805F09DD4889A0F5F850FF38B2
:1015E0000DE002206077BDEC028B70BDB1F90A00FE
:1015F00010F5805F04DA488941F6FF721044488193
:101600002068018801812068C168B0F90A2011446E
:10161000C1602568288809F06EFD9FED0F8B53ECA3
:10162000182B09F07BFD09F0D5FA00EE100A85EDC4
:10163000040A2568E86809F047FD53EC182B09F007
:101640006DFD09F0C7FA00EE100A002085ED050ACD
:1016500021680876C7E70000405494551EF3623FA6
:1016600070B504462DED028B016871B16CB108882C
:101670000A89801A4881B1F90A00B0F5805F09DD56
:101680004889A0F5F850FF380DE002206077BDECE6
:10169000028B70BDB1F90A0010F5805F04DA488949
:1016A00041F6FF721044488120680188018120685A
:1016B000C168B0F90A201144C1602568288809F082
:1016C0001AFD9FED0F8B53EC182B09F027FD09F045
:1016D00081FA00EE100A85ED040A2568E86809F031
:1016E000F3FC53EC182B09F019FD09F073FA00EE26
:1016F000100A002085ED050A21680876C7E700007A
:10170000000000000080A63F10B5044C20688168EE
:10171000884760688168BDE8104008476807002076
:10172000014801F0AFB90000E80F0020014801F0C6
:10173000A9B90000C8110020014801F0A3B90000B8
:10174000280F0020014801F09DB900002812002058
:10175000014801F097B90000880F0020014801F00E
:1017600091B9000068110020014801F08BB9000018
:1017700048100020014801F085B90000A8100020A1
:10178000014801F07FB90000081100202DE9F04F59
:1017900085680024099E802D18D0894DC563894D28
:1017A000456490F83450012D15D0012580F834504F
:1017B00090F83550012D10D0002180F8341002240B
:1017C000002180F834102046BDE8F08F4FF480717E
:1017D00041650120F8E70220F6E7022580F8355040
:1017E0000025456505682F6847F480272F60056848
:1017F0002B6103685E608368402B03682AD0996080
:101800000168CA60714D704E704FDFF8BC81DFF81F
:10181000B891DFF8B8A1DFF8B4B1EA14DFF8A8E1B5
:101820000168183630379302A9F148090AF1600AB5
:101830000BF1180BAEF1300E4FF0006C41452DD975
:10184000A94205D0494503D0514501D0B14205D147
:10185000202220E09A600268D160D3E759451AD06F
:10186000714518D0594D7835A94214D0564D3035B0
:10187000A94210D0B9420BD0534A183A914207D02E
:10188000524A9032914203D04F4A4832914201D19C
:101890001A4600E062464C494C392EE0DFF82C81B4
:1018A00008F1A80841452AD9A94205D0494503D0E5
:1018B000514501D0B14201D120221CE059451AD036
:1018C000714518D0414D7835A94214D03E4D303580
:1018D000A94210D0B9420BD03B4A183A914207D0E6
:1018E0003A4A9032914203D0374A4832914201D16C
:1018F0001A4600E06246344950390A605AE0DFF87F
:10190000CC8008F1480841452AD9A94205D049456B
:1019100003D0514501D0B14201D120221CE05945EC
:101920001AD0714518D0294D7835A94214D0264DCA
:101930003035A94210D0B9420BD0234A183A91420F
:1019400007D0224A9032914203D01F4A4832914236
:1019500001D11A4600E062461C491039CA6029E0EC
:10196000A94205D0494503D0514501D0B14201D12A
:1019700020221CE059451AD0714518D0134D7835F6
:10198000A94214D0104D3035A94210D0B9420BD025
:101990000D4A183A914207D00C4A9032914203D036
:1019A000094A4832914201D11A4600E0624607498D
:1019B00010398A6001680A6842F001020A60FFE695
:1019C000616B0008796B00085864024010600240A7
:1019D00001681823CAB2103AB2FBF3F2054B6FF359
:1019E0000901032A9B5CC36500D9091D816508466E
:1019F000704700006CD8000810B5014600208B69C4
:101A00008A6A4FF0C07453B1B3F5005F15D072B15C
:101A1000012A0CD0022A0AD0032A09D104E01AB103
:101A2000012A06D0022A03D1C96AC90100D50120C2
:101A300010BDC96AA142FAD010BD002AF7D0012A10
:101A4000F2D0022AF3D0032AF3D010BD70B590F87B
:101A500034500024012D0CD0012580F8345090F82A
:101A600035600025012E06D080F83450022420462F
:101A700070BD022070BD022680F83560456505689E
:101A80002E6826F480262E6005686B608368402BE4
:101A9000036808D099600168CA600068016841F075
:101AA00001010160E3E79A600268D160F5E710B5D3
:101AB00003F0E6FA03F00CFB03F042FB03F05EFBDD
:101AC000BDE81040FFF7FCB901680A68D20604D5EA
:101AD000C968C90601D508F04BBC704770EE601AA2
:101AE000F5EEC01AF1EE10FA01DC70EEC01AF4EE59
:101AF000C11AF1EE10FA01D2B0EE600A70477047D9
:101B000072B6FEE710B500F07BF800F06FFA0A48F5
:101B1000007808B900F0E0F900F082F90648503882
:101B2000B0F9000000EE100A0348B8EEC00A5038C1
:101B300080ED010A10BD0000B800002010B52C484F
:101B40002DED028B016809882A4C6268D1810068FA
:101B500040886168888128480168098862685183E3
:101B6000006840886168088324480168B1F90C1056
:101B700000EE101A6168B8EEC00A81ED010A016832
:101B800091ED000A616881ED020A0168B1F90E1059
:101B900000EE101A6168B8EEC00A81ED040A01680F
:101BA00091ED010A616881ED050A0068B0F9101035
:101BB00000EE901A6168F8EEE00AC1ED070AD0ED78
:101BC000020AC1ED080A04F037F86068D0ED010A96
:101BD00020EE208A90ED050A04F07EF86068D0EDD2
:101BE000070A00EE808A80ED098ABDEC028B10BDE9
:101BF0002807002024010020480700208C01002035
:101C000010B5FFF79BFF0D4802F050FE0C4802F0A4
:101C10004DFE0C4C607838B10B48007800280CD190
:101C2000BDE8104000F012B802F0C0FE002804D059
:101C30002078002801D10120607010BD2807002005
:101C40004807002005000020B80000201B481C4960
:101C50001A4B4068283B09688278012A1DD0002A67
:101C60001AD1428BA0F84020B1F9022000EE102AD0
:101C7000F8EEC00A93ED060A80EE801A80ED0F1A86
:101C8000B1F9001000EE901AF8EEE00AF1EE600AE9
:101C900080EE801A80ED0C1A7047B1F90210B3F98A
:101CA000102091FBF2F1A0F8421090ED050A80EDB2
:101CB0000E0A90ED020A80ED0B0A70472401002005
:101CC000C4010020074901F1280091ED030A406892
:101CD00080ED0E0A91ED010A034980ED0B0A002008
:101CE00008707047FC000020050000200C480C49DB
:101CF0000068AC3902680A6042684A6001680A6894
:101D00000749A4390A60426812684A6001684A6853
:101D10000349B4390A6040684068486000F072B80E
:101D200024010020064901F128000A894068A0F832
:101D30004020098881860349002008707047000010
:101D4000FC000020050000202DE9F0411E48007F26
:101D50001E4F1F4D4FF480664FF47A74012816D140
:101D60002888B0FBF4F104FB110131B1B0FBF4F1B0
:101D700004FB11007D280AD004E0002231463846D9
:101D800001F0A2F81348007F012802D010E00122E0
:101D9000F4E72888B0FBF4F104FB1101FA2909D01B
:101DA000B0FBF4F104FB1100A0F58071773908D184
:101DB000012200E0002231463846BDE8F04101F042
:101DC00083B8BDE8F0810000280700200008024029
:101DD0000000002048070020016851B148B10A7E88
:101DE000521C0A760B7E4A7E934205D90A7601215F
:101DF00006E0022141777047017F0129FBD10021D4
:101E000001777047044810B5C16888470348C16826
:101E1000BDE81040084700002807002048070020C0
:101E200010B5054800F068F9044800F009F8BDE86D
:101E3000104000F0FFB800002807002048070020ED
:101E400070B5244D0446806869688A78012A01D0FB
:101E5000BAB12DE0B1F91A10D0ED1B0A00EE101A3C
:101E60005030B8EEC00A02F073FCA06880ED290A79
:101E70006968A068B1F9181000EE901AB8EEE01A7F
:101E80000DE0D0ED1B0A91ED050A503002F060FC28
:101E9000A06880ED290A6968A06891ED041AF0EE47
:101EA000400AB0EE410A02F053FCA06880ED280A17
:101EB000A0686168074A90ED280A4968BC3ABDEEFF
:101EC000C00A02EB4101A1F5805110EE100AA1F801
:101ED000F60B70BD2401002030B43F493D483D4C15
:101EE0008A6840683D49283C4378896823B1012BC2
:101EF00027D030BC00F0DCB8B0F84030B0F8425029
:101F00002B44A0F84030B4F9003000EE103AB8EE9F
:101F1000C00A81ED1B0AB0F94010B4F9243099428F
:101F200003DCB4F92630994201DAA0F84030B0F968
:101F3000400000EE100AB8EEC00A82ED1B0A30BC69
:101F4000704790ED0E0AD0ED0F0A30EE200A80EDBA
:101F50000E0AD0ED0B0A90ED0C1A70EE810AC0ED5E
:101F60000B0AD4ED070AB4EEE00AF1EE10FA06DC33
:101F7000D4ED080AB4EEE00AF1EE10FA01D2C0ED99
:101F80000E0A90ED0E0A164B82ED1B0A90ED0B0A1D
:101F9000DFED140A10EE102A81ED1B0A9A4208DDCB
:101FA00030EE600A81ED1B0A90ED0B0A30EE600AFC
:101FB0000CE010EE102A0C4B9A42C0D930EE200AE9
:101FC00081ED1B0A90ED0B0A30EE200A80ED0B0A22
:101FD000B5E7000024010020480700202807002062
:101FE000000034430000B443000034C308480178C3
:101FF00001290CD14078002809D106484068407872
:1020000018B1012803D1FFF75DBEFFF78BBE704703
:10201000050000202401002010B500F049F8FFF76A
:10202000EFFD0348012101700021417010BD000047
:10203000050000201A4810B5047F1A4A1A490023E7
:102040003CB10B724B721948047FACB18B72CB72EE
:1020500010BD4068446802EB4404A4F58054B4F811
:10206000F64B240A0C72406802EB4000A0F5805049
:1020700090F8F60B4872E6E74068436802EB4303CA
:10208000A3F58053B3F8F63B1B0A8B72406802EB52
:102090004000A0F5805090F8F60BC87210BD00000B
:1020A0002807002068000020300900204807002091
:1020B0000F499FED0E0A0868826882ED280A496878
:1020C0000022896881ED280A8068094990ED280A74
:1020D0001039BDEEC00A10EE100A08804A8005498A
:1020E000030A0B7248728A72CA72704700000000BD
:1020F000780000203009002070B5414D0446686822
:10210000A168427812B1012A36D067E091ED1B0A2E
:102110009FED3C1AFDEEC00A10EE902A13B2B0F902
:102120000E209B1AB3F5805F02DD30EE410A08E015
:1021300010EE903A1BB29A1A12F5805F03DA30EE75
:10214000010A81ED1B0AB0F90E00A16800EE100A29
:1021500001F15000D1ED1B0AB8EEC00A02F0F8FA06
:10216000A06880ED290A6968A068B1F9181000EE2E
:10217000901AB8EEE01A28E0D1ED1B0A90ED020AA1
:10218000214A9FED221A70EEC00A10EE901A914279
:1021900002DD30EE010A06E010EE901A1C4A914270
:1021A00003D930EE410A80ED020AA0686968D0EDDB
:1021B0001B0A91ED020A503002F0CAFAA06880EDC5
:1021C000290A6968A06891ED011AF0EE400AB0EEA4
:1021D000410A02F0BDFAA06880ED280AA068616893
:1021E000074A90ED280A4968BC3ABDEEC00A02EBE6
:1021F0004101A1F5805110EE100AA1F8F60B70BD57
:102200002401002000F8FF45000034430000B443DF
:10221000000034C390F82020012A07D0022A05D0FC
:10222000416A41F48021416201207047006842699F
:102230000A43426100207047F0B590F820500468CE
:10224000A468012D05D0022D03D0416A41F48021FC
:102250005DE014F0406F01D1E50055D5C4F3016491
:10226000022C03D9416A41F4000150E00125A54048
:102270001D608B684FF4C0759BB1CE6833434E68C8
:1022800043EAC603066805EB0417F3514FF4C27323
:10229000076803EB04130E69FE50097D012905D080
:1022A00009E00E88CB6843EA4653EBE70168CE5855
:1022B00046F48076CE501179D379567941EA03619C
:1022C00093791B0443EA062319434FF4C676036847
:1022D00006EB041699511178D37841EA036193789B
:1022E00052781B0443EA022211434FF4C47302687C
:1022F00003EB0413D150006805EB0411425842F07F
:10230000010242500020F0BD416A41F400114162D7
:102310000120F0BD10B590F82020012A07D0022A34
:1023200005D0416A41F480214162012010BD3B4843
:10233000D0F8002242F00102C0F80022D0F80022BA
:1023400022F47C52C0F80022D0F800224B6A42EA04
:102350000322C0F800220A7D02F01F0301229A40E6
:10236000D0F81C329343C0F81C32CB69B3B9D0F813
:102370000C329343C0F80C328C894B6864F31F43D2
:102380004C6900EBC404C4F840320C890B6864F358
:102390001F434C6900EBC404C4F84432CB69012BE1
:1023A00016D1D0F80C321343C0F80C320C884B68AD
:1023B00064F31F434C6900EBC404C4F840320C8939
:1023C000CB6864F31F434C6900EBC404C4F8443287
:1023D0008B69002BD0F804320ED01343C0F80432BE
:1023E0000B69002BD0F8143208D01343C0F8143214
:1023F000096A012904D008E09343EFE79343F5E726
:10240000D0F81C121143C0F81C12D0F8001221F0B1
:102410000101C0F80012002010BD0000006400405F
:10242000704730B590F82040012C05D0022C03D025
:10243000416A41F480215DE00468002955D0246997
:10244000A40754D04FF4D874056804EB01142D5937
:1024500015F00405956005682D594ED0ED085560BE
:1024600005682C5904F00204D4604FF4DA7405684E
:1024700004EB01142D5905F00F05156105682D5960
:10248000C5F30725956105682C59240C54614FF458
:10249000DC72046802EB0112A4581C700468A45892
:1024A000240A5C700468A458240C9C700468A25828
:1024B000120EDA704FF4DE72046802EB0112A458B7
:1024C0001C710468A458240A5C710468A458240C84
:1024D0009C710468A258120EDA71006881B101691A
:1024E00041F020010161002030BDE468A8E7416AA5
:1024F00041F400114162012030BD6D0D1560AFE760
:10250000C16841F02001C160EDE72DE9F05F0546AB
:10251000006800244669D0F804908768D0F80CB0B1
:10252000D0F810A0D0F81880F10748D0F90714D0DF
:1025300001218160B80703D5284600F042FA0CE07B
:10254000780702D54FF4006407E0380702D54FF44E
:10255000805402E0284600F033FAF80516D52968C1
:102560004FF480708860B80503D5284600F02BFA38
:102570000CE0780502D544F4005407E0380502D594
:1025800044F4804402E0284600F01CFAF80316D513
:1025900029684FF480308860B80303D5284600F0DE
:1025A00014FA0CE0780302D544F4004407E0380341
:1025B00002D544F4803402E0284600F005FA3007E2
:1025C00007D55FEACB6004D52968102044F4007475
:1025D000C86070074FF0080707D55FEA0B7004D595
:1025E0002868C760284600F097F9B00706D5286824
:1025F000C068800702D0284600F090F9700607D521
:102600005FEACA6004D52968102044F48064086138
:10261000B00607D55FEA0A7004D528680761284626
:1026200000F0A0F9F00606D528680069800702D0FE
:10263000284600F098F9B00308D55FEAC96005D5CF
:10264000296810204860284600F08EF9F00307D56D
:102650005FEA097004D528684760284600F0B6F99B
:10266000300446D55FEA497040D5F00504D55FEAED
:10267000C87001D044F00104B00504D55FEA887049
:1026800001D544F00204700504D55FEA487001D515
:1026900044F00404300529D518F0700F26D008F056
:1026A0007000402815D006DC102809D020280AD058
:1026B000302816D10AE050280ED0602811D10EE043
:1026C00044F008040DE044F010040AE044F0200453
:1026D00007E044F0400404E044F0800401E044F4E6
:1026E00080742868816921F0700181612968042063
:1026F0004860002C05D0686A204368622846FFF7CE
:102700008FFEBDE8F09F70B5040003D094F8200060
:1027100010B104E0012070BD204600F081F820686F
:10272000016841F00101016000F0D4FB0546052677
:1027300004E000F0CFFB401B0A2811D82068406855
:10274000C007F6D02068016821F00201016000F0A6
:10275000C1FB05460BE000F0BDFB401B0A2806D973
:10276000606A40F40030606284F82060D2E720683C
:1027700040688007EFD4207E0128206801683DD0A2
:1027800021F080010160607E01282068016838D056
:1027900021F040010160A07E01282068016833D04B
:1027A00021F020010160E07E0128206801682ED020
:1027B00041F010010160207F01282068016829D0C4
:1027C00021F008010160607F01282068016824D0A1
:1027D00021F004010160D4E902010843D4E90412A4
:1027E000114308436168491E08432168C8610020FD
:1027F0006062012084F82000002070BD41F080015B
:10280000C0E741F04001C5E741F02001CAE721F0EF
:102810001001CFE741F00801D4E741F00401D9E706
:10282000F0B587B0044614216846FDF707FF354927
:10283000354ADFF8CCE00868D4F800C0324B0324F6
:102840000225092610320027401CF44521D10860DA
:10285000012807D1106840F000701060106800F087
:1028600000700590186840F00800186018688DE83E
:10287000B00000F00800CDE90460694603942348E5
:1028800000F03AFA00220521142000F005FC142083
:1028900031E0DFF87CE0F4452FD1D2F800C04CF0F5
:1028A000806CC2F800C0D2F800C001280CF0806C27
:1028B000CDF814C0086007D1106840F000701060B7
:1028C000106800F000700590186840F00200186071
:1028D0001868694600F00200059060208DE8A100AC
:1028E000CDE903460B4800F007FA002205214020FD
:1028F00000F0D2FB402000F0C1FB07B0F0BD0000AB
:1029000000640040F807002030380240000C02400C
:1029100000680040000402407047000070B50E4B94
:1029200004461D46A3F11C020021FFF77AFD0A4868
:102930000A491C388C4205D100682946BDE8704020
:10294000FEF764BA06498C4205D100682946BDE805
:102950007040FEF79FBA70BD5C090020780D002022
:10296000A00D002070477047704770B5044690F87E
:102970002000012804D0606A40F40020606217E063
:10298000022084F820002068016821F00101016024
:1029900000F0A0FA05460DE000F09CFA401B0A2862
:1029A00008D9606A40F400306062052084F8200095
:1029B000012070BD20684068C007EDD1606270BD25
:1029C00070477047704770477047704770472DE9F0
:1029D000F0410446876D00F07DFA054694F8350015
:1029E0000026022806D08020606584F8346001202B
:1029F000BDE8F0812068016821F0160101602068BF
:102A0000416921F080014161206C08B9A06C20B1BE
:102A10002068016821F0080101602068016821F048
:102A2000010101600CE000F055FA401B052807D9B0
:102A300020206065032084F8350084F83460D7E7EF
:102A400020680068C007EED194F85C103F208840F1
:102A5000B860012084F8350084F834600020C7E7AE
:102A600090F83510022903D080214165012070477C
:102A7000052180F835100068016821F0010101602E
:102A8000002070472DE9F84304464FF00009CDF8C7
:102A9000009063484FF41651A56D0068B0FBF1F744
:102AA0002E6894F85C20082101FA02F030420FD021
:102AB0002068026852070BD5026822F00402026007
:102AC00094F85C008140A960606D40F00100606591
:102AD00094F85C104FF0010808FA01F0304208D079
:102AE00021684969090604D5A860606D40F00200BC
:102AF000606594F85C1004208840304208D021685A
:102B00000968890704D5A860606D40F0040060651D
:102B100094F85C1010208840304218D02168096871
:102B2000090714D5A86020680168490304D5006826
:102B3000000308D5A16C07E00168C90503D401684A
:102B400021F008010160216C09B12046884794F802
:102B50005C1020208840304231D021680968C906C5
:102B60002DD5A86094F8350005282068016806D0A6
:102B7000490347D5006800031DD4616C1CE021F0B7
:102B8000160101602068416921F080014161206CDB
:102B900008B9A06C20B12068016821F0080101602B
:102BA00094F85C103F208840A86084F8358084F851
:102BB0003490216D1FE0E16B09B120468847606DBC
:102BC00000282BD0606DC00714D0052084F8350094
:102BD0002068016821F0010101600098401C00900C
:102BE000B84203D820680068C007F6D184F8358061
:102BF00084F83490E16C002910D001B02046BDE883
:102C0000F04308470168C905D5D4016821F01001D7
:102C1000016084F8358084F83490CCE7BDE8F8830F
:102C2000080800202DE9F041044600F053F905465C
:102C30005CB1022084F83500002684F834602068F6
:102C4000016821F0010101600DE00120BDE8F08183
:102C500000F040F9401B052805D9202060650320BD
:102C600084F83500F2E720680068C007F0D12168D9
:102C70000A6820480240D4E901031843D4E9033527
:102C80002B43184363691843A3691843E369184346
:102C9000236A18431043626A042A03D1D4E90B2340
:102CA0001A431043086020684069656A20F00701F4
:102CB00028460D43012704280CD1A06A0543E06A89
:102CC00040B12046FEF798FE20B14020606584F8B0
:102CD0003570BAE7206845612046FEF779FE94F822
:102CE0005C203F2191408160666584F8357000204A
:102CF000ACE700003F8010F02DE9F84FDFF89C9121
:102D00000022A9F1040B03274FF00F0C09F1040A6C
:102D1000ABF1040E01250B6895402B40AB426ED100
:102D20000C7904F00304012C01D0022C15D1866823
:102D3000540007FA04F826EA0806D1F80C8008FACD
:102D400004F848EA0608C0F808804468AC430D79E6
:102D5000C5F300159540254345600C79E443A4076D
:102D600008D0C568540007FA04F6B5438E68A6403B
:102D70002E43C6600C7904F00304022C11D1D40850
:102D800000EB8406356A5407E40E0CFA04F825EAD1
:102D90000805D1F8108008FA04F848EA0508C6F8D2
:102DA00020800568540007FA04F6B5430E7906F052
:102DB0000306A6402E4306604C6814F4403F66D0DC
:102DC000374C256845F480452560246822F00305CA
:102DD00004F480440094334C05EB0408D8F80858F8
:102DE0009407260F0CFA06F4A5432F4CA04201D1FC
:102DF000002424E02D4CA04202D101241FE046E033
:102E00002B4CA04201D1022419E02A4CA04201D14E
:102E1000032414E0284CA04201D104240FE0274CE5
:102E2000A04201D105240AE0254CA04201D106248C
:102E300005E0244CA04201D1072400E00824B4405E
:102E40002C43C8F80848D9F800404D464E689C43CA
:102E5000F60200D51C432C60DAF8004055464E6857
:102E60009C43B60200D51C432C60DBF800405D4655
:102E70004E689C43B60300D51C432C60DEF800402E
:102E800075464E689C43F60300D51C432C60521CCB
:102E9000102AFFF43FAFBDE8F88F0000083C014066
:102EA000443802400030014000000240000402406B
:102EB00000080240000C02400010024000140240D2
:102EC00000180240001C02400AB1816170470904E9
:102ED000FBE700000148806870470000FC07002005
:102EE00070B5040011D021684CF6CC400860216810
:102EF00045F255500860D4E9000141602168A0689E
:102F00008860FFF7E7FF05460CE0012070BDFFF782
:102F1000E1FF401B312805D92068C068800701D037
:102F2000032070BD2068C0688007F0D121684AF690
:102F3000AA200860002070BD00684AF6AA2101603E
:102F40000020704709480168094A1278114401605D
:102F50004FF08041496A006800EB4002C2EBC010AC
:102F600001EBC0000349086070470000040800201E
:102F7000FC070020E00700200B4810B5016841F471
:102F800000710160016841F480610160016841F4F1
:102F900080710160032000F09FF80F2000F006F818
:102FA00000F050F8002010BD003C024030B505464E
:102FB000204887B00024016841F0010101600068E9
:102FC00006A900F001000590684600F031F9039869
:102FD000B0B100F04DF9400017494FF08042B0FB0E
:102FE000F1F11648491E026040F2E732C0E90324BD
:102FF000C0E90114846100F03BFB040003D015E03C
:1030000000F036F9E8E70D4800F060FB04000DD150
:103010001C2000F033F8102D07D2002229461C2076
:1030200000F03AF80648056000E0012407B02046A9
:1030300030BD00004038024040420F00881200209E
:10304000000800200C4882B0016841F48041016012
:10305000006800F4804000900748001F016841F0BC
:10306000805101600068002200F0805000900F2124
:10307000901E02B000F010B844380240002809DB6E
:1030800000F01F02012191404009800000F1E02082
:10309000C0F8001170470000F0B40E4B1B68C3F37A
:1030A0000223C3F10704042C00D904241D1D072D9D
:1030B00001D2002300E0DB1E012606FA04F56D1E96
:1030C0000D409D409E40761E164045EA0601F0BC2C
:1030D00002F0BDB80CED00E0064A00F007011068F0
:1030E0004FF6FF03184040EA0120034908431060EF
:1030F000704700000CED00E00000FA052DE9F047F4
:103100000D46040065D0DFF81491D9F80000EFB245
:1031100000F00700A84207D289F80070D9F8000033
:1031200000F00700A84254D120683D4E810712D517
:10313000400703D5306840F4E05030602078000745
:1031400003D5306840F4604030603068A16820F0FA
:10315000F000084330602078C0072DD03049606807
:103160000839012812D0022813D0032811D0096889
:10317000890700292DDA316821F00301014331600C
:10318000FFF7A8FE804641F2883A0EE009688903FD
:10319000EFE709688901ECE7FFF79CFEA0EB080167
:1031A000514502D90320BDE8F0873068616800F01E
:1031B0000C00B0EB810FEFD1D9F80010484601F0B8
:1031C0000701A94207D90770006800F00700A8426C
:1031D00001D00120E7E72078400705D53068E16895
:1031E00020F4E050084330602078000706D53068AE
:1031F000216920F4604040EAC100306000F058F8D6
:103200003168084AC1F30311515CC840064908609F
:1032100006480068FFF7CAFE0020C4E7003C0240F1
:103220000838024074D80008080800200008002070
:103230000F2202600C4A136803F003034360136813
:1032400003F0F0038360136803F4E053C360126873
:103250004FF4E05303EAD20202610448006800F030
:10326000070008607047000008380240003C024038
:103270000448054900680968044AC1F38221515C89
:10328000C8407047080800200838024084D8000869
:103290000448054900680968044AC1F34231515C99
:1032A000C8407047080800200838024084D8000849
:1032B000154810B5006810F00C01144813D0144BD9
:1032C00004290FD008290ED10F4C241F216801F0CA
:1032D0003F022168490207D52068C0F38810A0FB8F
:1032E000030106E0184610BD2168C1F38811A1FB57
:1032F00000010023FDF792F82168C1F30141491C48
:103300004900B0FBF1F010BD083802400024F40081
:1033100040787D012DE9F84F040075D02078DFF862
:1033200038A3C007AAF1040548D00AF104000168D7
:10333000C1F38101012908D00068C0F3810002288F
:103340000AD1DAF80000400206D52868800335D596
:1033500060680028E1D031E06068B0F5803F10D0AF
:10336000B0F5A02F286810D020F48030286028689D
:1033700020F4802028606068A0B1FFF7ABFD06460E
:103380000CE0286840F48030F4E740F480202860A6
:10339000F7E7FFF79FFD801B642871D8286880033A
:1033A000F7D50BE0FFF796FD064604E0FFF792FD28
:1033B000801B6428F1D828688003F7D42078DFF8D0
:1033C0009C9280074FF0000B3DD5A348001D01687B
:1033D00011F00C0F08D00068C0F3810002280AD158
:1033E000DAF80000400206D42868800715D5E068A6
:1033F000012809D111E0E068B8B10120C9F8000046
:10340000FFF768FD064605E022E1FFF763FD801B3C
:103410000228C2D828688007F7D52868216920F0DB
:10342000F80040EAC10028600DE0C9F800B0FFF7DD
:1034300051FD064604E0FFF74DFD801B02281FD812
:1034400028688007F7D42078000722D5824F844867
:103450006169703771B101210160FFF73BFD0646DC
:1034600004E0FFF737FD801B022809D83868800781
:10347000F7D50EE0C0F800B0FFF72CFD064605E0DA
:1034800082E0FFF727FD801B02287DD8386880077F
:10349000F7D42078400765D56F484FF000083C30DE
:1034A0000068C0000BD46C483C30016841F080518A
:1034B000016000684FF0010800F080500090694FF3
:1034C0003868C0050FD4386840F480703860FFF762
:1034D00001FD064604E0FFF7FDFC801B022853D8DF
:1034E0003868C005F7D55C4FA0686C3701280FD04D
:1034F0000528386810D020F001003860386820F0C6
:1035000004003860A068B0B1FFF7E4FC06460EE0A6
:10351000386840F00100F4E740F004003860F7E755
:10352000FFF7D8FC811B41F28830814263D83868AC
:103530008007F5D50DE0FFF7CDFC064606E0FFF766
:10354000C9FC811B41F28830814254D83868800719
:10355000F5D4B8F1000F05D03F483C30016821F0A8
:1035600080510160A069B8B33B49091D0968C1F3E6
:103570008101022946D00228584606D0C9F86000C9
:10358000FFF7A8FC044639E035E04F46C9F8600073
:10359000FFF7A0FC064604E0FFF79CFC801B022816
:1035A00029D828688001F7D4D4E907010843A16A23
:1035B0002D4A490802EB0141626A41EA821108433F
:1035C00094F82C1040EA0161CAF800100120386616
:1035D000FFF780FC044605E03CE0FFF77BFC001BA6
:1035E000022808D828688001F7D533E0FFF772FC7D
:1035F000001B022802D90320BDE8F88F286880014B
:10360000F4D427E00128F7D0DAF80000E26900F4EA
:10361000800191421CD1226A00F03F01914217D1F2
:1036200047F6C071626A0140B1EB821F10D1A26AF5
:103630004FF0FF3300F4403103EB5202B1EB024F85
:1036400006D194F82C1000F07060B0EB016F01D03F
:103650000120D1E70020CFE70438024000004742B4
:10366000800E4742007000400000FFFF7047704727
:1036700010B5040003D094F83D0010B107E001201C
:1036800010BD002084F83C00204600F01EF8022007
:1036900084F83D00211D206801F054FB012084F8CE
:1036A000460084F83E0084F83F0084F8400084F827
:1036B000410084F8420084F8430084F8440084F810
:1036C000450084F83D00002010BD704790F83D1083
:1036D000012901D001207047022180F83D100168C6
:1036E000CA6842F00102CA6000681149884214D0D9
:1036F000B0F1804F11D00F4988420ED00E49884258
:103700000BD00E49884208D00D49884205D00D499A
:10371000884202D00C49884204D1816801F0070137
:10372000062903D0016841F00101016000207047C3
:10373000000001400004004000080040000C004070
:10374000000401400040014000180040704770B57F
:103750000446006801694FF00005C943890715D484
:10376000C168C943890711D4E91E0161012020778E
:10377000206880698007204602D0FFF7E7FF04E059
:1037800000F098F8204600F096F825772068016947
:10379000C943490717D4C168C943490713D46FF017
:1037A00004010161022020772068806910F4407FC5
:1037B000204602D0FFF7CAFF04E000F07BF8204665
:1037C00000F079F8257720680169C943090716D404
:1037D000C168C943090712D46FF0080101610420D0
:1037E00020772068C0698007204602D0FFF7AEFF2F
:1037F00004E000F05FF8204600F05DF825772068CF
:103800000169C943C90617D4C168C943C90613D49D
:103810006FF010010161082020772068C06910F462
:10382000407F204602D0FFF791FF04E000F042F80D
:10383000204600F040F8257720680169C943C90790
:1038400008D1C168C943C90704D1891E0161204656
:1038500000F032F820680169C943090609D4C1683B
:10386000C943090605D46FF0800101612046FFF7C6
:10387000FDFE20680169C943490609D4C168C943EE
:10388000490605D46FF040010161204600F01BF8A5
:1038900020680169C94389060BD4C168C9438906F8
:1038A00007D46FF0200101612046BDE87040FFF7AA
:1038B000DEBE70BD704770470068B0F1804F01D127
:1038C000FFF740BB7047704770477047F8B5016815
:1038D00004460868CA684B6910F00F0F4FF00005E6
:1038E00059D003F0010602F49077374365D0C10741
:1038F00005D0D10503D5216C41F0010121644107B8
:1039000005D5D90703D0216C41F00201216481075C
:1039100005D5D90703D0216C41F0040121640107CA
:1039200007D502F02001314303D0216C41F008019A
:103930002164216C00293AD0800604D5900602D576
:10394000204601F0AAFA20684069216CC0F380107B
:10395000090700D460B3204601F078FA2068406976
:10396000400621D52068143050E8001F21F04001A6
:1039700040E80012002AF5D1A06BA8B16C4901659E
:10398000A06BFFF76DF8002811D0A06B016D01B09E
:10399000BDE8F040084783060FD593060DD52046B5
:1039A000BDE8F84001F079BA2046FFF78EFFF8BD78
:1039B0002046FFF78AFF2564F8BD266B2023012EE1
:1039C00079D1C60677D5D60675D5086848680090BF
:1039D0004869400640D5A16B086840680004000CA7
:1039E000EAD0A28D8242E7D9E085C869B0F5807F30
:1039F0002DD020680C3050E8001F21F4807140E881
:103A00000012002AF5D12068143050E8001F21F080
:103A1000010140E80012002AF5D12068143050E876
:103A2000001F21F0400140E80012002AF5D184F87F
:103A30003E30256320680C3050E8001F21F0100153
:103A400040E80012002AF5D1A06BFEF7C0FFA08D60
:103A5000E18D401A81B229E0A08DE18D401A81B23A
:103A6000E08D0028A8D00029A6D020680C3050E8AE
:103A7000002F22F4907240E80026002EF5D1206835
:103A8000143050E8002F22F0010240E80026002EFA
:103A9000F5D184F83E30256320680C3050E8002FC3
:103AA00022F0100240E80023002BF5D12046FFF75A
:103AB0000BFFF8BDFFE705062BD5150629D594F8B1
:103AC0003D002128F5D1A068B0F5805F01D12069C3
:103AD000B0B1206A411C2162216800784860E08C06
:103AE000401E0004000CE084E3D12068C16821F08E
:103AF0008001C1602068C16841F04001C160D8E721
:103B0000206A0088C0F308004860206A801C206298
:103B1000E5E74006CDD55006CBD5CA68204622F051
:103B20004002CA6084F83D3000F047FAC1E7000067
:103B30003D4E000870B5040004D094F83D00002507
:103B400010B106E0012070BD84F83C50204600F022
:103B500023F8242084F83D002068C16821F4005136
:103B6000C160204601F0FAF92068016921F4904112
:103B700001612068416921F02A0141612068C16822
:103B800041F40051C1602564202084F83D0084F890
:103B90003E00002070BD00002DE9F04F87B00446C4
:103BA00014216846FCF74AFDF548DFF8D083103849
:103BB0000222D4F800C0F24B0321DFF8C8E300254D
:103BC000970606154FF480794FF0400AC44557D147
:103BD000D3F800C0A8464CF4002CC3F800C01B6802
:103BE00003F400230593036843F0010303600068B6
:103BF00000F0010005908DE826000820CDE90310B3
:103C000069467046FFF778F8DFF880B3DE4958461A
:103C1000CBF80010C0E90175C0E90356CBF8145089
:103C2000C0E90659CBF82050CBF82450FEF7FAFF34
:103C300008B1FDF765FFD54DD348C4F838B06035FD
:103C40003030CBF8384085E88104C5E90386C5F8F3
:103C50001480C5F81880C5F81C80C5F82080284657
:103C6000C5F82480FEF7DEFF08B1FDF749FF656364
:103C7000002205213420AC63FFF70EFA342070E0F7
:103C8000DFF80C83C44572D1D3F800C000254CF492
:103C9000801CC3F800C01B6803F4801305930368FD
:103CA00043F004030360036803F00403059303680F
:103CB00043F00803036000688B4600F0080005909D
:103CC0004FF48050CDE9000202950820CDE903B001
:103CD00090466946AF48FFF70FF80420CDE9000889
:103CE00002950820CDE903B06946AB48FFF704F818
:103CF000DFF89882A44908F1C00830394046C8F876
:103D00000010C0E90175C0E90356C8F81450C0E9B5
:103D10000659C8F82050C8F82450FEF783FF08B1B0
:103D2000FDF7EEFE98489D4DC4F838807830C8F80D
:103D3000384085E881040020C5E903066861A86170
:103D4000E861286268622846FEF76CFF08B1FDF75B
:103D5000D7FE6563002205213520AC63FFF79CF98F
:103D60003520FFF78BF907B0BDE8F08FFFE7DFF8EC
:103D700030824FF0070BC44559D1814B1B1DD3F83E
:103D800000C04CF0100CC3F800C01B6803F0100317
:103D90000593036843F0010303600068CDE9025115
:103DA00000F0010005904FF4C060CDE90002CDF8AD
:103DB00010B069467046FEF79FFFDFF8E0B1794921
:103DC0000BF1600B5846CBF80010C0E90175C0E953
:103DD0000356CBF81450C0E90659CBF82050B8462A
:103DE000CBF82450FEF71EFF08B1FDF789FE6B4F9C
:103DF000C4F838B0C037CBF83840C7E903567D6106
:103E0000BD616848FD613D6278307D6287E80105EB
:103E10003846FEF707FF08B1FDF772FE6763002220
:103E200005212520BC63FFF737F9252099E7DFF846
:103E30007881C4453FD1D3F800C04CF4003CC3F8AE
:103E400000C01B6803F400330593036843F00103CB
:103E500003600068CDE9025100F0010005900C20DC
:103E6000CDE90002CDF810B069467046FEF744FF78
:103E70004549DFF8388148314046C8F80010C0E9AC
:103E80000175C0E90356C8F81450C0E90659C8F8CE
:103E90002050C8F82450FEF7C5FE08B1FDF730FEEB
:103EA000C4F83880002205212620C8F83840FFF7E2
:103EB000F3F8262055E7DFF8F880C4457FF453AFC8
:103EC000D3F800C0A8464CF4802CC3F800C01B688F
:103ED00003F480230593036843F002030360006842
:103EE000CDE9025100F0020005904FF44060CDE9A9
:103EF0000002CDF810B069462E48FEF7FDFEDFF84F
:103F0000ACB021490BF1600B18395846CBF80010C2
:103F1000C0E90175C0E90356CBF81450C0E9065951
:103F2000CBF82050CBF82450FEF77CFE08B1FDF70B
:103F3000E7FD1E4D1448C4F838B0C0351830CBF832
:103F4000384085E88104C5E90386C5F81480C5F8C2
:103F50001880C5F81C80C5F820802846C5F8248044
:103F6000FEF760FE08B1FDF7CBFD65630022052179
:103F70002720AC63FFF790F82720F2E6004C0040C2
:103F8000403802400000024040600240280F0020FC
:103F90000050004000080240000C02404810002081
:103FA00000100140406402400044004068110020BD
:103FB000004800400004024070477047FEE70000E0
:103FC00070B50D4C0025C4F8B4520C48016821F0BE
:103FD00040410160016841F080410160C4F8BC5279
:103FE000022004F52D7402F0AFFD012020600220B4
:103FF00002F0AAFD256070BD00804042000402402E
:1040000070B50D4C0026C4F8B4620C48016821F06C
:1040100040410160016841F0804101600125C4F820
:10402000BC52022004F52D7402F08EFD25600220A2
:1040300002F08AFD266070BD00804042000402400C
:104040002DE9F047814616480024016821F04041DF
:10405000016001680160134E254627464FF00108B4
:10406000C6F8B472022002F06FFDC6F8B482600692
:10407000040ED6F83C0208B1641CE4B2012002F040
:1040800063FD6D1CEDB2082DEAD3B9F1000F04D029
:10409000FFF796FF2046BDE8F087FFF7B1FFF9E78D
:1040A00000040240008040422DE9F04105461448DA
:1040B000016821F040410160016841F080410160E8
:1040C000104E0027C6F8B4723C464FF00108E809CC
:1040D000C6F8BC026806050E022002F035FDC6F8DF
:1040E000B482022002F030FDC6F8B472022002F061
:1040F0002BFD641CE4B2082CE9D3BDE8F08100007C
:10410000000402400080404270B50D48016821F073
:1041100040410160016841F080410160094C01208B
:10412000C4F8BC02C4F8B402042004F52D7402F0F3
:104130000BFD0025A560042002F006FD256070BD82
:1041400000040240008040420E4810B5016821F092
:1041500040410160016841F0804101600A4C00204B
:10416000C4F8B402C4F8BC02042004F52D7402F0B3
:10417000EBFC01202060A060BDE81040042002F0AC
:10418000E3BC0000000402400080404270B51248C9
:104190000024016821F040410160016801600F4D79
:1041A0000126C5F8BC62304602F0CEFCC5F8B46208
:1041B000012002F0C9FC07E0641CE4B2FA2C03D928
:1041C000FFF7C2FF012070BDD5F83C020028F3D1F3
:1041D000C5F8B40270BD00000004024000804042F7
:1041E000094910B50888401C80B2A0F56A420880D1
:1041F000603A01D100200880FCF7B2FFFDF7A4FD72
:10420000BDE8104000F0A2BB0000002070B50546DC
:10421000FFF77AFF0F4C20784006000EFFF744FFAF
:10422000FFF7B4FF2846FFF73FFFFFF7AFFFFFF7A9
:104230006BFF2078012101EB4000C0B2FFF734FF93
:10424000FFF7A4FF0020FFF7FBFE0446FFF77CFF0B
:10425000204670BDDC0700202DE9F04116460D46D2
:104260000746FFF751FF134C20784006000EFFF77A
:104270001BFFFFF78BFF3846FFF716FFFFF786FFA0
:10428000FFF742FF2078012101EB4000C0B2FFF7A9
:104290000BFFFFF77BFF002406E00120FFF7D0FEB5
:1042A000641C05F8010BE4B2B442F6D3BDE8F0415A
:1042B000FFF74ABFDC070020104810B50E49016027
:1042C0000321416000214FF400228160C0E9031204
:1042D0004FF4401242610176012242768276C17625
:1042E00001774277FEF70FFA002803D0BDE81040AF
:1042F000FDF706BC10BD000000640040780D0020F2
:10430000104810B50E4901600321416000214FF4AF
:1043100000228160C0E903124FF44012426101762D
:10432000012242768276C17601774277FEF7EBF979
:10433000002803D0BDE81040FDF7E2BB10BD00002F
:1043400000680040A00D00202D4808B5016841F428
:1043500000110160016801F400110091016841F44D
:10436000800101600068002200F4800000900521B7
:104370000B20FEF791FE0B20FEF780FE00220521A8
:104380000C20FEF789FE0C20FEF778FE00220521A6
:104390000D20FEF781FE0D20FEF770FE00220521A4
:1043A0000E20FEF779FE0E20FEF768FE00220521A2
:1043B0000F20FEF771FE0F20FEF760FE00220521A0
:1043C0001020FEF769FE1020FEF758FE002205219E
:1043D0002F20FEF761FE2F20FEF750FE0022052160
:1043E0003A20FEF759FE3A20FEF748FE002205214A
:1043F0004620FEF751FEBDE808404620FEF73EBECF
:104400003038024010B5A4B01C221C496846FCF7A5
:10441000C1F80021684603F0B5FC194C17491C226D
:1044200020601C3107A8FCF7B5F8002107A803F0AD
:10443000A9FC124960601C2238310EA8FCF7AAF8CA
:1044400000210EA803F09EFC0C49A0601C225431F0
:1044500015A8FCF79FF8002115A803F093FC074965
:10446000E0601C2270311CA8FCF794F800211CA805
:1044700003F088FC206124B010BD0000E0D70008E4
:10448000E40700202DE9F04186B014216846FCF7CE
:10449000D5F82B480024016841F00401016001684F
:1044A00001F004010591016841F08001016001689B
:1044B00001F080010591016841F00101016001688E
:1044C00001F001010591016841F0020101600168FC
:1044D00001F002010591016841F0080101600068E6
:1044E000184F00F00800059001224FF4D0413846E3
:1044F000FEF7EAFCDFF850804FF4204601223146F7
:104500004046FEF7E1FC002239153846FEF7DCFC98
:104510004FF4D84000900125CDE901546946384652
:104520000394FEF7E9FB0320CDE90240CDE90065E5
:1045300069464046FEF7E0FB06B0BDE8F0810000AA
:10454000303802400008024000040240094810B51B
:10455000074901600121416040F6FF718160FEF76B
:10456000BFFC002803D0BDE81040FDF7C9BA10BD5C
:1045700000300040C80D00200C4810B50A49016009
:104580004FF4E1314160002181600C22C160C0E93B
:1045900004128161C161FFF7CDFA002803D0BDE8A4
:1045A0001040FDF7ADBA10BD004C0040D40D002006
:1045B0000C4810B50A4901604FF4E1314160002117
:1045C00081600C22C160C0E904128161C161FFF702
:1045D000B1FA002803D0BDE81040FDF791BA10BD34
:1045E00000500040180E00200C4810B50A49016028
:1045F0004FF4E1314160002181600C22C160C0E9CB
:1046000004128161C161FFF795FA002803D0BDE86B
:104610001040FDF775BA10BD001001405C0E00207F
:104620000D4810B50B4901600C49416000214FF461
:1046300080628160C0E903120422C0E90521C161E2
:10464000FFF778FA002803D0BDE81040FDF758BA0C
:1046500010BD000000440040A00E0020A086010014
:104660000C4810B50A4901604FF4E1314160002166
:1046700081600C22C160C0E904128161C161FFF751
:1046800059FA002803D0BDE81040FDF739BA10BD33
:1046900000480040E40E0020FEE7000010B504468C
:1046A0000068C0B1BCB16168A9B19FED0C0A80ED92
:1046B000040A21680020C8602268332111766077DF
:1046C00001202077A06800F025F8A068BDE8104020
:1046D000503000F01FB80220607710BD00000000CD
:1046E000016881B178B142686AB19FED080A81ED35
:1046F000040A02680021D160036833221A764177E8
:1047000001210177704702214177704700000000C6
:10471000FEE70000002817D09FED0C0A80ED100A7C
:1047200080ED0F0A80ED0E0A80ED090A80ED0D0A7A
:1047300080ED0C0A80ED0B0A80ED130A80ED120A61
:1047400080ED110A80ED030A7047000000000000B0
:104750002DE9F14304002DED020B82B09FED520ACA
:104760007DD08DED000A94ED120A04F1440284ED2F
:10477000130A94ED110A012384ED120A9DED030A38
:10478000154684ED070A9DED020A02A984ED080A88
:1047900003A801F0E1FA04F10C02012316461146C8
:1047A000284601F03CFAD4ED030A94ED040AF4EE35
:1047B000C00AF1EE10FA06DCB1EE400AF4EEC00ACF
:1047C000F1EE10FA01D284ED030A04F12C02012368
:1047D00091462946204601F071FA04F13002012386
:1047E00090463146201D01F069FAD4ED0C0A94ED93
:1047F000060AF4EEC00AF1EE10FA06DCB1EE400A49
:10480000F4EEC00AF1EE10FA01D284ED0C0A04F1C4
:104810003C0204F14801012317460E46284601F0E8
:104820009BFA04F140020123154604F14C01304685
:1048300001F092FA012304F138023946284601F0CA
:104840008BFA04F1340201231546394604F10800BD
:1048500001F082FA01236A464146484600E01FE023
:1048600001F0DDF9012304F124022946684601F034
:10487000D6F9D4ED090A94ED050AF4EEC00AF1EE7A
:1048800010FA09DCB1EE400AF4EEC00AF1EE10FABB
:1048900002D394ED090A01E084ED090A84ED0A0AC5
:1048A00005B0BDE8F0830000000000002649827FCB
:1048B0009FED240A4968B2EE001AF0EE080A062AB3
:1048C00024D0072A2CD1897801292AD0002927D180
:1048D0001D498439826891ED000A82ED000A8268E0
:1048E00091ED010A82ED010A826891ED020A82EDE2
:1048F000020A826891ED030A82ED140A826891ED42
:10490000040A82ED150A91ED050A06E0497841B1E5
:10491000012905D10C499C39DCE7806880ED160A35
:104920007047816881ED001A816881ED010A816814
:1049300081ED020A8168C1ED140A816881ED150AD2
:10494000EBE7000000000000240100202DE9F04109
:104950001348144E4FF40055027E012A08D0002A55
:104960001CD129463046BDE8F0410122FEF7ACBA21
:104970000D4F4FF47A743888B0FBF4F104FB11004A
:1049800020B9002229463046FEF79EFA3888B0FB4F
:10499000F4F104FB1100B0F5FA7FE2D0BDE8F0813C
:1049A000C4010020000802400000002010B5284C7F
:1049B0002DED028BB4F900009FED268A00EE100A5F
:1049C000DFED258AB0EE481AB8EEC00AF0EE680AAC
:1049D000FDF784F8B5EEC00AF1EE10FA36D1B4F95D
:1049E0000200B0EE481A00EE100AF0EE680AB8EEC7
:1049F000C00AFDF773F8B5EEC00AF1EE10FA25D142
:104A0000B4F90400B0EE481A00EE100AF0EE680A9D
:104A1000B8EEC00AFDF762F8B5EEC00AF1EE10FA82
:104A200014D1B4F90600B0EE481A00EE100AF0EE08
:104A3000680AB8EEC00AFDF751F8B5EEC00AF1EE0B
:104A400010FA03D10120BDEC028B10BD0020FAE763
:104A5000A801002000004842000000000268002178
:104A6000118002685180026891800268D1800368D9
:104A700003221A7203685A72026851810268918196
:104A80000268D1810268117402685174026851820F
:104A900000688182704770B58EB0064600250246D8
:104AA0008DF800500121684601F093FA01F0A6F953
:104AB00032460121042001F03FFD044601F09EF939
:104AC00084B90C208DF8020002208DF8030001202B
:104AD0008DF805508DF8040001463246684601F015
:104AE00033FE04460EB0204670BD70B58EB0012571
:104AF000064602468DF800502946684601F069FADC
:104B000001F07CF932460221042001F015FD044633
:104B100001F074F994B90C208DF8020000208DF892
:104B2000060002208DF803008DF807508DF8045020
:104B300032460121684601F007FE04460EB02046C9
:104B400070BD012003F012F9FBE700000B4C206957
:104B500080470B4DE86880470A4E707848B1606A1C
:104B60008047A8698047FCF7F3F9012003F0FEF8BD
:104B7000F3E7E06980476869F4E70000400000203F
:104B80002401002002000020084C0122910220464E
:104B9000FEF79AF90122D1022046FEF795F9FFF7B8
:104BA0001FFB012003F0E2F8F9E7000000080240D3
:104BB0000F4E104F104D1148FEF7BEF971690C48A9
:104BC000884779690B488847002405EB44108169C0
:104BD0008847641CE4B2042CF7D3094881698847EC
:104BE000084881698847012003F0C0F8E3E7000026
:104BF0008C010020C401002010050020C80D0020F9
:104C00002807002048070020124F4FF00108124DDE
:104C10000026124C05F0BAFCF9680E48884703F0EC
:104C200097FB287E012801D030B10DE084F8018087
:104C30000948FFF713FF07E0687E28B9607801286C
:104C400002D126706670A67005F0C0FC022003F049
:104C50008DF8DFE78C010020C40100200200002055
:104C600010B5502080F31188BFF34F8FBFF36F8FC3
:104C700005F0DCFE18B104494FF0805008600020B8
:104C800080F3118810BD000004ED00E030B593B052
:104C900030216846FBF7D2FC14210CA8FBF7CEFCB0
:104CA0001F480025016841F080510160006800F054
:104CB000805011901B48016841F4804101600068F8
:104CC000022400F480401190092000904FF48030BD
:104CD00001900120CDE90504800507901920089076
:104CE0004FF4A870CDE9090404200B906846FEF744
:104CF00011FB08B172B6FEE70CA90F2081E8310064
:104D00004FF4A0500F904FF48050109005210CA844
:104D1000FEF7F4F9002801D072B6FEE713B030BDFB
:104D200040380240007000400248016841F47001C0
:104D30000160704788ED00E00148FEF708BD000003
:104D400088120020F0B50268254D264E264FDFF868
:104D50009CC0274B4FF0804EA84209D0704507D029
:104D6000B04205D0B84203D0604501D0984203D18B
:104D700022F070044A682243A8421BD0704519D023
:104D8000B04217D0B84215D0604513D0984211D028
:104D9000184CA0420ED0184CA0420BD0174CA04289
:104DA00008D0174CA04205D0164CA04202D0164C99
:104DB000A04203D122F44074CA6822434C6922F015
:104DC0008002224302608A68C2620A688262A84244
:104DD00001D0984201D10969016301214161F0BD0F
:104DE000000001400004004000080040000C0040AA
:104DF00000040140004001400044014000480140DF
:104E000000180040001C00400020004010B504487D
:104E1000FCF75AFEBDE810400148FEF757BD000000
:104E2000D40D002010B50448FCF74EFEBDE810403C
:104E30000148FEF74BBD0000180E002010B5806B36
:104E40000021C185C184FEF740FD10BD01680C3111
:104E500051E8002F22F4907241E80023002BF5D195
:104E60000168143151E8002F22F0010241E80023CB
:104E7000002BF5D1016B012909D101680C3151E8F2
:104E8000002F22F0100241E80023002BF5D1202151
:104E900080F83E1000210163704708B590F83E107D
:104EA000222901D0022008BD81684FF48053994225
:104EB00001D1026922B1826A99421BD049B10AE04C
:104EC0000268816A5268C2F308020A80816A891CFA
:104ED00008E0016971B10168496801F07F01117052
:104EE000816A491C8162C18D491E0904090CC18572
:104EF00003D019E001684968F1E70168CA6822F047
:104F00002002CA600168CA6822F48072CA6001681F
:104F10004A6922F001024A61202180F83E10016BAB
:104F2000012903D0FFF748F8002008BD00210163E4
:104F300001680C3151E8002F22F0100241E80023F3
:104F4000002BF5D101680A68D20602D50A684968C3
:104F50000091818DFEF7B8FCE6E7000070B50446CD
:104F600000680169E26821F4405111430161A168C0
:104F70002069E26901436069104301432068C26807
:104F800049F20C639A430A43C26020684169A269EE
:104F900021F440711143416131492068884202D0B7
:104FA0003049884202D1FEF773F901E0FEF760F95B
:104FB000E2690023192164253226B2F5004F6268A8
:104FC00028D0A0FB0101930F9200FBF727FA0146BE
:104FD000B0FBF5F06FF01802504301EB800006EBD8
:104FE0000010B0FBF5F000F0F002B1FBF5F002EBC1
:104FF0000012B1FBF5F06FF01803584301EB80008D
:1050000006EB0010B0FBF5F000F00F002168104433
:10501000886070BDA0FB010192185B41FBF7FEF9AF
:105020000146B0FBF5F00201B1FBF5F06FF018039B
:10503000584301EB800006EBC000B0FBF5F000F038
:10504000F80002EB4002B1FBF5F0584301EB8000A1
:1050500006EBC000B0FBF5F000F00700D6E700005B
:10506000001001400014014010B50448FCF72CFD6D
:10507000BDE810400148FEF729BC00005C0E00208E
:105080000B4A82B01068016841680091C16841F024
:105090001001C1601068416941F04001416111682F
:1050A000906B6423034A091D02B0FCF7CFBC0000DB
:1050B0005C0E00206409002010B50448FCF704FDD4
:1050C000BDE810400148FEF701BC0000A00E002022
:1050D0000C4A08B51068016841680091C16841F048
:1050E0001001C1601068416941F040014161122026
:1050F0000090054B1168906BA3F11802091DFCF795
:1051000045FB08BDA00E0020E009002010B5054CAD
:1051100001462046E268904720462169BDE81040DC
:1051200008470000C401002010B50448FCF7CCFC7F
:10513000BDE810400148FEF7C9BB0000E40E0020A6
:105140000B4A82B01068016841680091C16841F063
:105150001001C1601068416941F04001416111686E
:10516000906B6423034A091D02B0FCF76FBC00007A
:10517000D40D0020F8090020704700000B4A82B0CF
:105180001068016841680091C16841F01001C16078
:105190001068416941F0400141611168906BC8237A
:1051A000034A091D02B0FCF751BC0000180E002094
:1051B0005C0A0020704702687AB170B10B885BBA54
:1051C00013804A88036852BA5A808A88036852BAA0
:1051D0009A80006889798171704702214177704710
:1051E00070B5044600680D46A8B1A4B10846FBF7A7
:1051F00059FE216808802846FBF757FE2168488041
:105200002846FBF756FE216888802846FBF755FEA6
:105210002168887170BD0220607770BDFEE703B41D
:1052200001984100009850EAC12018BF04204A0D9F
:1052300018BF40F0010040F2FF72B2EB515F08BFAF
:1052400040F00200012808BF052002B0704709079E
:10525000090E002804DB00F1E02080F800147047FC
:1052600000F00F0000F1E02080F8141D70470000EE
:1052700070B5C1482DED020B2DED0E8B82B0119D46
:1052800025F000449FEDBEDB9FEDBFEB84423EDB8B
:10529000A4F140511098A1F17F6108430FD0BC48A0
:1052A000844202DC28D1109830B39DED100B02B07F
:1052B000BDEC0E8B02B0BDE8704000F071BC9DEDFE
:1052C000100B53EC1D2B51EC100B05F027FF9DED3F
:1052D000100B41EC180B53EC1E2B51EC100B05F08E
:1052E0001DFF53EC182B05F0A7FC41EC100B02B08E
:1052F000BDEC0E8B02B070BD0120FBF720FA02B0AE
:10530000BDEC0E8B02B0BDE8704000F05DBCA14862
:105310009FEDA18B844256DA9DED100BB4F1795FBD
:105320000ADA51EC100BFFF77AFF042808BF00F0EF
:105330005BFC9DED100BDAE753EC102B51EC100BDE
:1053400005F0ECFE41EC190B95480621B0EE490A38
:10535000F0EE690A784400F0A7FB53EC192B51ECEE
:10536000100B05F0DBFE41EC1A0B8E48B0EE490A3B
:10537000F0EE690A0421784400F096FB53EC192BF7
:1053800051EC100B05F0CAFE53EC182B05F054FC41
:1053900041EC100B51EC1A0B53EC102B05F000FDF7
:1053A000CDE900019DED000B53EC102B9DED100B92
:1053B00051EC100B05F0B2FE9DED101B53EC112BC0
:1053C00005F03AFCD2E09DED100B51EC100B01F012
:1053D000FAFB53EC182B05F09FFF9FED730BCDE903
:1053E000000153EC102B9DED000B51EC100B05F060
:1053F00095FE41EC190B6E480621B0EE490AF0EE1D
:10540000690A784400F050FB53EC192B51EC100B57
:1054100005F084FE41EC1B0B6648B0EE490AF0EE45
:10542000690A0421784400F03FFB53EC192B51EC3E
:10543000100B05F073FE53EC182B05F0FDFB41EC4F
:105440001C0B51EC190B04F05BFF41EC180B5A4894
:105450009FED5BABA04222DC53EC1C2B51EC1B0BF1
:1054600005F09EFCCDE900019DED000B51EC180B01
:1054700053EC102B05F052FE53EC182B05F0DCFB1F
:1054800053EC1A2B05F04AFE53EC1D2B06F01CF8CA
:1054900053EC1E2B05F040FF41EC100B5FE08DED4F
:1054A000008B002000909DED000B51EC180B53EC8D
:1054B000102B05F0C1FB9DED000B41EC1E0B53ECD6
:1054C000102B51EC100B05F029FE53EC192B05F0B5
:1054D00023FF53EC1E2B05F063FC41EC190B53EC3E
:1054E0001C2B51EC1B0B05F05BFC41EC1B0B53EC34
:1054F0001A2B51EC190B05F011FE53EC1D2B05F086
:105500000BFF41EC190B53EC1A2B51EC180B05F067
:1055100005FE53EC1B2B05F001FE53EC192B05F097
:10552000D3FF9DED000B41EC180B53EC1A2B51EC03
:10553000100B05F0F3FD9FED249B53EC192B05F0A8
:10554000EBFE41EC100B51EC180B53EC102B05F05B
:10555000BBFF53EC192B05F0DFFE41EC100B002DC7
:105560003FF7C5AE51EC100B05F028FB41EC100BDA
:10557000BDE60000000000000000F03F0000000059
:10558000075C143326A6913C182D4454FB21F93FA7
:105590000000F07F0000E03F000000000000F03F4E
:1055A000388D0000468D0000000000000000E03F44
:1055B0008A8C0000988C00003333EF3F000000001D
:1055C0000000000000000040182D4454FB21E93F7A
:1055D00070B59B482DED020B2DED068B079D25F038
:1055E0000044A04218DC9748844202DC0AD10698A5
:1055F00040B19DED060BBDEC068B02B0BDE87040DE
:1056000000F0CEBA002DCCBF9FED8F0B9FED900B1D
:10561000BDEC068B02B070BD8F48A04215DD8F48EF
:10562000A042D8BF4FF0FF3458DD9DED060B51EC82
:10563000100BFFF7F4FD042808BF00F0D5FA9DED2C
:10564000060BBDEC068B02B070BD9DED060B51EC58
:10565000100B01F0B8FACDE9060181489FED828B6D
:10566000A0423CDD8248A0421FDD00249FED82ABBA
:105670009DED060B53EC1A2B51EC100B05F0DCFAE8
:105680009DED060B41EC190B53EC1A2B51EC100B52
:1056900005F044FD53EC182B05F016FF53EC192BC5
:1056A00005F07EFBCDE9060149E09DED060B0124E6
:1056B00053EC182B51EC100B05F0BEFA9DED060BC8
:1056C00041EC190B53EC182B51EC100B05F0FCFEC0
:1056D00053EC192B05F064FBCDE906012FE0684877
:1056E000A0421FDD02249FED689B9DED060B53EC4D
:1056F000192B51EC100B05F011FD53EC182B05F094
:105700009BFA9DED060B41EC180B53EC192B51EC59
:10571000100B05F0D9FE53EC182B05F041FBCDE939
:1057200006010CE09DED060B032453EC102B9FEDBE
:10573000580B51EC100B05F033FBCDE906019DED44
:10574000060B53EC102B51EC100B05F0E7FC41EC71
:10575000180B53EC182B05F0E1FC41EC190B4E48EB
:105760000621B0EE490AF0EE690A784400F09CF98F
:1057700053EC182B51EC100B05F0D0FC41EC180B3E
:105780004648B0EE490AF0EE690A0521784400F077
:105790008BF953EC192B51EC100B05F0BFFC41ECCD
:1057A000100B51EC180B53EC102B002C0EDA05F0FB
:1057B00043FA9DED061B53EC112B05F0AFFC9DED5C
:1057C000061B53EC112B05F0A7FD35E005F034FA6C
:1057D0009DED061B53EC112B05F0A0FC41EC100BCA
:1057E0002F48784400EBC40090ED001B51EC100BE7
:1057F00053EC112B05F068FE9DED061B53EC112BAD
:1058000005F062FE41EC100B2648784400EBC40022
:1058100090ED001B51EC100B53EC112B05F07CFDAF
:1058200041EC100B002DA2BFBDEC068B02B070BD89
:1058300051EC100B05F0C2F941EC100B01E7000030
:10584000000010440000F07F182D4454FB21F93F64
:10585000182D4454FB21F9BF0000DC3F0000203E1E
:105860000000F33F00000000000000000000F03FD7
:105870000000E63F000000000000000000000040C3
:105880000080034000000000000000000000F83F1E
:10589000000000000000F0BFDA89000090890000DD
:1058A0001A890000D288000070B56F4E2DED040BF0
:1058B0002DED048B82B0DDF824C0DDE907235C42C6
:1058C0002CF000411C4341EAD474069D22F00040B4
:1058D000B44205D86C422C4340EAD474B4420BD98C
:1058E0009DED081B9DED060B02B0BDEC048B04B0D2
:1058F000BDE8704000F05EB9ACF14054A4F17F64A3
:105900001C430BD0022404EAAC7444EAD27405436D
:105910009FED578B9FED582B07D015E09DED060BA3
:1059200051EC100B00F025FA42E0002C11BF012CC5
:105930009DED060B02B0BDEC048B04BF04B070BD3E
:10594000022C38D0032C3BD00B439FED4D1B9FED19
:105950004E0B0AD0B14218D1B04209D121F080419A
:1059600020F08040099107900FE0002A15DA10E03E
:10597000474B7B44002C08BF93ED000B0DD0012C4E
:1059800010D0022C17D0032C1AD0B0421DD1002AFF
:1059900003DAB0EE410AF0EE610A02B0BDEC048B0E
:1059A00004B070BD93ED000B51EC100B05F006F93F
:1059B00041EC100BF1E7B0EE480AF0EE680AECE7B4
:1059C000B0EE420AF0EE620AE7E7401A00159FEDDA
:1059D000329B3C28C8BF8DED000B17DCBCF1000FDB
:1059E000BCBF10F13C0F8DED009B0FDB9DED080B54
:1059F00053EC102B9DED060B51EC100B05F0D0F97C
:105A000001F0E1F800F0B5F9CDE90001B4B1012CE5
:105A100010D0022C9FED220B53EC102B9DED000BB0
:105A200051EC100B19D005F04FFD53EC182B05F07D
:105A30004BFDBDE7019880F0004001909DED000B0B
:105A400053EC192B51EC100B05F002FB04BF0220A4
:105A5000FAF775FE9DED000B9FE705F035FD53EC61
:105A6000182B05F059FCA3E70000F07F00000000B0
:105A7000182D4454FB210940182D4454FB2109C022
:105A8000182D4454FB21F9BF182D4454FB21F93F34
:105A9000028800000000000000000000000000007C
:105AA000075C143326A6A13C70B504462DED028B8D
:105AB0004D1E00EBC500B0EE408AF0EE608A90ED1E
:105AC000000B35F0060017D053EC182B51EC100BDF
:105AD00005F024FB41EC100B6D1E04EBC50090EDAE
