:020000040800F2
:10000000705100203103000819460008213E000805
:100010007545000851120008CB5000080000000090
:100020000000000000000000000000007102000855
:10003000DD18000800000000CD020008E5490008B6
:100040004B0300084B0300084B0300084B03000858
:100050004B0300084B0300084B0300084B03000848
:100060004B0300084B0300084B0300084D17000822
:100070005D1700086D1700087D1700088D17000830
:100080009D1700084B0300084B0300084B030008B2
:10009000551200084B0300084B0300084B030008EF
:1000A0004B0300084B0300084B0300084B030008F8
:1000B000E14A00084B0300084B0300084B0300080B
:1000C0004B0300084B0300084B0300084B030008D8
:1000D0004B03000815500008295000083D50000847
:1000E0004B0300084B0300084B0300084B030008B8
:1000F0004B0300084B0300084B030008AD17000832
:100100004B0300084B0300084B0300084B03000897
:10011000C94B0008DD4B00084B0300084B030008E7
:100120004B0300084B030008BD1700084B030008F1
:100130004B0300084B0300084B0300084B03000867
:10014000651200084B0300084B0300084B0300082E
:100150004B0300084B030008CD1700084B030008B1
:100160004B0300084B0300084B0300084B03000837
:100170004B0300084B0300084B030008000000007D
:100180004B0300084B03000800F002F800F060F891
:100190000AA090E8000C82448344AAF10107DA45E2
:1001A00001D100F055F8AFF2090EBAE80F0013F0D4
:1001B000010F18BFFB1A43F001031847F4EC0000CD
:1001C00014ED00000A444FF0000C10F8013B13F04E
:1001D000070408BF10F8014B1D1108BF10F8015BA0
:1001E000641E05D010F8016B641E01F8016BF9D193
:1001F00013F0080F1EBF10F8014BAD1C0C1B09D1EA
:100200006D1E58BF01F801CBFAD505E014F8016B5B
:1002100001F8016B6D1EF9D59142D6D370470000ED
:100220000023002400250026103A28BF78C1FBD8FF
:10023000520728BF30C148BF0B6070471FB50CF094
:1002400018FD9DE8030000F0FBF91FBD10B510BDBF
:1002500000F062FA1146FFF7F1FF08F0BDF800F078
:1002600080FA03B4FFF7F2FF03BC00F0B1FA00001C
:100270002C4B19680868B0E8F04F80F30988BFF389
:100280006F8F4FF0000080F311887047000000006E
:1002900008480068006880F308884FF0000080F389
:1002A000148862B661B6BFF34F8FBFF36F8F00DF64
:1002B00000BF00BF08ED00E0DFF80C00016841F46A
:1002C00070010160704700BF88ED00E0EFF3098026
:1002D000BFF36F8F134B1A681EF0100F08BF20ED8D
:1002E000108A20E9F04F106009B44FF0500080F3FD
:1002F0001188BFF34F8FBFF36F8F0BF049FB4FF0A7
:10030000000080F3118809BC19680868B0E8F04F54
:100310001EF0100F08BFB0EC108A80F30988BFF3FD
:100320006F8F70471C030020EFF3058070470000BB
:100330000948804709480047FEE7FEE7FEE7FEE779
:10034000FEE7FEE7FEE7FEE7FEE7FEE704480549B5
:10035000054A064B70470000CD4A00088901000895
:10036000704B002070510020704D0020704D002017
:1003700070B5064600F048F9056806F10B0020F05C
:100380000704B4429CBF002070BD2B466A68BAB116
:100390001068A04210D304F1080188423CBF5068A5
:1003A000586007D35168101941601168091B01603A
:1003B00058601460101D70BD13465268002AE7D1C2
:1003C0002146284600F028F90028DED170BD70B51E
:1003D0000446051F00F018F90068002C14BF44689B
:1003E00070BD002C18BFAC423CBF20466468F8D3F7
:1003F00001680A18AA4218BF456003D12A68054659
:100400001144016028684119A1421CBF6C6070BD95
:100410006168696021680844286070BD53EA020C75
:1004200000F069802DE9F04B4FF00006002B1FBF54
:10043000B3FA83F503FA05F424FA05F65E4012BF19
:100440001643B2FA82F502FA05F4C5F120051EBF83
:1004500022FA05FC44EA0C04203556EA044C4FEA23
:10046000144418BF641C4FF000084FF0000990427C
:1004700071EB030C39D3002919BFB1FA81F701FAE6
:1004800007F6B0FA80F700FA07F6C7F120071EBF9B
:1004900020FA07FC46EA0C062037B6FBF4FCA7EB73
:1004A0000507103F07F01F0BCBF120060CFA0BFBE2
:1004B0002CFA06F644BFB3460026202FA4BF5E46A2
:1004C0004FF0000B5BEA060C08BF4FF0010B19EB75
:1004D0000B09ABFB027C48EB0608C01B06FB02CCF9
:1004E0000BFB03CC71EB0C01C1E70B460246414606
:1004F0004846BDE8F08B13B54FF000004FF0000107
:10050000AFF30080BDE81C40704710B5203AC0F042
:100510000B80B1E81850203AA0E81850B1E8185004
:10052000A0E81850BFF4F5AF5FEA027C24BFB1E841
:100530001850A0E8185044BF18C918C0BDE81040B2
:100540005FEA827C24BF51F8043B40F8043B08BFBB
:100550007047D20728BF31F8023B48BF11F8012B82
:1005600028BF20F8023B48BF00F8012B70474FF02E
:1005700000020429C0F0128010F0030C00F01B8070
:10058000CCF1040CBCF1020F18BF00F8012BA8BF7E
:1005900020F8022BA1EB0C0100F00DB85FEAC17C42
:1005A00024BF00F8012B00F8012B48BF00F8012BF5
:1005B00070474FF0000200B5134694469646203926
:1005C00022BFA0E80C50A0E80C50B1F12001BFF40C
:1005D000F7AF090728BFA0E80C5048BF0CC05DF872
:1005E00004EB890028BF40F8042B08BF704748BFC0
:1005F00020F8022B11F0804F18BF00F8012B704734
:10060000704770477047000000487047184B002043
:10061000704770477047704738B504460A46002057
:100620006946AFF30080002808BF38BD0246009934
:10063000204600F04FF8012038BD012000F064B8DA
:10064000F8B5AFF30080054600200C46102000BF2F
:100650000646A819A0420DD9324669460020AFF3DC
:100660000080070008BF00F04FF80098A04218BFB4
:100670000546C419FFF7C8FF05600746F01D20F0C6
:1006800007004619284600F00AF8B44208BFF8BD32
:10069000A21B31463868BDE8F84000F01BB80021C5
:1006A0000160C0E9011070471020704710B500F0DC
:1006B0000DF8006810BD10B5044600F007F804609E
:1006C00010BD000000487047104B002000487047E4
:1006D000104B0020034640688C46002818BF884213
:1006E0003CBF03464068F8D318681844884207D0D6
:1006F0000CF1030020F00700001D411A521A0146B8
:10070000081D0A60FFF763BE10B500F039F8BDE8B8
:10071000104000F02FB870477546FFF7D3FFAE4684
:1007200005006946534620F00700854618B020B5FD
:10073000FFF70CFEBDE820404FF000064FF0000729
:100740004FF000084FF0000B21F00701AC46ACE879
:10075000C009ACE8C009ACE8C009ACE8C0098D46E6
:10076000704710B50446AFF300802046BDE8104046
:10077000FFF777BD002801D000F02AB870470000CD
:1007800010B5012805D0002103A000F027F80120B2
:1007900010BD09A1F8E7000053494752544D454D9B
:1007A0003A204F7574206F662068656170206D6512
:1007B0006D6F7279000000003A2048656170206D0D
:1007C000656D6F727920636F727275707465640005
:1007D00001491820ABBEFEE72600020070B50546B1
:1007E0000C460A2000E06D1C00F011F835B12878A5
:1007F0000028F8D102E0641C00F009F814B1207858
:100800000028F8D1BDE870400A20AFF3008008B599
:1008100069468DF800000320ABBE08BD2DE9F05FEE
:100820002DED088B04460D4616461F46DDE914AB38
:10083000DDE91289B7F9000000EE100AB8EEC00A2F
:10084000FE4880ED000AB8F9000000EE100AB8EE8C
:10085000C00AFB4880ED000AB9F90000032190FBB3
:10086000F1F000B200EB400000EE100AB8EEC00A52
:10087000F44880ED000ABAF9000000EE100AB8EE64
:10088000C00AF14880ED000ABBF9000000EE100A32
:10089000B8EEC00AED4880ED000A1698B0F90000E5
:1008A00000EE100AB8EEC00AE94880ED000AE648FA
:1008B00090ED000AE548D0ED000A20EE200AE44859
:1008C000D0ED000A20EE200AB5EEC00AF1EE10FAD3
:1008D00004D10020BDEC088BBDE8F09FDD48017B12
:1008E0009FEDDD0AD548D0ED000AFDEEE00A10EEDE
:1008F000900A00B207F034FDD04880ED000AD548D8
:10090000017B9FEDD50ACE48D0ED000AFDEEE00A4E
:1009100010EE900A00B207F023FDC94880ED000AEE
:10092000CC48017B9FEDCC0AC648D0ED000AFDEE15
:10093000E00A10EE900A00B207F012FDC14880ED07
:10094000000ABE4890ED000ADFEDC40A20EE200A3E
:1009500080ED000ABA4890ED000ADFEDC00A20EEF3
:10096000200A80ED000AB74890ED000ADFEDBB0ACF
:1009700020EE200A80ED000AB648017BB0EE000AA6
:10098000B148D0ED000AFDEEE00A10EE900A00B288
:1009900007F004FDAC4880ED000AAE48017BB0EEE4
:1009A000000AAA48D0ED000AFDEEE00A10EE900A17
:1009B00000B207F0F3FCA54880ED000AA548017BD2
:1009C000B0EE000AA248D0ED000AFDEEE00A10EEFB
:1009D000900A00B207F0E2FC9D4880ED000A9A48B8
:1009E000D0ED000A60EEA00A984890ED001AD0ED14
:1009F000001A41EE210A964890ED001AD0ED001A37
:100A000041EE210AB0EE600A07F08CFC944880EDBC
:100A1000000A8D4890ED000A9148D0ED000A20EEC2
:100A2000200A894880ED000A884890ED000A8C4829
:100A3000D0ED000A20EE200A844880ED000A8448A8
:100A400090ED000A8648D0ED000A20EE200A80488A
:100A500080ED000A834890ED000A8348D0ED000A3B
:100A600020EE200A8148D0ED000A814890ED001A5E
:100A700000EEC10AF0EE000A20EE200A7D4880ED6B
:100A8000000A7A4890ED000A7648D0ED000A20EE80
:100A9000200A7748D0ED000A734890ED001A00EE66
:100AA000810AF0EE000A20EE200A734880ED000A69
:100AB0006E4890ED000A20EE000A6A48D0ED000A68
:100AC00090ED001A00EEC10A6948D0ED000A90EDE1
:100AD000001A00EEC10A6448D0ED000A90ED001A39
:100AE00000EE810A654880ED000A584890ED000A42
:100AF0006248D0ED000A20EE200A5548D0ED000AE9
:100B00005D4890ED001A00EEC10A5D4880ED000AD4
:100B10004F4890ED000A5748D0ED000A20EE200A19
:100B20004948D0ED000A554890ED001A00EEC10A80
:100B3000544880ED000A444890ED000A4E48D0ED3C
:100B4000000A20EE200A4148D0ED000A494890ED05
:100B5000001A00EEC10A4C4880ED000A4B4890EDA7
:100B6000000A4748D0ED000A494890ED001A00EE0F
:100B7000810A464880ED000A464890ED000A414847
:100B8000D0ED000A424890ED001A00EE810A41487B
:100B900080ED000A404890ED000A3B48D0ED000A85
:100BA0003B4890ED001A00EE810A3B4880ED000AB8
:100BB000224890ED000A3948D0ED000A304890ED07
:100BC000001A00EE810A3148D0ED000A30EE200A0A
:100BD0001A4880ED000A1A4890ED000A2F48D0ED1F
:100BE000000A284890ED001A00EE810A2948D0ED4D
:100BF000000A30EE200A124880ED000A114890EDFC
:100C0000000A2648D0ED000A1F4890ED001A00EEB9
:100C1000810A2148D0ED000A30EE200A094880ED13
:100C2000000A124890ED000A1D4880ED000A0D48A8
:100C300090ED000A1B4880ED000A35E0C00200205C
:100C4000C4020020C8020020CC020020D0020020F4
:100C5000D4020020280B00200000FA44728A8E3C47
:100C6000A4020020DC020020E4020020D8020020C0
:100C7000E0020020A8020020AC020020B002002008
:100C8000B4020020B8020020BC020020E8020020CC
:100C90009C020020EC020020F002002098020020BC
:100CA000F4020020F8020020EA4890ED000AEA4829
:100CB00080ED000AE94890ED000AE94880ED000A5D
:100CC000E84890ED000AB1EE400AE748D0ED000A8E
:100CD00020EE200AE048D0ED000AE44890ED001A2A
:100CE00000EEC10ADE48D0ED000AE14890ED001A9E
:100CF00000EEC10ADF4890ED001ADF48D0ED000A8F
:100D000040EE010ADD48C0ED000ADB4890ED000A24
:100D1000D548D0ED000A20EE200ACF48D0ED000AD9
:100D2000D34890ED001A00EE810ACD48D0ED000ABC
:100D3000CE4890ED001A00EEC10ACE4890ED001AA0
:100D4000C848D0ED000A40EE010ACD48C0ED000AC7
:100D5000C94890ED000AC548D0ED000A20EE200AEF
:100D6000C048D0ED000AC24890ED001A00EEC10A5A
:100D7000BB48D0ED000ABC4890ED001A00EE810A95
:100D8000BC4890ED001AB448D0ED000A40EE010ACC
:100D9000B048C0ED000AB84890ED000AB448D0ED64
:100DA000000A20EE200AAF48D0ED000AAF4890EDCF
:100DB000001A00EE810AA848D0ED000AAA4890ED7A
:100DC000001A00EEC10AAB4890ED001AA448D0ED1D
:100DD000000A40EE010AA148C0ED000AA748D0ED84
:100DE000000A60EEA00AA64890ED001AD0ED001AA5
:100DF00041EE210A974890ED001AD0ED001A41EE1D
:100E0000210A964890ED001AD0ED001A41EE210A11
:100E1000B0EE600A07F086FA9A4880ED000A97481B
:100E200090ED000A9748D0ED000A20EE200A934882
:100E300080ED000A924890ED000A9248D0ED000A39
:100E400020EE200A8E4880ED000A824890ED000ACC
:100E50008C48D0ED000A20EE200A7E4880ED000A82
:100E60007E4890ED000A8748D0ED000A20EE200A67
:100E70007A4880ED000A814890ED000A20EE000AD1
:100E80007F48D0ED000A90ED001A00EEC10A7148CB
:100E9000D0ED000A90ED001A00EEC10A6F48D0EDC7
:100EA000000A90ED001A00EE810A10EE101A0846B2
:100EB0000BF06EFE41EC1A0B664890ED000AF0EE66
:100EC000000A20EE200A6548D0ED000A20EE200A34
:100ED0006A48D0ED000AB0EE001A60EE810A684858
:100EE00090ED001A00EE810A10EE101A08460BF081
:100EF0004FFE41EC1B0BB0EE4A1AF0EE6A1AB0EE50
:100F00004B0AF0EE6B0A04F033FCB0EE409AF0EEC0
:100F1000609A9FED5D0B53EC102B51EC190B0BF00D
:100F200077FB41EC180B0BF0E1F82860544890ED8A
:100F3000000AF0EE000A20EE200A4848D0ED000A30
:100F400020EE200A4D48D0ED000AB0EE001A60EE07
:100F5000810A404890ED001A00EEC10A10EE101A06
:100F600008460BF015FE41EC1B0BB0EE4B0AF0EE01
:100F70006B0A04F0E1F8B0EE40AAF0EE60AA51EC82
:100F80001A0B0BF0A7F841EC190B9FED3F0B53EC3C
:100F9000102B0BF03DFB41EC180B0BF0A7F8206079
:100FA000364890ED000A20EE000A3548D0ED000AE0
:100FB00090ED001A00EE810A2648D0ED000A90ED6F
:100FC000001A00EEC10A2548D0ED000A90ED001A83
:100FD00000EEC10A10EE101A08460BF0D9FD41ECE4
:100FE0001A0B274890ED000A1A48D0ED000A20EEAF
:100FF000200A2248D0ED000A184890ED001A00EEB1
:10100000810AF0EE000A20EE200A10EE101A0846BF
:101010000BF0BEFD41EC1B0BB0EE4A1AF0EE6A1A63
:10102000B0EE4B0AF0EE6B0A04F0A2FBB0EE409A71
:10103000F0EE609A9FED140B53EC102B51EC190B52
:101040000BF0E6FA41EC180B0BF050F83060002082
:1010500040E40000E0020020FC020020E402002046
:1010600000030020F8020020C0020020C40200207B
:10107000C8020020A0020020F4020020D8020020B4
:10108000DC020020A40200200000006066A64C40A4
:1010900070B586B004460D461646122002F0F8FFE1
:1010A000ADF81000132002F0F3FFADF81200BDF808
:1010B0001000BDF8121040EA012000B2ADF8140093
:1010C000142002F0E5FFADF80800152002F0E0FF63
:1010D000ADF80A00BDF80800BDF80A1040EA01208A
:1010E00000B2ADF80C00162002F0D2FFADF80000FF
:1010F000172002F0CDFFADF80200BDF80000BDF8EA
:10110000021040EA012000B2ADF80400BDF814005E
:101110002080BDF80C002880BDF80400308006B0A7
:1011200070BD2DE9F04387B004460D4616461F46B4
:10113000DDE90E890C2204A9104602F0D3FF9DF8C8
:1011400010009DF8111040EA012000B2ADF8040033
:101150009DF812009DF8131040EA012000B2ADF88E
:1011600006009DF814009DF8151040EA012000B219
:10117000ADF808009DF816009DF8171040EA012010
:1011800000B2ADF80A009DF818009DF8191040EA69
:10119000012000B2ADF80C009DF81A009DF81B105C
:1011A00040EA012000B2ADF80E00BDF8040038801E
:1011B000BDF80600A8F80000BDF80800A9F8000076
:1011C000BDF80A002080BDF80C002880BDF80E0094
:1011D000308007B0BDE8F08338B51C4805F04AF808
:1011E0000446204604F0B2FC184804F079FC04469A
:1011F000204604F0ABFC34BB01200090134A0121CF
:10120000684605F0E9F80446204604F09FFC0F48C4
:1012100003F00DFB002000900C4A0121684605F008
:10122000DBF80446204604F091FC084803F0D2FAAB
:1012300002200090054A0121684605F0CDF80446D9
:10124000204604F083FC204638BD0000280B002017
:1012500000BFFEE710B5024800F054FD10BD0000CD
:10126000D805002010B5024800F04CFD10BD00006C
:101270000006002001464A780B7842EA03207047B6
:101280000146CA788B7842EA032210B270470146C1
:101290004A790B7942EA032210B2704701468879F5
:1012A000704713B50446012201A9204600F01AF840
:1012B0001CBD38B505460C4620128DF80000E0B282
:1012C0008DF8010002226946284600F00BF838BD6F
:1012D00070B504460D46164632462946204600F0B3
:1012E00001F870BD2DE9F04104460E461746002571
:1012F000A846607810B9DFF8448007E060780128DC
:1013000002D1DFF83C8001E0BDE8F0814046A168F1
:1013100000F08DF8054625B92146404600F03CF81E
:101320000546237B3A463146284600F00BF8E18912
:10133000284600F0EFF800BFE6E70000280C002088
:10134000440C0020F0B5044604B9F0BD002009E0CB
:101350001D18082D00DB07E00E5C1F18251DEE553B
:10136000451CE8B29042F3DB00BF00BFEDE738B5A3
:1013700005460C46200E8DF80000200C8DF801006B
:10138000200A8DF80200E0B28DF8030004226946BD
:101390002846FFF7A7FF38BD70B504460E462568FE
:1013A0001DB316B300E0AD69A8690028FBD11C206D
:1013B00007F0EEFAA861B068A9690860F089A96928
:1013C00088810020A969086100BF05E00022A969A1
:1013D000091D0A54411CC8B20828F7DB0020A9697E
:1013E0008861A8694461AD691CE01C2007F0D0FA4F
:1013F0002060B06821680860F08921688881002039
:101400002168086100BF05E000222168091D0A5417
:10141000411CC8B20828F7DB0020216888612068D9
:10142000446125682079401C2071284670BD10B5A4
:1014300002460023106805E004688C4201D10123B4
:1014400002E080690028F7D100BF03B9002010BD79
:1014500070B504460D462946204600F001F870BDDF
:1014600070B588B004460D460126A06801900020A2
:101470000390049008200590607838B907AB2A469D
:1014800001A9094800F043FA064609E060780128FE
:1014900006D107AB2A4601A9044800F038FA0646EF
:1014A000304608B070BD0000D805002000060020BE
:1014B0002DE9F04389B081460E4614461D46DDE90C
:1014C0001078039600200590069008200790200AC7
:1014D0008DF80400E0B28DF80500280A8DF80600AA
:1014E000E8B28DF80700380A8DF80800F8B28DF8D8
:1014F00009004FEA18208DF80A0008F0FF008DF867
:101500000B006B4601AA03A9484600F000FA09B097
:10151000BDE8F08382898A4200DD81817047000046
:1015200000B58BB0002005900120099000200790A5
:1015300001200890002001900290039004900690F2
:101540000E200A9001A90C4800F08CFA0A4800F01D
:101550009EFE0221084800F0C5F90E20069001A960
:10156000064800F07FFA054800F091FE022103488A
:1015700000F0B8F90BB000BDD8050020000600202F
:10158000026802B110B902224276704701680A7DF2
:10159000521C0A750A7D4B7D9A4204DD4A7D0A750C
:1015A0000122027604E0027E012A01D100220276A5
:1015B00000BFEAE7026802B110B902224276704722
:1015C00001680A7D521C0A750A7D4B7D9A4204DD32
:1015D0004A7D0A750122027604E0027E012A01D1C9
:1015E0000022027600BFEAE770B52DED048B0446B9
:1015F000206800B124B902206076BDEC048B70BD78
:10160000256828882989401A00B26881B5F90A003E
:10161000B0F5805F06DD6889A0F5F850FF3800B2AC
:1016200068810AE0B5F90A0010F5805F05DA68897B
:1016300041F6FF71084400B268812068008800B25A
:10164000216808812068C0682168B1F90A1008443F
:101650002168C8602168C8680AF0C2FF41EC190B14
:101660009FED090B53EC102B0AF0D2FF41EC180B45
:101670000AF03CFD00EE100A206880ED040A00200C
:101680002168087500BFB8E7000000000000543F63
:1016900070B52DED048B0446206800B124B90220FA
:1016A0006076BDEC048B70BD256828882989401AB6
:1016B00000B26881B5F90A00B0F5805F06DD68897F
:1016C000A0F5F850FF3800B268810AE0B5F90A00C9
:1016D00010F5805F05DA688941F6FF71084400B2B1
:1016E00068812068008800B2216808812068C0688D
:1016F0002168B1F90A1008442168C8602168C868E7
:101700000AF06EFF41EC190B9FED090B53EC102B07
:101710000AF07EFF41EC180B0AF0E8FC00EE100A1C
:10172000206880ED040A00202168087500BFB8E732
:101730006BAAA1BC86F2623F10B5034A106812681A
:101740009168884710BD0000A800002010B502482D
:1017500000F03EFE10BD00003C08002010B502481D
:1017600000F036FE10BD00001C0A002010B5024833
:1017700000F02EFE10BD00007C07002010B50248CE
:1017800000F026FE10BD00007C0A002010B50248C3
:1017900000F01EFE10BD0000DC07002010B502485E
:1017A00000F016FE10BD0000BC09002010B5024874
:1017B00000F00EFE10BD00009C08002010B502488D
:1017C00000F006FE10BD0000FC08002010B5024825
:1017D00000F0FEFD10BD00005C0900200146087805
:1017E00010381823B0FBF3F20848805CC865032A60
:1017F00005D908686FF30900001D886503E00868D3
:101800006FF309008865886D704700005FED000880
:10181000014600208A6A8B69CBB932B1012A0DD00A
:10182000022A03D0032A10D10EE000BFCB6A03F0D6
:101830008073B3F1807F00D1012007E0CB6AB3F160
:10184000C07F00D1012001E000E000BF34E08B69DF
:10185000B3F5005F1AD132B1012A07D0022A03D0B2
:10186000032A11D10AE000BF01200EE0CB6A03F089
:101870008073B3F1807F00D1012006E0CB6AB3F121
:10188000C07F00D1012000E000BF15E032B1012A85
:1018900005D0022A04D0032A0CD103E000BF00BF08
:1018A000012008E0CB6A03F08073B3F1807F00D1A0
:1018B000012000E000BF00BF704710B5044620685B
:1018C000006800F01000102807D12068C06800F000
:1018D000100010B1204609F0B1FD10BD704772B67E
:1018E00000BFFEE710B5024692F82030012B01D070
:1018F000022B06D11068406908431468606100201B
:1019000010BD506A40F4802050620120F8E7F0B525
:1019100004460D461E4694F8207020688368A86827
:1019200000B900E000BF012F01D0022F7CD103F0ED
:10193000806030B903F0006018B903F080500028CF
:1019400073D0C3F30161022905D9606A40F4000035
:1019500060620120F0BD012088403060A86860B955
:10196000B5F800C0E86840EA4C5C206800F5C0703B
:1019700000EB0110C0F800C00FE0D5E901C040EA5B
:10198000CC00D5F80CC040EA0C00D4F800C00CF52F
:10199000C07C0CEB011CCCF80000D5F810C020680E
:1019A00000F5C07000EB0110C0F804C0287D0128CC
:1019B0000ED1206800F5C07000EB0110406840F4C3
:1019C000807C206800F5C07000EB0110C0F804C0F6
:1019D000D079000692F806C040EA0C4092F805C0A3
:1019E00040EA0C2C10794CEA000C206800F5C0701D
:1019F00000EB0110C0F80CC0D078000692F802C0CD
:101A000040EA0C4092F801C040EA0C2092F800C075
:101A100040EA0C00D4F800C00CF5C07C0CEB011CB3
:101A2000CCF80800206801E016E00FE000F5C07077
:101A300000EB0110006840F0010C206800F5C07058
:101A400000EB0110C0F800C0002083E7606A40F49A
:101A50000010606201207DE7606A40F480206062CF
:101A6000012077E7F0B504460A46216894F8205033
:101A7000012D01D0022D7ED1424901F50071086887
:101A800040F001000860086820F47C500860086895
:101A9000566A40EA06200860107D00F01F0601200B
:101AA00000FA06F3C8699843C861A1F50071D069CE
:101AB000C8B9D1F80C029843C1F80C02908880B2E2
:101AC000968940EA064601F51070576940F837607C
:101AD000108880B2168940EA064601F510705769F1
:101AE00000EBC7004660D069012819D1D1F80C027B
:101AF0001843C1F80C02908880B2168840EA064666
:101B000001F51070576940F83760908980B21689E6
:101B100040EA064601F51070576900EBC7004660C1
:101B2000906928B9D1F804029843C1F8040204E08E
:101B3000D1F804021843C1F80402106928B9D1F899
:101B400014029843C1F8140204E0D1F814021843B7
:101B5000C1F81402106A012804D1D1F81C021843FC
:101B6000C1F81C02D1F8000220F00100C1F8000207
:101B70000020F0BDFFE7606A40F480206062012031
:101B8000F7E7000000640040704770B5044694F821
:101B90002050012D01D0022D7DD151B92068C0689F
:101BA00000F0030080B9606A40F400106062012018
:101BB00070BD2068006900F0030028B9606A40F435
:101BC000001060620120F3E7206800F5D87000EB98
:101BD0000110006800F004009060906840B920682F
:101BE00000F5D87000EB01100068400D106007E0B0
:101BF000206800F5D87000EB01100068C008506044
:101C0000206800F5D87000EB0110006800F00200B9
:101C1000D060206800F5D87000EB0110406800F03B
:101C20000F001061206800F5D87000EB01104068CB
:101C300000F47F40000A9061206800F5D87000EB46
:101C400001104068000C5061206800F5D87000EB6E
:101C5000011080681870206800F5D87000EB011042
:101C6000806800F47F40000A5870206800F5D87042
:101C700000EB0110806800F47F00000C9870206871
:101C800000F5D87000EB01108068000ED870206855
:101C900000F5D87000E02FE000EB0110C06818716B
:101CA000206800F5D87000EB0110C06800F47F4098
:101CB000000A5871206800F5D87000EB0110C06868
:101CC00000F47F00000C9871206800F5D87000EBDC
:101CD0000110C068000ED87131B92068C06840F0AA
:101CE00020002668F06005E02068006940F02000D0
:101CF0002668306100205BE7606A40F48020606203
:101D0000012055E72DE9F05F04460025206846696B
:101D10002068D0F80490206887682068D0F80CA06C
:101D20002068D0F810B02068D0F8188006F00100C4
:101D3000002855D007F00100C0B10120216888605B
:101D400007F0020018B1204600F0D1FA0EE007F0CB
:101D5000040010B145F4006508E007F0080010B178
:101D600045F4805502E0204600F0C0FA07F4807088
:101D7000C8B14FF480702168886007F4007018B112
:101D8000204600F0B6FA0EE007F4806010B145F48A
:101D9000005508E007F4006010B145F4804502E00A
:101DA000204600F0A5FA07F48030C8B14FF4803027
:101DB0002168886007F4003018B1204600F09BFAD3
:101DC0000EE007F4802010B145F4004508E007F468
:101DD000002010B145F4803502E0204600F08AFA78
:101DE00006F0080038B10AF0100020B145F4007583
:101DF00010202168C86006F0040040B10AF0080015
:101E000028B108202168C860204600F00DFA06F0CD
:101E1000020038B12068C06800F0030010B120460D
:101E200000F004FA06F0400038B10BF0100020B1C9
:101E300045F4806510202168086106F0200040B15B
:101E40000BF0080028B1082021680861204600F046
:101E50001BFA06F0100038B12068006900F003009A
:101E600010B1204600F011FA06F4003040B109F03C
:101E7000100028B1102021684860204600F006FAC2
:101E800006F4803040B109F0080028B1082021682C
:101E90004860204600F030FA06F4004088B309F0AC
:101EA000040078B306F4807020B108F0010008B196
:101EB00045F0010506F4007020B108F0020008B1F9
:101EC00045F0020506F4806020B108F0040008B176
:101ED00045F0040506F40060A0B108F0700088B178
:101EE00008F07000402817D006DC10280BD02028FE
:101EF0000CD0302819D10CE0502810D0602814D113
:101F000010E01DE019E045F008050FE045F0100570
:101F10000CE045F0200509E045F0400506E045F0FD
:101F2000800503E045F4807500E000BF00BF206835
:101F3000806920F070002168886104202168486071
:101F40002DB1606A284360622046FFF71DFEBDE8A0
:101F5000F09F70B504460CB9012070BD94F82000C4
:101F600010B9204600F0B0F82068006840F0010089
:101F70002168086000F0C2FC05460DE000F0BEFCE0
:101F8000401B0A2808D9606A40F4003060620520CE
:101F900084F820000120E0E72068406800F001009C
:101FA0000028EBD02068006820F00200216808605B
:101FB00000F0A4FC05460DE000F0A0FC401B0A2840
:101FC00008D9606A40F400306062052084F820007F
:101FD0000120C2E72068406800F002000028EBD131
:101FE000207E012806D12068006840F0800021682A
:101FF000086005E02068006820F080002168086023
:10200000607E012806D12068006840F04000216809
:10201000086005E02068006820F040002168086042
:10202000A07E012806D12068006840F020002168C9
:10203000086005E02068006820F020002168086042
:10204000E07E012806D12068006820F01000216899
:10205000086005E02068006840F010002168086012
:10206000207F012806D12068006840F00800216820
:10207000086005E02068006820F00800216808601A
:10208000607F012806D12068006840F004002168C4
:10209000086005E02068006820F0040021680860FE
:1020A000D4E9020108432169084361690843616872
:1020B000491E08432168C86100206062012084F83D
:1020C0002000002049E7000010B586B00446142126
:1020D00001A8FEF76EFA4E492068884241D14D486A
:1020E0000068401C4B4908600846006801280FD171
:1020F00000BF002000904848006840F0007046494A
:1021000008600846006800F00070009000BF00BF43
:1021100000BF0020009040481038006840F00800E0
:102120003D49103908600846006800F0080000903A
:1021300000BF00BF03200190022002900020039006
:10214000032004900920059001A9344800F0D6FA34
:1021500000220521142000F0A7FC142000F090FCC0
:1021600054E02F492068884250D100BF00200090E1
:102170002948006840F080602749086008460068E8
:1021800000F08060009000BF00BF22480068401C43
:10219000204908600846006801280FD100BF0020D0
:1021A00000901D48006840F000701B490860084618
:1021B000006800F00070009000BF00BF00BF00206A
:1021C000009015481038006840F00200124910399C
:1021D00008600846006800F00200009000BF00BFE1
:1021E00060200190022002900020039003200490C0
:1021F0000920059001A90B4800F080FA0022052172
:10220000402000F051FC402000F03AFC06B010BD28
:10221000006400401400002040380240000C0240DE
:1022200000680040000402407047000010B58AB00A
:10223000044601AB03AA00212046FFF7A6FC039841
:10224000A0F22310A0B1DE2802D0E22814D107E0CA
:102250000B4801A9C26890470948016988470CE00A
:10226000084801A9C268904706480169884704E008
:1022700001A806F06FFC00E000BF00BF0AB010BD6F
:10228000E0010020EC00002070477047704770B5F7
:10229000044694F82000012822D1022084F820006E
:1022A0002068006820F001002168086000F026FB2B
:1022B00005460DE000F022FB401B0A2808D9606AA1
:1022C00040F400306062052084F82000012070BDD9
:1022D0002068406800F001000028EBD16062F6E75A
:1022E000606A40F4002060620120F0E770477047A8
:1022F0007047704770477047704770B50446A56DCA
:1023000000F0FCFA064694F83500022808D0802038
:10231000606500BF002084F8340000BF012070BD5C
:102320002068006820F01600216808602068406975
:1023300020F0800021684861206C08B9A06C28B1A9
:102340002068006820F008002168086020680068A4
:1023500020F001002168086010E000F0CFFA801B37
:1023600005280BD920206065032084F8350000BFC4
:10237000002084F8340000BF0320D0E72068006804
:1023800000F001000028E8D194F85C103F2088405C
:10239000A860012084F8350000BF002084F83400D4
:1023A00000BF00BFBBE7014691F83500022803D00B
:1023B0008020486501207047052081F835000868B5
:1023C000006820F001000A6810600020F3E70000B8
:1023D000F8B50446002000908C4800684FF4165170
:1023E000B0FBF1F7A56D2E6894F85C1008208840CA
:1023F000304098B12068006800F0040070B1206897
:10240000006820F004002168086094F85C1008203F
:102410008840A860606D40F00100606594F85C1031
:1024200001208840304068B12068406900F0800099
:1024300040B194F85C1001208840A860606D40F0C5
:102440000200606594F85C1004208840304068B158
:102450002068006800F0020040B194F85C1004208D
:102460008840A860606D40F00400606594F85C10DE
:1024700010208840304078B32068006800F00800E1
:1024800050B394F85C1010208840A8602068006861
:1024900000F4802080B12068006800F4002028B992
:1024A000206CC8B12046216C884715E0A06C98B11B
:1024B0002046A16C88470FE02068006800F4807017
:1024C00028B92068006820F0080021680860206CA6
:1024D00010B12046216C884794F85C102020884079
:1024E0003040002865D02068006800F01000002807
:1024F0005FD094F85C1020208840A86094F83500E4
:10250000052828D12068006820F01600216808609E
:102510002068406920F0800021684861206C08B97B
:10252000A06C28B12068006820F0080021680860CD
:1025300094F85C103F208840A860012084F83500A2
:1025400000BF002084F8340000BF206D10B1204689
:10255000216D8847F8BD2068006800F4802080B1B4
:102560002068006800F4002028B9606C10B1204693
:10257000616C88471DE0E06BD8B12046E16B88476D
:1025800017E02068006800F4807068B9206800686F
:1025900020F0100021680860012084F8350000BF99
:1025A000002084F8340000BFE06B10B12046E16BDE
:1025B0008847606D38B3606D00F00100F0B1052010
:1025C00084F835002068006820F001002168086068
:1025D00000BF0098401C0090B84200D905E0206878
:1025E000006800F001000028F3D100BF012084F84A
:1025F000350000BF002084F8340000BFE06C10B14B
:102600002046E16C884700BFA4E7000018030020C3
:102610002DE9F0410446002500F070F9074614B991
:102620000120BDE8F081606A00B100BF022084F89B
:10263000350000BF002084F8340000BF2068006827
:1026400020F00100216808600AE000F057F9C01B83
:10265000052805D920206065032084F83500E0E7CF
:102660002068006800F001000028EED120680568AD
:1026700021480540D4E901010843E1680843216984
:10268000084361690843A1690843E1690843216A75
:1026900008430543606A042803D1D4E90B010843C9
:1026A0000543206805602068456925F00705606AD4
:1026B0000543606A04280DD1A06A0543E06A48B169
:1026C0002046FFF7A5F828B140206065012084F876
:1026D0003500A6E7206845612046FFF77FF80646EB
:1026E00094F85C103F208840B060002060650120B5
:1026F00084F83500002094E73F8010F0F8B50246DA
:102700000B460025002400200021D6E0012606FA11
:1027100001F51E6806EA0504AC4274D11E7906F084
:102720000306012E04D01E7906F00306022E13D1F3
:1027300090684F000326BE40B0434F00DE68BE40A5
:1027400030439060506801268E40B0431E79C6F336
:1027500000168E40304350601E7906F00306032EAB
:1027600009D0D0684F000326BE40B0434F009E689A
:10277000BE403043D0601E7906F00306022E13D10E
:10278000CF0802F1200656F827004E07F70E0F2655
:10279000BE40B0434F07FF0E1E69BE403043CF0816
:1027A00002F1200646F8270010684F000326BE40BD
:1027B000B0431E7906F003064F00BE403043106060
:1027C0005E6806F44036002E76D000BF00260096E4
:1027D0003C4E366846F480463A4F3E603E46366888
:1027E00006F48046009600BF00BF374E8F0856F8AB
:1027F00027008E07370F0F26BE40B043334EB2423C
:1028000002D1002624E057E0314EB24201D1012628
:102810001EE0304EB24201D1022619E02E4EB242E5
:1028200001D1032614E02D4EB24201D104260FE05F
:102830002B4EB24201D105260AE02A4EB24201D106
:10284000062605E0284EB24201D1072600E0082600
:102850008F073F0FBE4030431B4E8F0846F82700BE
:10286000224E3068A0435E6806F4801606B120430D
:102870001E4E3060361D3068A0435E6806F40016B8
:1028800006B12043194E361D3060184E361F306891
:10289000A0435E6806F4003606B12043134E361F8F
:1028A0003060361F3068A0435E6806F4803606B19B
:1028B00020430E4E083E3060491C1029FFF426AF1D
:1028C000F8BD0000443802400838014000000240D2
:1028D0000004024000080240000C024000100240C8
:1028E0000014024000180240001C0240083C014055
:1028F0000AB1816101E00B048361704701480068FF
:10290000704700000C030020094800680949097855
:102910000844074908604FF08040406A096801EBAD
:102920004102C2EBC11100EBC100034908607047CE
:102930000C030020140300200803002010B50D48EC
:10294000006840F400700B4908600846006840F4D5
:10295000806008600846006840F4807008600320CA
:1029600000F0E0F80F2000F007F800F05FF800201A
:1029700010BD0000003C02402DE9F04188B0044643
:102980000027B84600BF002001902448006840F0AE
:102990000100224908600846006800F0010001902B
:1029A00000BF00BF02A903A800F092F9069F1FB95B
:1029B00000F0B6F9054602E000F0B2F9450018480B
:1029C000B5FBF0F0A0F101084FF080401549086018
:1029D00040F2E7311348C160C0F804800021016172
:1029E0008160816100F064FC064696B90D4800F0F4
:1029F00093FC06466EB91C2000F042F8102C07D25A
:102A0000002221461C2000F04FF80748046000E037
:102A10000126304608B0BDE8F08100004038024091
:102A200040420F00DC0A00201003002008B500BF60
:102A3000002000901148006840F480400F49086071
:102A40000846006800F48040009000BF00BF00BF4F
:102A500000200090081F006840F08050091F0860A7
:102A60000846006800F08050009000BF00BF0022C0
:102A70000F21901E00F018F808BD000044380240F5
:102A80000146084600280DDB00BF00BF00F01F0311
:102A900001229A4043099B0003F1E023C3F800217F
:102AA00000BF00BF00BF70472DE9F05F80460D46B4
:102AB0001646002702F024FB074639462A463346CD
:102AC00001F00700C0F1070ABAF1040F02D94FF074
:102AD000040A01E0C0F1070AD14600F1040ABAF184
:102AE000070F02D24FF0000A01E0A0F1030AD4461A
:102AF0004FF0010A0AFA09FAAAF1010A0AEA020ADF
:102B00000AFA0CFA4FF0010B0BFA0CFBABF1010BBC
:102B10000BEA030B4AEA0B042146404602F0F8FA9E
:102B2000BDE8F09F00BF00F00702064B19684FF6A2
:102B3000FF031940044B0B4343EA0221014B196088
:102B400000BF70470CED00E00000FA0570B50446C8
:102B50000D460CB9012070BD5848006800F0070010
:102B6000A84209D255490D700846006800F00700D8
:102B7000A84201D00120EEE7207800F002000228F0
:102B80001DD1207800F00400042805D14C480068CD
:102B900040F4E0504A490860207800F00800082816
:102BA00005D14748006840F4604045490860444802
:102BB000006820F0F000A1680843414908602078CF
:102BC00000F00100A8B36068012807D13C4808382C
:102BD0000068C0F34040B8B90120BCE76068022833
:102BE00002D06068032807D1354808380068C0F370
:102BF000406048B90120AEE7314808380068C0F3AA
:102C0000400008B90120A6E72D48006820F0030025
:102C1000616808432A490860FFF770FE064609E02C
:102C2000FFF76CFE801B41F28831884202D90320F5
:102C300091E707E02248006800F00C006168B0EB03
:102C4000810FEDD11D48006800F00700A84209D9A6
:102C50001A490D700846006800F00700A84201D02C
:102C6000012078E7207800F00400042807D11448F8
:102C7000006820F4E050E1680843114908602078BA
:102C800000F00800082808D10D48006820F46040D2
:102C9000216940EAC1000A49086000F061F808496A
:102CA0000968C1F30311074A515CC840064908602E
:102CB00006480068FFF760FE00204CE7003C024039
:102CC0000838024067ED00081803002010030020B8
:102CD0000F2202600D4A126802F0030242600B4AA2
:102CE000126802F0F0028260084A126802F4E052B0
:102CF000C260064A126802F46042D2080261044AC5
:102D0000126802F007020A607047000008380240AB
:102D1000003C024001480068704700001803002092
:102D200000B5FFF7F7FF04490968C1F38221034AA0
:102D3000515CC84000BD00000838024077ED000833
:102D400000B5FFF7E7FF04490968C1F34231034AC0
:102D5000515CC84000BD00000838024077ED000813
:102D60002DE9F047002400250026A14625480068EB
:102D700000F00C0020B1042805D008283AD105E065
:102D8000DFF8849039E0DFF8849036E01D48001FBA
:102D9000006800F03F041B48001F006800F480003A
:102DA00078B11A481749091F0968C1F38811A0FBB7
:102DB00001700146224600233846FDF72FFB0546E9
:102DC0000EE011480F49091F0968C1F38811A0FBE3
:102DD00001700146224600233846FDF71FFB0546D9
:102DE0000848001F0068C0F30140401C4600B5FBC6
:102DF000F6F902E0DFF8109000BF00BF4846BDE8DA
:102E0000F0870000083802400024F40040787D017B
:102E1000F8B504460CB90120F8BD207800F0010097
:102E2000002874D0F948006800F00C0004280DD088
:102E3000F648006800F00C00082813D1F348001F82
:102E4000006800F48000B0F5800F0BD1EF4808381F
:102E50000068C0F34040002859D06068002856D16F
:102E60000120D9E700BF6068B0F5803F08D1E7488E
:102E70000838006840F48030E449083908601EE0F2
:102E80006068B0F5A02F0DD1E0480838006840F424
:102E90008020DE49083908600846006840F4803028
:102EA00008600CE0D9480838006820F48030D74921
:102EB000083908600846006820F48020086000BFD8
:102EC000606890B1FFF71AFD054606E0FFF716FDB2
:102ED000401B642801D903209EE7CC4808380068CD
:102EE000C0F340400028F1D011E0FFF707FD054690
:102EF00006E0FFF703FD401B642801D903208BE7A0
:102F0000C24808380068C0F340400028F1D120785A
:102F100000F0020002285FD1BC48006800F00C00FD
:102F200058B1BA48006800F00C0008281CD1B74816
:102F3000001F006800F48000B0B9B4480838006889
:102F4000C0F3400020B1E068012801D0012063E710
:102F5000AE480838006820F0F800216940EAC10056
:102F6000AA490839086037E0E06800B30120A849A1
:102F70000860FFF7C3FC054606E0FFF7BFFC401BF7
:102F8000022801D9032047E7A04808380068C0F3A9
:102F900040000028F1D09D480838006820F0F80073
:102FA000216940EAC10099490839086014E000200D
:102FB00097490860FFF7A2FC054606E0FFF79EFC74
:102FC000401B022801D9032026E7904808380068F2
:102FD000C0F340000028F1D1207800F00800082854
:102FE0002CD16069A8B101208A490860FFF786FCEE
:102FF000054606E0FFF782FC401B022801D90320AA
:103000000AE782486C300068C0F340000028F1D025
:1030100014E000207F490860FFF770FC054606E0D9
:10302000FFF76CFC401B022801D90320F4E6774827
:103030006C300068C0F340000028F1D1207800F027
:103040000400042870D1002770483830006800F070
:10305000805090B900BF002000906C483830006864
:1030600040F080506949383108600846006800F037
:103070008050009000BF00BF01276748006800F43F
:103080008070B0B96448006840F48070624908609C
:10309000FFF734FC054606E0FFF730FC401B022832
:1030A00001D90320B8E65C48006800F4807000286D
:1030B000F2D000BFA068012808D1544868300068E9
:1030C00040F001005149683108601DE0A068052802
:1030D0000DD14E486830006840F004004B4968311B
:1030E00008600846006840F0010008600CE04748AE
:1030F0006830006820F001004449683108600846E3
:10310000006820F00400086000BFA068A8B1FFF7C5
:10311000F5FB054609E0FFF7F1FB401B41F2883162
:10312000884202D9032077E626E0384868300068F4
:10313000C0F340000028EED013E0FFF7DFFB0546A8
:1031400008E0FFF7DBFB401B41F28831884201D9E0
:10315000032061E62D4868300068C0F34000002875
:10316000EFD1012F07D129483830006820F0805076
:1031700026493831086000BFA069002845D023489F
:10318000006800F00C0008285DD0A069022845D135
:1031900000201F490866FFF7B1FB054606E0FFF770
:1031A000ADFB401B022801D9032035E6174808383B
:1031B0000068C0F340600028F1D1D4E9070108435A
:1031C000616A40EA81110122A06AC2EB500041EA23
:1031D00000412C20005D41EA00600C49091F086095
:1031E00001200B490866FFF789FB054606E0FFF75B
:1031F00085FB401B022801D903200DE6034808384F
:103200000068C0F340600028F1D049E0083802406F
:1032100000004742800E47420070004000202149D4
:103220000866FFF76BFB054606E0FFF767FB401BF0
:10323000022801D90320EFE51B480068C0F3406075
:103240000028F2D12CE0A069012800D1E4E516485D
:10325000001D0668A069012820D006F48001E069FD
:1032600081421BD106F03F01206A814216D147F608
:10327000C0703040616AB0EB811F0FD106F440315D
:103280000122A06AC2EB5000B1EB004F06D106F05C
:1032900070612C20005DB1EB006F01D00120BBE517
:1032A0000020B9E5000047420038024070477047EF
:1032B00010B504460CB9012010BD94F83D0028B9A2
:1032C000002084F83C00204600F025F8022084F815
:1032D0003D00211D206801F00BFC012084F8460010
:1032E00000BF84F83E0001213F20015540200155D8
:1032F0004120015500BF00BF012084F84200432057
:103300000155442001554520015500BF012084F896
:103310003D000020D0E77047014691F83D000128AC
:1033200001D001207047022081F83D000868C06884
:1033300040F001000B68D8601A4B086898421BD017
:103340000868B0F1804F17D0174B0868984213D027
:10335000164B086898420FD0154B086898420BD05E
:10336000144B0868984207D0134B0868984203D062
:10337000124B086898420CD10868806800F0070278
:10338000062A0CD00868006840F001000B6818603D
:1033900005E00868006840F001000B681860002034
:1033A000C0E70000000001400004004000080040A9
:1033B000000C0040000401400040014000180040A3
:1033C000704710B5044620680069C0F34000D8B1CA
:1033D0002068C068C0F34000B0B16FF002002168FF
:1033E0000861012020772068806900F0030018B18F
:1033F0002046FFF7E5FF05E0204600F0ADF8204647
:1034000000F0ABF80020207720680069C0F380004E
:10341000D8B12068C068C0F38000B0B16FF004007C
:1034200021680861022020772068806900F44070DC
:1034300018B12046FFF7C4FF05E0204600F08CF8E5
:10344000204600F08AF80020207720680069C0F349
:10345000C000D8B12068C068C0F3C000B0B16FF040
:10346000080021680861042020772068C06900F006
:10347000030018B12046FFF7A3FF05E0204600F047
:103480006BF8204600F069F800202077206800697A
:10349000C0F30010D8B12068C068C0F30010B0B10C
:1034A0006FF0100021680861082020772068C0694B
:1034B00000F4407018B12046FFF782FF05E0204677
:1034C00000F04AF8204600F048F8002020772068F5
:1034D000006900F0010058B12068C06800F00100E8
:1034E00030B16FF0010021680861204600F036F825
:1034F00020680069C0F3C01058B12068C068C0F3EC
:10350000C01030B16FF08000216808612046FFF7DD
:10351000CDFE20680069C0F3801058B12068C068F3
:10352000C0F3801030B16FF0400021680861204680
:1035300000F01DF820680069C0F3401058B1206801
:10354000C068C0F3401030B16FF0200021680861FE
:103550002046FFF7ACFE10BD7047704710B504461B
:103560002068B0F1804F01D1FFF7CEF910BD704750
:10357000704770472DE9F84F0446206805682068B9
:10358000C668206847694FF00009CA4605F00F0970
:10359000B9F1000F0AD105F0200038B106F0200083
:1035A00020B1204601F074FBBDE8F88FB9F1000F9F
:1035B0007CD007F0010018B906F49070002875D08F
:1035C00005F0010030B106F4807018B1206C40F0B5
:1035D0000100206405F0040030B107F0010018B1CB
:1035E000206C40F00200206405F0020030B107F0CA
:1035F000010018B1206C40F00400206405F00800C0
:1036000048B106F0200010B907F0010018B1206C95
:1036100040F008002064206C002846D005F020000F
:1036200028B106F0200010B1204601F031FB2068DF
:103630004069C0F3801A206C00F0080010B9BAF19C
:10364000000F2DD0204601F0DDFA2068406900F01F
:103650004000402820D100BF00BF2168143151E84C
:10366000001F21F040002168143141E80002002AC7
:10367000F3D100BFA06B50B17548A16B0865A06B7A
:10368000FEF791FE88B1A06B016D88470DE02046E2
:10369000FFF76FFF09E009E02046FFF76AFF04E04B
:1036A0002046FFF766FF002020647DE7206B01289D
:1036B00076D105F01000002872D006F01000002826
:1036C000FAD000BF002000902068006800902068B9
:1036D0004068009000BF00BF2068406900F04000D3
:1036E00040285ED1A06B006840681FFA80F8B8F1EE
:1036F000000F54D0A08D404551DDA4F82E80A06B62
:10370000C069B0F5807F43D000BF00BF21680C3195
:1037100051E8001F21F4807021680C3141E800025B
:10372000002AF3D100BF00BF00BF2168143151E867
:10373000001F21F001002168143141E80002002A35
:10374000F3D100BF00BF00BF2168143151E8001F52
:1037500021F040002168143141E80002002AF3D131
:1037600000BF202084F83E000020206300BF00BF7F
:1037700021680C3151E8001F21F0100021680C3144
:1037800041E80002002AF3D100BFA06BFEF7B5FDAF
:10379000A08DE28D801A81B22046FFF7E9FE03E793
:1037A00040E0A08DE18D401A1FFA80F8E08DC0B393
:1037B000B8F1000F35D000BF00BF21680C3151E8CF
:1037C000001F21F4907021680C3141E80002002AAA
:1037D000F3D100BF00BF00BF2168143151E8001FC2
:1037E00021F001002168143141E80002002AF3D1E0
:1037F00000BF202084F83E000020206300BF00BFEF
:1038000021680C3151E8001F21F0100021680C31B3
:1038100041E80002002AF3D100BF41462046FFF7ED
:10382000A7FEC1E605F0800030B106F0800018B1B7
:10383000204601F0BFFBB7E605F0400030B106F0CE
:10384000400018B1204601F013FAADE600BFABE628
:10385000F14B000810B504460CB9012010BDA06959
:1038600000B100E000BF94F83D0028B9002084F8C2
:103870003C00204600F028F8242084F83D00206811
:10388000C06820F400502168C860204601F07CFA2E
:103890002068006920F49040216808612068406930
:1038A00020F02A00216848612068C06840F4005078
:1038B0002168C86000202064202084F83D0084F83E
:1038C0003E000020CAE7000010B586B0044614216F
:1038D00001A8FCF76EFEFA492068884277D100BF44
:1038E00000200090F748006840F40020F549086087
:1038F0000846006800F40020009000BF00BF00BF31
:1039000000200090EF481038006840F00100ED49B9
:10391000103908600846006800F00100009000BF00
:1039200000BF03200190022002900020039003209A
:1039300004900820059001A9E348FEF7DFFEE34864
:10394000E3490860400548600021E1488160C160AA
:103950004FF4806101610021416181614FF4807108
:10396000C161002101624162FEF752FE08B1FDF71C
:10397000B6FF00BFD648A063846300BFD348303091
:10398000D44908604FF0006048604021D148816010
:103990000021C1604FF480610161002141618161BA
:1039A000C16101624162FEF733FE08B1FDF797FF86
:1039B00000BFC8486063846300BF00220521342033
:1039C000FFF772F83420FFF75BF818E2FFE7C2490F
:1039D000206888427ED100BF00200090B94800686E
:1039E00040F48010B74908600846006800F4801071
:1039F000009000BF00BF00BF00200090B148103809
:103A0000006840F00400AF491039086008460068BB
:103A100000F00400009000BF00BF00BF0020009035
:103A20000846006840F0080008600846006800F09A
:103A30000800009000BF00BF88140190022002908F
:103A400000200390032004900820059001A9A348BA
:103A5000FEF754FE04200190022002900020039003
:103A6000032004900820059001A99D48FEF746FE1A
:103A7000964830389B490860C00548600021994845
:103A80008160C1604FF48061016100214161816109
:103A90004FF48071C161002101624162FEF7B8FDFF
:103AA00008B1FDF71CFF00BF8E48A063846300BF10
:103AB000864878308C4908604FF0006048604021AB
:103AC000894881600021C1604FF48061016100215B
:103AD000416100E016E08161C16101624162FEF76F
:103AE00097FD08B1FDF7FBFE00BF7F48606384636C
:103AF00000BF002205213520FEF7D6FF3520FEF756
:103B0000BFFF7CE17949206888427BD100BF00205B
:103B100000906C48001D006840F010006949091DC4
:103B200008600846006800F01000009000BF00BF69
:103B300000BF0020009063481038006840F001008A
:103B40006049103908600846006800F001000090E4
:103B500000BF00BF4FF4C06001900220029000201F
:103B60000390032004900720059001A95648FEF712
:103B7000C5FD5F485F4908604FF000604860002164
:103B80005C488160C1604FF4806101610021416146
:103B900081614FF48071C161002101624162FEF7D1
:103BA00037FD08B1FDF79BFE00BF5248A063846358
:103BB00000BF4F487830504908604FF000604860BF
:103BC00040214D4881600021C1604FF48061016156
:103BD000002141618161C16101624162FEF718FD0E
:103BE00008B1FDF77CFE00BF43486063846300BFFB
:103BF000002205212520FEF757FF2520FEF740FF74
:103C0000FDE0FFE73D49206888427CD100BF0020ED
:103C100000902C48006840F400302A4908600846AB
:103C2000006800F40030009000BF00BF00BF00201B
:103C3000009024481038006840F0010021491039F4
:103C400008600846006800F00100009000BF00BF57
:103C50000C20019002200290002003900320049089
:103C60000720059001A91848FEF748FD174848307D
:103C7000234908604FF000604860002120488160BF
:103C8000C1604FF4806101610021416181614FF4A5
:103C90008071C161002101624162FEF7B9FC08B187
:103CA000FDF71DFE00BF1648A063846300BF00221D
:103CB00005212620FEF7F8FE2620FEF7E1FE9EE015
:103CC000004C00404038024000000240406002408A
:103CD0007C070020DC070020005000400008024064
:103CE000000C02403C0800209C080020001001400D
:103CF00040640240FC0800205C09002000440040B1
:103D0000BC090020FFE73F492068884277D100BF07
:103D1000002000903C48006840F480203A49086048
:103D20000846006800F48020009000BF00BF00BF7C
:103D30000020009034481038006840F002003249FA
:103D4000103908600846006800F00200009000BFCB
:103D500000BF4FF4406001900220029000200390C9
:103D6000032004900720059001A92848FEF7C6FC0F
:103D70002748284908604FF0006048600021254826
:103D80008160C1604FF48061016100214161816106
:103D90004FF48071C161002101624162FEF738FC7D
:103DA00008B1FDF79CFD00BF1A48A063846300BF03
:103DB00017483030184908604FF0006048604021D3
:103DC000154881600021C1604FF4806101610021CC
:103DD00041618161C16101624162FEF719FC08B174
:103DE000FDF77DFD00BF0C486063846300BF0022C7
:103DF00005212720FEF758FE2720FEF741FE06B0DA
:103E000010BD00000048004040380240000402405D
:103E1000286002401C0A00207C0A0020704770477E
:103E200000BFFEE710B500200F4908600F4800688A
:103E300020F040400D4908600846006840F080408E
:103E4000086000200A49C1F8BC02022002F033FEDB
:103E5000012005490860022002F02DFE00200449DF
:103E6000C1F8B40210BD0000B48240420004024018
:103E70000080404210B500200F4908600F480068DC
:103E800020F040400D4908600846006840F080403E
:103E9000086001200A49C1F8BC02022002F00BFEB2
:103EA000012005490860022002F005FE00200449B7
:103EB000C1F8B40210BD0000B482404200040240C8
:103EC0000080404270B5054600241648006820F086
:103ED000404014490860084600680860002616E063
:103EE000002011490860022002F0E5FD01200F4981
:103EF000C1F8B4026006040E0B487838006808B1B7
:103F0000601CC4B2012002F0D6FD701CC6B2082E9F
:103F1000E6DB15B9FFF7AEFF01E0FFF783FF2046B0
:103F200070BD000000040240B48240420080404264
:103F300070B504461548006820F0404013490860F9
:103F40000846006840F08040086000201049086082
:103F5000002517E0E0090E49083108606006040EEC
:103F6000022002F0A8FD01200A49C1F8B402022093
:103F700002F0A1FD002006490860022002F09BFD2E
:103F8000681CC5B2082DE5DB70BD000000040240CE
:103F9000B48240420080404210B50F48006820F0D3
:103FA00040400D4908600846006840F080400860C5
:103FB00001200A4908600A49C1F8B402042002F04D
:103FC0007AFD002005490860042002F074FD0020FD
:103FD0000349C1F8B40210BD00040240BC82404253
:103FE0000080404210B50F48006820F040400D4965
:103FF00008600846006840F08040086000200A49D8
:1040000008600A49C1F8BC02042002F054FD0120F6
:10401000054908600549C1F8BC02042002F04BFDC7
:1040200010BD000000040240B482404200804042C3
:1040300010B500241348006820F040401149086082
:1040400008460068086001200F49086002F033FD4F
:1040500001200E49C1F8B40202F02DFD07E0601CFA
:10406000C4B2FA2C03DDFFF7BDFF012010BD0648E6
:10407000803800680028F2D103490839086000BF81
:10408000F4E7000000040240BC824042008040424D
:1040900070B50446FFF780FF11490978002242EA13
:1040A0004101C8B2FFF744FFFFF7C2FF2046FFF708
:1040B0003FFFFFF7BDFFFFF76FFF094909780122B6
:1040C00002EB4101C8B2FFF733FFFFF7B1FF002059
:1040D000FFF7F8FE0546FFF785FF284670BD000094
:1040E000050300202DE9F04107460C461546FFF771
:1040F00053FF15490978002242EA4101C8B2FFF78F
:1041000017FFFFF795FF3846FFF712FFFFF790FF05
:10411000FFF742FF0C490978012202EB4101C8B2C6
:10412000FFF706FFFFF784FF002606E00120FFF7F8
:10413000C9FE2070641C701CC6B2AE42F6DBFFF7ED
:1041400051FFBDE8F08100000503002010B50F48C5
:104150000F4908600320486000210D488160C1605C
:104160004FF4002101614FF44011416100210176BB
:104170000121417681760021C176017701214177C5
:10418000FDF7E7FE08B1FDF7AAFB10BD0064004093
:10419000D805002010B50F480F490860032048607B
:1041A00000210D488160C1604FF4002101614FF48E
:1041B0004011416100210176012141768176002183
:1041C000C176017701214177FDF7C3FE08B1FDF704
:1041D00086FB10BD006800400006002008B500BF47
:1041E000002000903248006840F400103049086018
:1041F0000846006800F40010009000BF00BF00BF38
:10420000002000900846006840F4800008600846DE
:10421000006800F48000009000BF00BF002205216C
:104220000B20FEF741FC0B20FEF72AFC00220521A3
:104230000C20FEF739FC0C20FEF722FC00220521A1
:104240000D20FEF731FC0D20FEF71AFC002205219F
:104250000E20FEF729FC0E20FEF712FC002205219D
:104260000F20FEF721FC0F20FEF70AFC002205219B
:104270001020FEF719FC1020FEF702FC0022052199
:104280002F20FEF711FC2F20FEF7FAFB002205215C
:104290003A20FEF709FC3A20FEF7F2FB0022052146
:1042A0004620FEF701FC4620FEF7EAFB08BD0000B1
:1042B0003038024000B5A3B01C221E491CA8FCF7F0
:1042C00024F900211CA804F0F4F81B4908601C2202
:1042D00018491C3115A8FCF718F9002115A804F09D
:1042E000E8F8164908601C22124938310EA8FCF77C
:1042F0000CF900210EA804F0DCF8114908601C221A
:104300000C49543107A8FCF700F9002107A804F074
:10431000D0F80C4908601C22064970316846FCF749
:10432000F4F80021684604F0C4F80749086023B097
:1043300000BD000088CC0008000000200400002020
:10434000080000200C0000201000002000B587B0FD
:10435000142102A8FCF72DF900BF002001903B4872
:10436000006840F00400394908600846006800F021
:104370000400019000BF00BF00BF0020019008466C
:10438000006840F0800008600846006800F0800087
:10439000019000BF00BF00BF0020019008460068E8
:1043A00040F0010008600846006800F0010001903C
:1043B00000BF00BF00BF002001900846006840F029
:1043C000020008600846006800F00200019000BF8B
:1043D00000BF00BF002001900846006840F00800C0
:1043E00008600846006800F00800019000BF00BFA8
:1043F00001224FF4D0411648FEF77AFA01224FF419
:1044000020411448FEF774FA00224FF480611048EE
:10441000FEF76EFA4FF4D84002900120039000207E
:104420000490059002A90A48FEF768F94FF420406D
:10443000029001200390002004900320059002A91F
:104440000448FEF75BF907B000BD000030380240B9
:10445000000802400004024010B50B480B490860F8
:104460004FF4E1304860002108488160C16001617B
:104470000C21416100218161C161FFF7EBF908B1B5
:10448000FDF72DFA10BD0000004C0040280600206A
:1044900010B50B480B4908604FF4E130486000212B
:1044A00008488160C16001610C2141610021816186
:1044B000C161FFF7CFF908B1FDF711FA10BD000097
:1044C000005000406C06002010B50B480B490860F6
:1044D0004FF4E1304860002108488160C16001610B
:1044E0000C21416100218161C161FFF7B3F908B17D
:1044F000FDF7F5F910BD000000100140B0060020E6
:1045000010B50B480B4908600B484860002109486A
:104510008160C1604FF4806101610C214161002123
:104520008161C161FFF796F908B1FDF7D8F910BDB7
:1045300000440040F4060020A086010010B50B489E
:104540000B4908604FF4E130486000210848816061
:10455000C16001610C21416100218161C161FFF7EE
:1045600079F908B1FDF7BBF910BD00000048004023
:104570003807002000BFFEE7016811B108B14168AB
:1045800011B90221417670479FED070A016881ED5C
:10459000040A00210268D160026811754176012188
:1045A000017600BFEFE700000000000010B50446F0
:1045B000206810B10CB1606810B90220607610BD9F
:1045C0009FED0F0A206880ED040A00202168C86072
:1045D00021680875607601202076DFED0A0A9FEDDC
:1045E0000A0A0A490A4800F019F8DFED060A9FEDA9
:1045F000060A08490648483800F010F800BFDEE710
:104600000000000000803B4500401C4618000020D0
:10461000440200202400002000BFFEE700B101B9E1
:10462000704791ED001A80ED001A91ED011A80EDAE
:10463000011A91ED021A80ED021A80ED040AC0ED14
:10464000050A9FED0F1A80ED0E1A80ED0D1A80ED10
:104650000C1A9FED0B1A80ED081A80ED0B1A80EDF5
:104660000A1A80ED091A80ED111A80ED101A80EDFA
:104670000F1A9FED031A80ED031A00BFD0E7000068
:1046800000000000B0EE401A10B99FED4B0A7047D1
:1046900090ED100A80ED110A90ED0F0A80ED100ADE
:1046A000C0ED060A80ED071A30EEC10A80ED0F0A50
:1046B00090ED030AD0ED0F1A30EE210A80ED030AC7
:1046C00090ED030AD0ED051AB4EEE10AF1EE10FA0E
:1046D00004DD90ED050A80ED030A10E090ED030A79
:1046E000D0ED051AF1EE611AB4EEE10AF1EE10FA1E
:1046F00005D290ED050AB1EE400A80ED030A90ED77
:10470000000AD0ED0F1A20EE210A80ED090A90ED83
:10471000010AD0ED031A20EE210A80ED0A0A90ED7D
:104720000D0A80ED0E0A90ED0C0A80ED0D0A90ED59
:104730000F0AD0ED101AB0EE002A02EE610AD0ED99
:10474000111A30EE210A80ED0C0A90ED020AD0ED2C
:104750000C1A20EE210A80ED0B0A90ED090AD0ED2B
:104760000A1A30EE210AD0ED0B1A30EE210A80ED44
:10477000080A90ED080AD0ED041AB4EEE10AF1EE51
:1047800010FA04DD90ED040A80ED080A10E090EDC7
:10479000080AD0ED041AF1EE611AB4EEE10AF1EE66
:1047A00010FA05D290ED040AB1EE400A80ED080A35
:1047B00090ED080A6BE70000000000000146486821
:1047C000A0F20120042802D24FF40070704740F29A
:1047D000FF10FBE730B58DB0044600208DF80000D7
:1047E00022460121684601F0C7FA0546284601F035
:1047F000ADF922460121042001F074FD054628464A
:1048000001F0A4F985B90C208DF8020000218DF883
:10481000051002218DF8031001218DF804102246A5
:10482000684601F07CFE054628460DB030BD30B527
:104830008DB0044601208DF8000022460121684613
:1048400001F09AFA0546284601F080F92246022135
:10485000042001F047FD0546284601F077F995B997
:104860000C208DF8020000218DF8061002218DF831
:10487000031001218DF807108DF8041022466846B8
:1048800001F04DFE054628460DB030BD00BF0120A9
:1048900003F0FEFDFBE700001CB5FCF741FE3848C5
:1048A0008168884737488168884700BF3448407E20
:1048B00018B93348007E012816D131494868FFF7FE
:1048C0007DFF05460020009001902D4840680023A0
:1048D0001A462946446A2C48A04700224FF400613A
:1048E0002A48FEF705F846E00122D1022748FDF7E5
:1048F000FFFF23480068D0ED040AB0EE600A2448A8
:10490000D0ED000A1E481C30FFF7BCFE1C4880EDAD
:104910002C0A90ED2C0A1F4880ED000A184890EDF3
:104920002C1AF0EE410A0068B0F9020001EE100AFC
:10493000B8EEC11AB0EE410A11486430FFF7A2FE8A
:104940000F4880ED2B0A90ED2B0A134880ED000AEA
:104950000020009001900A4890ED2B0ABDEEC00A9D
:1049600010EE100A02B20648406800234FF40071AE
:10497000446A0548A047012003F08AFD96E700003D
:10498000E0010020EC000020D805002000080240D3
:1049900048000020500000204C00002000BF0A20EA
:1049A00003F076FDFBE7000000BF0548416988473A
:1049B000044841698847012003F06AFDF5E70000DB
:1049C000E0010020EC00002000BF06F0A5FE044836
:1049D000C168884706F0CAFE012003F059FDF4E7DC
:1049E0008C00002010B500BF502080F31188BFF369
:1049F0004F8FBFF36F8F00BF07F046FA18B14FF02B
:104A000080500449086000BF002080F3118800BF77
:104A100010BD000004ED00E000B593B0302107A800
:104A2000FBF7C7FD142102A8FBF7C3FD00BF002060
:104A300001902448006840F08050224908600846F0
:104A4000006800F08050019000BF00BF00BF002050
:104A500001901D48006840F480401B4908600846EA
:104A6000006800F48040019000BF00BF0120079063
:104A70000004089002200D9041050E9119210F911C
:104A80004FF4A8711091022111910421129107A8ED
:104A9000FEF7BEF908B1FCF722FF0F2002900220BA
:104AA0000390002004904FF4A05005904FF48050E4
:104AB0000690052102A8FEF749F808B1FCF70FFFA0
:104AC00013B000BD40380240007000400348006849
:104AD00040F47000014908607047000088ED00E074
:104AE00010B50248FEF76DFC10BD0000DC0A002086
:104AF00010B50268294B98420ED0B0F1804F0BD010
:104B0000274B984208D0274B984205D0264B984215
:104B100002D0264B984203D122F070024B681A4310
:104B20001E4B984220D0B0F1804F1DD01C4B9842B4
:104B30001AD01C4B984217D01B4B984214D01B4BD9
:104B4000984211D01A4B98420ED01A4B98420BD073
:104B5000194B984208D0194B984205D0184B9842EF
:104B600002D0184B984203D122F44072CB681A430A
:104B700022F080034C6943EA040202608B68C3623E
:104B80000B688362054B984202D0084B984201D1D2
:104B90000B6903630123436110BD00000000014065
:104BA0000004004000080040000C004000040140E8
:104BB000004001400044014000480140001800400E
:104BC000001C00400020004010B50348FCF775FEB3
:104BD0000148FEF7CFFC10BD2806002010B50348A1
:104BE000FCF76BFE0148FEF7C5FC10BD6C0600200B
:104BF00070B50546AC6B0020E085E0842046FEF7EA
:104C0000B8FC70BD00BF00BF02680C3252E8002F34
:104C100022F4907102680C3242E80013002BF3D1A9
:104C200000BF00BF00BF0268143252E8002F22F01C
:104C300001010268143242E80013002BF3D100BFD7
:104C4000016B01290ED100BF00BF02680C3252E88F
:104C5000002F22F0100102680C3242E80013002BF2
:104C6000F3D100BF202180F83E100021016370477E
:104C700010B504462068C06820F040002168C86074
:104C8000202084F83D002046FFF7C9F8002010BD21
:104C9000F8B5044694F83E00222873D1A068B0F518
:104CA000805F0CD1206950B90025A66A2068406851
:104CB000C0F308003080A06A801CA06215E0A56ADD
:104CC0000026A068B0F5805F03D0A06828B92069ED
:104CD00018B920684068287004E02068406800F037
:104CE0007F002870A06A401CA062E08D401E80B248
:104CF000E085002844D12068C06820F020002168A9
:104D0000C8602068C06820F480702168C86020688E
:104D1000406920F0010021684861202084F83E00AD
:104D2000206B012826D10020206300BF00BF21682E
:104D30000C3151E8001F21F0100021680C3141E8CE
:104D40000002002AF3D100BF2068006800F01000C4
:104D500010280AD100BF0020009020680068009051
:104D600020684068009000BF00BFA18D2046FEF77C
:104D7000FFFB02E02046FFF751F80020F8BD01E0FC
:104D80000020FBE70220F9E72DE9F84F04462068F0
:104D9000006920F44050E1680843216808612169F6
:104DA000A068084361690843E169084300902068EE
:104DB000C06849F20C618843009908432168C860C3
:104DC0002068406920F44070A16908432168486167
:104DD00076492068884203D075492068884203D10B
:104DE000FDF7AEFF814602E0FDF79AFF8146E069DC
:104DF000B0F5004F6CD102206168A0FB0150034662
:104E00001920A9FB007001462A463846FBF706FB2D
:104E10006421B0FBF1F04FEA001A02206168A0FBA8
:104E200001510B461920A9FB00712A463846FBF7B1
:104E3000F5FA834602206168A0FB01500346192061
:104E4000A9FB00712A463846FBF7E8FA6421B0FB5B
:104E5000F1F000EBC00101EB0010ABEB8000322160
:104E600001EBC0006421B0FBF1F000F0F8000AEBA8
:104E7000400A02206168A0FB015003461920A9FBEB
:104E8000007001462A463846FBF7C8FA83460220DE
:104E90006168A0FB015003461920A9FB00712A4656
:104EA0003846FBF7BBFA6421B0FBF1F000EBC00120
:104EB00001EB0010ABEB8000322101EBC00064215C
:104EC000B0FBF1F000F007005044216888606AE010
:104ED00004206168A0FB015003461920A9FB007063
:104EE00001462A463846FBF799FA82460420616853
:104EF000A0FB015003461920A9FB007001462A4679
:104F00003846FBF78BFA6421B0FBF1F000EBC001EF
:104F100001EB0010AAEB8000322101EB00106421AC
:104F2000B0FBF1F000F0F00A04206168A0FB017012
:104F300003461920A9FB00513A462846FBF76EFAB2
:104F40006421B0FBF1F00AEB001A04206168A0FBB9
:104F500001510B461920A9FB00712A463846FBF780
:104F60005DFA834604206168A0FB015003461920C6
:104F7000A9FB007001462A463846FBF74FFA642128
:104F8000B0FBF1F000EBC00101EB0010ABEB8000D7
:104F9000322101EB00106421B0FBF1F000F00F00B2
:104FA000504421688860BDE8F88F0000001001407F
:104FB00000140140014691F83D00212828D188685D
:104FC000B0F5805F0BD1086948B90A6A1088C0F350
:104FD00008000B685860086A801C086205E00B6ACC
:104FE000581C086218780B685860C88C401E80B244
:104FF000C88458B90868C06820F080000B68D86081
:105000000868C06840F040000B68D8600020704716
:105010000220FCE710B50348FCF74FFC0148FEF7FF
:10502000A9FA10BDB006002010B50348FCF745FCF6
:105030000148FEF79FFA10BDF406002010B50348A2
:10504000FCF73BFC0148FEF795FA10BD380700203D
:105050007047704770B504460D46206800B114B91A
:105060000220607670BD2846FCF704F921680880AC
:105070002846FCF705F9216848802846FCF707F91F
:10508000216888802846FCF709F92168887100BFEB
:10509000E8E7026802B110B90222427670474A7806
:1050A0000B7842EA032203681A80CA788B7842EAB6
:1050B000032212B203685A804A790B7942EA03222A
:1050C00012B203689A8000BFE8E700BFFEE703B4AE
:1050D00001984100009850EAC12018BF04204A0DF1
:1050E00018BF40F0010040F2FF72B2EB515F08BF01
:1050F00040F00200012808BF052002B07047000000
:1051000002480068C0F30220704700000CED00E088
:1051100010B5002804DB0A07130E054A135406E0F5
:105120000A07140E034A00F00F031B1FD45410BDCE
:1051300000E400E018ED00E070B5C1482DED020B71
:105140002DED0E8B82B0119D25F000449FEDBEDB4E
:105150009FEDBFEB84423EDBA4F140511098A1F1DA
:105160007F6108430FD0BC48844202DC28D11098EC
:1051700030B39DED100B02B0BDEC0E8B02B0BDE85C
:10518000704000F071BC9DED100B53EC1D2B51ECE9
:10519000100B07F03DFA9DED100B41EC180B53EC92
:1051A0001E2B51EC100B07F033FA53EC182B06F0C2
:1051B000CFFF41EC100B02B0BDEC0E8B02B070BD06
:1051C0000120FBF778FA02B0BDEC0E8B02B0BDE80F
:1051D000704000F05DBCA1489FEDA18B844256DA7F
:1051E0009DED100BB4F1795F0ADA51EC100BFFF76B
:1051F0006EFF042808BF00F05BFC9DED100BDAE7A2
:1052000053EC102B51EC100B07F002FA41EC190B88
:1052100095480621B0EE490AF0EE690A784400F09C
:10522000A7FB53EC192B51EC100B07F0F1F941ECF3
:105230001A0B8E48B0EE490AF0EE690A0421784450
:1052400000F096FB53EC192B51EC100B07F0E0F932
:1052500053EC182B06F07CFF41EC100B51EC1A0BB1
:1052600053EC102B07F028F8CDE900019DED000B61
:1052700053EC102B9DED100B51EC100B07F0C8F9FF
:105280009DED101B53EC112B06F062FFD2E09DED5B
:10529000100B51EC100B01F037FC53EC182B07F0FE
:1052A000B5FA9FED730BCDE9000153EC102B9DED8A
:1052B000000B51EC100B07F0ABF941EC190B6E48E9
:1052C0000621B0EE490AF0EE690A784400F050FB7E
:1052D00053EC192B51EC100B07F09AF941EC1B0B16
:1052E0006648B0EE490AF0EE690A0421784400F0FD
:1052F0003FFB53EC192B51EC100B07F089F953ECE1
:10530000182B06F025FF41EC1C0B51EC190B06F095
:105310005DF841EC180B5A489FED5BABA04222DCD4
:1053200053EC1C2B51EC1B0B06F0C6FFCDE9000122
:105330009DED000B51EC180B53EC102B07F068F9A6
:1053400053EC182B06F004FF53EC1A2B07F060F90E
:1053500053EC1D2B07F032FB53EC1E2B07F056FAD3
:1053600041EC100B5FE08DED008B002000909DED77
:10537000000B51EC180B53EC102B06F0E9FE9DEDE1
:10538000000B41EC1E0B53EC102B51EC100B07F0F3
:105390003FF953EC192B07F039FA53EC1E2B06F0AA
:1053A0008BFF41EC190B53EC1C2B51EC1B0B06F043
:1053B00083FF41EC1B0B53EC1A2B51EC190B07F03C
:1053C00027F953EC1D2B07F021FA41EC190B53EC94
:1053D0001A2B51EC180B07F01BF953EC1B2B07F0A1
:1053E00017F953EC192B07F0E9FA9DED000B41EC8E
:1053F000180B53EC1A2B51EC100B07F009F99FED29
:10540000249B53EC192B07F001FA41EC100B51ECE3
:10541000180B53EC102B07F0D1FA53EC192B07F0B3
:10542000F5F941EC100B002D3FF7C5AE51EC100B18
:1054300006F050FE41EC100BBDE60000000000003D
:105440000000F03F00000000075C143326A6913CEA
:10545000182D4454FB21F93F0000F07F0000E03F8D
:10546000000000000000F03F609B00006E9B000009
:10547000000000000000E03FB29A0000C09A000067
:105480003333EF3F00000000000000000000004048
:10549000182D4454FB21E93F70B59B482DED020BBC
:1054A0002DED068B079D25F00044A04218DC97489F
:1054B000844202DC0AD1069840B19DED060BBDEC9A
:1054C000068B02B0BDE8704000F0CEBA002DCCBF14
:1054D0009FED8F0B9FED900BBDEC068B02B070BD66
:1054E0008F48A04215DD8F48A042D8BF4FF0FF344F
:1054F00058DD9DED060B51EC100BFFF7E8FD04287D
:1055000008BF00F0D5FA9DED060BBDEC068B02B08E
:1055100070BD9DED060B51EC100B01F0F5FACDE9D5
:10552000060181489FED828BA0423CDD8248A0426B
:105530001FDD00249FED82AB9DED060B53EC1A2B73
:1055400051EC100B06F004FE9DED060B41EC190B1F
:1055500053EC1A2B51EC100B07F05AF853EC182BA4
:1055600007F02CFA53EC192B06F0A6FECDE9060144
:1055700049E09DED060B012453EC182B51EC100B68
:1055800006F0E6FD9DED060B41EC190B53EC182BD4
:1055900051EC100B07F012FA53EC192B06F08CFEAD
:1055A000CDE906012FE06848A0421FDD02249FEDEF
:1055B000689B9DED060B53EC192B51EC100B07F07B
:1055C00027F853EC182B06F0C3FD9DED060B41ECBC
:1055D000180B53EC192B51EC100B07F0EFF953ECAF
:1055E000182B06F069FECDE906010CE09DED060BD7
:1055F000032453EC102B9FED580B51EC100B06F0CD
:105600005BFECDE906019DED060B53EC102B51EC32
:10561000100B06F0FDFF41EC180B53EC182B06F0B5
:10562000F7FF41EC190B4E480621B0EE490AF0EEA7
:10563000690A784400F09CF953EC182B51EC100BDC
:1056400006F0E6FF41EC180B4648B0EE490AF0EED2
:10565000690A0521784400F08BF953EC192B51ECC1
:10566000100B06F0D5FF41EC100B51EC180B53EC6E
:10567000102B002C0EDA06F06BFD9DED061B53EC93
:10568000112B06F0C5FF9DED061B53EC112B07F007
:10569000BDF835E006F05CFD9DED061B53EC112BCB
:1056A00006F0B6FF41EC100B2F48784400EBC40025
:1056B00090ED001B51EC100B53EC112B07F07EF911
:1056C0009DED061B53EC112B07F078F941EC100B04
:1056D0002648784400EBC40090ED001B51EC100B01
:1056E00053EC112B07F092F841EC100B002DA2BFE8
:1056F000BDEC068B02B070BD51EC100B06F0EAFC5D
:1057000041EC100B01E70000000010440000F07FA6
:10571000182D4454FB21F93F182D4454FB21F9BFA7
:105720000000DC3F0000203E0000F33F00000000CE
:10573000000000000000F03F0000E63F0000000015
:105740000000000000000040008003400000000056
:10575000000000000000F83F000000000000F0BF63
:1057600002980000B897000042970000FA960000E7
:1057700070B56F4E2DED040B2DED048B82B0DDF86E
:1057800024C0DDE907235C422CF000411C4341EAC0
:10579000D474069D22F00040B44205D86C422C43DC
:1057A00040EAD474B4420BD99DED081B9DED060B65
:1057B00002B0BDEC048B04B0BDE8704000F05EB9EF
:1057C000ACF14054A4F17F641C430BD0022404EAE2
:1057D000AC7444EAD27405439FED578B9FED582B70
:1057E00007D015E09DED060B51EC100B00F070F9A1
:1057F00042E0002C11BF012C9DED060B02B0BDEC68
:10580000048B04BF04B070BD022C38D0032C3BD0F5
:105810000B439FED4D1B9FED4E0B0AD0B14218D1AB
:10582000B04209D121F0804120F0804009910790D9
:105830000FE0002A15DA10E0474B7B44002C08BF2C
:1058400093ED000B0DD0012C10D0022C17D0032C9F
:105850001AD0B0421DD1002A03DAB0EE410AF0EEB0
:10586000610A02B0BDEC048B04B070BD93ED000B77
:1058700051EC100B06F02EFC41EC100BF1E7B0EEF2
:10588000480AF0EE680AECE7B0EE420AF0EE620A6F
:10589000E7E7401A00159FED329B3C28C8BF8DED0D
:1058A000000B17DCBCF1000FBCBF10F13C0F8DEDFD
:1058B000009B0FDB9DED080B53EC102B9DED060BB1
:1058C00051EC100B06F0F8FC01F01EF900F000F9A5
:1058D000CDE90001B4B1012C10D0022C9FED220BB8
:1058E00053EC102B9DED000B51EC100B19D007F071
:1058F00065F853EC182B07F061F8BDE7019880F0CC
:10590000004001909DED000B53EC192B51EC100B56
:1059100006F02AFE04BF0220FAF7CDFE9DED000B33
:105920009FE707F04BF853EC182B06F06FFFA3E747
:105930000000F07F00000000182D4454FB210940B6
:10594000182D4454FB2109C0182D4454FB21F9BFE4
:10595000182D4454FB21F93F2A9600000000000056
:105960000000000000000000075C143326A6A13CE4
:1059700070B504462DED028B4D1E00EBC500B0EE58
:10598000408AF0EE608A90ED000B35F0060017D0EB
:1059900053EC182B51EC100B06F03AFE41EC100BB7
:1059A0006D1E04EBC50090ED001B51EC100B53EC89
:1059B000112B06F0CDFB41EC100B35F00600E7D1C2
:1059C000022D36D0042D1CD0062D1CBFBDEC028B41
:1059D00070BD53EC182B51EC100B06F019FE94ED32
:1059E0000A1B53EC112B06F0B3FB53EC182B06F0FB
:1059F0000FFE94ED081B53EC112B06F0A9FB41ECB4
:105A0000100B53EC182B51EC100B06F001FE94ED2B
:105A1000061B53EC112B06F09BFB53EC182B06F0E6
:105A2000F7FD94ED040B53EC102B06F091FB41ECC9
:105A3000100B53EC182B51EC100B06F0E9FD94ED14
:105A4000021B53EC112B06F083FB53EC182B06F0D2
:105A5000DFFD94ED001B53EC112B06F079FBBDEC40
:105A6000028B41EC100B70BD10B553EC102B51ECB8
:105A7000100B06F06DFB41EC100B10BD10B553EC94
:105A8000112B51EC100B06F063FB41EC100B10BD19
:105A90009FED050B10B553EC102B51EC100B06F0DD
:105AA0000BFC41EC100B10BD0000000000000000DA
:105AB0009FED050B10B553EC102B51EC100B06F0BD
:105AC000A7FD41EC100B10BD00000000000000100D
:105AD00010B541EC100BFFF7DFFC51EC100B10BDC3
