:020000040800F2
:100000007053002031030008F54E000899450008A0
:10001000754E000851120008475B00080000000000
:100020000000000000000000000000007102000855
:10003000F91F000800000000CD020008D15200089E
:100040004B0300084B0300084B0300084B03000858
:100050004B0300084B0300084B0300084B03000848
:100060004B0300084B0300084B030008211A00084B
:10007000311A0008411A0008511A0008611A0008D4
:10008000711A00084B0300084B0300084B030008DB
:10009000D91200084B0300084B0300084B0300086B
:1000A0004B0300084B0300084B0300084B030008F8
:1000B000D55300084B0300084B0300084B0300080E
:1000C0004B0300084B0300084B0300084B030008D8
:1000D0004B0300080959000875590008015A000827
:1000E0004B0300084B0300084B0300084B030008B8
:1000F0004B0300084B0300084B030008811A00085B
:100100004B0300084B0300084B0300084B03000897
:10011000BD540008D15400084B0300084B030008ED
:100120004B0300084B030008911A00084B0300081A
:100130004B0300084B0300084B0300084B03000867
:10014000F11200084B0300084B0300084B030008A2
:100150004B0300084B030008A11A00084B030008DA
:100160004B0300084B0300084B0300084B03000837
:100170004B0300084B0300084B030008000000007D
:100180004B0300084B03000800F002F800F060F891
:100190000AA090E8000C82448344AAF10107DA45E2
:1001A00001D100F055F8AFF2090EBAE80F0013F0D4
:1001B000010F18BFFB1A43F001031847F0F90000C4
:1001C00010FA00000A444FF0000C10F8013B13F045
:1001D000070408BF10F8014B1D1108BF10F8015BA0
:1001E000641E05D010F8016B641E01F8016BF9D193
:1001F00013F0080F1EBF10F8014BAD1C0C1B09D1EA
:100200006D1E58BF01F801CBFAD505E014F8016B5B
:1002100001F8016B6D1EF9D59142D6D370470000ED
:100220000023002400250026103A28BF78C1FBD8FF
:10023000520728BF30C148BF0B6070471FB50DF093
:100240006CFB9DE8030000F0FBF91FBD10B510BD6D
:1002500000F062FA1146FFF7F1FF08F047FE00F0E8
:1002600080FA03B4FFF7F2FF03BC00F0B1FA00001C
:100270002C4B19680868B0E8F04F80F30988BFF389
:100280006F8F4FF0000080F311887047000000006E
:1002900008480068006880F308884FF0000080F389
:1002A000148862B661B6BFF34F8FBFF36F8F00DF64
:1002B00000BF00BF08ED00E0DFF80C00016841F46A
:1002C00070010160704700BF88ED00E0EFF3098026
:1002D000BFF36F8F134B1A681EF0100F08BF20ED8D
:1002E000108A20E9F04F106009B44FF0500080F3FD
:1002F0001188BFF34F8FBFF36F8F0CF09DF94FF054
:10030000000080F3118809BC19680868B0E8F04F54
:100310001EF0100F08BFB0EC108A80F30988BFF3FD
:100320006F8F704750050020EFF305807047000085
:100330000948804709480047FEE7FEE7FEE7FEE779
:10034000FEE7FEE7FEE7FEE7FEE7FEE704480549B5
:10035000054A064B70470000C15300088901000898
:10036000704D002070530020704F0020704F00200F
:1003700070B5064600F048F9056806F10B0020F05C
:100380000704B4429CBF002070BD2B466A68BAB116
:100390001068A04210D304F1080188423CBF5068A5
:1003A000586007D35168101941601168091B01603A
:1003B00058601460101D70BD13465268002AE7D1C2
:1003C0002146284600F028F90028DED170BD70B51E
:1003D0000446051F00F018F90068002C14BF44689B
:1003E00070BD002C18BFAC423CBF20466468F8D3F7
:1003F00001680A18AA4218BF456003D12A68054659
:100400001144016028684119A1421CBF6C6070BD95
:100410006168696021680844286070BD53EA020C75
:1004200000F069802DE9F04B4FF00006002B1FBF54
:10043000B3FA83F503FA05F424FA05F65E4012BF19
:100440001643B2FA82F502FA05F4C5F120051EBF83
:1004500022FA05FC44EA0C04203556EA044C4FEA23
:10046000144418BF641C4FF000084FF0000990427C
:1004700071EB030C39D3002919BFB1FA81F701FAE6
:1004800007F6B0FA80F700FA07F6C7F120071EBF9B
:1004900020FA07FC46EA0C062037B6FBF4FCA7EB73
:1004A0000507103F07F01F0BCBF120060CFA0BFBE2
:1004B0002CFA06F644BFB3460026202FA4BF5E46A2
:1004C0004FF0000B5BEA060C08BF4FF0010B19EB75
:1004D0000B09ABFB027C48EB0608C01B06FB02CCF9
:1004E0000BFB03CC71EB0C01C1E70B460246414606
:1004F0004846BDE8F08B13B54FF000004FF0000107
:10050000AFF30080BDE81C40704710B5203AC0F042
:100510000B80B1E81850203AA0E81850B1E8185004
:10052000A0E81850BFF4F5AF5FEA027C24BFB1E841
:100530001850A0E8185044BF18C918C0BDE81040B2
:100540005FEA827C24BF51F8043B40F8043B08BFBB
:100550007047D20728BF31F8023B48BF11F8012B82
:1005600028BF20F8023B48BF00F8012B70474FF02E
:1005700000020429C0F0128010F0030C00F01B8070
:10058000CCF1040CBCF1020F18BF00F8012BA8BF7E
:1005900020F8022BA1EB0C0100F00DB85FEAC17C42
:1005A00024BF00F8012B00F8012B48BF00F8012BF5
:1005B00070474FF0000200B5134694469646203926
:1005C00022BFA0E80C50A0E80C50B1F12001BFF40C
:1005D000F7AF090728BFA0E80C5048BF0CC05DF872
:1005E00004EB890028BF40F8042B08BF704748BFC0
:1005F00020F8022B11F0804F18BF00F8012B704734
:10060000704770477047000000487047184D002041
:10061000704770477047704738B504460A46002057
:100620006946AFF30080002808BF38BD0246009934
:10063000204600F04FF8012038BD012000F064B8DA
:10064000F8B5AFF30080054600200C46102000BF2F
:100650000646A819A0420DD9324669460020AFF3DC
:100660000080070008BF00F04FF80098A04218BFB4
:100670000546C419FFF7C8FF05600746F01D20F0C6
:1006800007004619284600F00AF8B44208BFF8BD32
:10069000A21B31463868BDE8F84000F01BB80021C5
:1006A0000160C0E9011070471020704710B500F0DC
:1006B0000DF8006810BD10B5044600F007F804609E
:1006C00010BD000000487047104D002000487047E2
:1006D000104D0020034640688C46002818BF884211
:1006E0003CBF03464068F8D318681844884207D0D6
:1006F0000CF1030020F00700001D411A521A0146B8
:10070000081D0A60FFF763BE10B500F039F8BDE8B8
:10071000104000F02FB870477546FFF7D3FFAE4684
:1007200005006946534620F00700854618B020B5FD
:10073000FFF70CFEBDE820404FF000064FF0000729
:100740004FF000084FF0000B21F00701AC46ACE879
:10075000C009ACE8C009ACE8C009ACE8C0098D46E6
:10076000704710B50446AFF300802046BDE8104046
:10077000FFF777BD002801D000F02AB870470000CD
:1007800010B5012805D0002103A000F027F80120B2
:1007900010BD09A1F8E7000053494752544D454D9B
:1007A0003A204F7574206F662068656170206D6512
:1007B0006D6F7279000000003A2048656170206D0D
:1007C000656D6F727920636F727275707465640005
:1007D00001491820ABBEFEE72600020070B50546B1
:1007E0000C460A2000E06D1C00F011F835B12878A5
:1007F0000028F8D102E0641C00F009F814B1207858
:100800000028F8D1BDE870400A20AFF3008008B599
:1008100069468DF800000320ABBE08BD2DE9F05FEE
:100820002DED088B04460D4616461F46DDE914AB38
:10083000DDE91289B7F9000000EE100AB8EEC00A2F
:10084000FE4880ED000AB8F9000000EE100AB8EE8C
:10085000C00AFB4880ED000AB9F90000032190FBB3
:10086000F1F000B200EB400000EE100AB8EEC00A52
:10087000F44880ED000ABAF9000000EE100AB8EE64
:10088000C00AF14880ED000ABBF9000000EE100A32
:10089000B8EEC00AED4880ED000A1698B0F90000E5
:1008A00000EE100AB8EEC00AE94880ED000AE648FA
:1008B00090ED000AE548D0ED000A20EE200AE44859
:1008C000D0ED000A20EE200AB5EEC00AF1EE10FAD3
:1008D00004D10020BDEC088BBDE8F09FDD48017B12
:1008E0009FEDDD0AD548D0ED000AFDEEE00A10EEDE
:1008F000900A00B208F0BEFAD04880ED000AD54850
:10090000017B9FEDD50ACE48D0ED000AFDEEE00A4E
:1009100010EE900A00B208F0ADFAC94880ED000A66
:10092000CC48017B9FEDCC0AC648D0ED000AFDEE15
:10093000E00A10EE900A00B208F09CFAC14880ED7F
:10094000000ABE4890ED000ADFEDC40A20EE200A3E
:1009500080ED000ABA4890ED000ADFEDC00A20EEF3
:10096000200A80ED000AB74890ED000ADFEDBB0ACF
:1009700020EE200A80ED000AB648017BB0EE000AA6
:10098000B148D0ED000AFDEEE00A10EE900A00B288
:1009900008F08EFAAC4880ED000AAE48017BB0EE5C
:1009A000000AAA48D0ED000AFDEEE00A10EE900A17
:1009B00000B208F07DFAA54880ED000AA548017B49
:1009C000B0EE000AA248D0ED000AFDEEE00A10EEFB
:1009D000900A00B208F06CFA9D4880ED000A9A482F
:1009E000D0ED000A60EEA00A984890ED001AD0ED14
:1009F000001A41EE210A964890ED001AD0ED001A37
:100A000041EE210AB0EE600A08F016FA944880ED33
:100A1000000A8D4890ED000A9148D0ED000A20EEC2
:100A2000200A894880ED000A884890ED000A8C4829
:100A3000D0ED000A20EE200A844880ED000A8448A8
:100A400090ED000A8648D0ED000A20EE200A80488A
:100A500080ED000A834890ED000A8348D0ED000A3B
:100A600020EE200A8148D0ED000A814890ED001A5E
:100A700000EEC10AF0EE000A20EE200A7D4880ED6B
:100A8000000A7A4890ED000A7648D0ED000A20EE80
:100A9000200A7748D0ED000A734890ED001A00EE66
:100AA000810AF0EE000A20EE200A734880ED000A69
:100AB0006E4890ED000A20EE000A6A48D0ED000A68
:100AC00090ED001A00EEC10A6948D0ED000A90EDE1
:100AD000001A00EEC10A6448D0ED000A90ED001A39
:100AE00000EE810A654880ED000A584890ED000A42
:100AF0006248D0ED000A20EE200A5548D0ED000AE9
:100B00005D4890ED001A00EEC10A5D4880ED000AD4
:100B10004F4890ED000A5748D0ED000A20EE200A19
:100B20004948D0ED000A554890ED001A00EEC10A80
:100B3000544880ED000A444890ED000A4E48D0ED3C
:100B4000000A20EE200A4148D0ED000A494890ED05
:100B5000001A00EEC10A4C4880ED000A4B4890EDA7
:100B6000000A4748D0ED000A494890ED001A00EE0F
:100B7000810A464880ED000A464890ED000A414847
:100B8000D0ED000A424890ED001A00EE810A41487B
:100B900080ED000A404890ED000A3B48D0ED000A85
:100BA0003B4890ED001A00EE810A3B4880ED000AB8
:100BB000224890ED000A3948D0ED000A304890ED07
:100BC000001A00EE810A3148D0ED000A30EE200A0A
:100BD0001A4880ED000A1A4890ED000A2F48D0ED1F
:100BE000000A284890ED001A00EE810A2948D0ED4D
:100BF000000A30EE200A124880ED000A114890EDFC
:100C0000000A2648D0ED000A1F4890ED001A00EEB9
:100C1000810A2148D0ED000A30EE200A094880ED13
:100C2000000A124890ED000A1D4880ED000A0D48A8
:100C300090ED000A1B4880ED000A35E0D404002046
:100C4000D8040020DC040020E0040020E40400209C
:100C5000E8040020F80500200000FA44728A8E3C67
:100C6000B8040020F0040020F8040020EC04002068
:100C7000F4040020BC040020C0040020C4040020B0
:100C8000C8040020CC040020D0040020FC04002074
:100C9000B00400200005002004050020AC04002062
:100CA000080500200C050020EA4890ED000AEA48FB
:100CB00080ED000AE94890ED000AE94880ED000A5D
:100CC000E84890ED000AB1EE400AE748D0ED000A8E
:100CD00020EE200AE048D0ED000AE44890ED001A2A
:100CE00000EEC10ADE48D0ED000AE14890ED001A9E
:100CF00000EEC10ADF4890ED001ADF48D0ED000A8F
:100D000040EE010ADD48C0ED000ADB4890ED000A24
:100D1000D548D0ED000A20EE200ACF48D0ED000AD9
:100D2000D34890ED001A00EE810ACD48D0ED000ABC
:100D3000CE4890ED001A00EEC10ACE4890ED001AA0
:100D4000C848D0ED000A40EE010ACD48C0ED000AC7
:100D5000C94890ED000AC548D0ED000A20EE200AEF
:100D6000C048D0ED000AC24890ED001A00EEC10A5A
:100D7000BB48D0ED000ABC4890ED001A00EE810A95
:100D8000BC4890ED001AB448D0ED000A40EE010ACC
:100D9000B048C0ED000AB84890ED000AB448D0ED64
:100DA000000A20EE200AAF48D0ED000AAF4890EDCF
:100DB000001A00EE810AA848D0ED000AAA4890ED7A
:100DC000001A00EEC10AAB4890ED001AA448D0ED1D
:100DD000000A40EE010AA148C0ED000AA748D0ED84
:100DE000000A60EEA00AA64890ED001AD0ED001AA5
:100DF00041EE210A974890ED001AD0ED001A41EE1D
:100E0000210A964890ED001AD0ED001A41EE210A11
:100E1000B0EE600A08F010F89A4880ED000A974892
:100E200090ED000A9748D0ED000A20EE200A934882
:100E300080ED000A924890ED000A9248D0ED000A39
:100E400020EE200A8E4880ED000A824890ED000ACC
:100E50008C48D0ED000A20EE200A7E4880ED000A82
:100E60007E4890ED000A8748D0ED000A20EE200A67
:100E70007A4880ED000A814890ED000A20EE000AD1
:100E80007F48D0ED000A90ED001A00EEC10A7148CB
:100E9000D0ED000A90ED001A00EEC10A6F48D0EDC7
:100EA000000A90ED001A00EE810A10EE101A0846B2
:100EB0000CF0C2FC41EC1A0B664890ED000AF0EE13
:100EC000000A20EE200A6548D0ED000A20EE200A34
:100ED0006A48D0ED000AB0EE001A60EE810A684858
:100EE00090ED001A00EE810A10EE101A08460CF080
:100EF000A3FC41EC1B0BB0EE4A1AF0EE6A1AB0EEFE
:100F00004B0AF0EE6B0A05F073F9B0EE409AF0EE82
:100F1000609A9FED5D0B53EC102B51EC190B0CF00C
:100F2000CBF941EC180B0BF035FF2860544890EDDD
:100F3000000AF0EE000A20EE200A4848D0ED000A30
:100F400020EE200A4D48D0ED000AB0EE001A60EE07
:100F5000810A404890ED001A00EEC10A10EE101A06
:100F600008460CF069FC41EC1B0BB0EE4B0AF0EEAE
:100F70006B0A04F021FEB0EE40AAF0EE60AA51EC3C
:100F80001A0B0BF0FBFE41EC190B9FED3F0B53ECE2
:100F9000102B0CF091F941EC180B0BF0FBFE2060CC
:100FA000364890ED000A20EE000A3548D0ED000AE0
:100FB00090ED001A00EE810A2648D0ED000A90ED6F
:100FC000001A00EEC10A2548D0ED000A90ED001A83
:100FD00000EEC10A10EE101A08460CF02DFC41EC90
:100FE0001A0B274890ED000A1A48D0ED000A20EEAF
:100FF000200A2248D0ED000A184890ED001A00EEB1
:10100000810AF0EE000A20EE200A10EE101A0846BF
:101010000CF012FC41EC1B0BB0EE4A1AF0EE6A1A0F
:10102000B0EE4B0AF0EE6B0A05F0E2F8B0EE409A33
:10103000F0EE609A9FED140B53EC102B51EC190B52
:101040000CF03AF941EC180B0BF0A4FE30600020D4
:1010500040E40000F404002010050020F804002003
:10106000140500200C050020D4040020D804002022
:10107000DC040020B404002008050020EC0400205B
:10108000F0040020B80400200000006066A64C4078
:1010900070B586B004460D461646122003F048FC93
:1010A000ADF81000132003F043FCADF81200BDF8BA
:1010B0001000BDF8121040EA012000B2ADF8140093
:1010C000142003F035FCADF80800152003F030FCC7
:1010D000ADF80A00BDF80800BDF80A1040EA01208A
:1010E00000B2ADF80C00162003F022FCADF80000B1
:1010F000172003F01DFCADF80200BDF80000BDF89C
:10110000021040EA012000B2ADF80400BDF814005E
:101110002080BDF80C002880BDF80400308006B0A7
:1011200070BD2DE9F04387B004460D4616461F46B4
:10113000DDE90E890C2204A9104603F023FC9DF87A
:1011400010009DF8111040EA012000B2ADF8040033
:101150009DF812009DF8131040EA012000B2ADF88E
:1011600006009DF814009DF8151040EA012000B219
:10117000ADF808009DF816009DF8171040EA012010
:1011800000B2ADF80A009DF818009DF8191040EA69
:10119000012000B2ADF80C009DF81A009DF81B105C
:1011A00040EA012000B2ADF80E00BDF8040038801E
:1011B000BDF80600A8F80000BDF80800A9F8000076
:1011C000BDF80A002080BDF80C002880BDF80E0094
:1011D000308007B0BDE8F08338B51C4805F0B8FD95
:1011E0000446204605F020FA184805F0E7F90446C1
:1011F000204605F019FA34BB01200090134A012162
:10120000684605F057FE0446204605F00DFA0F48E3
:1012100003F08DFF002000900C4A0121684605F084
:1012200049FE0446204605F0FFF9084803F052FF46
:1012300002200090054A0121684605F03BFE044665
:10124000204605F0F1F9204638BD0000F8050020E1
:1012500000BFFEE770B504460D46A4F20120052844
:1012600032D2DFE800F0030B151F29001848294689
:101270000269904716484169884726E01448294684
:10128000026B203090471248416B203088471CE0A9
:101290000F482946026D403090470D48416D40305F
:1012A000884712E00A482946026F60309047084894
:1012B000416F6030884708E0064829460269904738
:1012C00004484169884700E000BF00BF70BD0000CE
:1012D000E00300208004002010B5024801F0A0F8CF
:1012E00010BD0000C80A002000BF00BF704700000A
:1012F00010B5024801F094F810BD0000F00A00207B
:1013000001464A780B7842EA032070470146CA78C2
:101310008B7842EA032210B2704701464A790B7972
:1013200042EA032210B270470146887970470000F4
:1013300000B58BB000200590012009900020079097
:1013400001200890002001900290039004900690E4
:101350000E200A9001A90C4800F012FF0A4801F083
:101360001CFB0221084800F04BFE0E20069001A94C
:10137000064800F005FF054801F00FFB0221034875
:1013800000F03EFE0BB000BDC80A0020F00A0020AD
:1013900070B588B004460D4616460E49206888424E
:1013A00006D00D492068884202D0012008B070BDE7
:1013B00002950020049005900820069001AB32466B
:1013C00002A9204600F031FE08B10120EEE700201E
:1013D000ECE70000006400400068004010B500F039
:1013E0000BF80448007808B900F058F900F0ECF860
:1013F00010BD0000E805002000B50648007810B9CF
:1014000000F00CF805E003480078012801D100F055
:1014100003F800BDE805002070470000244800687C
:10142000B0F9020000EE100AB8EEC00ADFED210AA2
:1014300020EE200ADFED200A80EE201ABDEEC10A60
:1014400010EE100A00B21D4949684880184800682B
:10145000B0F9000000EE100AB8EEC00ADFED150A80
:1014600020EE200ADFED140A80EE201ABDEEC10A3C
:1014700010EE100A00B21149496888800C480068D3
:10148000B0F9040000EE100AB8EEC00ADFED090A58
:1014900020EE200ADFED080A80EE201ABDEEC10A18
:1014A00010EE100A00B205494968C8807047000074
:1014B000C40000200000FA45000025443000002050
:1014C00010B5194800681949086017484068486015
:1014D0001548806888601448C068C8601248006871
:1014E00000681349086010484068006848600E486A
:1014F0008068006888600C48C0680068C8600A4856
:10150000006840680B4908600748406840684860C8
:1015100005488068406888600348C0684068C860C3
:1015200000F03EF810BD000018000020C8050020A3
:10153000D8050020B8050020026802B110B90222C7
:101540004277704701680A7D521C0A750A7D4B7DFF
:101550009A4204DD4A7D0A750122027704E0027F87
:10156000012A01D10022027700BFEAE7026802B136
:1015700010B902224277704701680A7D521C0A7531
:101580000A7D4B7D9A4204DD4A7D0A75012202776D
:1015900004E0027F012A01D10022027700BFEAE7BE
:1015A00010B50848C16888470648C16A2030884796
:1015B0000448C16C403088470248C16E603088479B
:1015C00010BD0000E003002010B500210B4800F022
:1015D000B9F80121094800F0B5F80221074800F0E8
:1015E000B1F80321054800F0ADF80548008800B2C5
:1015F00004490880014800F007F810BD18000020D9
:10160000080000201000002010B5024600203BE03A
:101610001F4951F82010097FE9B91E4931F810100F
:101620000B0A1B4951F8201049684968A1F20121B1
:10163000194C04F81130174911F81030144951F8B9
:10164000201049684968A1F20121012404EB4101FD
:10165000114C635416E000230D4951F820104968DD
:101660004968A1F201210C4C04F81130084951F8E5
:10167000201049684968A1F20121012404EB4101CD
:10168000054C6354411CC8B20428C1DB10BD0000E6
:10169000C80500200800002070060020214B5B6870
:1016A000B3F902201F4B5B68B3F904001D4B5B6864
:1016B000B3F9061013180B4400EE103AB8EEC00A46
:1016C000194B1B689B6883ED070A534203440B4484
:1016D00000EE103AB8EEC00A134B5B689B6883EDCE
:1016E000070A131A0B4400EE103AB8EEC00A0E4B6C
:1016F0009B689B6883ED070A53421B1A0B4400EE5C
:10170000103AB8EEC00A084BDB689B6883ED070A05
:10171000054B1B689B6893ED070A044B83ED000A99
:101720007047000030000020C80500201400002091
:1017300010B5034800F03CF8FFF75EFE10BD000056
:101740001800002070B505460C46174951F82410C2
:10175000896891ED071AF0EE410A134951F82410F7
:101760000968B1F9021001EE101AB8EEC11AB0EE14
:10177000410A0D4951F82410886803F0BDFB0A485E
:1017800050F82400806880ED260A074850F82400AD
:10179000806890ED260ABDEEC00A10EE100A0349DB
:1017A00021F8140070BD0000C805002008000020CA
:1017B0000246002016E09FED390A394951F8201001
:1017C000896881ED260A364951F82010896891ED23
:1017D000260ABDEEC00A10EE101A324B23F8101084
:1017E000411CC8B20428E6DB2E480088010A2E48B6
:1017F00000684068A0F201202C4B03F81010294823
:101800000178294800684068A0F20120012303EB19
:101810004000264B195423484088010A224840685A
:101820004068A0F2012003F810101E4881781E487D
:1018300040684068A0F20120012303EB40001B4BED
:10184000195418488088010A174880684068A0F237
:10185000012003F81010134801791348806840688C
:10186000A0F20120012303EB4000104B19540D4856
:10187000C088010A0C48C0684068A0F2012003F843
:101880001010084881790848C0684068A0F201201B
:10189000012303EB4000054B195470470000000082
:1018A000C805002008000020B805002070060020B0
:1018B0007047000070B52DED048B0446206800B120
:1018C00024B902206077BDEC048B70BD25682888A0
:1018D0002989401A00B26881B5F90A00B0F5805F25
:1018E00006DD6889A0F5F850FF3800B268810AE08B
:1018F000B5F90A0010F5805F05DA688941F6FF71D5
:10190000084400B268812068008800B2216808811C
:101910002068C0682168B1F90A1008442168C860CD
:101920002168C8680BF0B0FC41EC190B9FED090B66
:1019300053EC102B0BF0C0FC41EC180B0BF02AFA07
:1019400000EE100A206880ED040A00202168087566
:1019500000BFB8E7405494551EF3623F70B52DEDBB
:10196000048B0446206800B124B902206077BDECE6
:10197000048B70BD256828882989401A00B26881C7
:10198000B5F90A00B0F5805F06DD6889A0F5F8506A
:10199000FF3800B268810AE0B5F90A0010F5805FEF
:1019A00005DA688941F6FF71084400B26881206851
:1019B000008800B2216808812068C0682168B1F9F8
:1019C0000A1008442168C8602168C8680BF05CFCF4
:1019D00041EC190B9FED090B53EC102B0BF06CFC39
:1019E00041EC180B0BF0D6F900EE100A206880EDE0
:1019F000040A00202168087500BFB8E70000000055
:101A00000080A63F10B5054A1068126891688847A3
:101A1000024A506852689168884710BDA0040020AF
:101A200010B5024801F05AF810BD0000380D002032
:101A300010B5024801F052F810BD0000180F002048
:101A400010B5024801F04AF810BD0000780C0020E3
:101A500010B5024801F042F810BD0000780F0020D8
:101A600010B5024801F03AF810BD0000D80C002073
:101A700010B5024801F032F810BD0000B80E002089
:101A800010B5024801F02AF810BD0000980D0020A2
:101A900010B5024801F022F810BD0000F80D00203A
:101AA00010B5024801F01AF810BD0000580E0020D1
:101AB000F0B50446059D0026A068802803D14000AB
:101AC00060650120F0BDE648E063E6486064E06BD5
:101AD00008B1606C18B9402060650120F2E700BFD2
:101AE00094F83400012801D10220EBE7012084F8AA
:101AF000340000BF94F83500012875D1022084F825
:101B00003500002060652068006840F48020276868
:101B100038602068036120684560A068402804D1CF
:101B2000206882602068C16003E0206881602068CE
:101B3000C260CD4F2068B8425DD9CC4F2068B84212
:101B400001D1202053E0C84F483F2068B84201D15E
:101B500020204CE0C54F60372068B84201D12020DA
:101B600045E0C14F18372068B84201D120203EE03F
:101B7000BE4F18372068B84201D1C01437E0BA4FC1
:101B8000303F2068B84201D1C01430E0B74F7837F9
:101B90002068B84201D1C01429E0B34F3037206823
:101BA000B84201D1C01422E0B04F30372068B842AB
:101BB00002D14FF400101AE0AB4F183F2068B84232
:101BC00002D14FF4001012E0A84F90372068B842BD
:101BD00002D14FF400100AE0A34F48372068B84202
:101BE00003D14FF4001002E02CE14FF000609E4F53
:101BF0004C3F38601FE19D4FA8372068B8425CD940
:101C00009A4F2068B84201D1202052E0964F483FB9
:101C10002068B84201D120204BE0944F6037206803
:101C2000B84201D1202044E08F4F18372068B842D5
:101C300001D120203DE08D4F18372068B84201D1F6
:101C4000C01436E0884F303F2068B84201D1C0143C
:101C50002FE0864F78372068B84201D1C01428E0C1
:101C6000814F30372068B84201D1C01421E07F4F46
:101C700030372068B84202D14FF4001019E07A4F93
:101C8000183F2068B84202D14FF4001011E0774F9E
:101C900090372068B84202D14FF4001009E0724F2B
:101CA00048372068B84202D14FF4001001E04FF0ED
:101CB00000606D4F503F3860BDE06C4F4837206882
:101CC000B8425CD9694F2068B84201D1202052E067
:101CD000654F483F2068B84201D120204BE0634F58
:101CE00060372068B84201D1202044E05E4F1837A9
:101CF0002068B84201D120203DE05C4F18372068B1
:101D0000B84201D1C01436E0574F303F2068B84286
:101D100001D1C0142FE0554F78372068B84201D167
:101D2000C01428E0504F30372068B84201D1C014A9
:101D300021E04E4F30372068B84202D14FF40010F6
:101D400019E0494F183F2068B84202D14FF4001003
:101D500011E0464F90372068B84202D14FF400108E
:101D600009E0414F48372068B84202D14FF40010D3
:101D700001E04FF000603D4F103FF8605BE03B4FEB
:101D80002068B84201D1202052E0374F483F2068F8
:101D9000B84201D120204BE0344F60372068B84270
:101DA00001D1202044E0304F18372068B84201D1DB
:101DB00020203DE02D4F18372068B84201D1C014D3
:101DC00036E0294F303F2068B84201D1C0142FE0DF
:101DD000264F78372068B84201D1C01428E0224F3E
:101DE00030372068B84201D1C01421E01F4F30378E
:101DF0002068B84202D14FF4001019E01A4F183F82
:101E00002068B84202D14FF4001011E0174F90370C
:101E10002068B84202D14FF4001009E0124F483751
:101E20002068B84202D14FF4001001E04FF000608A
:101E30000E4F103FB8602068006840F0010027682E
:101E4000386005E000BF002084F8340000BF02269F
:101E500000BF002084F8340000BF304632E60000A6
:101E6000AD750008C9750008586402401060024052
:101E70000146087810381823B0FBF3F20848805C5C
:101E8000C865032A05D908686FF30900001D886535
:101E900003E008686FF309008865886D70470000EB
:101EA00040FA0008014600208A6A8B69CBB932B13A
:101EB000012A0DD0022A03D0032A10D10EE000BF60
:101EC000CB6A03F08073B3F1807F00D1012007E07B
:101ED000CB6AB3F1C07F00D1012001E000E000BF78
:101EE00034E08B69B3F5005F1AD132B1012A07D013
:101EF000022A03D0032A11D10AE000BF01200EE01C
:101F0000CB6A03F08073B3F1807F00D1012006E03B
:101F1000CB6AB3F1C07F00D1012000E000BF15E023
:101F200032B1012A05D0022A04D0032A0CD103E0E1
:101F300000BF00BF012008E0CB6A03F08073B3F15B
:101F4000807F00D1012000E000BF00BF704770B566
:101F50000446002500BF94F83400012801D1022076
:101F600070BD012084F8340000BF94F835000128CA
:101F70001FD1022084F835000020606520680068C9
:101F800020F480202668306020684360A0684028E4
:101F900004D1206882602068C16003E0206881600D
:101FA0002068C2602068006840F001002668306048
:101FB00005E000BF002084F8340000BF0225284659
:101FC000CEE710B503F0AAFC03F0DEFC03F022FD1F
:101FD00003F04EFD10BD10B504462068006800F007
:101FE0001000102807D12068C06800F0100010B160
:101FF00020460AF077F810BD704772B600BFFEE7C2
:1020000010B5024692F82030012B01D0022B06D1E8
:1020100010684069084314686061002010BD506A70
:1020200040F4802050620120F8E7F0B504460D46E8
:102030001E4694F8207020688368A86800B900E004
:1020400000BF012F01D0022F7CD103F0806030B996
:1020500003F0006018B903F08050002873D0C3F378
:102060000161022905D9606A40F400006062012024
:10207000F0BD012088403060A86860B9B5F800C0A4
:10208000E86840EA4C5C206800F5C07000EB011085
:10209000C0F800C00FE0D5E901C040EACC00D5F897
:1020A0000CC040EA0C00D4F800C00CF5C07C0CEB6E
:1020B000011CCCF80000D5F810C0206800F5C070F5
:1020C00000EB0110C0F804C0287D01280ED1206863
:1020D00000F5C07000EB0110406840F4807C20687F
:1020E00000F5C07000EB0110C0F804C0D079000604
:1020F00092F806C040EA0C4092F805C040EA0C2C69
:1021000010794CEA000C206800F5C07000EB01105B
:10211000C0F80CC0D078000692F802C040EA0C402B
:1021200092F801C040EA0C2092F800C040EA0C008E
:10213000D4F800C00CF5C07C0CEB011CCCF80800F6
:10214000206801E016E00FE000F5C07000EB011020
:10215000006840F0010C206800F5C07000EB011031
:10216000C0F800C0002083E7606A40F4001060629D
:1021700001207DE7606A40F480206062012077E7FB
:10218000F0B504460A46216894F82050012D01D08C
:10219000022D7ED1424901F50071086840F001002E
:1021A0000860086820F47C5008600868566A40EAB5
:1021B00006200860107D00F01F06012000FA06F3DB
:1021C000C8699843C861A1F50071D069C8B9D1F850
:1021D0000C029843C1F80C02908880B2968940EABC
:1021E000064601F51070576940F83760108880B2D4
:1021F000168940EA064601F51070576900EBC700E2
:102200004660D069012819D1D1F80C021843C1F8F1
:102210000C02908880B2168840EA064601F51070DC
:10222000576940F83760908980B2168940EA0646BF
:1022300001F51070576900EBC7004660906928B936
:10224000D1F804029843C1F8040204E0D1F8040272
:102250001843C1F80402106928B9D1F81402984350
:10226000C1F8140204E0D1F814021843C1F81402B2
:10227000106A012804D1D1F81C021843C1F81C02CD
:10228000D1F8000220F00100C1F800020020F0BDEA
:10229000FFE7606A40F4802060620120F7E70000F9
:1022A00000640040704770B5044694F82050012D3A
:1022B00001D0022D7DD151B92068C06800F0030023
:1022C00080B9606A40F400106062012070BD20682F
:1022D000006900F0030028B9606A40F400106062F1
:1022E0000120F3E7206800F5D87000EB01100068CA
:1022F00000F004009060906840B9206800F5D87044
:1023000000EB01100068400D106007E0206800F548
:10231000D87000EB01100068C0085060206800F51C
:10232000D87000EB0110006800F00200D060206857
:1023300000F5D87000EB0110406800F00F0010614C
:10234000206800F5D87000EB0110406800F47F4071
:10235000000A9061206800F5D87000EB0110406819
:10236000000C5061206800F5D87000EB0110806807
:102370001870206800F5D87000EB0110806800F438
:102380007F40000A5870206800F5D87000EB0110FB
:10239000806800F47F00000C9870206800F5D87009
:1023A00000EB01108068000ED870206800F5D8702E
:1023B00000E02FE000EB0110C0681871206800F504
:1023C000D87000EB0110C06800F47F40000A58711B
:1023D000206800F5D87000EB0110C06800F47F00A1
:1023E000000C9871206800F5D87000EB0110C068EF
:1023F000000ED87131B92068C06840F0200026680E
:10240000F06005E02068006940F020002668306137
:1024100000205BE7606A40F480206062012055E79D
:102420002DE9F05F04460025206846692068D0F851
:102430000490206887682068D0F80CA02068D0F845
:1024400010B02068D0F8188006F00100002855D0A0
:1024500007F00100C0B101202168886007F0020088
:1024600018B1204600F0C9FA0EE007F0040010B1E0
:1024700045F4006508E007F0080010B145F4805508
:1024800002E0204600F0B8FA07F48070C8B14FF4BB
:1024900080702168886007F4007018B1204600F051
:1024A000AEFA0EE007F4806010B145F4005508E084
:1024B00007F4006010B145F4804502E0204600F0CA
:1024C0009DFA07F48030C8B14FF4803021688860ED
:1024D00007F4003018B1204600F093FA0EE007F43C
:1024E000802010B145F4004508E007F4002010B149
:1024F00045F4803502E0204600F082FA06F008003C
:1025000038B10AF0100020B145F4007510202168A0
:10251000C86006F0040040B10AF0080028B10820A5
:102520002168C860204600F00DFA06F0020038B1BC
:102530002068C06800F0030010B1204600F004FAE3
:1025400006F0400038B10BF0100020B145F4806572
:1025500010202168086106F0200040B10BF008004F
:1025600028B1082021680861204600F013FA06F01F
:10257000100038B12068006900F0030010B1204657
:1025800000F009FA06F4003040B109F0100028B15B
:10259000102021684860204600F0FEF906F48030E3
:1025A00040B109F0080028B10820216848602046A1
:1025B00000F028FA06F4004088B309F0040078B36C
:1025C00006F4807020B108F0010008B145F0010563
:1025D00006F4007020B108F0020008B145F00205D1
:1025E00006F4806020B108F0040008B145F004054D
:1025F00006F40060A0B108F0700088B108F0700027
:10260000402817D006DC10280BD020280CD030280A
:1026100019D10CE0502810D0602814D110E01DE032
:1026200019E045F008050FE045F010050CE045F015
:10263000200509E045F0400506E045F0800503E08F
:1026400045F4807500E000BF00BF2068806920F07D
:102650007000216888610420216848602DB1606A9B
:10266000284360622046FFF71DFEBDE8F09F70B56D
:1026700004460CB9012070BD94F8200010B9204622
:1026800000F0B0F82068006840F0010021680860A0
:1026900000F0BAFC05460DE000F0B6FC401B0A282D
:1026A00008D9606A40F400306062052084F8200098
:1026B0000120E0E72068406800F001000028EBD02E
:1026C0002068006820F002002168086000F09CFC8F
:1026D00005460DE000F098FC401B0A2808D9606A06
:1026E00040F400306062052084F820000120C2E739
:1026F0002068406800F002000028EBD1207E01280D
:1027000006D12068006840F080002168086005E07C
:102710002068006820F0800021680860607E012841
:1027200006D12068006840F040002168086005E09C
:102730002068006820F0400021680860A07E012821
:1027400006D12068006840F020002168086005E09C
:102750002068006820F0200021680860E07E0128E1
:1027600006D12068006820F010002168086005E0AC
:102770002068006840F0100021680860207F012870
:1027800006D12068006840F008002168086005E074
:102790002068006820F0080021680860607F012838
:1027A00006D12068006840F004002168086005E058
:1027B0002068006820F0040021680860D4E9020164
:1027C000084321690843616908436168491E084359
:1027D0002168C86100206062012084F82000002088
:1027E00049E7000010B586B00446142101A8FDF7A2
:1027F000E0FE4E492068884241D14D480068401CA7
:102800004B4908600846006801280FD100BF00202E
:1028100000904848006840F000704649086008464B
:10282000006800F00070009000BF00BF00BF0020F3
:10283000009040481038006840F008003D491039C9
:1028400008600846006800F00800009000BF00BF64
:1028500003200190022002900020039003200490A6
:102860000920059001A9344800F0CEFA0022052184
:10287000142000F0D5FC142000F0BEFC54E02F49D9
:102880002068884250D100BF00200090294800688D
:1028900040F08060274908600846006800F08060CA
:1028A000009000BF00BF22480068401C204908601B
:1028B0000846006801280FD100BF002000901D4885
:1028C000006840F000701B4908600846006800F08E
:1028D0000070009000BF00BF00BF002000901548AE
:1028E0001038006840F002001249103908600846AC
:1028F000006800F00200009000BF00BF602001905F
:1029000002200290002003900320049009200590EB
:1029100001A90B4800F078FA00220521402000F0C0
:102920007FFC402000F068FC06B010BD0064004051
:102930003C05002040380240000C02400068004086
:10294000000402407047000010B504460E4BA3F18E
:102950001C0200212046FFF7A6FC0C48844206D149
:1029600009491C3908681C31FEF774FC0AE0084864
:10297000844206D104491C3908681C31FEF7B4FCB6
:1029800000E010BD00BFFCE7AC060020C80A002034
:10299000F00A002070477047704770B5044694F8FD
:1029A0002000012822D1022084F82000206800683D
:1029B00020F001002168086000F026FB05460DE0CC
:1029C00000F022FB401B0A2808D9606A40F400305E
:1029D0006062052084F82000012070BD20684068F6
:1029E00000F001000028EBD16062F6E7606A40F475
:1029F000002060620120F0E7704770477047704721
:102A000070477047704770B50446A56D00F0FCFA3A
:102A1000064694F83500022808D08020606500BF83
:102A2000002084F8340000BF012070BD20680068D9
:102A300020F01600216808602068406920F08000BE
:102A400021684861206C08B9A06C28B12068006832
:102A500020F00800216808602068006820F001006C
:102A60002168086010E000F0CFFA801B05280BD920
:102A700020206065032084F8350000BF002084F822
:102A8000340000BF0320D0E72068006800F0010098
:102A90000028E8D194F85C103F208840A86001200D
:102AA00084F8350000BF002084F8340000BF00BF68
:102AB000BBE7014691F83500022803D08020486525
:102AC00001207047052081F835000868006820F073
:102AD00001000A6810600020F3E70000F8B5044622
:102AE000002000908C4800684FF41651B0FBF1F7BD
:102AF000A56D2E6894F85C1008208840304098B18D
:102B00002068006800F0040070B12068006820F0C0
:102B100004002168086094F85C1008208840A860D0
:102B2000606D40F00100606594F85C100120884001
:102B3000304068B12068406900F0800040B194F8EE
:102B40005C1001208840A860606D40F00200606564
:102B500094F85C1004208840304068B12068006818
:102B600000F0020040B194F85C1004208840A86096
:102B7000606D40F00400606594F85C10102088409F
:102B8000304078B32068006800F0080050B394F833
:102B90005C1010208840A8602068006800F4802045
:102BA00080B12068006800F4002028B9206CC8B10A
:102BB0002046216C884715E0A06C98B12046A16C96
:102BC00088470FE02068006800F4807028B920680A
:102BD000006820F0080021680860206C10B12046D1
:102BE000216C884794F85C102020884030400028F1
:102BF00065D02068006800F0100000285FD094F8CD
:102C00005C1020208840A86094F83500052828D161
:102C10002068006820F0160021680860206840697C
:102C200020F0800021684861206C08B9A06C28B1B0
:102C30002068006820F008002168086094F85C10A3
:102C40003F208840A860012084F8350000BF0020A4
:102C500084F8340000BF206D10B12046216D8847F4
:102C6000F8BD2068006800F4802080B1206800680A
:102C700000F4002028B9606C10B12046616C8847D0
:102C80001DE0E06BD8B12046E16B884717E0206873
:102C9000006800F4807068B92068006820F01000B7
:102CA00021680860012084F8350000BF002084F806
:102CB000340000BFE06B10B12046E16B8847606DC7
:102CC00038B3606D00F00100F0B1052084F83500E4
:102CD0002068006820F001002168086000BF0098AB
:102CE000401C0090B84200D905E02068006800F060
:102CF00001000028F3D100BF012084F8350000BF97
:102D0000002084F8340000BFE06C10B12046E16C74
:102D1000884700BFA4E700004C0500202DE9F041E2
:102D20000446002500F070F9074614B90120BDE8FB
:102D3000F081606A00B100BF022084F8350000BF56
:102D4000002084F8340000BF2068006820F00100F3
:102D5000216808600AE000F057F9C01B052805D972
:102D600020206065032084F83500E0E720680068D3
:102D700000F001000028EED12068056821480540D8
:102D8000D4E901010843E168084321690843616906
:102D90000843A1690843E1690843216A08430543E0
:102DA000606A042803D1D4E90B0108430543206875
:102DB00005602068456925F00705606A0543606A7B
:102DC00004280DD1A06A0543E06A48B12046FFF708
:102DD00069F828B140206065012084F83500A6E735
:102DE000206845612046FFF743F8064694F85C10DA
:102DF0003F208840B06000206065012084F83500E5
:102E0000002094E73F8010F0F8B502460B460025FD
:102E1000002400200021D6E0012606FA01F51E68F4
:102E200006EA0504AC4274D11E7906F00306012EB1
:102E300004D01E7906F00306022E13D190684F00CD
:102E40000326BE40B0434F00DE68BE403043906072
:102E5000506801268E40B0431E79C6F300168E409E
:102E6000304350601E7906F00306032E09D0D06867
:102E70004F000326BE40B0434F009E68BE40304323
:102E8000D0601E7906F00306022E13D1CF0802F19E
:102E9000200656F827004E07F70E0F26BE40B04317
:102EA0004F07FF0E1E69BE403043CF0802F12006D7
:102EB00046F8270010684F000326BE40B0431E7935
:102EC00006F003064F00BE40304310605E6806F413
:102ED0004036002E76D000BF002600963C4E366865
:102EE00046F480463A4F3E603E46366806F48046D9
:102EF000009600BF00BF374E8F0856F827008E0798
:102F0000370F0F26BE40B043334EB24202D10026E7
:102F100024E057E0314EB24201D101261EE0304E8E
:102F2000B24201D1022619E02E4EB24201D103264F
:102F300014E02D4EB24201D104260FE02B4EB242D6
:102F400001D105260AE02A4EB24201D1062605E04B
:102F5000284EB24201D1072600E008268F073F0F16
:102F6000BE4030431B4E8F0846F82700224E306883
:102F7000A0435E6806F4801606B120431E4E306002
:102F8000361D3068A0435E6806F4001606B1204383
:102F9000194E361D3060184E361F3068A0435E68EB
:102FA00006F4003606B12043134E361F3060361F3C
:102FB0003068A0435E6806F4803606B120430E4EAA
:102FC000083E3060491C1029FFF426AFF8BD000010
:102FD000443802400838014000000240000402402A
:102FE00000080240000C02400010024000140240A1
:102FF00000180240001C0240083C01400AB18161F7
:1030000001E00B04836170470148006870470000CD
:103010004005002070B504460CB9012070BD4CF687
:10302000CC402168086045F2555021680860D4E919
:10303000001048602168A0688860FFF7E5FF05463A
:103040000BE0FFF7E1FF401B312806D92068C0687C
:1030500000F0030008B10320E0E72068C06800F03A
:1030600003000028EDD14AF6AA202168086000205C
:10307000D4E701464AF6AA200A681060002070478B
:1030800009480068094909780844074908604FF071
:103090008040406A096801EB4102C2EBC11100EBBC
:1030A000C100034908607047400500204805002022
:1030B0001C05002010B50D48006840F400700B4955
:1030C00008600846006840F48060086008460068B0
:1030D00040F480700860032000F0E0F80F2000F05A
:1030E00007F800F05FF8002010BD0000003C02402F
:1030F0002DE9F04188B004460027B84600BF002003
:1031000001902448006840F0010022490860084608
:10311000006800F00100019000BF00BF02A903A8F1
:1031200000F092F9069F1FB900F0B6F9054602E0DB
:1031300000F0B2F945001848B5FBF0F0A0F1010825
:103140004FF080401549086040F2E7311348C160F4
:10315000C0F80480002101618160816100F064FC9D
:10316000064696B90D4800F093FC06466EB91C2041
:1031700000F042F8102C07D2002221461C2000F05B
:103180004FF80748046000E00126304608B0BDE86B
:10319000F08100004038024040420F00D80F00206C
:1031A0004405002008B500BF0020009011480068C9
:1031B00040F480400F4908600846006800F48040F1
:1031C000009000BF00BF00BF00200090081F0068F3
:1031D00040F08050091F08600846006800F08050E9
:1031E000009000BF00BF00220F21901E00F018F8D1
:1031F00008BD0000443802400146084600280DDBA7
:1032000000BF00BF00F01F0301229A4043099B004A
:1032100003F1E023C3F8002100BF00BF00BF7047E7
:103220002DE9F05F80460D461646002702F0A6FC09
:10323000074639462A46334601F00700C0F1070A1F
:10324000BAF1040F02D94FF0040A01E0C0F1070AF5
:10325000D14600F1040ABAF1070F02D24FF0000A7A
:1032600001E0A0F1030AD4464FF0010A0AFA09FA74
:10327000AAF1010A0AEA020A0AFA0CFA4FF0010B53
:103280000BFA0CFBABF1010B0BEA030B4AEA0B0444
:103290002146404602F07AFCBDE8F09F00BF00F0F6
:1032A0000702064B19684FF6FF031940044B0B4306
:1032B00043EA0221014B196000BF70470CED00E0AA
:1032C0000000FA0570B504460D460CB9012070BD2A
:1032D0005848006800F00700A84209D255490D700F
:1032E0000846006800F00700A84201D00120EEE780
:1032F000207800F0020002281DD1207800F00400A0
:10330000042805D14C48006840F4E0504A49086060
:10331000207800F00800082805D14748006840F4EC
:103320006040454908604448006820F0F000A1680A
:10333000084341490860207800F00100A8B36068A4
:10334000012807D13C4808380068C0F34040B8B9AC
:103350000120BCE76068022802D06068032807D11A
:10336000354808380068C0F3406048B90120AEE72E
:10337000314808380068C0F3400008B90120A6E7CA
:103380002D48006820F00300616808432A4908605E
:10339000FFF73AFE064609E0FFF736FE801B41F2D2
:1033A0008831884202D9032091E707E0224800686B
:1033B00000F00C006168B0EB810FEDD11D48006892
:1033C00000F00700A84209D91A490D7008460068A4
:1033D00000F00700A84201D0012078E7207800F033
:1033E0000400042807D11448006820F4E050E16884
:1033F000084311490860207800F00800082808D127
:103400000D48006820F46040216940EAC1000A4983
:10341000086000F061F808490968C1F30311074A20
:10342000515CC8400649086006480068FFF760FE26
:1034300000204CE7003C02400838024048FA0008EF
:103440004C050020440500200F2202600D4A12683E
:1034500002F0030242600B4A126802F0F00282603E
:10346000084A126802F4E052C260064A126802F486
:103470006042D2080261044A126802F007020A6040
:103480007047000008380240003C024001480068D4
:10349000704700004C05002000B5FFF7F7FF044916
:1034A0000968C1F38221034A515CC84000BD000095
:1034B0000838024058FA000800B5FFF7E7FF044952
:1034C0000968C1F34231034A515CC84000BD0000A5
:1034D0000838024058FA00082DE9F047002400257A
:1034E0000026A1462548006800F00C0020B1042801
:1034F00005D008283AD105E0DFF8849039E0DFF8FC
:10350000849036E01D48001F006800F03F041B480F
:10351000001F006800F4800078B11A481749091F9D
:103520000968C1F38811A0FB0170014622460023FF
:103530003846FCF773FF05460EE011480F49091F96
:103540000968C1F38811A0FB0170014622460023DF
:103550003846FCF763FF05460848001F0068C0F3C3
:103560000140401C4600B5FBF6F902E0DFF8109080
:1035700000BF00BF4846BDE8F087000008380240A1
:103580000024F40040787D01F8B504460CB9012010
:10359000F8BD207800F00100002874D0F9480068D8
:1035A00000F00C0004280DD0F648006800F00C0074
:1035B000082813D1F348001F006800F48000B0F51C
:1035C000800F0BD1EF4808380068C0F34040002856
:1035D00059D06068002856D10120D9E700BF606843
:1035E000B0F5803F08D1E7480838006840F48030E3
:1035F000E449083908601EE06068B0F5A02F0DD1DD
:10360000E0480838006840F48020DE490839086046
:103610000846006840F4803008600CE0D94808385B
:10362000006820F48030D7490839086008460068EF
:1036300020F48020086000BF606890B1FFF7E4FCD0
:10364000054606E0FFF7E0FC401B642801D9032093
:103650009EE7CC4808380068C0F340400028F1D00D
:1036600011E0FFF7D1FC054606E0FFF7CDFC401B5B
:10367000642801D903208BE7C24808380068C0F3EA
:1036800040400028F1D1207800F0020002285FD1EC
:10369000BC48006800F00C0058B1BA48006800F05F
:1036A0000C0008281CD1B748001F006800F48000F7
:1036B000B0B9B44808380068C0F3400020B1E068F1
:1036C000012801D0012063E7AE480838006820F0E7
:1036D000F800216940EAC100AA490839086037E0CA
:1036E000E06800B30120A8490860FFF78DFC05469B
:1036F00006E0FFF789FC401B022801D9032047E7B9
:10370000A04808380068C0F340000028F1D09D4868
:103710000838006820F0F800216940EAC1009949A2
:103720000839086014E0002097490860FFF76CFC36
:10373000054606E0FFF768FC401B022801D903207C
:1037400026E7904808380068C0F340000028F1D10F
:10375000207800F0080008282CD16069A8B1012069
:103760008A490860FFF750FC054606E0FFF74CFC6D
:10377000401B022801D903200AE782486C30006808
:10378000C0F340000028F1D014E000207F49086019
:10379000FFF73AFC054606E0FFF736FC401B02281F
:1037A00001D90320F4E677486C300068C0F340008C
:1037B0000028F1D1207800F00400042870D10027FF
:1037C00070483830006800F0805090B900BF002089
:1037D00000906C483830006840F0805069493831BA
:1037E00008600846006800F08050009000BF00BFED
:1037F00001276748006800F48070B0B96448006829
:1038000040F4807062490860FFF7FEFB054606E061
:10381000FFF7FAFB401B022801D90320B8E65C48F9
:10382000006800F480700028F2D000BFA068012872
:1038300008D154486830006840F0010051496831AF
:1038400008601DE0A06805280DD14E48683000686A
:1038500040F004004B49683108600846006840F0B9
:10386000010008600CE047486830006820F0010063
:103870004449683108600846006820F00400086088
:1038800000BFA068A8B1FFF7BFFB054609E0FFF73E
:10389000BBFB401B41F28831884202D9032077E606
:1038A00026E0384868300068C0F340000028EED0B9
:1038B00013E0FFF7A9FB054608E0FFF7A5FB401B57
:1038C00041F28831884201D9032061E62D486830F1
:1038D0000068C0F340000028EFD1012F07D129482C
:1038E0003830006820F0805026493831086000BF29
:1038F000A069002845D02348006800F00C00082883
:103900005DD0A069022845D100201F490866FFF755
:103910007BFB054606E0FFF777FB401B022801D939
:10392000032035E6174808380068C0F340600028D7
:10393000F1D1D4E907010843616A40EA811101220B
:10394000A06AC2EB500041EA00412C20005D41EA30
:1039500000600C49091F086001200B490866FFF749
:1039600053FB054606E0FFF74FFB401B022801D939
:1039700003200DE6034808380068C0F340600028C3
:10398000F1D049E00838024000004742800E47422B
:1039900000700040002021490866FFF735FB05460E
:1039A00006E0FFF731FB401B022801D90320EFE5B9
:1039B0001B480068C0F340600028F2D12CE0A069E9
:1039C000012800D1E4E51648001D0668A069012819
:1039D00020D006F48001E06981421BD106F03F014E
:1039E000206A814216D147F6C0703040616AB0EB60
:1039F000811F0FD106F440310122A06AC2EB5000B2
:103A0000B1EB004F06D106F070612C20005DB1EBE8
:103A1000006F01D00120BBE50020B9E5000047425E
:103A2000003802407047704710B504460CB90120B9
:103A300010BD94F83D0028B9002084F83C002046D1
:103A400000F025F8022084F83D00211D206801F0D7
:103A5000C9FC012084F8460000BF84F83E00012123
:103A60003F200155402001554120015500BF00BFB6
:103A7000012084F84200432001554420015545208F
:103A8000015500BF012084F83D000020D0E77047B9
:103A9000014691F83D00012801D001207047022025
:103AA00081F83D000868C06840F001000B68D860EC
:103AB0001A4B086898421BD00868B0F1804F17D0A5
:103AC000174B0868984213D0164B086898420FD0DD
:103AD000154B086898420BD0144B0868984207D0E1
:103AE000134B0868984203D0124B086898420CD1D7
:103AF0000868806800F00702062A0CD00868006891
:103B000040F001000B68186005E00868006840F0AC
:103B100001000B6818600020C0E7000000000140B1
:103B20000004004000080040000C00400004014078
:103B30000040014000180040704710B5044620685E
:103B40000069C0F34000D8B12068C068C0F34000ED
:103B5000B0B16FF002002168086101202077206871
:103B6000806900F0030018B12046FFF7E5FF05E08B
:103B7000204600F0ADF8204600F0ABF8002020779A
:103B800020680069C0F38000D8B12068C068C0F325
:103B90008000B0B16FF00400216808610220207736
:103BA0002068806900F4407018B12046FFF7C4FF18
:103BB00005E0204600F08CF8204600F08AF800204E
:103BC000207720680069C0F3C000D8B12068C068C1
:103BD000C0F3C000B0B16FF0080021680861042094
:103BE00020772068C06900F0030018B12046FFF775
:103BF000A3FF05E0204600F06BF8204600F069F8CE
:103C00000020207720680069C0F30010D8B1206838
:103C1000C068C0F30010B0B16FF0100021680861F7
:103C2000082020772068C06900F4407018B1204651
:103C3000FFF782FF05E0204600F04AF8204600F03A
:103C400048F8002020772068006900F0010058B192
:103C50002068C06800F0010030B16FF001002168F9
:103C60000861204600F036F820680069C0F3C010F3
:103C700058B12068C068C0F3C01030B16FF0800048
:103C8000216808612046FFF7CDFE20680069C0F377
:103C9000801058B12068C068C0F3801030B16FF058
:103CA000400021680861204600F01DF82068006986
:103CB000C0F3401058B12068C068C0F3401030B164
:103CC0006FF02000216808612046FFF7ACFE10BDB0
:103CD0007047704710B504462068B0F1804F01D19D
:103CE000FFF7CEF910BD7047704770472DE9F84FC8
:103CF0000446206805682068C668206847694FF058
:103D00000009CA4605F00F09B9F1000F0AD105F004
:103D1000200038B106F0200020B1204601F032FC2E
:103D2000BDE8F88FB9F1000F7CD007F0010018B999
:103D300006F49070002875D005F0010030B106F44B
:103D4000807018B1206C40F00100206405F0040080
:103D500030B107F0010018B1206C40F0020020647F
:103D600005F0020030B107F0010018B1206C40F0FE
:103D70000400206405F0080048B106F0200010B9E6
:103D800007F0010018B1206C40F008002064206C9E
:103D9000002846D005F0200028B106F0200010B120
:103DA000204601F0EFFB20684069C0F3801A206CC8
:103DB00000F0080010B9BAF1000F2DD0204601F034
:103DC0009BFB2068406900F04000402820D100BFE4
:103DD00000BF2168143151E8001F21F04000216824
:103DE000143141E80002002AF3D100BFA06B50B1AA
:103DF0007548A16B0865A06BFEF75BFE88B1A06BF0
:103E0000016D88470DE02046FFF76FFF09E009E0EC
:103E10002046FFF76AFF04E02046FFF766FF002018
:103E200020647DE7206B012876D105F01000002882
:103E300072D006F010000028FAD000BF00200090D9
:103E400020680068009020684068009000BF00BFB4
:103E50002068406900F0400040285ED1A06B0068F7
:103E600040681FFA80F8B8F1000F54D0A08D40458B
:103E700051DDA4F82E80A06BC069B0F5807F43D0DF
:103E800000BF00BF21680C3151E8001F21F4807091
:103E900021680C3141E80002002AF3D100BF00BFC5
:103EA00000BF2168143151E8001F21F00100216892
:103EB000143141E80002002AF3D100BF00BF00BF67
:103EC0002168143151E8001F21F0400021681431AD
:103ED00041E80002002AF3D100BF202084F83E0010
:103EE0000020206300BF00BF21680C3151E8001F93
:103EF00021F0100021680C3141E80002002AF3D1C2
:103F000000BFA06BFEF77FFDA08DE28D801A81B20D
:103F10002046FFF7E9FE03E740E0A08DE18D401A5F
:103F20001FFA80F8E08DC0B3B8F1000F35D000BFA4
:103F300000BF21680C3151E8001F21F49070216806
:103F40000C3141E80002002AF3D100BF00BF00BFDE
:103F50002168143151E8001F21F00100216814315B
:103F600041E80002002AF3D100BF202084F83E007F
:103F70000020206300BF00BF21680C3151E8001F02
:103F800021F0100021680C3141E80002002AF3D131
:103F900000BF41462046FFF7A7FEC1E605F08000BE
:103FA00030B106F0800018B1204601F07DFCB7E684
:103FB00005F0400030B106F0400018B1204601F095
:103FC000D1FAADE600BFABE6E554000810B50446F3
:103FD0000CB9012010BDA06900B100E000BF94F849
:103FE0003D0028B9002084F83C00204600F028F865
:103FF000242084F83D002068C06820F40050216827
:10400000C860204601F03AFB2068006920F4904027
:10401000216808612068406920F02A002168486111
:104020002068C06840F400502168C8600020206407
:10403000202084F83D0084F83E000020CAE70000FC
:1040400010B586B00446142101A8FCF7B2FAFA496B
:104050002068884277D100BF00200090F7480068B0
:1040600040F40020F54908600846006800F400208C
:10407000009000BF00BF00BF00200090EF48103844
:10408000006840F00100ED491039086008460068FA
:1040900000F00100009000BF00BF0320019002204B
:1040A000029000200390032004900820059001A9AD
:1040B000E348FEF7A9FEE348E3490860400548608D
:1040C0000021E1488160C1604FF4806101610021FD
:1040D000416181614FF48071C161002101624162DF
:1040E000FEF71CFE08B1FDF788FF00BFD648A063AD
:1040F000846300BFD3483030D44908604FF000607B
:1041000048604021D14881600021C1604FF4806146
:104110000161002141618161C16101624162FEF77B
:10412000FDFD08B1FDF769FF00BFC8486063846307
:1041300000BF002205213420FFF772F83420FFF77A
:104140005BF818E2FFE7C249206888427ED100BFD1
:1041500000200090B948006840F48010B74908601A
:104160000846006800F48010009000BF00BF00BF48
:1041700000200090B1481038006840F00400AF49BA
:10418000103908600846006800F00400009000BF85
:1041900000BF00BF002000900846006840F0080003
:1041A00008600846006800F00800009000BF00BFEB
:1041B00088140190022002900020039003200490B4
:1041C0000820059001A9A348FEF71EFE04200190D7
:1041D0000220029000200390032004900820059004
:1041E00001A99D48FEF710FE964830389B490860AB
:1041F000C0054860002199488160C1604FF480612A
:1042000001610021416181614FF48071C161002130
:1042100001624162FEF782FD08B1FDF7EEFE00BFCC
:104220008E48A063846300BF864878308C4908605C
:104230004FF0006048604021894881600021C160E2
:104240004FF4806101610021416100E016E081616D
:10425000C16101624162FEF761FD08B1FDF7CDFE6B
:1042600000BF7F486063846300BF002205213520C2
:10427000FEF7D6FF3520FEF7BFFF7CE179492068C5
:1042800088427BD100BF002000906C48001D006870
:1042900040F010006949091D08600846006800F0F8
:1042A0001000009000BF00BF00BF002000906348D6
:1042B0001038006840F00100604910390860084675
:1042C000006800F00100009000BF00BF4FF4C06024
:1042D0000190022002900020039003200490072008
:1042E000059001A95648FEF78FFD5F485F490860B9
:1042F0004FF00060486000215C488160C1604FF46D
:10430000806101610021416181614FF48071C1616F
:10431000002101624162FEF701FD08B1FDF76DFE6B
:1043200000BF5248A063846300BF4F4878305049B3
:1043300008604FF00060486040214D4881600021D6
:10434000C1604FF480610161002141618161C161FF
:1043500001624162FEF7E2FC08B1FDF74EFE00BFCC
:1043600043486063846300BF002205212520FEF7D7
:1043700057FF2520FEF740FFFDE0FFE73D4920689D
:1043800088427CD100BF002000902C48006840F497
:1043900000302A4908600846006800F400300090A8
:1043A00000BF00BF00BF0020009024481038006804
:1043B00040F001002149103908600846006800F00B
:1043C0000100009000BF00BF0C200190022002906D
:1043D00000200390032004900720059001A91848AD
:1043E000FEF712FD17484830234908604FF000607F
:1043F0004860002120488160C1604FF48061016104
:104400000021416181614FF48071C161002101622D
:104410004162FEF783FC08B1FDF7EFFD00BF1648CF
:10442000A063846300BF002205212620FEF7F8FE6A
:104430002620FEF7E1FE9EE0004C0040403802409E
:104440000000024040600240780C0020D80C0020A0
:104450000050004000080240000C0240380D0020CF
:10446000980D00200010014040640240F80D00202B
:10447000580E002000440040B80E0020FFE73F49DE
:104480002068884277D100BF002000903C48006837
:1044900040F480203A4908600846006800F4802013
:1044A000009000BF00BF00BF0020009034481038CB
:1044B000006840F002003249103908600846006880
:1044C00000F00200009000BF00BF4FF44060019078
:1044D0000220029000200390032004900720059002
:1044E00001A92848FEF790FC2748284908604FF0AA
:1044F00000604860002125488160C1604FF4806100
:1045000001610021416181614FF48071C16100212D
:1045100001624162FEF702FC08B1FDF76EFD00BFCB
:104520001A48A063846300BF1748303018490860F8
:104530004FF0006048604021154881600021C16053
:104540004FF480610161002141618161C1610162BB
:104550004162FEF7E3FB08B1FDF74FFD00BF0C48D9
:104560006063846300BF002205212720FEF758FE08
:104570002720FEF741FE06B010BD000000480040B5
:10458000403802400004024028600240180F00201A
:10459000780F00207047704700BFFEE710B500207D
:1045A0000F4908600F48006820F040400D4908603E
:1045B0000846006840F08040086000200A49C1F8C1
:1045C000BC02022002F0E5FF01200549086002203C
:1045D00002F0DFFF00200449C1F8B40210BD000062
:1045E000B4824042000402400080404210B50020E6
:1045F0000F4908600F48006820F040400D490860EE
:104600000846006840F08040086001200A49C1F86F
:10461000BC02022002F0BDFF012005490860022013
:1046200002F0B7FF00200449C1F8B40210BD000039
:10463000B4824042000402400080404270B505460A
:1046400000241648006820F04040144908600846DD
:1046500000680860002616E000201149086002206A
:1046600002F097FF01200F49C1F8B4026006040E62
:104670000B487838006808B1601CC4B2012002F011
:1046800088FF701CC6B2082EE6DB15B9FFF7AEFF37
:1046900001E0FFF783FF204670BD000000040240E8
:1046A000B48240420080404270B50446154800681C
:1046B00020F04040134908600846006840F0804000
:1046C0000860002010490860002517E0E0090E4945
:1046D000083108606006040E022002F05AFF012033
:1046E0000A49C1F8B402022002F053FF0020064933
:1046F0000860022002F04DFF681CC5B2082DE5DB02
:1047000070BD000000040240B4824042008040427C
:1047100010B50F48006820F040400D490860084679
:10472000006840F08040086001200A4908600A499A
:10473000C1F8B402042002F02CFF002005490860F3
:10474000042002F026FF00200349C1F8B40210BD86
:1047500000040240BC8240420080404210B50F4835
:10476000006820F040400D4908600846006840F0AD
:104770008040086000200A4908600A49C1F8BC026C
:10478000042002F006FF0120054908600549C1F830
:10479000BC02042002F0FDFE10BD00000004024037
:1047A000B48240420080404210B5002413480068A3
:1047B00020F0404011490860084600680860012068
:1047C0000F49086002F0E5FE01200E49C1F8B4026D
:1047D00002F0DFFE07E0601CC4B2FA2C03DDFFF735
:1047E000BDFF012010BD0648803800680028F2D1C6
:1047F00003490839086000BFF4E7000000040240E4
:10480000BC8240420080404210B544480088401CB1
:1048100080B2424908804EF66021884202D10020D1
:104820003E4908803E48407F18B93D48007F012836
:104830001DD13A4800884FF4FA6190FBF1F201FB78
:10484000120028B900224FF400613648FEF7D6FB6B
:10485000324800884FF4FA6190FBF1F201FB12003C
:10486000FA2804D10122D1022E48FEF7C7FB2E48B8
:10487000407F18B92C48007F012821D127480088A3
:104880004FF4FA6190FBF1F201FB1200B0F5FA7FF0
:1048900005D100224FF400612248FEF7AFFB1F480C
:1048A00000884FF4FA6190FBF1F201FB120040F234
:1048B000EE21884204D10122D1021A48FEF79EFB64
:1048C0001A48007E01281FD1144800884FF47A71DD
:1048D00090FBF1F201FB120028B900224FF40051C5
:1048E0001048FEF78BFB0D4800884FF47A7190FB5F
:1048F000F1F201FB1200B0F5FA7F0DD10122510354
:104900000848FEF77BFB07E00848007E20B901223B
:1049100051030448FEF772FB10BD000000000020A8
:10492000E00300200008024080040020C4000020B2
:1049300070B50446FFF7ECFE11490978002242EAFF
:104940004101C8B2FFF7B0FEFFF72EFF2046FFF788
:10495000ABFEFFF729FFFFF7DBFE094909780122CB
:1049600002EB4101C8B2FFF79FFEFFF71DFF0020D9
:10497000FFF764FE0546FFF7F1FE284670BD000014
:10498000190500202DE9F04107460C461546FFF7B2
:10499000BFFE15490978002242EA4101C8B2FFF77B
:1049A00083FEFFF701FF3846FFF77EFEFFF7FCFEB0
:1049B000FFF7AEFE0C490978012202EB4101C8B2B3
:1049C000FFF772FEFFF7F0FE002606E00120FFF77A
:1049D00035FE2070641C701CC6B2AE42F6DBFFF7D9
:1049E000BDFEBDE8F08100001905002010B50F489C
:1049F0000F4908600320486000210D488160C160B4
:104A00004FF4002101614FF4401141610021017612
:104A10000121417681760021C1760177012141771C
:104A2000FDF725FE08B1FDF7E8FA10BD006400406F
:104A3000C80A002010B50F480F49086003204860DD
:104A400000210D488160C1604FF4002101614FF4E5
:104A500040114161002101760121417681760021DA
:104A6000C176017701214177FDF701FE08B1FDF71D
:104A7000C4FA10BD00680040F00A002008B500BF6D
:104A8000002000903248006840F40010304908606F
:104A90000846006800F40010009000BF00BF00BF8F
:104AA000002000900846006840F480000860084636
:104AB000006800F48000009000BF00BF00220521C4
:104AC0000B20FEF7ADFB0B20FEF796FB0022052125
:104AD0000C20FEF7A5FB0C20FEF78EFB0022052123
:104AE0000D20FEF79DFB0D20FEF786FB0022052121
:104AF0000E20FEF795FB0E20FEF77EFB002205211F
:104B00000F20FEF78DFB0F20FEF776FB002205211C
:104B10001020FEF785FB1020FEF76EFB002205211A
:104B20002F20FEF77DFB2F20FEF766FB00220521DC
:104B30003A20FEF775FB3A20FEF75EFB00220521C6
:104B40004620FEF76DFB4620FEF756FB08BD000031
:104B50003038024000B5B1B01C222A492AA8FBF720
:104B6000D4FC00212AA804F032FA274908601C224C
:104B700024491C3123A8FBF7C8FC002123A804F01A
:104B800026FA224908601C221E4938311CA8FBF76E
:104B9000BCFC00211CA804F01AFA1D4908601C2264
:104BA0001849543115A8FBF7B0FC002115A804F0F2
:104BB0000EFA184908601C22124970310EA8FBF742
:104BC000A4FC00210EA804F002FA134908601C227C
:104BD0000C498C3107A8FBF798FC002107A804F0CA
:104BE000F6F90E4908601C220649A8316846FBF711
:104BF0008CFC0021684604F0EAF90949086031B0EC
:104C000000BD00007CF900082005002024050020DC
:104C1000280500202C050020300500203405002048
:104C20003805002000B587B0142102A8FBF7C1FCAD
:104C300000BF002001903B48006840F00400394963
:104C400008600846006800F00400019000BF00BF43
:104C500000BF002001900846006840F08000086016
:104C60000846006800F08000019000BF00BF00BF50
:104C7000002001900846006840F0010008600846E6
:104C8000006800F00100019000BF00BF00BF0020DD
:104C900001900846006840F002000860084600687D
:104CA00000F00200019000BF00BF00BF0020019093
:104CB0000846006840F0080008600846006800F0F8
:104CC0000800019000BF00BF01224FF4D0411648F8
:104CD000FEF794F901224FF420411448FEF78EF9B3
:104CE00000224FF480611048FEF788F94FF4D84055
:104CF00002900120039000200490059002A90A4828
:104D0000FEF782F84FF4204002900120039000202B
:104D100004900320059002A90448FEF775F807B037
:104D200000BD00003038024000080240000402408C
:104D300010B50748074908600120486040F6FF7138
:104D400004488160FEF766F908B1FDF756F910BD19
:104D500000300040180B002010B50B480B490860CC
:104D60004FF4E1304860002108488160C160016172
:104D70000C21416100218161C161FFF727F908B170
:104D8000FDF73BF910BD0000004C0040240B002053
:104D900010B50B480B4908604FF4E1304860002122
:104DA00008488160C16001610C214161002181617D
:104DB000C161FFF70BF908B1FDF71FF910BD000045
:104DC00000500040680B002010B50B480B490860EC
:104DD0004FF4E1304860002108488160C160016102
:104DE0000C21416100218161C161FFF7EFF808B139
:104DF000FDF703F910BD000000100140AC0B0020CE
:104E000010B50B480B4908600B4848600021094861
:104E10008160C1604FF48061016104214161002122
:104E20008161C161FFF7D2F808B1FDF7E6F810BD66
:104E300000440040F00B0020A086010010B50B4894
:104E40000B4908604FF4E130486000210848816058
:104E5000C16001610C21416100218161C161FFF7E5
:104E6000B5F808B1FDF7C9F810BD000000480040D2
:104E7000340C002000BFFEE710B50446206810B1D6
:104E80000CB1606810B90220607710BD9FED0B0A6D
:104E9000206880ED040A00202168C8602168087538
:104EA000607701202077A06800F0D4F8A16801F1B4
:104EB0004C0000F0CFF800BFE7E700000000000062
:104EC000016811B108B1416811B9022141777047F9
:104ED0009FED070A016881ED040A00210268D16094
:104EE0000268117541770121017700BFEFE70000EB
:104EF0000000000000BFFEE711B52DED020B83B0EE
:104F000004461CB99FED520A06B010BD9FED500A31
:104F10008DED020A9FED4E0A8DED010A94ED110A06
:104F200084ED120A94ED100A84ED110A9DED040A35
:104F300084ED070A9DED030A84ED080A012304F1BC
:104F4000400203A904A801F021FB012304F134026B
:104F500004F14401081F01F019FB012304F1380298
:104F6000111D101F01F012FB94ED0D0A84ED0F0AC4
:104F7000012304F1280204F13401204601F0F7FA7C
:104F8000012304F12C0204F14001201D01F0EFFA8D
:104F900094ED0B0AD4ED060AB4EEE00AF1EE10FA35
:104FA00004DD94ED060A84ED0B0A10E094ED0B0A83
:104FB000D4ED060AF1EE600AB4EEE00AF1EE10FA62
:104FC00005D294ED060AB1EE400A84ED0B0A0123E6
:104FD00004F1300204F1380104F1080001F0C7FACD
:104FE000012302AA04F12C01081F01F0B1FA0123E8
:104FF00001AA04F1300102A801F0AAFA012304F188
:105000002402114601A801F0A3FA94ED090AD4ED97
:10501000050AB4EEE00AF1EE10FA04DD94ED050A9B
:1050200084ED090A10E094ED090AD4ED050AF1EEC9
:10503000600AB4EEE00AF1EE10FA05D294ED050A2A
:10504000B1EE400A84ED090A94ED090A5CE700001C
:105050000000000000B970479FED0E0A80ED0F0AB6
:1050600080ED0E0A80ED0D0A9FED0A0A80ED090A17
:1050700080ED0C0A80ED0B0A80ED0A0A80ED120A21
:1050800080ED110A80ED100A9FED020A80ED030AFF
:1050900000BFE0E700000000002102681180026804
:1050A0005180026891800268D180032102681172E8
:1050B0000268517200210268518102689181026880
:1050C000D1810268117402685174026851820268C9
:1050D0009182704730B58DB0044600208DF80000F5
:1050E00022460121684601F0B5FB0546284601F03D
:1050F0009BFA22460121042001F062FE0546284663
:1051000001F092FA85B90C208DF8020000218DF88B
:10511000051002218DF8031001218DF8041022469C
:10512000684601F06AFF054628460DB030BD30B52F
:105130008DB0044601208DF800002246012168460A
:1051400001F088FB0546284601F06EFA224602214E
:10515000042001F035FE0546284601F065FA95B9B0
:105160000C208DF8020000218DF8061002218DF828
:10517000031001218DF807108DF8041022466846AF
:1051800001F03BFF054628460DB030BD00BF0120B1
:1051900003F00CFFFBE70000FCF7CAF80848C16801
:1051A00088470848C168884700BF074A4FF4007124
:1051B0000648FCF7EDF8012003F0F8FEF5E70000E3
:1051C000E00300208004002070060020C80A0020B0
:1051D0000849C868804700BF0748407818B90549A2
:1051E0008869804702E00349086A8047022003F08B
:1051F000DDFEF1E7300000200200002001229102D4
:105200000448FDF7FBFE00BFFFF7FEFA012003F0A4
:10521000CDFEF9E70008024000BF0E48FDF729FF68
:105220000D48416988470D4841698847002408E0D6
:105230000B4A02EB441002EB441291698847601C50
:10524000C4B2042CF4DB074881698847012003F0CD
:10525000ADFEE2E7180B002084000020C40000200F
:10526000E00300208004002000BF07F0A9F80F48E9
:10527000007E012805D10E4948700C48FFF70CFF4D
:105280000EE00A48007E58B90848407E40B90848F8
:105290004078012804D100200549087048708870C2
:1052A00007F0B8F8022003F081FEDEE7C40000201A
:1052B0000200002000BF07F083F80448C168884757
:1052C00007F0A8F8012003F071FEF4E78400002045
:1052D00010B500BF502080F31188BFF34F8FBFF38C
:1052E0006F8F00BF07F024FC18B14FF080500449C5
:1052F000086000BF002080F3118800BF10BD0000CF
:1053000004ED00E000B593B0302107A8FBF751F998
:10531000142102A8FBF74DF900BF00200190264898
:10532000006840F08050244908600846006800F09A
:105330008050019000BF00BF00BF002001901F48B7
:10534000006840F480401D4908600846006800F489
:105350008040019000BF00BF092007904FF48030CB
:10536000089001200C9002200D9041050E9119210A
:105370000F914FF4A8711091022111910421129103
:1053800007A8FEF701F908B1FCF737FE0F200290DD
:1053900002200390002004904FF4A05005904FF499
:1053A00080500690052102A8FDF78CFF08B1FCF79C
:1053B00024FE13B000BD00004038024000700040E1
:1053C0000348006840F4700001490860704700001D
:1053D00088ED00E010B50248FEF7AFFB10BD0000FD
:1053E000D80F002010B50268294B98420ED0B0F1BA
:1053F000804F0BD0274B984208D0274B984205D0BE
:10540000264B984202D0264B984203D122F07002DC
:105410004B681A431E4B984220D0B0F1804F1DD0EC
:105420001C4B98421AD01C4B984217D01B4B9842E9
:1054300014D01B4B984211D01A4B98420ED01A4BE5
:1054400098420BD0194B984208D0194B984205D07E
:10545000184B984202D0184B984203D122F4407264
:10546000CB681A4322F080034C6943EA04020260CD
:105470008B68C3620B688362054B984202D0084B6D
:10548000984201D10B6903630123436110BD000001
:10549000000001400004004000080040000C0040F3
:1054A0000004014000400140004401400048014028
:1054B00000180040001C00400020004010B50348C8
:1054C000FCF789FD0148FEF711FC10BD240B0020FC
:1054D00010B50348FCF77FFD0148FEF707FC10BD3F
:1054E000680B002070B50546AC6B0020E085E084B9
:1054F0002046FEF7FAFB70BD00BF00BF02680C3209
:1055000052E8002F22F4907102680C3242E8001336
:10551000002BF3D100BF00BF00BF0268143252E875
:10552000002F22F001010268143242E80013002B20
:10553000F3D100BF016B01290ED100BF00BF02688B
:105540000C3252E8002F22F0100102680C3242E8BF
:105550000013002BF3D100BF202180F83E10002162
:105560000163704710B504462068C06820F0400011
:105570002168C860202084F83D002046FFF70BF822
:10558000002010BDF8B5044694F83E00222873D1DF
:10559000A068B0F5805F0CD1206950B90025A66ADB
:1055A00020684068C0F308003080A06A801CA062B8
:1055B00015E0A56A0026A068B0F5805F03D0A0685A
:1055C00028B9206918B920684068287004E020686C
:1055D000406800F07F002870A06A401CA062E08D47
:1055E000401E80B2E085002844D12068C06820F0C9
:1055F00020002168C8602068C06820F4807021689D
:10560000C8602068406920F00100216848612020BE
:1056100084F83E00206B012826D10020206300BFC3
:1056200000BF21680C3151E8001F21F010002168F3
:105630000C3141E80002002AF3D100BF2068006865
:1056400000F0100010280AD100BF00200090206850
:105650000068009020684068009000BF00BFA18DE6
:105660002046FEF741FB02E02046FEF793FF0020B4
:10567000F8BD01E00020FBE70220F9E72DE9F84F33
:1056800004462068006920F44050E168084321681E
:1056900008612169A068084361690843E16908431A
:1056A00000902068C06849F20C6188430099084363
:1056B0002168C8602068406920F44070A1690843EF
:1056C0002168486176492068884203D0754920687E
:1056D000884203D1FDF7F0FE814602E0FDF7DCFED3
:1056E0008146E069B0F5004F6CD102206168A0FBF3
:1056F000015003461920A9FB007001462A4638468E
:10570000FAF78CFE6421B0FBF1F04FEA001A022098
:105710006168A0FB01510B461920A9FB00712A46C4
:105720003846FAF77BFE834602206168A0FB0150F1
:1057300003461920A9FB00712A463846FAF76EFE87
:105740006421B0FBF1F000EBC00101EB0010ABEB0A
:105750008000322101EBC0006421B0FBF1F000F0C9
:10576000F8000AEB400A02206168A0FB01500346E2
:105770001920A9FB007001462A463846FAF74EFE6A
:10578000834602206168A0FB015003461920A9FB53
:1057900000712A463846FAF741FE6421B0FBF1F069
:1057A00000EBC00101EB0010ABEB8000322101EBFC
:1057B000C0006421B0FBF1F000F007005044216804
:1057C00088606AE004206168A0FB0150034619204C
:1057D000A9FB007001462A463846FAF71FFE8246AA
:1057E00004206168A0FB015003461920A9FB00704A
:1057F00001462A463846FAF711FE6421B0FBF1F063
:1058000000EBC00101EB0010AAEB8000322101EB9C
:1058100000106421B0FBF1F000F0F00A0420616890
:10582000A0FB017003461920A9FB00513A46284607
:10583000FAF7F4FD6421B0FBF1F00AEB001A042042
:105840006168A0FB01510B461920A9FB00712A4693
:105850003846FAF7E3FD834604206168A0FB015057
:1058600003461920A9FB007001462A463846FAF77C
:10587000D5FD6421B0FBF1F000EBC00101EB00109D
:10588000ABEB8000322101EB00106421B0FBF1F0A2
:1058900000F00F00504421688860BDE8F88F0000D8
:1058A0000010014000140140014691F83D002128FC
:1058B00028D18868B0F5805F0BD1086948B90A6AB9
:1058C0001088C0F308000B685860086A801C0862E2
:1058D00005E00B6A581C086218780B685860C88C81
:1058E000401E80B2C88458B90868C06820F08000A3
:1058F0000B68D8600868C06840F040000B68D8604A
:10590000002070470220FCE710B50348FCF763FB5A
:105910000148FEF7EBF910BDAC0B002008B500BF45
:105920000020009011480068006800900F4800684F
:105930004068009000BF00BF0C480068C06840F09D
:1059400010000A490968C86008480068406940F0CA
:105950004000064909684861044A1268111D034A5B
:105960006423906B024AFCF7F2FA08BDAC0B0020EE
:10597000B406002010B50348FCF72DFB0148FEF7E4
:10598000B5F910BDF00B002008B500BF0020009055
:105990001348006800680090114800684068009053
:1059A00000BF00BF0E480068C06840F010000C49FE
:1059B0000968C8600A480068406940F0400008492A
:1059C000096848611220064A00901268111D044AB5
:1059D000044B906BA3F11802FCF76AF808BD0000B5
:1059E000F00B00203007002010B504460348214684
:1059F000C268904701480169884710BDC400002073
:105A000010B50348FCF7E7FA0148FEF76FF910BD3F
:105A1000340C002008B500BF002000901148006839
:105A2000006800900F4800684068009000BF00BF09
:105A30000C480068C06840F010000A490968C86056
:105A400008480068406940F040000649096848611C
:105A5000044A1268111D034A6423906B024AFCF742
:105A600076FA08BD240B002048070020704700008C
:105A700008B500BF00200090114800680068009041
:105A80000F4800684068009000BF00BF0C480068E5
:105A9000C06840F010000A490968C86008480068FA
:105AA000406940F04000064909684861044A1268AC
:105AB000111D034AC823906B024AFCF748FA08BD3F
:105AC000680B0020AC0700207047026802B110B9D3
:105AD0000222427770474A780B7842EA0322036831
