:020000040800F2
:10000000805600203103000871570008054F000892
:10001000E9560008D9120008FF650008000000003A
:100020000000000000000000000000007102000855
:10003000C123000800000000CD020008895D00080F
:100040004B0300084B0300084B0300084B03000858
:100050004B0300084B0300084B0300084B03000848
:100060004B0300084B0300084B030008E91D000880
:10007000F91D0008091E0008191E0008291E0008A5
:10008000391E00084B0300084B0300084B0300080F
:10009000751300084B0300084B0300084B030008CE
:1000A0004B0300084B0300084B0300084B030008F8
:1000B0008D5E00084B0300084B0300084B0300084B
:1000C0004B0300084B0300084B0300084B030008D8
:1000D0004B030008C16300082D640008B9640008E0
:1000E0004B0300084B0300084B0300084B030008B8
:1000F0004B0300084B0300084B030008491E00088F
:100100004B0300084B0300084B0300084B03000897
:10011000755F0008895F00084B0300084B03000867
:100120004B0300084B030008591E00084B0300084E
:100130004B0300084B0300084B0300084B03000867
:100140008D1300084B0300084B0300084B03000805
:100150004B0300084B030008691E00084B0300080E
:100160004B0300084B0300084B0300084B03000837
:100170004B0300084B0300084B030008000000007D
:100180004B0300084B03000800F002F800F060F891
:100190000AA090E8000C82448344AAF10107DA45E2
:1001A00001D100F055F8AFF2090EBAE80F0013F0D4
:1001B000010F18BFFB1A43F0010318472005010087
:1001C000400501000A444FF0000C10F8013B13F009
:1001D000070408BF10F8014B1D1108BF10F8015BA0
:1001E000641E05D010F8016B641E01F8016BF9D193
:1001F00013F0080F1EBF10F8014BAD1C0C1B09D1EA
:100200006D1E58BF01F801CBFAD505E014F8016B5B
:1002100001F8016B6D1EF9D59142D6D370470000ED
:100220000023002400250026103A28BF78C1FBD8FF
:10023000520728BF30C148BF0B6070471FB50EF092
:1002400002F99DE8030000F03FFA1FBD10B510BD94
:1002500000F0A6FA1146FFF7F1FF09F0A3FB00F04A
:10026000C4FA03B4FFF7F2FF03BC00F0F5FA000094
:100270002C4B19680868B0E8F04F80F30988BFF389
:100280006F8F4FF0000080F311887047000000006E
:1002900008480068006880F308884FF0000080F389
:1002A000148862B661B6BFF34F8FBFF36F8F00DF64
:1002B00000BF00BF08ED00E0DFF80C00016841F46A
:1002C00070010160704700BF88ED00E0EFF3098026
:1002D000BFF36F8F134B1A681EF0100F08BF20ED8D
:1002E000108A20E9F04F106009B44FF0500080F3FD
:1002F0001188BFF34F8FBFF36F8F0CF021FF4FF0CA
:10030000000080F3118809BC19680868B0E8F04F54
:100310001EF0100F08BFB0EC108A80F30988BFF3FD
:100320006F8F704740080020EFF305807047000092
:100330000948804709480047FEE7FEE7FEE7FEE779
:10034000FEE7FEE7FEE7FEE7FEE7FEE704480549B5
:10035000054A064B70470000795E000889010008D5
:1003600080500020805600208052002080520020C3
:1003700070B5064600F08CF9056806F10B0020F018
:100380000704B4429CBF002070BD2B466A68BAB116
:100390001068A04210D304F1080188423CBF5068A5
:1003A000586007D35168101941601168091B01603A
:1003B00058601460101D70BD13465268002AE7D1C2
:1003C0002146284600F06CF90028DED170BD70B5DA
:1003D0000446051F00F05CF90068002C14BF446857
:1003E00070BD002C18BFAC423CBF20466468F8D3F7
:1003F00001680A18AA4218BF456003D12A68054659
:100400001144016028684119A1421CBF6C6070BD95
:100410006168696021680844286070BD53EA020C75
:1004200000F069802DE9F04B4FF00006002B1FBF54
:10043000B3FA83F503FA05F424FA05F65E4012BF19
:100440001643B2FA82F502FA05F4C5F120051EBF83
:1004500022FA05FC44EA0C04203556EA044C4FEA23
:10046000144418BF641C4FF000084FF0000990427C
:1004700071EB030C39D3002919BFB1FA81F701FAE6
:1004800007F6B0FA80F700FA07F6C7F120071EBF9B
:1004900020FA07FC46EA0C062037B6FBF4FCA7EB73
:1004A0000507103F07F01F0BCBF120060CFA0BFBE2
:1004B0002CFA06F644BFB3460026202FA4BF5E46A2
:1004C0004FF0000B5BEA060C08BF4FF0010B19EB75
:1004D0000B09ABFB027C48EB0608C01B06FB02CCF9
:1004E0000BFB03CC71EB0C01C1E70B460246414606
:1004F0004846BDE8F08B13B54FF000004FF0000107
:10050000AFF30080BDE81C407047032A40F2308002
:1005100010F0030C00F0158011F8013BBCF1020F44
:10052000624498BF11F801CB00F8013B38BF11F8C5
:10053000013BA2F1040298BF00F801CB38BF00F8DC
:10054000013B11F0030300F02580083AC0F0088059
:1005500051F8043B083A51F804CBA0E80810F5E73D
:10056000121D5CBF51F8043B40F8043BAFF3008020
:10057000D20724BF11F8013B11F801CB48BF11F895
:10058000012B24BF00F8013B00F801CB48BF00F865
:10059000012B704710B5203AC0F00B80B1E818501D
:1005A000203AA0E81850B1E81850A0E81850BFF45D
:1005B000F5AF5FEA027C24BFB1E81850A0E81850FC
:1005C00044BF18C918C0BDE810405FEA827C24BF50
:1005D00051F8043B40F8043B08BF7047D20728BFDE
:1005E00031F8023B48BF11F8012B28BF20F8023B2D
:1005F00048BF00F8012B70474FF000020429C0F0FB
:10060000128010F0030C00F01B80CCF1040CBCF144
:10061000020F18BF00F8012BA8BF20F8022BA1EB96
:100620000C0100F00DB85FEAC17C24BF00F8012B7B
:1006300000F8012B48BF00F8012B70474FF0000273
:1006400000B5134694469646203922BFA0E80C50C8
:10065000A0E80C50B1F12001BFF4F7AF090728BFA3
:10066000A0E80C5048BF0CC05DF804EB890028BF1F
:1006700040F8042B08BF704748BF20F8022B11F048
:10068000804F18BF00F8012B7047704770477047C4
:1006900000487047285000207047704770477047E7
:1006A00038B504460A4600206946AFF300800028AA
:1006B00008BF38BD02460099204600F04FF80120DF
:1006C00038BD012000F064B8F8B5AFF300800546EE
:1006D00000200C46102000BF0646A819A0420DD9E4
:1006E000324669460020AFF30080070008BF00F0E3
:1006F0004FF80098A04218BF0546C419FFF7C8FF7D
:1007000005600746F01D20F007004619284600F056
:100710000AF8B44208BFF8BDA21B31463868BDE8EC
:10072000F84000F01BB800210160C0E901107047DB
:100730001020704710B500F00DF8006810BD10B51E
:10074000044600F007F8046010BD00000048704740
:100750002050002000487047205000200346406889
:100760008C46002818BF88423CBF03464068F8D337
:1007700018681844884207D00CF1030020F00700E5
:10078000001D411A521A0146081D0A60FFF71FBEDC
:1007900010B500F039F8BDE8104000F02FB87047F0
:1007A0007546FFF7D3FFAE4605006946534620F075
:1007B0000700854618B020B5FFF7C8FDBDE820400A
:1007C0004FF000064FF000074FF000084FF0000B0D
:1007D00021F00701AC46ACE8C009ACE8C009ACE8C0
:1007E000C009ACE8C0098D46704710B50446AFF3A8
:1007F00000802046BDE81040FFF733BD002801D03F
:1008000000F02AB87047000010B5012805D000217B
:1008100003A000F027F8012010BD09A1F8E70000AF
:1008200053494752544D454D3A204F7574206F66D9
:100830002068656170206D656D6F72790000000041
:100840003A2048656170206D656D6F727920636F25
:10085000727275707465640001491820ABBEFEE7C2
:100860002600020070B505460C460A2000E06D1C0B
:1008700000F011F835B128780028F8D102E0641CA6
:1008800000F009F814B120780028F8D1BDE87040D4
:100890000A20AFF3008008B569468DF800000320F8
:1008A000ABBE08BD2DE9F05F2DED088B04460D466B
:1008B00016461F46DDE914ABDDE91289B7F90000E1
:1008C00000EE100AB8EEC00AFE4880ED000AB8F942
:1008D000000000EE100AB8EEC00AFB4880ED000AE6
:1008E000B9F90000032190FBF1F000B200EB4000E9
:1008F00000EE100AB8EEC00AF44880ED000ABAF91A
:10090000000000EE100AB8EEC00AF14880ED000ABF
:10091000BBF9000000EE100AB8EEC00AED4880ED09
:10092000000A1698B0F9000000EE100AB8EEC00AEE
:10093000E94880ED000AE64890ED000AE548D0ED70
:10094000000A20EE200AE448D0ED000A20EE200A3A
:10095000B5EEC00AF1EE10FA04D10020BDEC088B10
:10096000BDE8F09FDD48017B9FEDDD0AD548D0ED65
:10097000000AFDEEE00A10EE900A00B208F0D6FF81
:10098000D04880ED000AD548017B9FEDD50ACE48BE
:10099000D0ED000AFDEEE00A10EE900A00B208F079
:1009A000C5FFC94880ED000ACC48017B9FEDCC0A09
:1009B000C648D0ED000AFDEEE00A10EE900A00B243
:1009C00008F0B4FFC14880ED000ABE4890ED000A6F
:1009D000DFEDC40A20EE200A80ED000ABA4890ED4F
:1009E000000ADFEDC00A20EE200A80ED000AB748B9
:1009F00090ED000ADFEDBB0A20EE200A80ED000A30
:100A0000B648017BB0EE000AB148D0ED000AFDEE19
:100A1000E00A10EE900A00B208F0A6FFAC4880EDA4
:100A2000000AAE48017BB0EE000AAA48D0ED000AE9
:100A3000FDEEE00A10EE900A00B208F095FFA5481E
:100A400080ED000AA548017BB0EE000AA248D0ED77
:100A5000000AFDEEE00A10EE900A00B208F084FFF2
:100A60009D4880ED000A9A48D0ED000A60EEA00A89
:100A7000984890ED001AD0ED001A41EE210A9648F0
:100A800090ED001AD0ED001A41EE210AB0EE600A96
:100A900008F02EFF944880ED000A8D4890ED000A82
:100AA0009148D0ED000A20EE200A894880ED000A26
:100AB000884890ED000A8C48D0ED000A20EE200A0C
:100AC000844880ED000A844890ED000A8648D0ED05
:100AD000000A20EE200A804880ED000A834890ED4D
:100AE000000A8348D0ED000A20EE200A8148D0EDAC
:100AF000000A814890ED001A00EEC10AF0EE000AEB
:100B000020EE200A7D4880ED000A7A4890ED000A28
:100B10007648D0ED000A20EE200A7748D0ED000A92
:100B2000734890ED001A00EE810AF0EE000A20EE04
:100B3000200A734880ED000A6E4890ED000A20EE0E
:100B4000000A6A48D0ED000A90ED001A00EEC10AD2
:100B50006948D0ED000A90ED001A00EEC10A644821
:100B6000D0ED000A90ED001A00EE810A654880ED94
:100B7000000A584890ED000A6248D0ED000A20EEC5
:100B8000200A5548D0ED000A5D4890ED001A00EEAD
:100B9000C10A5D4880ED000A4F4890ED000A5748B1
:100BA000D0ED000A20EE200A4948D0ED000A554851
:100BB00090ED001A00EEC10A544880ED000A444846
:100BC00090ED000A4E48D0ED000A20EE200A414880
:100BD000D0ED000A494890ED001A00EEC10A4C48D9
:100BE00080ED000A4B4890ED000A4748D0ED000A1E
:100BF000494890ED001A00EE810A464880ED000A4F
:100C0000464890ED000A4148D0ED000A424890ED78
:100C1000001A00EE810A414880ED000A404890ED3C
:100C2000000A3B48D0ED000A3B4890ED001A00EE68
:100C3000810A3B4880ED000A224890ED000A3948BD
:100C4000D0ED000A304890ED001A00EE810A3148DC
:100C5000D0ED000A30EE200A1A4880ED000A1A484A
:100C600090ED000A2F48D0ED000A284890ED001AB8
:100C700000EE810A2948D0ED000A30EE200A124821
:100C800080ED000A114890ED000A2648D0ED000AD8
:100C90001F4890ED001A00EE810A2148D0ED000AAD
:100CA00030EE200A094880ED000A124890ED000A53
:100CB0001D4880ED000A0D4890ED000A1B4880EDAC
:100CC000000A35E0C4070020C8070020CC07002038
:100CD000D0070020D4070020D807002008090020F2
:100CE0000000FA44728A8E3CA8070020E00700202A
:100CF000E8070020DC070020E4070020AC07002004
:100D0000B0070020B4070020B8070020BC0700206F
:100D1000C0070020EC070020A0070020F0070020FB
:100D2000F40700209C070020F8070020FC070020A3
:100D3000EA4890ED000AEA4880ED000AE94890EDA3
:100D4000000AE94880ED000AE84890ED000AB1EE9B
:100D5000400AE748D0ED000A20EE200AE048D0ED36
:100D6000000AE44890ED001A00EEC10ADE48D0ED1A
:100D7000000AE14890ED001A00EEC10ADF4890ED4C
:100D8000001ADF48D0ED000A40EE010ADD48C0ED50
:100D9000000ADB4890ED000AD548D0ED000A20EEAD
:100DA000200ACF48D0ED000AD34890ED001A00EE9B
:100DB000810ACD48D0ED000ACE4890ED001A00EE31
:100DC000C10ACE4890ED001AC848D0ED000A40EEA6
:100DD000010ACD48C0ED000AC94890ED000AC54897
:100DE000D0ED000A20EE200AC048D0ED000AC2482B
:100DF00090ED001A00EEC10ABB48D0ED000ABC48D5
:100E000090ED001A00EE810ABC4890ED001AB4483B
:100E1000D0ED000A40EE010AB048C0ED000AB84823
:100E200090ED000AB448D0ED000A20EE200AAF4849
:100E3000D0ED000AAF4890ED001A00EE810AA848F4
:100E4000D0ED000AAA4890ED001A00EEC10AAB48A6
:100E500090ED001AA448D0ED000A40EE010AA14826
:100E6000C0ED000AA748D0ED000A60EEA00AA6482F
:100E700090ED001AD0ED001A41EE210A974890ED4E
:100E8000001AD0ED001A41EE210A964890ED001AA2
:100E9000D0ED001A41EE210AB0EE600A08F028FDFC
:100EA0009A4880ED000A974890ED000A9748D0EDE7
:100EB000000A20EE200A934880ED000A924890ED47
:100EC000000A9248D0ED000A20EE200A8E4880EDFC
:100ED000000A824890ED000A8C48D0ED000A20EE0E
:100EE000200A7E4880ED000A7E4890ED000A87487F
:100EF000D0ED000A20EE200A7A4880ED000A8148F1
:100F000090ED000A20EE000A7F48D0ED000A90ED37
:100F1000001A00EEC10A7148D0ED000A90ED001AE7
:100F200000EEC10A6F48D0ED000A90ED001A00EE05
:100F3000810A10EE101A08460DF014FA41EC1A0B53
:100F4000664890ED000AF0EE000A20EE200A65489F
:100F5000D0ED000A20EE200A6A48D0ED000AB0EE7B
:100F6000001A60EE810A684890ED001A00EE810ACE
:100F700010EE101A08460DF0F5F941EC1B0BB0EE1F
:100F80004A1AF0EE6A1AB0EE4B0AF0EE6B0A05F060
:100F90008BFEB0EE409AF0EE609A9FED5D0B53EC45
:100FA000102B51EC190B0CF01DFF41EC180B0CF041
:100FB00075FC2860544890ED000AF0EE000A20EE1F
:100FC000200A4848D0ED000A20EE200A4D48D0ED16
:100FD000000AB0EE001A60EE810A404890ED001A57
:100FE00000EEC10A10EE101A08460DF0BBF941ECF4
:100FF0001B0BB0EE4B0AF0EE6B0A05F039FBB0EEBE
:1010000040AAF0EE60AA51EC1A0B0CF03BFC41EC4C
:10101000190B9FED3F0B53EC102B0CF0E3FE41EC52
:10102000180B0CF03BFC2060364890ED000A20EED7
:10103000000A3548D0ED000A90ED001A00EE810A52
:101040002648D0ED000A90ED001A00EEC10A2548AE
:10105000D0ED000A90ED001A00EEC10A10EE101A51
:1010600008460DF07FF941EC1A0B274890ED000A75
:101070001A48D0ED000A20EE200A2248D0ED000ADE
:10108000184890ED001A00EE810AF0EE000A20EEFA
:10109000200A10EE101A08460DF064F941EC1B0B03
:1010A000B0EE4A1AF0EE6A1AB0EE4B0AF0EE6B0A96
:1010B00005F0FAFDB0EE409AF0EE609A9FED140B49
:1010C00053EC102B51EC190B0CF08CFE41EC180B6F
:1010D0000CF0E4FB3060002040E40000E407002056
:1010E00000080020E807002004080020FC0700207A
:1010F000C4070020C8070020CC070020A407002058
:10110000F8070020DC070020E0070020A8070020E7
:101110000000006066A64C4070B586B004460D46DF
:101120001646122004F03EF8ADF81000132004F02B
:1011300039F8ADF81200BDF81000BDF8121040EA01
:10114000012000B2ADF81400142004F02BF8ADF823
:101150000800152004F026F8ADF80A00BDF80800D4
:10116000BDF80A1040EA012000B2ADF80C001620CC
:1011700004F018F8ADF80000172004F013F8ADF8EB
:101180000200BDF80000BDF8021040EA012000B2E4
:10119000ADF80400BDF814002080BDF80C002880D4
:1011A000BDF80400308006B070BD2DE9F04387B073
:1011B00004460D4616461F46DDE90E890C2204A999
:1011C000104604F019F89DF810009DF8111040EA3F
:1011D000012000B2ADF804009DF812009DF8131034
:1011E00040EA012000B2ADF806009DF814009DF819
:1011F000151040EA012000B2ADF808009DF8160075
:101200009DF8171040EA012000B2ADF80A009DF8E1
:1012100018009DF8191040EA012000B2ADF80C004A
:101220009DF81A009DF81B1040EA012000B2ADF8AD
:101230000E00BDF804003880BDF80600A8F80000D4
:10124000BDF80800A9F80000BDF80A002080BDF82C
:101250000C002880BDF80E00308007B0BDE8F08398
:1012600038B51C4806F0D0FA0446204605F038FF91
:10127000184805F0FFFE0446204605F031FF34BB58
:1012800001200090134A0121684606F06FFB0446D6
:10129000204605F025FF0F4804F073FC0020009065
:1012A0000C4A0121684606F061FB0446204605F021
:1012B00017FF084804F038FC02200090054A01217D
:1012C000684606F053FB0446204605F009FF204619
:1012D00038BD00000809002000BFFEE770B50446D5
:1012E0000D46A4F2012006283AD2DFE800F0030BF5
:1012F000151F29311C482946026990471A4841693F
:1013000088472EE018482946026B2030904716483F
:10131000416B2030884724E013482946026D403055
:1013200090471148416D403088471AE00E482946E1
:10133000026F603090470C48416F6030884710E082
:101340000A4829460269904708484169884708E0E9
:10135000074829460269904705484169884700E0E7
:1013600000BF00BF70BD000008050020500700202E
:101370007007002010B5024801F008FD10BD000004
:10138000D80D002000BF00BF7047000010B5024814
:1013900001F0FCFC10BD0000000E002001464A7860
:1013A0000B7842EA032070470146CA788B7842EAFC
:1013B000032210B2704701464A790B7942EA0322B0
:1013C00010B27047014688797047000000B58BB0B5
:1013D000002005900120099000200790012008902E
:1013E0000020019002900390049006900E200A9035
:1013F00001A90C4801F07AFB0A4801F084FF0221A0
:10140000084801F0B3FA0E20069001A9064801F041
:101410006DFB054801F077FF0221034801F0A6FAB1
:101420000BB000BDD80D0020000E002070B588B0B4
:1014300004460D4616460E492068884206D00D49DE
:101440002068884202D0012008B070BD02950020BB
:10145000049005900820069001AB324602A9204670
:1014600001F099FA08B10120EEE70020ECE7000056
:10147000006400400068004010B500F00BF804481C
:10148000007808B900F076F900F05CF910BD0000B2
:10149000E808002000B513484078B0B91248006849
:1014A0000088F0B9104800684088D0B90E4800683C
:1014B0008088B0B90C480068C08890B909480078A5
:1014C00078B90120074948700BE00848007810B946
:1014D00000F010F805E005480078012801D100F07F
:1014E00007F800BD050000205C010020E80800208E
:1014F0007047000024480068B0F9060000EE100AAA
:10150000B8EEC00ADFED210A20EE200ADFED200A46
:1015100080EE201ABDEEC10A10EE100A00B21D497D
:101520004968488018480068B0F9040000EE100AC5
:10153000B8EEC00ADFED150A20EE200ADFED140A2E
:1015400080EE201ABDEEC10A10EE100A00B2114959
:10155000496888800C480068B0F9000000EE100A65
:10156000B8EEC00ADFED090A20EE200ADFED080A16
:1015700080EE201ABDEEC10A10EE100A00B2054935
:101580004968C880704700005C0100200000FA45EF
:10159000000025443000002010B5194800681949A2
:1015A000086017484068486015488068886014489B
:1015B000C068C86012480068006813490860104895
:1015C0004068006848600E488068006888600C4881
:1015D000C0680068C8600A48006840680B49086035
:1015E00007484068406848600548806840688860EF
:1015F0000348C0684068C86000F090F810BD000063
:1016000018000020C8080020D8080020B8080020D2
:1016100010B500245FE0314800EB4410407F28B94A
:101620002E4800EB4410007F01284DD12C48008843
:101630004FF4FA6190FBF1F201FB120004EB44015C
:10164000C1EBC411B0EB410F17DD254800884FF402
:10165000FA6190FBF1F201FB120004EB4401C1EBD3
:10166000C4117D2202EB4101884206DC00224FF4C6
:1016700000611C4802F078F92BE0194800884FF40B
:10168000FA6190FBF1F201FB120004EB4401C1EBA3
:10169000C4117D2202EB410188421ADD1048008806
:1016A000110190FBF1F201FB120004EB4401C1EBCC
:1016B000C411FA2202EB410188420ADC0122D10264
:1016C000084802F051F904E00122D102054802F075
:1016D0004BF9601C04B2042C9DDB10BD08050020F2
:1016E0000000002000080240026802B110B9022286
:1016F0004277704701680A7E521C0A760A7E4B7E4A
:101700009A4204DD4A7E0A760122027704E0027FD3
:10171000012A01D10022027700BFEAE710B508488C
:10172000C16888470648C16A203088470448C16CB0
:10173000403088470248C16E6030884710BD0000C5
:101740000805002010B50021094800F0A7F8012184
:10175000074800F0A3F80221054800F09FF8032194
:10176000034800F09BF8024800F04EF810BD00005E
:10177000180000201D4B5B68B3F902201B4B5B680F
:10178000B3F90400194B5B68B3F9061013180B4446
:1017900000EE103AB8EEC00A154B1B689B6883ED4B
:1017A0000A0A534203440B4400EE103AB8EEC00A52
:1017B0000F4B5B689B6883ED0A0A131A0B4400EE1B
:1017C000103AB8EEC00A0A4B9B689B6883ED0A0A80
:1017D00053421B1A0B4400EE103AB8EEC00A044BF9
:1017E000DB689B6883ED0A0A704700003000002028
:1017F000C808002010B5034800F086F8FFF74AFE3D
:1018000010BD00001800002010B5024600203CE08A
:101810001F4951F82010097FF1B91E4931F8101005
:10182000C1F307231A4951F8201049684968A1F209
:101830000121194C04F81130164911F810301449DF
:1018400051F8201049684968A1F20121012404EBF4
:101850004101114C635416E000230D4951F820104A
:1018600049684968A1F201210B4C04F8113008497C
:1018700051F8201049684968A1F20121012404EBC4
:101880004101054C6354411CC8B20428C0DB10BDA3
:10189000C80800200C0000208009002070B5054613
:1018A0000C46174951F82410896891ED0A1AF0EE98
:1018B000410A134951F824100968B1F9021001EEE8
:1018C000101AB8EEC11AB0EE410A0D4951F82410B1
:1018D000886803F04FFF0A4850F82400806880EDC4
:1018E0002E0A074850F82400806890ED2E0ABDEEBD
:1018F000C00A10EE100A00B2024921F8140070BDAF
:10190000C80800200C00002070B50546B948807852
:1019100001287DD1B748C0780028FAD1B6480068C0
:10192000B8B900200CE0B54951F82010096891EDD4
:10193000050AB34901EB800181ED000A411CC8B2E0
:101940000428F0DB08F062F8AE4908600120AA49DB
:10195000086008F05BF8AC49086008460068A949CF
:101960000968401AA94988420CD90020A149887009
:101970000121A048C17000209F490860A249086069
:10198000A049086000245AE09D4800EB840090EDD7
:10199000000A9A4850F82400806880ED210A97498F
:1019A00051F82410896891ED211AF0EE410A93490B
:1019B00051F82410096891ED051AB0EE410A8F49DB
:1019C00051F82410896801F15C0003F0A9FF8B48ED
:1019D00050F82400806880ED0A0A884951F82410E4
:1019E000896891ED0A1AF0EE410A844951F82410F1
:1019F0000968B1F9021001EE101AB8EEC11AB0EE82
:101A0000410A7E4951F82410886803F0B3FE00E0D3
:101A100075E07A4850F82400806880ED2E0A7748F7
:101A200050F82400806890ED2E0ABDEEC00A10EE3A
:101A3000100A00B2764921F81400601CC4B2042CCC
:101A4000A2DB73480088C0F3072172480068406831
:101A5000A0F20120704A02F810106D4801786D481C
:101A600000684068A0F20120012202EB40006A4AAF
:101A7000115467484088C0F30721664840684068B1
:101A8000A0F2012002F81010614881786148406896
:101A90004068A0F20120012202EB40005E4A11548E
:101AA0005B488088C0F307215A4880684068A0F2EC
:101AB000012002F8101056480179564880684068A5
:101AC000A0F20120012202EB4000534A1154504879
:101AD000C088C0F307214F48C0684068A0F20120C9
:101AE00002F810104A4881794A48C0684068A0F25C
:101AF0000120012202EB4000474A115478E0002007
:101B000017E09FED460A3D4951F82010896881EDA4
:101B10002E0A3A4951F82010896891ED2E0ABDEE3F
:101B2000C00A10EE101A09B2394A22F81010411CEE
:101B3000C8B20428E5DB36480088C0F307213548E1
:101B400000684068A0F20120334A02F810103048C3
:101B50000178304800684068A0F20120012202EBC1
:101B600040002D4A11542A484088C0F307212948D3
:101B700040684068A0F2012002F8101024488178E3
:101B8000244840684068A0F20120012202EB400096
:101B9000214A11541E488088C0F307211D488068DF
:101BA0004068A0F2012002F8101019480179194884
:101BB00080684068A0F20120012202EB4000164A32
:101BC00011541348C088C0F307211248C068406808
:101BD000A0F2012002F810100D4881790D48C0686C
:101BE0004068A0F20120012202EB40000A4A115491
:101BF00070BD0000050000205C000020C808002027
:101C0000F8080020540000205800002080841E00A6
:101C10000C000020B808002080090020000000000F
:101C20007047000070B52DED048B0446206800B1AC
:101C300024B902206077BDEC048B70BD256828882C
:101C40002989401A00B26881B5F90A00B0F5805FB1
:101C500006DD6889A0F5F850FF3800B268810AE017
:101C6000B5F90A0010F5805F05DA688941F6FF7161
:101C7000084400B268812068008800B221680881A9
:101C80002068C0682168B1F90A1008442168C8605A
:101C9000216808880CF093F841EC190B9FED140BA8
:101CA00053EC102B0CF09EF841EC180B0BF0F6FDEA
:101CB00000EE100A206880ED040A2168C8680CF064
:101CC00067F841EC190B9FED0A0B53EC102B0CF04D
:101CD00089F841EC180B0BF0E1FD00EE100A2068CA
:101CE00080ED050A00202168087600BFA3E7000008
:101CF000405494551EF3623F70B52DED048B04469D
:101D0000206800B124B902206077BDEC048B70BD5F
:101D1000256828882989401A00B26881B5F90A0027
:101D2000B0F5805F06DD6889A0F5F850FF3800B295
:101D300068810AE0B5F90A0010F5805F05DA688964
:101D400041F6FF71084400B268812068008800B243
:101D5000216808812068C0682168B1F90A10084428
:101D60002168C860216808880CF029F841EC190B3B
:101D70009FED140B53EC102B0CF034F841EC180BC6
:101D80000BF08CFD00EE100A206880ED040A21683B
:101D9000C8680BF0FDFF41EC190B9FED0A0B53ECEB
:101DA000102B0CF01FF841EC180B0BF077FD00EE38
:101DB000100A206880ED050A00202168087600BF1F
:101DC000A3E70000000000000080A63F10B5054A10
:101DD0001068126891688847024A50685268916892
:101DE000884710BD9007002010B5024801F02CFB79
:101DF00010BD00004810002010B5024801F024FB7F
:101E000010BD00002812002010B5024801F01CFB94
:101E100010BD0000880F002010B5024801F014FB2F
:101E200010BD00008812002010B5024801F00CFB24
:101E300010BD0000E80F002010B5024801F004FBBF
:101E400010BD0000C811002010B5024801F0FCFAD6
:101E500010BD0000A810002010B5024801F0F4FAEF
:101E600010BD00000811002010B5024801F0ECFA86
:101E700010BD000068110020F0B50446059D002645
:101E8000A068802803D1400060650120F0BDE648CD
:101E9000E063E6486064E06B08B1606C18B940200C
:101EA00060650120F2E700BF94F83400012801D1F9
:101EB0000220EBE7012084F8340000BF94F83500DD
:101EC000012875D1022084F8350000206065206863
:101ED000006840F48020276838602068036120682B
:101EE0004560A068402804D1206882602068C160F5
:101EF00003E0206881602068C260CD4F2068B8424E
:101F00005DD9CC4F2068B84201D1202053E0C84FA2
:101F1000483F2068B84201D120204CE0C54F6037CF
:101F20002068B84201D1202045E0C14F1837206811
:101F3000B84201D120203EE0BE4F18372068B84299
:101F400001D1C01437E0BA4F303F2068B84201D108
:101F5000C01430E0B74F78372068B84201D1C014C0
:101F600029E0B34F30372068B84201D1C01422E0D5
:101F7000B04F30372068B84202D14FF400101AE059
:101F8000AB4F183F2068B84202D14FF4001012E066
:101F9000A84F90372068B84202D14FF400100AE0F1
:101FA000A34F48372068B84203D14FF4001002E035
:101FB0002CE14FF000609E4F4C3F38601FE19D4F79
:101FC000A8372068B8425CD99A4F2068B84201D13E
:101FD000202052E0964F483F2068B84201D120208F
:101FE0004BE0944F60372068B84201D1202044E094
:101FF0008F4F18372068B84201D120203DE08D4F27
:1020000018372068B84201D1C01436E0884F303FFD
:102010002068B84201D1C0142FE0864F783720687D
:10202000B84201D1C01428E0814F30372068B8424F
:1020300001D1C01421E07F4F30372068B84202D16F
:102040004FF4001019E07A4F183F2068B84202D1CF
:102050004FF4001011E0774F90372068B84202D15A
:102060004FF4001009E0724F48372068B84202D19F
:102070004FF4001001E04FF000606D4F503F3860AA
:10208000BDE06C4F48372068B8425CD9694F206882
:10209000B84201D1202052E0654F483F2068B84245
:1020A00001D120204BE0634F60372068B84201D156
:1020B000202044E05E4F18372068B84201D120202C
:1020C0003DE05C4F18372068B84201D1C01436E0BB
:1020D000574F303F2068B84201D1C0142FE0554F10
:1020E00078372068B84201D1C01428E0504F30370B
:1020F0002068B84201D1C01421E04E4F303720682B
:10210000B84202D14FF4001019E0494F183F20683F
:10211000B84202D14FF4001011E0464F90372068CA
:10212000B84202D14FF4001009E0414F483720680F
:10213000B84202D14FF4001001E04FF000603D4F73
:10214000103FF8605BE03B4F2068B84201D120208F
:1021500052E0374F483F2068B84201D120204BE081
:10216000344F60372068B84201D1202044E0304F1E
:1021700018372068B84201D120203DE02D4F183794
:102180002068B84201D1C01436E0294F303F2068A2
:10219000B84201D1C0142FE0264F78372068B842EA
:1021A00001D1C01428E0224F30372068B84201D155
:1021B000C01421E01F4F30372068B84202D14FF4DD
:1021C000001019E01A4F183F2068B84202D14FF4AE
:1021D000001011E0174F90372068B84202D14FF439
:1021E000001009E0124F48372068B84202D14FF47E
:1021F000001001E04FF000600E4F103FB860206803
:10220000006840F001002768386005E000BF00204A
:1022100084F8340000BF022600BF002084F8340098
:1022200000BF304632E6000065800008818000086B
:1022300058640240106002400146087810381823A4
:10224000B0FBF3F20848805CC865032A05D908682A
:102250006FF30900001D886503E008686FF309004B
:102260008865886D704700006C05010801460020F4
:102270008A6A8B69CBB932B1012A0DD0022A03D008
:10228000032A10D10EE000BFCB6A03F08073B3F1D4
:10229000807F00D1012007E0CB6AB3F1C07F00D17D
:1022A000012001E000E000BF34E08B69B3F5005F7E
:1022B0001AD132B1012A07D0022A03D0032A11D140
:1022C0000AE000BF01200EE0CB6A03F08073B3F197
:1022D000807F00D1012006E0CB6AB3F1C07F00D13E
:1022E000012000E000BF15E032B1012A05D0022A2A
:1022F00004D0032A0CD103E000BF00BF012008E096
:10230000CB6A03F08073B3F1807F00D1012000E03D
:1023100000BF00BF704770B50446002500BF94F8A9
:102320003400012801D1022070BD012084F834005E
:1023300000BF94F8350001281FD1022084F8350031
:10234000002060652068006820F4802026683060E6
:1023500020684360A068402804D12068826020681B
:10236000C16003E0206881602068C2602068006866
:1023700040F001002668306005E000BF002084F8CE
:10238000340000BF02252846CEE710B504F022F83D
:1023900004F056F804F09AF804F0C6F810BD10B531
:1023A00004462068006800F01000102807D120685B
:1023B000C06800F0100010B120460AF017FC10BDF4
:1023C000704772B600BFFEE710B500F023F800F0CA
:1023D000C1F90448007808B900F068F900F01AF96A
:1023E00010BD00009000002007480068C06800B2DF
:1023F00006494968488306480068C06800B2034936
:102400004968C8817047000070070020D000002094
:102410005007002000B5FFF7E7FF13484078B0B938
:10242000124800680088F0B9104800684088D0B9A8
:102430000E4800688088B0B90C480068C08890B920
:102440000948007878B90120074948700BE008482E
:10245000007810B900F010F805E005480078012870
:1024600001D100F007F800BD050000205C0100204C
:10247000900000207047000006480068B0F9020094
:102480000549B1F9001090FBF1F000B20349496829
:10249000488570475C0100207C000020D0000020AF
:1024A00010B5114800680068104908600E480068BF
:1024B000406848600C480068006800680C49086083
:1024C000094800684068006848600748006800687C
:1024D00040680849086004480068406840684860EF
:1024E00000F084F810BD0000D0000020680000203B
:1024F000700000206000002010B52B48007F0128EC
:102500001FD12A4800884FF47A7190FBF1F201FB49
:10251000120030B900224FF48061254801F024FAFE
:1025200014E0224800884FF47A7190FBF1F201FB2D
:1025300012007D280AD1012291021D4801F014FAEF
:1025400004E0012291021A4801F00EFA1948007FB6
:10255000012822D1154800884FF47A7190FBF1F2DE
:1025600001FB1200FA2806D100224FF480611048C6
:1025700001F0FAF916E00D4800884FF47A7190FBEB
:10258000F1F201FB120040F2771188420AD10122D8
:102590009102074801F0E8F904E0012291020448A1
:1025A00001F0E2F910BD00005007002000000020FB
:1025B0000008024070070020026802B110B9022230
:1025C0004277704701680A7E521C0A760A7E4B7E6B
:1025D0009A4204DD4A7E0A760122027704E0027FF5
:1025E000012A01D10022027700BFEAE710B50648B0
:1025F000C16888470548C16888479FED050A0348B8
:10260000806880ED210A10BD50070020700700206F
:1026100000007A4510B5044800F06AF9034800F05C
:1026200007F800F0E3F810BD500700207007002005
:1026300010B50446A16891ED211AF0EE410A216817
:10264000098801EE101AB8EE411AB0EE410AA168ED
:1026500001F15C0003F064F9A06880ED2F0AA16825
:1026600091ED2F1AF0EE410A2168B1F9021001EE46
:10267000101AB8EEC11AB0EE410AA06803F050F982
:10268000A06880ED2E0AA06890ED2E0ABDEEC00A6B
:1026900010EE100A01B260684068A0F20520024AFC
:1026A00022F8101010BD00007800002000B5254869
:1026B00040684078F0BB23484068008D2149496854
:1026C000498D084400B21F49496808851D48406883
:1026D000B0F9200000EE100AB8EEC00A1A4880686F
:1026E00080ED210A17484068B0F928001749B1F970
:1026F0001010884205DD1548008A1249496808858E
:102700000DE010484068B0F928001049B1F91210E6
:10271000884204DA0D48408A0A4949680885094810
:102720004068B0F9280000EE100AB8EEC00A084868
:10273000806800E002E080ED210A01E000F09AF8F4
:1027400000BD0000D000002050070020BC00002089
:10275000700700201A480078012830D118484078C6
:1027600068BB18480088184909680988401A00B2EF
:1027700016494968488413480089144949680885FE
:1027800012484068B0F92200B0F5805F09DD0F48BB
:102790004068408CA0F5F850FF3800B20B494968FA
:1027A000488409480068C06808494968498C084459
:1027B00000B2064949680884002001490870704742
:1027C00005000020BC00002050070020D0000020A1
:1027D00000B500F04FF8FFF71DFE01200249087018
:1027E0000020487000BD0000050000201D48007F4B
:1027F000A8B91C4840684068A0F205201A4931F881
:102800001000000A19490872164840684068A0F292
:102810000520154911F810001449487203E0002002
:102820001249087248721248007FA8B910484068DF
:102830004068A0F205200C4931F81000000A0B494D
:1028400088720B4840684068A0F20520064911F8DC
:1028500010000649C87203E0002004498872C8725B
:1028600070470000500700207800002080090020F9
:10287000700700209FED1A0A1A480068806880EDF2
:102880002E0A9FED170A17484068806880ED2E0ACF
:1028900014480068806890ED2E0ABDEEC00A10EE64
:1028A000100A00B2104908800E484068806890ED18
:1028B0002E0ABDEEC00A10EE100A00B2488008468B
:1028C0000088000A094908720748007848720648DB
:1028D0004088000A887204488078C87270470000F7
:1028E000000000006800002078000020800900201F
:1028F00010B50446A16891ED211AF0EE410A216855
:10290000C96801EE101AB8EEC11AB0EE410AA1680A
:1029100001F15C0003F004F8A06880ED2F0AA168C3
:1029200091ED2F1AF0EE410A2168B1F9021001EE83
:10293000101AB8EEC11AB0EE410AA06802F0F0FF1A
:10294000A06880ED2E0AA06890ED2E0ABDEEC00AA8
:1029500010EE100A01B260684068A0F20520024A39
:1029600022F8101010BD00007800002010B50246BB
:1029700092F82030012B01D0022B06D1106840695B
:10298000084314686061002010BD506A40F4802044
:1029900050620120F8E7F0B504460D461E4694F853
:1029A000207020688368A86800B900E000BF012F8C
:1029B00001D0022F7CD103F0806030B903F00060B9
:1029C00018B903F08050002873D0C3F301610229C5
:1029D00005D9606A40F4000060620120F0BD01206A
:1029E00088403060A86860B9B5F800C0E86840EA7F
:1029F0004C5C206800F5C07000EB0110C0F800C00E
:102A00000FE0D5E901C040EACC00D5F80CC040EA9F
:102A10000C00D4F800C00CF5C07C0CEB011CCCF809
:102A20000000D5F810C0206800F5C07000EB011060
:102A3000C0F804C0287D01280ED1206800F5C070C0
:102A400000EB0110406840F4807C206800F5C07005
:102A500000EB0110C0F804C0D079000692F806C05F
:102A600040EA0C4092F805C040EA0C2C10794CEA80
:102A7000000C206800F5C07000EB0110C0F80CC01D
:102A8000D078000692F802C040EA0C4092F801C0EB
:102A900040EA0C2092F800C040EA0C00D4F800C0D4
:102AA0000CF5C07C0CEB011CCCF80800206801E0A0
:102AB00016E00FE000F5C07000EB0110006840F078
:102AC000010C206800F5C07000EB0110C0F800C0D8
:102AD000002083E7606A40F40010606201207DE717
:102AE000606A40F480206062012077E7F0B5044618
:102AF0000A46216894F82050012D01D0022D7ED184
:102B0000424901F50071086840F00100086008685A
:102B100020F47C5008600868566A40EA0620086085
:102B2000107D00F01F06012000FA06F3C8699843E3
:102B3000C861A1F50071D069C8B9D1F80C029843F9
:102B4000C1F80C02908880B2968940EA064601F5E9
:102B50001070576940F83760108880B2168940EAD3
:102B6000064601F51070576900EBC7004660D06952
:102B7000012819D1D1F80C021843C1F80C02908831
:102B800080B2168840EA064601F51070576940F891
:102B90003760908980B2168940EA064601F51070C8
:102BA000576900EBC7004660906928B9D1F8040264
:102BB0009843C1F8040204E0D1F804021843C1F8B4
:102BC0000402106928B9D1F814029843C1F814021C
:102BD00004E0D1F814021843C1F81402106A012865
:102BE00004D1D1F81C021843C1F81C02D1F800022C
:102BF00020F00100C1F800020020F0BDFFE7606A8C
:102C000040F4802060620120F7E70000006400408B
:102C1000704770B5044694F82050012D01D0022D64
:102C20007DD151B92068C06800F0030080B9606AA6
:102C300040F400106062012070BD2068006900F05F
:102C4000030028B9606A40F4001060620120F3E7D5
:102C5000206800F5D87000EB0110006800F0040057
:102C60009060906840B9206800F5D87000EB0110C2
:102C70000068400D106007E0206800F5D87000EB98
:102C800001100068C0085060206800F5D87000EBA3
:102C90000110006800F00200D060206800F5D870D4
:102CA00000EB0110406800F00F001061206800F593
:102CB000D87000EB0110406800F47F40000A90617A
:102CC000206800F5D87000EB01104068000C5061DE
:102CD000206800F5D87000EB01108068187020683B
:102CE00000F5D87000EB0110806800F47F40000A06
:102CF0005870206800F5D87000EB0110806800F46F
:102D00007F00000C9870206800F5D87000EB01106F
:102D10008068000ED870206800F5D87000E02FE0C1
:102D200000EB0110C0681871206800F5D87000EB46
:102D30000110C06800F47F40000A5871206800F557
:102D4000D87000EB0110C06800F47F00000C98718F
:102D5000206800F5D87000EB0110C068000ED87133
:102D600031B92068C06840F020002668F06005E0B6
:102D70002068006940F020002668306100205BE791
:102D8000606A40F480206062012055E72DE9F05F21
:102D900004460025206846692068D0F80490206821
:102DA00087682068D0F80CA02068D0F810B02068A0
:102DB000D0F8188006F00100002855D007F0010077
:102DC000C0B101202168886007F0020018B12046D8
:102DD00000F0C9FA0EE007F0040010B145F40065F8
:102DE00008E007F0080010B145F4805502E02046E5
:102DF00000F0B8FA07F48070C8B14FF48070216811
:102E0000886007F4007018B1204600F0AEFA0EE0BA
:102E100007F4806010B145F4005508E007F4006045
:102E200010B145F4804502E0204600F09DFA07F419
:102E30008030C8B14FF480302168886007F40030DA
:102E400018B1204600F093FA0EE007F4802010B18C
:102E500045F4004508E007F4002010B145F4803542
:102E600002E0204600F082FA06F0080038B10AF0CD
:102E7000100020B145F4007510202168C86006F0EC
:102E8000040040B10AF0080028B108202168C86099
:102E9000204600F00DFA06F0020038B12068C06844
:102EA00000F0030010B1204600F004FA06F04000E4
:102EB00038B10BF0100020B145F480651020216876
:102EC000086106F0200040B10BF0080028B108208E
:102ED00021680861204600F013FA06F0100038B1AE
:102EE0002068006900F0030010B1204600F009FAE4
:102EF00006F4003040B109F0100028B1102021681C
:102F00004860204600F0FEF906F4803040B109F038
:102F1000080028B1082021684860204600F028FAFF
:102F200006F4004088B309F0040078B306F480701A
:102F300020B108F0010008B145F0010506F4007069
:102F400020B108F0020008B145F0020506F48060E7
:102F500020B108F0040008B145F0040506F4006053
:102F6000A0B108F0700088B108F07000402817D0B8
:102F700006DC10280BD020280CD0302819D10CE00A
:102F8000502810D0602814D110E01DE019E045F061
:102F900008050FE045F010050CE045F0200509E0BC
:102FA00045F0400506E045F0800503E045F48075F6
:102FB00000E000BF00BF2068806920F07000216839
:102FC00088610420216848602DB1606A28436062EE
:102FD0002046FFF71DFEBDE8F09F70B504460CB912
:102FE000012070BD94F8200010B9204600F0B0F820
:102FF0002068006840F001002168086000F0BAFC19
:1030000005460DE000F0B6FC401B0A2808D9606AAE
:1030100040F400306062052084F820000120E0E7E1
:103020002068406800F001000028EBD020680068AC
:1030300020F002002168086000F09CFC05460DE0CD
:1030400000F098FC401B0A2808D9606A40F4003060
:103050006062052084F820000120C2E720684068F3
:1030600000F002000028EBD1207E012806D1206864
:10307000006840F080002168086005E02068006872
:1030800020F0800021680860607E012806D1206859
:10309000006840F040002168086005E02068006892
:1030A00020F0400021680860A07E012806D1206839
:1030B000006840F020002168086005E02068006892
:1030C00020F0200021680860E07E012806D12068F9
:1030D000006820F010002168086005E020680068A2
:1030E00040F0100021680860207F012806D1206888
:1030F000006840F008002168086005E0206800686A
:1031000020F0080021680860607F012806D120684F
:10311000006840F004002168086005E0206800684D
:1031200020F0040021680860D4E902010843216905
:103130000843616908436168491E08432168C86102
:1031400000206062012084F82000002049E7000090
:1031500010B586B00446142101A8FDF76FFA4E4958
:103160002068884241D14D480068401C4B490860A6
:103170000846006801280FD100BF00200090484891
:10318000006840F00070464908600846006800F09A
:103190000070009000BF00BF00BF002000904048BA
:1031A0001038006840F008003D49103908600846B2
:1031B000006800F00800009000BF00BF03200190ED
:1031C0000220029000200390032004900920059023
:1031D00001A9344800F0CEFA00220521142000F0A5
:1031E000D5FC142000F0BEFC54E02F492068884232
:1031F00050D100BF002000902948006840F0806056
:10320000274908600846006800F08060009000BF11
:1032100000BF22480068401C20490860084600683A
:1032200001280FD100BF002000901D48006840F029
:1032300000701B4908600846006800F000700090AC
:1032400000BF00BF00BF0020009015481038006884
:1032500040F002001249103908600846006800F08A
:103260000200009000BF00BF602001900220029089
:1032700000200390032004900920059001A90B4829
:1032800000F078FA00220521402000F07FFC402069
:1032900000F068FC06B010BD006400402C0800205F
:1032A00040380240000C0240006800400004024028
:1032B0007047000010B504460E4BA3F11C0200211C
:1032C0002046FFF7A6FC0C48844206D109491C3968
:1032D00008681C31FEF702F80AE00848844206D16B
:1032E00004491C3908681C31FEF74CF800E010BD99
:1032F00000BFFCE7BC090020D80D0020000E002014
:1033000070477047704770B5044694F82000012854
:1033100022D1022084F820002068006820F00100FB
:103320002168086000F026FB05460DE000F022FB56
:10333000401B0A2808D9606A40F40030606205200A
:1033400084F82000012070BD2068406800F0010072
:103350000028EBD16062F6E7606A40F4002060620A
:103360000120F0E77047704770477047704770471B
:10337000704770B50446A56D00F0FCFA064694F857
:103380003500022808D08020606500BF002084F846
:10339000340000BF012070BD2068006820F01600D6
:1033A000216808602068406920F080002168486139
:1033B000206C08B9A06C28B12068006820F00800D3
:1033C000216808602068006820F00100216808601A
:1033D00010E000F0CFFA801B05280BD92020606593
:1033E000032084F8350000BF002084F8340000BFBB
:1033F0000320D0E72068006800F001000028E8D131
:1034000094F85C103F208840A860012084F83500C3
:1034100000BF002084F8340000BF00BFBBE70146B6
:1034200091F83500022803D08020486501207047BC
:10343000052081F835000868006820F001000A685E
:1034400010600020F3E70000F8B50446002000906B
:103450008C4800684FF41651B0FBF1F7A56D2E684B
:1034600094F85C1008208840304098B120680068CB
:1034700000F0040070B12068006820F004002168AA
:10348000086094F85C1008208840A860606D40F0E7
:103490000100606594F85C1001208840304068B1FC
:1034A0002068406900F0800040B194F85C10012071
:1034B0008840A860606D40F00200606594F85C1080
:1034C00004208840304068B12068006800F00200A5
:1034D00040B194F85C1004208840A860606D40F012
:1034E0000400606594F85C1010208840304078B388
:1034F0002068006800F0080050B394F85C101020B9
:103500008840A8602068006800F4802080B12068AE
:10351000006800F4002028B9206CC8B12046216C56
:10352000884715E0A06C98B12046A16C88470FE051
:103530002068006800F4807028B92068006820F0D6
:10354000080021680860206C10B12046216C884773
:1035500094F85C10202088403040002865D0206816
:10356000006800F0100000285FD094F85C10202064
:103570008840A86094F83500052828D120680068A4
:1035800020F01600216808602068406920F0800063
:1035900021684861206C08B9A06C28B120680068D7
:1035A00020F008002168086094F85C103F208840F3
:1035B000A860012084F8350000BF002084F83400A2
:1035C00000BF206D10B12046216D8847F8BD2068EE
:1035D000006800F4802080B12068006800F40020BA
:1035E00028B9606C10B12046616C88471DE0E06B23
:1035F000D8B12046E16B884717E02068006800F4E6
:10360000807068B92068006820F0100021680860A8
:10361000012084F8350000BF002084F8340000BF8A
:10362000E06B10B12046E16B8847606D38B3606D88
:1036300000F00100F0B1052084F835002068006832
:1036400020F001002168086000BF0098401C009035
:10365000B84200D905E02068006800F001000028A9
:10366000F3D100BF012084F8350000BF002084F8AA
:10367000340000BFE06C10B12046E16C884700BF09
:10368000A4E700003C0800202DE9F0410446002595
:1036900000F070F9074614B90120BDE8F081606AB6
:1036A00000B100BF022084F8350000BF002084F87C
:1036B000340000BF2068006820F001002168086025
:1036C0000AE000F057F9C01B052805D920206065E5
:1036D000032084F83500E0E72068006800F001006E
:1036E0000028EED12068056821480540D4E9010191
:1036F0000843E16808432169084361690843A169F7
:103700000843E1690843216A08430543606A0428C5
:1037100003D1D4E90B010843054320680560206804
:10372000456925F00705606A0543606A04280DD1E4
:10373000A06A0543E06A48B12046FEF797FD28B12C
:1037400040206065012084F83500A6E720684561C7
:103750002046FEF771FD064694F85C103F20884035
:10376000B06000206065012084F83500002094E7F7
:103770003F8010F0F8B502460B46002500240020DB
:103780000021D6E0012606FA01F51E6806EA0504C6
:10379000AC4274D11E7906F00306012E04D01E79C6
:1037A00006F00306022E13D190684F000326BE4098
:1037B000B0434F00DE68BE40304390605068012641
:1037C0008E40B0431E79C6F300168E4030435060E1
:1037D0001E7906F00306032E09D0D0684F00032699
:1037E000BE40B0434F009E68BE403043D0601E795B
:1037F00006F00306022E13D1CF0802F1200656F878
:1038000027004E07F70E0F26BE40B0434F07FF0EAE
:103810001E69BE403043CF0802F1200646F827005B
:1038200010684F000326BE40B0431E7906F0030621
:103830004F00BE40304310605E6806F44036002EF4
:1038400076D000BF002600963C4E366846F480468F
:103850003A4F3E603E46366806F48046009600BF0A
:1038600000BF374E8F0856F827008E07370F0F26F8
:10387000BE40B043334EB24202D1002624E057E0AE
:10388000314EB24201D101261EE0304EB24201D18A
:10389000022619E02E4EB24201D1032614E02D4E2D
:1038A000B24201D104260FE02B4EB24201D10526CF
:1038B0000AE02A4EB24201D1062605E0284EB24265
:1038C00001D1072600E008268F073F0FBE40304396
:1038D0001B4E8F0846F82700224E3068A0435E68D2
:1038E00006F4801606B120431E4E3060361D306847
:1038F000A0435E6806F4001606B12043194E361D3B
:103900003060184E361F3068A0435E6806F40036FB
:1039100006B12043134E361F3060361F3068A04377
:103920005E6806F4803606B120430E4E083E3060D5
:10393000491C1029FFF426AFF8BD000044380240AE
:103940000838014000000240000402400008024024
:10395000000C024000100240001402400018024017
:10396000001C0240083C01400AB1816101E00B04E7
:1039700083617047014800687047000030080020EC
:1039800070B504460CB9012070BD4CF6CC402168DE
:10399000086045F2555021680860D4E9001048607D
:1039A0002168A0688860FFF7E5FF05460BE0FFF798
:1039B000E1FF401B312806D92068C06800F00300F1
:1039C00008B10320E0E72068C06800F00300002889
:1039D000EDD14AF6AA20216808600020D4E701460C
:1039E0004AF6AA200A68106000207047094800685B
:1039F000094909780844074908604FF08040406A47
:103A0000096801EB4102C2EBC11100EBC10003499F
:103A10000860704730080020380800200C0800209B
:103A200010B50D48006840F400700B490860084666
:103A3000006840F4806008600846006840F48070C8
:103A40000860032000F0E0F80F2000F007F800F015
:103A50005FF8002010BD0000003C02402DE9F0415D
:103A600088B004460027B84600BF002001902448D3
:103A7000006840F00100224908600846006800F034
:103A80000100019000BF00BF02A903A800F092F955
:103A9000069F1FB900F0B6F9054602E000F0B2F942
:103AA00045001848B5FBF0F0A0F101084FF0804048
:103AB0001549086040F2E7311348C160C0F804803E
:103AC000002101618160816100F064FC064696B9C5
:103AD0000D4800F093FC06466EB91C2000F042F839
:103AE000102C07D2002221461C2000F04FF8074876
:103AF000046000E00126304608B0BDE8F081000017
:103B00004038024040420F00E812002034080020F4
:103B100008B500BF002000901148006840F48040C4
:103B20000F4908600846006800F48040009000BF1C
:103B300000BF00BF00200090081F006840F08050C8
:103B4000091F08600846006800F08050009000BF20
:103B500000BF00220F21901E00F018F808BD0000E1
:103B6000443802400146084600280DDB00BF00BF74
:103B700000F01F0301229A4043099B0003F1E02358
:103B8000C3F8002100BF00BF00BF70472DE9F05F00
:103B900080460D461646002702F04CFD0746394682
:103BA0002A46334601F00700C0F1070ABAF1040FB4
:103BB00002D94FF0040A01E0C0F1070AD14600F132
:103BC000040ABAF1070F02D24FF0000A01E0A0F197
:103BD000030AD4464FF0010A0AFA09FAAAF1010AC7
:103BE0000AEA020A0AFA0CFA4FF0010B0BFA0CFB74
:103BF000ABF1010B0BEA030B4AEA0B0421464046EA
:103C000002F020FDBDE8F09F00BF00F00702064B68
:103C100019684FF6FF031940044B0B4343EA022196
:103C2000014B196000BF70470CED00E00000FA0581
:103C300070B504460D460CB9012070BD58480068A7
:103C400000F00700A84209D255490D7008460068E7
:103C500000F00700A84201D00120EEE7207800F034
:103C6000020002281DD1207800F00400042805D1AC
:103C70004C48006840F4E0504A490860207800F061
:103C80000800082805D14748006840F460404549CD
:103C900008604448006820F0F000A16808434149EA
:103CA0000860207800F00100A8B36068012807D1FF
:103CB0003C4808380068C0F34040B8B90120BCE770
:103CC0006068022802D06068032807D135480838A8
:103CD0000068C0F3406048B90120AEE731480838B9
:103CE0000068C0F3400008B90120A6E72D4800682D
:103CF00020F00300616808432A490860FFF73AFE94
:103D0000064609E0FFF736FE801B41F28831884203
:103D100002D9032091E707E02248006800F00C0078
:103D20006168B0EB810FEDD11D48006800F007001D
:103D3000A84209D91A490D700846006800F007002A
:103D4000A84201D0012078E7207800F00400042880
:103D500007D11448006820F4E050E1680843114995
:103D60000860207800F00800082808D10D48006895
:103D700020F46040216940EAC1000A49086000F06F
:103D800061F808490968C1F30311074A515CC8404A
:103D90000649086006480068FFF760FE00204CE70F
:103DA000003C024008380240740501083C0800202D
:103DB000340800200F2202600D4A126802F003024C
:103DC00042600B4A126802F0F0028260084A1268F0
:103DD00002F4E052C260064A126802F46042D2085D
:103DE0000261044A126802F007020A60704700008C
:103DF00008380240003C024001480068704700005B
:103E00003C08002000B5FFF7F7FF04490968C1F33B
:103E10008221034A515CC84000BD000008380240BE
:103E20008405010800B5FFF7E7FF04490968C1F3FD
:103E30004231034A515CC84000BD000008380240CE
:103E4000840501082DE9F047002400250026A1463D
:103E50002548006800F00C0020B1042805D008288F
:103E60003AD105E0DFF8849039E0DFF8849036E05D
:103E70001D48001F006800F03F041B48001F006839
:103E800000F4800078B11A481749091F0968C1F386
:103E90008811A0FB01700146224600233846FCF73A
:103EA000BDFA05460EE011480F49091F0968C1F324
:103EB0008811A0FB01700146224600233846FCF71A
:103EC000ADFA05460848001F0068C0F30140401CD9
:103ED0004600B5FBF6F902E0DFF8109000BF00BF26
:103EE0004846BDE8F0870000083802400024F4008E
:103EF00040787D01F8B504460CB90120F8BD207862
:103F000000F00100002874D0F948006800F00C00AF
:103F100004280DD0F648006800F00C00082813D1E2
:103F2000F348001F006800F48000B0F5800F0BD14B
:103F3000EF4808380068C0F34040002859D0606856
:103F4000002856D10120D9E700BF6068B0F5803F56
:103F500008D1E7480838006840F48030E44908395F
:103F600008601EE06068B0F5A02F0DD1E048083869
:103F7000006840F48020DE4908390860084600687F
:103F800040F4803008600CE0D9480838006820F41C
:103F90008030D749083908600846006820F480203E
:103FA000086000BF606890B1FFF7E4FC054606E0DA
:103FB000FFF7E0FC401B642801D903209EE7CC48B2
:103FC00008380068C0F340400028F1D011E0FFF746
:103FD000D1FC054606E0FFF7CDFC401B642801D963
:103FE00003208BE7C24808380068C0F3404000282F
:103FF000F1D1207800F0020002285FD1BC480068AF
:1040000000F00C0058B1BA48006800F00C00082815
:104010001CD1B748001F006800F48000B0B9B44854
:1040200008380068C0F3400020B1E068012801D0E2
:10403000012063E7AE480838006820F0F8002169E5
:1040400040EAC100AA490839086037E0E06800B3D7
:104050000120A8490860FFF78DFC054606E0FFF740
:1040600089FC401B022801D9032047E7A0480838F3
:104070000068C0F340000028F1D09D48083800686F
:1040800020F0F800216940EAC10099490839086028
:1040900014E0002097490860FFF76CFC054606E035
:1040A000FFF768FC401B022801D9032026E790484F
:1040B00008380068C0F340000028F1D1207800F0F3
:1040C000080008282CD16069A8B101208A4908603D
:1040D000FFF750FC054606E0FFF74CFC401B0228AA
:1040E00001D903200AE782486C300068C0F3400021
:1040F0000028F1D014E000207F490860FFF73AFC67
:10410000054606E0FFF736FC401B022801D90320D4
:10411000F4E677486C300068C0F340000028F1D125
:10412000207800F00400042870D10027704838304F
:10413000006800F0805090B900BF002000906C48EB
:104140003830006840F080506949383108600846CE
:10415000006800F08050009000BF00BF0127674852
:10416000006800F48070B0B96448006840F4807062
:1041700062490860FFF7FEFB054606E0FFF7FAFB21
:10418000401B022801D90320B8E65C48006800F40F
:1041900080700028F2D000BFA068012808D15448E0
:1041A0006830006840F001005149683108601DE046
:1041B000A06805280DD14E486830006840F0040022
:1041C0004B49683108600846006840F0010008600B
:1041D0000CE047486830006820F00100444968312D
:1041E00008600846006820F00400086000BFA0686E
:1041F000A8B1FFF7BFFB054609E0FFF7BBFB401B7B
:1042000041F28831884202D9032077E626E0384817
:1042100068300068C0F340000028EED013E0FFF7DC
:10422000A9FB054608E0FFF7A5FB401B41F28831DA
:10423000884201D9032061E62D4868300068C0F348
:1042400040000028EFD1012F07D1294838300068FD
:1042500020F0805026493831086000BFA06900284E
:1042600045D02348006800F00C0008285DD0A06904
:10427000022845D100201F490866FFF77BFB054651
:1042800006E0FFF777FB401B022801D9032035E643
:10429000174808380068C0F340600028F1D1D4E91D
:1042A00007010843616A40EA81110122A06AC2EB5A
:1042B000500041EA00412C20005D41EA00600C49B9
:1042C000091F086001200B490866FFF753FB0546EC
:1042D00006E0FFF74FFB401B022801D903200DE643
:1042E000034808380068C0F340600028F1D049E076
:1042F0000838024000004742800E474200700040EC
:10430000002021490866FFF735FB054606E0FFF768
:1043100031FB401B022801D90320EFE51B48006850
:10432000C0F340600028F2D12CE0A069012800D140
:10433000E4E51648001D0668A069012820D006F4AF
:104340008001E06981421BD106F03F01206A814271
:1043500016D147F6C0703040616AB0EB811F0FD1B3
:1043600006F440310122A06AC2EB5000B1EB004FCD
:1043700006D106F070612C20005DB1EB006F01D01A
:104380000120BBE50020B9E50000474200380240AB
:104390007047704710B504460CB9012010BD94F861
:1043A0003D0028B9002084F83C00204600F025F8A4
:1043B000022084F83D00211D206801F06FFD0120DE
:1043C00084F8460000BF84F83E0001213F200155DB
:1043D000402001554120015500BF00BF012084F855
:1043E000420043200155442001554520015500BF9E
:1043F000012084F83D000020D0E77047014691F885
:104400003D00012801D001207047022081F83D00C5
:104410000868C06840F001000B68D8601A4B086853
:1044200098421BD00868B0F1804F17D0174B08682E
:10443000984213D0164B086898420FD0154B086865
:1044400098420BD0144B0868984207D0134B086869
:10445000984203D0124B086898420CD108688068D3
:1044600000F00702062A0CD00868006840F001003E
:104470000B68186005E00868006840F001000B68F0
:1044800018600020C0E70000000001400004004068
:1044900000080040000C00400004014000400140C2
:1044A00000180040704710B5044620680069C0F34A
:1044B0004000D8B12068C068C0F34000B0B16FF0D0
:1044C000020021680861012020772068806900F0DF
:1044D000030018B12046FFF7E5FF05E0204600F095
:1044E000ADF8204600F0ABF8002020772068006986
:1044F000C0F38000D8B12068C068C0F38000B0B1BC
:104500006FF004002168086102202077206880692C
:1045100000F4407018B12046FFF7C4FF05E02046C4
:1045200000F08CF8204600F08AF800202077206800
:104530000069C0F3C000D8B12068C068C0F3C000F3
:10454000B0B16FF00800216808610420207720686E
:10455000C06900F0030018B12046FFF7A3FF05E093
:10456000204600F06BF8204600F069F80020207724
:1045700020680069C0F30010D8B12068C068C0F39B
:104580000010B0B16FF0100021680861082020779A
:104590002068C06900F4407018B12046FFF782FF20
:1045A00005E0204600F04AF8204600F048F80020D8
:1045B00020772068006900F0010058B12068C068C9
:1045C00000F0010030B16FF0010021680861204661
:1045D00000F036F820680069C0F3C01058B12068B8
:1045E000C068C0F3C01030B16FF08000216808616E
:1045F0002046FFF7CDFE20680069C0F3801058B157
:104600002068C068C0F3801030B16FF040002168AE
:104610000861204600F01DF820680069C0F34010D2
:1046200058B12068C068C0F3401030B16FF020006E
:10463000216808612046FFF7ACFE10BD7047704747
:1046400010B504462068B0F1804F01D1FFF7CEF9D4
:1046500010BD7047704770472DE9F84F0446206839
:1046600005682068C668206847694FF00009CA4697
:1046700005F00F09B9F1000F0AD105F0200038B19B
:1046800006F0200020B1204601F0D8FCBDE8F88FEC
:10469000B9F1000F7CD007F0010018B906F4907052
:1046A000002875D005F0010030B106F4807018B113
:1046B000206C40F00100206405F0040030B107F0E8
:1046C000010018B1206C40F00200206405F00200E7
:1046D00030B107F0010018B1206C40F004002064F4
:1046E00005F0080048B106F0200010B907F00100FD
:1046F00018B1206C40F008002064206C002846D0DF
:1047000005F0200028B106F0200010B1204601F08D
:1047100095FC20684069C0F3801A206C00F0080006
:1047200010B9BAF1000F2DD0204601F041FC2068ED
:10473000406900F04000402820D100BF00BF216840
:10474000143151E8001F21F040002168143141E884
:104750000002002AF3D100BFA06B50B17548A16BD5
:104760000865A06BFEF75BFE88B1A06B016D884702
:104770000DE02046FFF76FFF09E009E02046FFF754
:104780006AFF04E02046FFF766FF002020647DE713
:10479000206B012876D105F01000002872D006F0B9
:1047A00010000028FAD000BF0020009020680068A8
:1047B000009020684068009000BF00BF20684069FA
:1047C00000F0400040285ED1A06B006840681FFAEE
:1047D00080F8B8F1000F54D0A08D404551DDA4F809
:1047E0002E80A06BC069B0F5807F43D000BF00BFB2
:1047F00021680C3151E8001F21F4807021680C31D0
:1048000041E80002002AF3D100BF00BF00BF2168C9
:10481000143151E8001F21F001002168143141E8F2
:104820000002002AF3D100BF00BF00BF216814318D
:1048300051E8001F21F040002168143141E80002D6
:10484000002AF3D100BF202084F83E00002020631E
:1048500000BF00BF21680C3151E8001F21F010009B
:1048600021680C3141E80002002AF3D100BFA06B9F
:10487000FEF77FFDA08DE28D801A81B22046FFF702
:10488000E9FE03E740E0A08DE18D401A1FFA80F8B1
:10489000E08DC0B3B8F1000F35D000BF00BF216874
:1048A0000C3151E8001F21F4907021680C3141E86F
:1048B0000002002AF3D100BF00BF00BF21681431FD
:1048C00051E8001F21F001002168143141E8000285
:1048D000002AF3D100BF202084F83E00002020638E
:1048E00000BF00BF21680C3151E8001F21F010000B
:1048F00021680C3141E80002002AF3D100BF414693
:104900002046FFF7A7FEC1E605F0800030B106F0B3
:10491000800018B1204601F023FDB7E605F0400005
:1049200030B106F0400018B1204601F077FBADE64B
:1049300000BFABE69D5F000810B504460CB901202E
:1049400010BDA06900B100E000BF94F83D0028B997
:10495000002084F83C00204600F028F8242084F849
:104960003D002068C06820F400502168C8602046DF
:1049700001F0E0FB2068006920F4904021680861A4
:104980002068406920F02A00216848612068C068DA
:1049900040F400502168C86000202064202084F882
:1049A0003D0084F83E000020CAE7000010B586B044
:1049B0000446142101A8FBF741FEFA492068884209
:1049C00077D100BF00200090F748006840F4002035
:1049D000F54908600846006800F40020009000BF18
:1049E00000BF00BF00200090EF481038006840F082
:1049F0000100ED49103908600846006800F0010028
:104A0000009000BF00BF0320019002200290002010
:104A10000390032004900820059001A9E348FEF7C5
:104A2000A9FEE348E3490860400548600021E148E9
:104A30008160C1604FF48061016100214161816149
:104A40004FF48071C161002101624162FEF71CFEDA
:104A500008B1FDF7B6FC00BFD648A063846300BF71
:104A6000D3483030D44908604FF00060486040219E
:104A7000D14881600021C1604FF480610161002153
:104A800041618161C16101624162FEF7FDFD08B1D2
:104A9000FDF797FC00BFC8486063846300BF002235
:104AA00005213420FFF772F83420FFF75BF818E295
:104AB000FFE7C249206888427ED100BF00200090F5
:104AC000B948006840F48010B7490860084600689B
:104AD00000F48010009000BF00BF00BF00200090D5
:104AE000B1481038006840F00400AF491039086040
:104AF0000846006800F00400009000BF00BF00BF3F
:104B0000002000900846006840F008000860084651
:104B1000006800F00800009000BF00BF88140190FA
:104B200002200290002003900320049008200590AA
:104B300001A9A348FEF71EFE042001900220029066
:104B400000200390032004900820059001A99D48AF
:104B5000FEF710FE964830389B490860C005486053
:104B6000002199488160C1604FF48061016100219A
:104B7000416181614FF48071C16100210162416234
:104B8000FEF782FD08B1FDF71CFC00BF8E48A06354
:104B9000846300BF864878308C4908604FF000601D
:104BA00048604021894881600021C1604FF48061E4
:104BB00001610021416100E016E08161C161016293
:104BC0004162FEF761FD08B1FDF7FBFB00BF7F48C6
:104BD0006063846300BF002205213520FEF7D6FF05
:104BE0003520FEF7BFFF7CE17949206888427BD100
:104BF00000BF002000906C48001D006840F01000CD
:104C00006949091D08600846006800F0100000901E
:104C100000BF00BF00BF002000906348103800684C
:104C200040F001006049103908600846006800F053
:104C30000100009000BF00BF4FF4C060019002204F
:104C4000029000200390032004900720059001A902
:104C50005648FEF78FFD5F485F4908604FF00060DF
:104C6000486000215C488160C1604FF4806101614F
:104C70000021416181614FF48071C16100210162B5
:104C80004162FEF701FD08B1FDF79BFB00BF5248F2
:104C9000A063846300BF4F487830504908604FF0EC
:104CA0000060486040214D4881600021C1604FF4A0
:104CB00080610161002141618161C16101624162E4
:104CC000FEF7E2FC08B1FDF77CFB00BF43486063E0
:104CD000846300BF002205212520FEF757FF252011
:104CE000FEF740FFFDE0FFE73D49206888427CD1A8
:104CF00000BF002000902C48006840F400302A4992
:104D000008600846006800F40030009000BF00BF53
:104D100000BF0020009024481038006840F00100D7
:104D20002149103908600846006800F00100009031
:104D300000BF00BF0C2001900220029000200390D1
:104D4000032004900720059001A91848FEF712FDE2
:104D500017484830234908604FF000604860002140
:104D600020488160C1604FF4806101610021416190
:104D700081614FF48071C161002101624162FEF7DF
:104D800083FC08B1FDF71DFB00BF1648A0638463D8
:104D900000BF002205212620FEF7F8FE2620FEF7A0
:104DA000E1FE9EE0004C004040380240000002401E
:104DB00040600240880F0020E80F002000500040B3
:104DC00000080240000C024048100020A8100020FB
:104DD00000100140406402400811002068110020CA
:104DE00000440040C8110020FFE73F492068884286
:104DF00077D100BF002000903C48006840F480203C
:104E00003A4908600846006800F48020009000BF1E
:104E100000BF00BF0020009034481038006840F008
:104E200002003249103908600846006800F00200AC
:104E3000009000BF00BF4FF440600190022002903C
:104E400000200390032004900720059001A9284822
:104E5000FEF790FC2748284908604FF00060486042
:104E6000002125488160C1604FF48061016100210B
:104E7000416181614FF48071C16100210162416231
:104E8000FEF702FC08B1FDF79CFA00BF1A48A063C8
:104E9000846300BF17483030184908604FF0006045
:104EA00048604021154881600021C1604FF4806155
:104EB0000161002141618161C16101624162FEF7CE
:104EC000E3FB08B1FDF77DFA00BF0C486063846323
:104ED00000BF002205212720FEF758FE2720FEF7FD
:104EE00041FE06B010BD00000048004040380240BE
:104EF000000402402860024028120020881200208E
:104F00007047704700BFFEE710B500200F490860EA
:104F10000F48006820F040400D49086008460068CE
:104F200040F08040086000200A49C1F8BC0202201D
:104F300003F08BF8012005490860022003F085F892
:104F400000200449C1F8B40210BD0000B482404200
:104F5000000402400080404210B500200F49086064
:104F60000F48006820F040400D490860084600687E
:104F700040F08040086001200A49C1F8BC020220CC
:104F800003F063F8012005490860022003F05DF892
:104F900000200449C1F8B40210BD0000B4824042B0
:104FA000000402400080404270B5054600241648C7
:104FB000006820F040401449086008460068086016
:104FC000002616E0002011490860022003F03DF899
:104FD00001200F49C1F8B4026006040E0B4878386E
:104FE000006808B1601CC4B2012003F02EF8701CE8
:104FF000C6B2082EE6DB15B9FFF7AEFF01E0FFF7FA
:1050000083FF204670BD000000040240B48240428D
:105010000080404270B504461548006820F04040CA
:10502000134908600846006840F08040086000208E
:1050300010490860002517E0E0090E4908310860B2
:105040006006040E022003F000F801200A49C1F8AE
:10505000B402022002F0F9FF002006490860022095
:1050600002F0F3FF681CC5B2082DE5DB70BD00003F
:1050700000040240B48240420080404210B50F4814
:10508000006820F040400D4908600846006840F084
:105090008040086001200A4908600A49C1F8B4024A
:1050A000042002F0D2FF002005490860042002F02D
:1050B000CCFF00200349C1F8B40210BD0004024037
:1050C000BC8240420080404210B50F48006820F08A
:1050D00040400D4908600846006840F08040086084
:1050E00000200A4908600A49C1F8BC02042002F005
:1050F000ACFF0120054908600549C1F8BC02042045
:1051000002F0A3FF10BD000000040240B482404240
:105110000080404210B500241348006820F0404051
:105120001149086008460068086001200F490860BE
:1051300002F08BFF01200E49C1F8B40202F085FF96
:1051400007E0601CC4B2FA2C03DDFFF7BDFF0120AD
:1051500010BD0648803800680028F2D1034908399C
:10516000086000BFF4E7000000040240BC82404237
:105170000080404210B50A480088401C80B20849AF
:1051800008804EF66021884202D100200449088040
:10519000FCF73EFAFDF7B0F900F074FC10BD00001A
:1051A0000000002070B50446FFF768FF1149097838
:1051B000002242EA4101C8B2FFF72CFFFFF7AAFF25
:1051C0002046FFF727FFFFF7A5FFFFF757FF094925
:1051D0000978012202EB4101C8B2FFF71BFFFFF77C
:1051E00099FF0020FFF7E0FE0546FFF76DFF284618
:1051F00070BD0000090800202DE9F04107460C466B
:105200001546FFF73BFF15490978002242EA4101A4
:10521000C8B2FFF7FFFEFFF77DFF3846FFF7FAFE43
:10522000FFF778FFFFF72AFF0C490978012202EB0C
:105230004101C8B2FFF7EEFEFFF76CFF002606E063
:105240000120FFF7B1FE2070641C701CC6B2AE4294
:10525000F6DBFFF739FFBDE8F08100000908002008
:1052600010B50F480F4908600320486000210D4821
:105270008160C1604FF4002101614FF44011416130
:10528000002101760121417681760021C1760177E6
:1052900001214177FDF7A1FE08B1FDF792F810BD9D
:1052A00000640040D80D002010B50F480F49086079
:1052B0000320486000210D488160C1604FF4002147
:1052C00001614FF4401141610021017601214176D5
:1052D00081760021C176017701214177FDF77DFEBE
:1052E00008B1FDF76EF810BD00680040000E002008
:1052F00008B500BF002000903248006840F400105C
:10530000304908600846006800F40010009000BFB3
:1053100000BF00BF002000900846006840F48000F5
:1053200008600846006800F48000009000BF00BFDD
:10533000002205210B20FEF729FC0B20FEF712FCB2
:10534000002205210C20FEF721FC0C20FEF70AFCB0
:10535000002205210D20FEF719FC0D20FEF702FCAE
:10536000002205210E20FEF711FC0E20FEF7FAFBAD
:10537000002205210F20FEF709FC0F20FEF7F2FBAB
:10538000002205211020FEF701FC1020FEF7EAFBA9
:10539000002205212F20FEF7F9FB2F20FEF7E2FB6C
:1053A000002205213A20FEF7F1FB3A20FEF7DAFB56
:1053B000002205214620FEF7E9FB4620FEF7D2FB3E
:1053C00008BD00003038024000B5B1B01C222A49A7
:1053D0002AA8FBF7DFF800212AA804F054FB27498C
:1053E00008601C2224491C3123A8FBF7D3F80021B4
:1053F00023A804F048FB224908601C221E493831CA
:105400001CA8FBF7C7F800211CA804F03CFB1D49B1
:1054100008601C221849543115A8FBF7BBF800217D
:1054200015A804F030FB184908601C22124970319D
:105430000EA8FBF7AFF800210EA804F024FB1349D7
:1054400008601C220C498C3107A8FBF7A3F8002147
:1054500007A804F018FB0E4908601C220649A83171
:105460006846FBF797F80021684604F00CFB0949F1
:10547000086031B000BD0000A80401081008002039
:1054800014080020180800201C0800202008002014
:10549000240800202808002000B587B0142102A8A5
:1054A000FBF7CCF800BF002001903B48006840F0BB
:1054B0000400394908600846006800F004000190C3
:1054C00000BF00BF00BF002001900846006840F008
:1054D000800008600846006800F08000019000BF6E
:1054E00000BF00BF002001900846006840F00100A6
:1054F00008600846006800F00100019000BF00BF8E
:1055000000BF002001900846006840F002000860DB
:105510000846006800F00200019000BF00BF00BF15
:10552000002001900846006840F008000860084626
:10553000006800F00800019000BF00BF01224FF496
:10554000D0411648FEF710FA01224FF420411448CA
:10555000FEF70AFA00224FF480611048FEF704FAC1
:105560004FF4D84002900120039000200490059051
:1055700002A90A48FEF7FEF84FF4204002900120ED
:105580000390002004900320059002A90448FEF730
:10559000F1F807B000BD00003038024000080240BA
:1055A0000004024010B50748074908600120486020
:1055B00040F6FF7104488160FEF7E2F908B1FCF79C
:1055C00000FF10BD00300040280E002010B50B4831
:1055D0000B4908604FF4E1304860002108488160C1
:1055E000C16001610C21416100218161C161FFF74E
:1055F000A3F908B1FCF7E5FE10BD0000004C004027
:10560000340E002010B50B480B4908604FF4E13010
:105610004860002108488160C16001610C2141613E
:1056200000218161C161FFF787F908B1FCF7C9FE6C
:1056300010BD000000500040780E002010B50B484F
:105640000B4908604FF4E130486000210848816050
:10565000C16001610C21416100218161C161FFF7DD
:105660006BF908B1FCF7ADFE10BD00000010014061
:10567000BC0E002010B50B480B4908600B48486071
:10568000002109488160C1604FF4806101610421FB
:10569000416100218161C161FFF74EF908B1FCF75A
:1056A00090FE10BD00440040000F0020A0860100C5
:1056B00010B50B480B4908604FF4E13048600021F9
:1056C00008488160C16001610C2141610021816154
:1056D000C161FFF731F908B1FCF773FE10BD00009E
:1056E00000480040440F002000BFFEE710B504460C
:1056F000206810B10CB1606810B90220607710BD4D
:105700009FED0C0A206880ED040A00202168C86023
:105710003320216808760020607701202077A06878
:1057200000F0DCF8A16801F15C0000F0D7F800BFE0
:10573000E5E7000000000000016811B108B1416810
:1057400011B90221417770479FED080A016881ED88
:10575000040A00210268D160332102681176002119
:1057600041770121017700BFEDE700000000000054
:1057700000BFFEE711B52DED020B83B004461CB946
:105780009FED550A06B010BD9FED530A8DED020A3C
:105790009FED510A8DED010A94ED150A84ED160A6C
:1057A00094ED140A84ED150A9DED040A84ED0A0AAD
:1057B0009DED030A84ED0B0A012304F1500203A9B5
:1057C00004A801F03FFC012304F1440204F1540158
:1057D000081F01F037FC012304F14802111D101FBE
:1057E00001F030FC94ED110A84ED130A012304F159
:1057F000380204F1440104F10C0001F014FC01230F
:1058000004F13C0204F1500104F1100001F00BFC22
:1058100094ED0F0AD4ED090AB4EEE00AF1EE10FAA5
:1058200004DD94ED090A84ED0F0A10E094ED0F0AEF
:10583000D4ED090AF1EE600AB4EEE00AF1EE10FAD6
:1058400005D294ED090AB1EE400A84ED0F0A012356
:1058500004F1400204F1480104F1140001F0E3FBFB
:10586000012302AA04F13C01081F01F0CDFB012332
:1058700001AA04F1400102A801F0C6FB012304F1D2
:105880003002114601A801F0BFFB94ED0C0AD4EDE3
:10589000080AB4EEE00AF1EE10FA04DD94ED080A0D
:1058A00084ED0C0A10E094ED0C0AD4ED080AF1EE38
:1058B000600AB4EEE00AF1EE10FA05D294ED080A9F
:1058C000B1EE400A84ED0C0A94ED0C0A84ED0D0A49
:1058D00094ED0C0A56E700000000000000B9704784
:1058E0009FED0E0A80ED130A80ED120A80ED110A79
:1058F0009FED0A0A80ED0C0A80ED100A80ED0F0A78
:1059000080ED0E0A80ED160A80ED150A80ED140A6E
:105910009FED020A80ED060A00BFE0E700000000EC
:1059200011B52DED020B81B0044614B99FED540A58
:105930001FBD9FED530A8DED000A94ED150A84ED0D
:10594000160A94ED140A84ED150A9DED020A84ED01
:105950000A0A9DED010A84ED0B0A012304F15002AD
:1059600001A902A801F06EFB012304F118021146FF
:1059700004F1500001F048FB94ED060AD4ED090A49
:10598000B4EEE00AF1EE10FA04DD94ED090A84EDBC
:10599000060A10E094ED060AD4ED090AF1EE600A59
:1059A000B4EEE00AF1EE10FA05D294ED090AB1EE78
:1059B000400A84ED060A012304F1380204F1500183
:1059C000204601F030FB012304F13C0204F11801F0
:1059D000201D01F028FB012304F1480204F15401C9
:1059E000081F01F02FFB012304F14C0204F15801C0
:1059F000081F01F027FB012304F14402111D081DBB
:105A000001F020FB012304F14002111D04F1080004
:105A100001F018FB01236A4604F13C01081F01F064
:105A2000F3FA012304F1300204F14001684601F069
:105A3000EBFA94ED0C0AD4ED080AB4EEE00AF1EEAC
:105A400010FA04DD94ED080A84ED0C0A10E094EDE0
:105A50000C0AD4ED080AF1EE600AB4EEE00AF1EEA9
:105A600010FA05D294ED080AB1EE400A84ED0C0A52
:105A700094ED0C0A84ED0D0A94ED0C0A58E7000031
:105A80000000000010B51648007E01281FD11548FF
:105A900000884FF47A7190FBF1F201FB120028B9F3
:105AA00000224FF400511048FDF75EFF0D480088BA
:105AB0004FF47A7190FBF1F201FB1200B0F5FA7F1E
:105AC0000DD1012251030848FDF74EFF07E00448BD
:105AD000007E20B9012251030348FDF745FF10BDA8
